:020000040800F2
:100000008807002005010008C33300082F2E0008D0
:10001000C1330008A10D0008393D000800000000B0
:10002000000000000000000000000000A1370008F0
:10003000E10E000800000000993500081D38000896
:100040001F0100081F0100081F0100081F01000810
:100050001F0100081F0100081F0100081F01000800
:100060001F0100081F0100081F0100085D0E0008A5
:100070001F0100081F0100081F0100081F010008E0
:100080001F0100081F010008ED0A00081F010008F9
:100090001F0100081F0100081F0100081F010008C0
:1000A0001F0100081F0100081F0100081F010008B0
:1000B0001F0100081F0100081F0100081F010008A0
:1000C0001F0100081F0100081F0100081F01000890
:1000D0001F0100081F0100082D3D00081F01000836
:1000E0001F0100081F0100081F010008DFF810D0E1
:1000F00000F098FC0048004749580008AFF3008022
:10010000880700200648804706480047FEE7FEE7CC
:10011000FEE7FEE7FEE7FEE7FEE7FEE7FEE7FEE7B7
:100120009B380008ED0000082DE9F0410024061B73
:10013000254671F1000605DA01240027D0EB0700FF
:1001400067EB0101161E73F1000605DA0027D2EBFA
:100150000702012567EB030300F066FB86460E46A7
:1001600017469C46AC4204D00025D0EB050E65EB4B
:10017000010624B10020D2EB000760EB030C7046AF
:1001800031463A466346BDE8F081202A04DB203A36
:1001900021FA02F00021704721FA02F3D040C2F1A7
:1001A00020029140084319467047D2B201E000F89E
:1001B000012B491EFBD270470022F6E710B513460B
:1001C0000A4604461946FFF7F0FF204610BD30B539
:1001D00004460020034600E05B1C934203D2E05C2F
:1001E000CD5C401BF8D030BDF0B480EA0102D40FE2
:1001F0004200B2EB410F02D20246084611464A00C5
:1002000042D0C30DDDB2C1F3C752AD1A202D35DA8D
:10021000C1F3160141F4000204B15242C5F12006B7
:1002200002FA06F12A411044B3EBD05F23D0C4B1E7
:10023000012DA0EBC35009DCF0BC4FF0004202EAF4
:10024000C352DBB200F5000000F049BB400000F1F2
:10025000807000EBC350A0F1807040EAD17049007B
:1002600009E0490841EAC071A0EBC35000F5000065
:10027000400800EBC350F0BC00F028BB61420122F3
:1002800002EB4101001BF6E7F0BC704781F0004132
:10029000AAE780F00040A7E780EA010210B502F06B
:1002A0000043400022D04A001FD0010E01EB126132
:1002B000C0F35600C2F3560240F4000042F40002BC
:1002C000A0FB022000047F39140400D0401C50EA37
:1002D000124001D44000491EC2B20C0604EBD010FB
:1002E000401C4008802A02D003E0002010BD20F00E
:1002F0000100002900DA0020184310BD30B480EA64
:10030000010202F0004530F0004221F0004013D01D
:1003100090B1C30DD40DC2F31601C0F31600E41A58
:1003200041F4000140F400027D34914201D3641C89
:1003300000E04900002C02DA30BC002070474FF486
:1003400000000023914201D3891A034340084FEA79
:100350004101F7D151B1914202D14FF0004105E086
:1003600002D24FF0010101E06FF0010103EBC45034
:10037000284430BC00F0AABA420005D0C0F3C752EE
:100380005242914201DC0020704700EBC15070479F
:100390002DE9FE4F804681EA0300C00F0C46009015
:1003A00021F0004123F00045B8EB0200A94105D23D
:1003B0004046214690461C460B46024623F000402C
:1003C000104347D0270DC7F30A00C3F30A51029028
:1003D000401A019040286BDAC3F3130040F4801BED
:1003E0000098924620B10023D2EB030A63EB0B0B7B
:1003F00001985946C0F14002504600F046FA0646C0
:100400000D4650465946019A00F04EFA10EB08008E
:100410006141002487EA115284EAE7731A4340D00D
:10042000009A62B3019A012A4FEA075215DC001BB9
:1004300061EB02014FF0004202EA0752CDE90042AF
:10044000001C41F5801132462B4600F085FA03B0BE
:10045000BDE8F08F40462146F9E7001B61EB020141
:10046000001C41F5801300185B412018A2F500170D
:1004700047EB030140EAD570B6196D4111E06D08F4
:100480004FEA360645EAC0754FEA0752001B61EB9A
:100490000201001C41F5801149084FEA30000019A3
:1004A000514132462B4603B0BDE8F04F00F045BA4B
:1004B0000098012240000023D0EB020263EBE073BE
:1004C000009821464FEAE074B8EB000061EB0401AC
:1004D000E9E783F000435BE781F0004158E72DE94D
:1004E000FE4F81EA030404F0004421F0004100942F
:1004F0004FF0000B23F0004350EA01045ED052EAB3
:1005000003045BD0C3F30A54C1F30A552C44A4F28C
:10051000F3340194A0FB0254C1F3130141F48011A0
:10052000C3F3130343F4801301FB024400FB034EA7
:10053000840A970A44EA815447EA8357A4FB076870
:1005400002958D0A05FB07854FEA932C04FB0C549A
:100550002705029D4FEA065847EA1637B5EB08050E
:100560006EEB070C870E920E47EA811742EA831260
:10057000A7FB0201B6EB0B0164EB00042B0D43EA71
:100580000C335E1844EB1C50DA465146E7FB02017F
:10059000C5F313044FEA0B3343EA14534FEA043212
:1005A000019C43EA0603A4F10C040294009CCDE9EB
:1005B00000B400F0D1F903B0BDE8F08F002001468F
:1005C000F9E72DE9F04D81EA030404F0004B21F036
:1005D000004514464FF0000A23F0004150EA05029E
:1005E00020D054EA01021DD0C5F30A570246C5F3D4
:1005F0001303C1F31300C1F30A5640F4801543F40A
:100600008013A7EB0608101BD64608F2FD3873EBE3
:10061000050002D308F1010801E092185B41B8F12E
:10062000000F03DA00200146BDE8F08D00204FF4F2
:100630008011064684460EE0171B73EB050705D3B1
:10064000121B63EB050306434CEA010C49084FEA11
:10065000300092185B4150EA0107EDD152EA0300E5
:1006600012D082EA040083EA0501084305D0101B7A
:10067000AB4106D20122002306E000224FF00043E6
:1006800002E06FF0010253101AEB06004CEB085128
:1006900010EB0A0041EB0B01BDE8F04D00F04DB945
:1006A000C10F80EAE0700844CA079623002100F0D9
:1006B00016B996230022114600F011B900F000424D
:1006C00020F00040C10DC0F3160040F400007F2967
:1006D00001DA00207047962903DCC1F19601C84079
:1006E00001E096398840002AF4D04042704720F05B
:1006F0000040C10DC0F3160040F400007F2901DA6C
:1007000000207047962903DCC1F19601C84070476C
:1007100096398840704700F0004230F000400AD01F
:10072000C10D01F56071C0F3160042EA0151C20823
:1007300040071143704700200146704730B5041E42
:1007400071F1000404DB4FF00044404264EB01010E
:10075000141E73F1000405DB1C464FF000435242A7
:1007600063EB04038B4208BF824230BD30B5041EE8
:1007700071F1000404DB4FF00044404264EB0101DE
:10078000141E73F1000405DB1C464FF00043524277
:1007900063EB0403994208BF904230BD01F000436F
:1007A00030B421F0004150EA010206D00A0DA2F552
:1007B0006072C1F31301002A02DC30BC00207047D4
:1007C000440F44EAC104C100E01830BC00EBC25041
:1007D00000F07CB8002801DBC0F10040002901DBFB
:1007E000C1F1004181427047002801DBC0F10040A7
:1007F000002901DBC1F100418842704730B50B464A
:10080000014600202022012409E021FA02F59D4240
:1008100005D303FA02F5491B04FA02F52844151E14
:10082000A2F10102F1DC30BD2DE9F05F05460020A8
:1008300092469B4688460646814640241BE0284651
:10084000414647462246FFF7A0FC53465A46C01A87
:10085000914110D311461846224600F016F82D1A81
:1008600067EB01084F4622460120002100F00DF8F9
:1008700017EB00094E41201EA4F10104DFDC4846BD
:1008800031462A464346BDE8F09F202A04DB203A41
:1008900000FA02F1002070479140C2F1200320FAD3
:1008A00003F3194390407047202A06DBCB17203A08
:1008B00041FA02F043EAE07306E041FA02F3D04065
:1008C000C2F1200291400843194670470029A8BF91
:1008D0007047401C490008BF20F00100704710B469
:1008E000B0FA80FC00FA0CF050EA010404BF10BC1E
:1008F000704749B1CCF1200421FA04F411FA0CF14B
:1009000018BF012121430843A3EB0C01CB1D4FEA83
:1009100000614FEA102042BF002010BC704700EB7E
:10092000C35010440029A4BF10BC7047401C4900AC
:1009300008BF20F0010010BC704710B5141E73F101
:10094000000408DA401C41F1000192185B411A438F
:1009500001D120F0010010BD2DE9F04D92469B46DB
:1009600011B1B1FA81F202E0B0FA80F22032904681
:10097000FFF78BFF04460F4640EA0A0041EA0B01ED
:1009800053465A46084313D0114653EA010019D082
:10099000C8F140025046FFF7F8FB05460E465046A8
:1009A00059464246FFF771FF084305D0012004E095
:1009B00020463946BDE8F08D0020054346EAE07642
:1009C0002C4337430A986305E40AA0EB0800002291
:1009D000FD0A44EA47540A3002D500200146E9E7FF
:1009E000010510196941DDE9084500196941BDE8B3
:1009F000F04DA2E770B521F0004303430CD0C1F3E2
:100A00000A550024D5EB040564EB0403D617AD1A90
:100A1000B34102DB0020014670BD201841EB0251BA
:100A200070BD0000064C074D06E0E06840F0010391
:100A300094E8070098471034AC42F6D3FFF75AFB0E
:100A400018750008387500082DE9F04D00231A4686
:100A50001B1A8A4103DB00200146BDE8F08DC1F37B
:100A60000A52C1F3130141F480154FF0000BD10776
:100A700002D100186D41521E0027044640F2FF11BA
:100A8000384601EB620A3E468046024600204FF49B
:100A90008011FFF77AFBC2197141BB1846EB0100C8
:100AA000B4EB030C75EB000C04D3E41A65EB000502
:100AB00017460E46241908F101006D41804634287E
:100AC000E3DDF91946EB0600091BA84103D24FF0FC
:100AD000FF32134601E0002213461BEB070046EBF2
:100AE0000A51BDE8F04DFFF728BF0000014800F0B3
:100AF00078BC0000CC00002070B5044620688168F6
:100B0000C943C90716D1816821F00101816001F054
:100B1000EDF8054609E001F0E9F8401B022804D988
:100B200020688068C043C00706D020688068C04342
:100B3000C007F0D0002070BDA06A40F01000A06295
:100B4000E06A40F00100E062012070BD10B501468E
:100B5000486A826A12F0500F05D0006A026BBDE845
:100B6000104008461047816A41F4007181620168B3
:100B70008968C1F3424107290CD1017B51B9816ACF
:100B800021F480718162816AC90403D4816A41F0D1
:100B90000101816200F022FC10BD10B5406A816A3B
:100BA00041F040018162C16A41F00401C16200F07C
:100BB00017FC10BD10B5406A00F011FC10BD00001C
:100BC000F8B504460026009620688168C943C90725
:100BD0002FD0816841F001018160174817490068F2
:100BE000B0FBF1F0009002E00098401E00900098E9
:100BF0000028F9D101F07AF8054615E001F076F801
:100C0000401B022810D920688068C043C0070BD061
:100C1000A06A40F01000A062E06A40F00100E062CB
:100C200084F824600120F8BD20688068C043C007B4
:100C3000E4D10020F8BD00000C00002040420F006D
:100C400010B504460121607800F056F894F84C0085
:100C5000BDE8104000F08AB810B504460021607865
:100C600000F04AF894F84C00BDE8104000F088B855
:100C700070B5054608461849FFF740FB044628466C
:100C8000FFF7DEFF1548844207DA1548844204D88E
:100C90002846BDE87040FFF7DFBF4FF07E5014F1EB
:100CA000FF4F09D301462046FFF79EFA04462878F5
:100CB000012100F021F807E02146FFF7E7FA04469A
:100CC0002878002100F018F895F84C002146BDE87E
:100CD000704000F01DB8000000007A44CDCC4C3DBF
:100CE000CDCC4CBD034A02EBC00152F830008988DC
:100CF00000F0EEBF300000200A46044B03EBC001B9
:100D000053F83000898800F0EABF0000300000206E
:100D10002DE9F04106460C464FF07E50844200DD3E
:100D2000044614F1FF4F00D300240F4F57F836004C
:100D30000568E86AFFF7BDFC2146FFF7ADFAFFF74B
:100D4000D6FC81B207EBC600808830B1042806D0FB
:100D5000082806D02964BDE8F0816963FBE7A96330
:100D6000F9E7E963F7E7000010000020034A02EB0F
:100D7000C00152F83000898801F01CBE100000202C
:100D8000034A02EBC00152F83000898801F068BEC6
:100D9000100000200522014902F02AB8600000205E
:100DA000FEE700002DE9F0410025294C20780128BC
:100DB0000ED02848FFF744FF2078002703264FF085
:100DC000040805283ED2DFE800F0070F15203400A4
:100DD0002048FFF741FFEFE71F4D0020FFF782FF9C
:100DE00030BB012020702DE002F0DCFC022829D16C
:100DF000207027E002F0D6FC00B9267002F0D2FC89
:100E000001281FD184F800801CE0124800227030B5
:100E10004168203002F0D6FA054602F0C3FC0128F2
:100E200001D184F8008002F0BDFC03280AD12770AC
:100E300008E002F0B7FC00B9267002F0B3FC03280A
:100E400000D127702946BDE8F0410248FFF710BFE6
:100E5000BA0000207002002000004844014800F061
:100E60000DBD00001C02002030B590F84050012458
:100E7000AC40C56B6C60046863604368102B04D0A1
:100E8000036899600068C26030BD03689A600068BA
:100E9000C16030BD10B505F083FB04F0E7FD78209C
:100EA00005F026FB782004F0EDFCC82005F0DEFA02
:100EB00003F09EFD094804F091FC03F0A7FF40F207
:100EC000731003F055FCC82003F0E4FE05F0A9FB05
:100ED000BDE81040012005F0E1B90000B00000209D
:100EE0007047000010B50A480078FFF7D3FF0848A4
:100EF00020300078FFF7CEFF0220FFF737FF0320F6
:100F0000FFF734FFBDE810400248FFF743BF000081
:100F1000C0020020D401002072B6FEE72DE9F047A0
:100F20000646B76BF16C3846FFF7B6F9B0F5000F1F
:100F30004ADB706AFFF7EFFB04460D463846FFF7C1
:100F4000EAFB21F0004122462B46FFF7F7FB3BD995
:100F5000D6E90801FFF748F9FFF7DDFB04460D4627
:100F6000B06BFFF7D8FB21F0004122462B46FFF77C
:100F7000E5FB2BD8306AFFF7CEFB814604468A4654
:100F80000D46706AFFF7C7FB07468846B06BFFF750
:100F9000C2FB21F00043024648465146FFF799FA4A
:100FA0003A464346FFF7F4F922462B46FFF709FB82
:100FB00004460D46B06DFFF7AEFB22462B46FFF709
:100FC0008EFAFFF7EBFBB065BDE8F0870020B06557
:100FD000FAE72DE9F0410446266FE56A31462846D6
:100FE000FFF702F907462946606EFFF755F93946C3
:100FF000FFF784F905463146206DFFF74DF9394674
:10100000FFF77CF92946FFF7EFF82065BDE8F0818E
:1010100010B50446D4E90C10FFF738F9A168FFF7C2
:101020003BF9216FFFF76AF9206510BD2DE9F04704
:1010300004460027E56CA16D2846FFF7D5F88046E9
:101040002946A06CFFF7D0F8216DFFF7CDF8814657
:101050002069FFF760FB05460E464846FFF75BFB3D
:1010600021F000412A463346FFF780FB07D2E16CAE
:10107000A06BFFF711F9B0F5000F00DBA765404644
:10108000E169FFF7B1FB02D2A765E069E064E069BE
:10109000414680F00040FFF7A7FB04D2A765E06956
:1010A00080F00040E064BDE8F0872DE9F04104469F
:1010B000266FA56A31462846FFF796F80746294667
:1010C000206EFFF7E9F83946FFF718F90546314673
:1010D000E06DFFF7E1F83946FFF710F92946FFF711
:1010E00083F8E065BDE8F08110B504462169E06D44
:1010F000FFF77AFB01D22069E0652069E16D80F09D
:101100000040FFF771FB03D2206980F00040E065EA
:1011100010BD000070B5044619492069FFF7BCF8FE
:101120000146E06D20F00040FFF754FB26D3A06E8F
:10113000144920F000458D4220DB216BFFF7A6F813
:1011400020F000402946FFF7D9F80F49884207DD13
:10115000D4E91E01401C41F10001C4E91E0102E076
:101160000021A167E167D4E91E124FF4FA73002051
:10117000591A904102D2012084F8800070BD00000D
:101180006F12833A17B7D1383333733F10B5044623
:10119000D4E90E01FFF728F84FF0FF31FFF7ECF824
:1011A0006168FFF779F8216FFFF776F8A06510BD49
:1011B00010B5074802F004FA0548203002F000FAA2
:1011C000BDE8104004220349034800F057BA00006C
:1011D000C0020020BC000020CC000020F8B504466E
:1011E0000026009694F8240001280CD0012084F8F1
:1011F00024002046FFF780FC2046FFF7E1FC07466D
:10120000380002D05DE00220F8BDA06A20F48850CA
:1012100040F00200A062022000F008FE2B4909689D
:10122000B1FBF0F04000009002E00098401E0090FA
:1012300000980028F9D12068816841F00801816098
:1012400000F054FD054612E000F050FD401B0A2856
:101250000DD920688068000709D5A06A20F0020037
:1012600040F01000A06284F824600120F8BD2068DE
:1012700080680007E8D42068816841F0040181603B
:1012800000F034FD054612E000F030FD401B0A2856
:101290000DD920688068400709D5A06A20F00200B7
:1012A00040F01000A06284F824600120F8BD20689E
:1012B00080684007E8D4A06A20F0020040F00100F6
:1012C000A06284F824603846F8BD00000C000020BD
:1012D00070470000F8B500230025009590F8242001
:1012E000012A12D0012280F824204A681F26072AEA
:1012F0000DD20468676B521E02EB82029640B74320
:101300000E689640374367631AE00220F8BD0D2A45
:101310000BD20468276BD21F02EB82029640B743C0
:101320000E689640374327630AE00468E76A0D3A7F
:1013300002EB82029640B7430E6896403743E7625D
:101340000A6807260A2A0BD30468E7680A3A02EB00
:1013500042029640B7438E6896403743E76009E003
:101360000468276902EB42029640B7438E689640B4
:10137000374327610A68102A01D0112A23D1144C5F
:101380000268A2421AD1946824021CD4946844F4DE
:10139000000494600968102915D10E490E4A0968A5
:1013A000B1FBF2F101EB81014900009102E00099EB
:1013B000491E009100990029F9D104E0816A41F0A9
:1013C00020018162012380F824501846F8BD0000F6
:1013D000002401400C00002040420F00704770477D
:1013E000704770B50446206805684668B10625D583
:1013F000A90723D5A16AC90603D4A16A41F40071E3
:10140000A1628168C1F34241072910D1217B71B9E2
:10141000416821F020014160A06A20F48070A06240
:10142000A06AC00403D4A06A40F00100A062204674
:10143000FFF7D4FF21686FF01200086030062ED548
:1014400068072CD5A06AC00603D4A06A40F40050F7
:10145000A06220688168C1F30231072909D0416880
:10146000490515D48168C1F34241072910D1217B78
:1014700071B9416821F080014160A06A20F4805078
:10148000A062A06AC00503D4A06A40F00100A06277
:101490002046FFF71DFF21686FF00C000860700602
:1014A0000CD5E8070AD0A06A40F48030A06220463C
:1014B00000F092F821686FF00100086070BD000034
:1014C0002DE9F041044600270025002C03D0A06A36
:1014D000002618B108E00120BDE8F081E66284F83A
:1014E0002460204600F07AF82046FFF705FBA16A49
:1014F000C90600D428B1A06A40F01000A062012003
:10150000EAE7A16A21F4885141F00201A162626810
:10151000E169237B0A4347EA43010A43A1684FF488
:101520008077B94208D0012906D0002194F814C070
:10153000BCF1010F02D00AE03946F7E7F3B1A36A24
:1015400043F02003A362E36A43F00103E3622368EC
:10155000D3F804C02CF4694C4CEA010CC3F804C065
:1015600021688B68DFF868C003EA0C0313438B60C3
:10157000A168B94209D0012907D009E0A3695B1E1F
:1015800041EA433141F40061E1E7218A491E0D053A
:101590002168CB6A23F470032B43CB6221688968EE
:1015A0000C4B1940914207D1E662A16A21F0020179
:1015B00041F00101A1628FE7A06A20F0020040F033
:1015C0001000A062E06A40F00100E062012083E7C1
:1015D000FDF7E1FFFE0E1FFF7047000070B586B0FB
:1015E0000646002402940394049405941E4930682E
:1015F000884236D11D49886940F400708861886945
:1016000000F400700190886940F0040088618869E6
:1016100000F004000190332002900320039002A9FF
:10162000134800F05DFA144D124828606C60AC60FD
:101630008020E86040002861800068612020A86167
:10164000EC61284600F0CEF908B1FFF765FC356281
:101650006E6200220121122000F0B6FB122000F081
:10166000A5FB06B070BD0000002401400010024040
:1016700000080140080002401C0200202DE9F0474C
:10168000044689469246DFF8008120683F4F08F102
:101690000406404501D0B84207D1306810F4702FDD
:1016A00003D001252846BDE8F08794F824000128DE
:1016B0000BD0012084F824002046FFF781FA05466C
:1016C000002125B184F82410ECE70220EBE7A06AA2
:1016D00040F60162904340F48070A0622068B842F6
:1016E00018D1326812F4702F14D0A26A42F480121A
:1016F000A2623068400505D5A06A20F4005040F48D
:101700008050A062A06AC00412D5E06A20F00600F2
:10171000E0620EE0A26A22F48012A26240684005F4
:10172000F0D5A06A20F4005040F48050A062E9E7B0
:10173000E16284F82410216A15488862216A1548FC
:10174000C862216A1448086321686FF002000860CB
:101750002068816841F480718160216853464C3172
:101760004A46206A00F070F920688168C1F342415E
:10177000072904D0816841F48011816092E7816873
:1017800041F4A00181608DE7002401400028014060
:101790004D0B0008B50B00089B0B000810B590F826
:1017A00021100022022905D00421816380F8202025
:1017B000012010BD01680B6823F00E030B60016867
:1017C0000B6823F001030B6090F84030C46B0121DB
:1017D00001FA03F3636080F8211080F8202010469E
:1017E00010BD000010B5002490F82110022903D08C
:1017F0000421816301243DE001680A6822F00E02A1
:101800000A6001680A6822F001020A601A4A016847
:10181000914201D1012121E0174A1432914201D1B4
:1018200010211BE0144A2832914201D1891515E09C
:10183000114A3C32914201D189140FE00E4A5032D4
:10184000914202D14FF4803108E00B4A6432914258
:1018500002D14FF4801101E04FF08071064A083A3E
:101860005160012180F82110002180F82010416B87
:1018700001B18847204610BD080002402DE9F05F05
:10188000C16B0A6801680B68046C4FF0040A0AFA1D
:1018900004FA4E4D4E4E4F4FDFF83CC1DFF83C810D
:1018A000DFF83C911AEA020F31D05FEA437A2ED575
:1018B0000A68920603D40A6822F004020A600168EA
:1018C000A94201D1042119E0B14201D1402115E022
:1018D000B94202D14FF4806110E0614502D14FF46A
:1018E00080410BE0414502D14FF4802106E049459B
:1018F00002D14FF4800101E04FF08061334A083A91
:101900005160C16A00295FD0BDE8F05F08474FF021
:10191000020E0EFA04FE1EEA020F4FF0000A4FF00C
:10192000010B35D05FEA837E32D50A68920605D472
:101930000A6822F00A020A6080F821B00168A94210
:1019400001D1022119E0B14201D1202115E0B942B3
:1019500002D14FF4007110E0614502D14FF4005103
:101960000BE0414502D14FF4003106E0494502D178
:101970004FF4001101E04FF00071144A083A516031
:1019800080F820A0816A00291ED0BDE8F05F0847DA
:101990000825A540154217D01A0715D50A6822F068
:1019A0000E020A6090F84010C26B0BFA01F1516010
:1019B000C0F838B080F821B080F820A0016B002971
:1019C00002D0BDE8F05F0847BDE8F09F0800024084
:1019D0001C00024030000240440002405800024017
:1019E0006C00024030B5002827D0001D144A50F882
:1019F000041C14230A44B2FBF3F29200C263114A9E
:101A00008263022242770A6843F6F0739A43D0E970
:101A100000342343D0E902452C4323430469234384
:101A2000446923438469234313430B6000214163CA
:101A3000012242770177002030BD012030BD000037
:101A4000F8FFFDBF0000024070B50446002594F881
:101A5000200001280CD0012084F8200094F8216097
:101A60000020012E06D084F820000225284670BDF3
:101A7000022070BD022684F82160A06320680668F9
:101A800026F0010606602046FFF7EEF9E06A28B16D
:101A90002068016841F00E01016009E020680168DA
:101AA00021F0040101602068016841F00A01016031
:101AB0002068016841F001010160D7E770B5044674
:101AC00000F014F90546601C02D004480078044474
:101AD00000F00CF9401BA042FAD370BD00000020BA
:101AE0002DE9F84F00240023DFF8C4914FF00F08D0
:101AF000A9F1040B09F1040AABF1040ED1E00127AE
:101B0000A7403A40BA4275D1DFF8A8C14D68A5EBAD
:101B10000C0665452BD00DDC032D34D005DC35B328
:101B2000012D19D0022D2FD11BE0112D16D0122D11
:101B30002AD119E0B6F5881F19D006DCB6F5803F2A
:101B400015D0B6F5801F1FD111E0B6F5001F0ED0DD
:101B5000B6F5041F18D10AE0CB6815E0CB681B1D51
:101B600012E0CB6808330FE0CB680C330CE08B68D5
:101B700023B1012B04D00823476105E0042303E0CF
:101B80000823076100E00023FF2A01D8054601E091
:101B900000F1040502D84FEA840603E0A4F1080628
:101BA0004FEA86062F6808FA06FC27EA0C0703FAB4
:101BB00006F647EA06072F604D68ED0070D53E4DEA
:101BC000AE6946F00106AE61AD6905F0010500950C
:101BD0003A4D24F003067719BE68A5072D0F08FAC1
:101BE00005FC26EA0C06DFF8D8C0604503D14FF0AB
:101BF000000C17E054E0DFF8CCC0604502D14FF094
:101C0000010C0FE0DFF8C0C0604502D14FF0020CBC
:101C100008E0DFF8B8C0604502D14FF0030C01E0E6
:101C20004FF0040C0CFA05FC4CEA060CC7F808C08F
:101C30004D68ED0205D5D9F800501543C9F800509C
:101C400004E0D9F800509543C9F800504D68AD0242
:101C500005D5DAF800501543CAF8005004E0DAF868
:101C600000509543CAF800504D68AD0305D5DBF828
:101C700000501543CBF8005004E0DBF800509543CA
:101C8000CBF800504D68ED0305D5DEF80050154344
:101C9000CEF8005004E0DEF800509543CEF8005036
:101CA000641C0A6832FA04F57FF429AFBDE8F88FA6
:101CB0000804014000001110001002400000014023
:101CC00000080140000C01400010014000140140D8
:101CD0008068084201D00120704700207047002A28
:101CE00001D00161704709040161704701488068B3
:101CF000704700000000002002488168027811440B
:101D0000816070470000002010B50748016841F06D
:101D100010010160032000F077F80F2000F006F8B2
:101D200000F026F8002010BD0020024070B50446E7
:101D30000D4D4FF47A712878B1FBF0F00B4909682A
:101D4000B1FBF0F000F004FC08B1012070BD102CD4
:101D500007D200222146501E00F036F86C600020A9
:101D600070BD012070BD0000000000200C000020AC
:101D700008B50C48816941F001018161816901F078
:101D800001010091C16941F08051C161C06900F059
:101D9000805000900449486820F0E06040F00070F6
:101DA000486008BD0010024000000140002809DB27
:101DB00000F01F02012191404009800000F1E02065
:101DC000C0F8001170470000F0B40D460D4B1B68C1
:101DD000C3F30223C3F10704042C00D90424191D02
:101DE000072901D2002300E0DB1E012606FA04F1D8
:101DF000491E294099409E40761E16403143F0BC52
:101E000001F0C0BF0CED00E000F00701054A1068CA
:101E10004FF6FF03184040EA0120034908431060D1
:101E2000704700000CED00E00000FA0510B5014617
:101E30000020244C012922D0022939D010291DD19B
:101E400061682268D20119D51F48C1F38342805CC2
:101E5000C9030AD561681C4AC1F34041921E515C16
:101E60001A4AB2FBF1F1484301E01949484361685D
:101E7000490203D440000321B0FBF1F010BD226AF7
:101E8000C2F30121012903D1920701D5C80310BD76
:101E9000022905D1626A920702D549F6404010BD79
:101EA0000329FCD121688903F9D54FF2244010BDE4
:101EB00000F056F96168C1F38131491C4900B0FB5B
:101EC000F1F010BD001002407067000800127A00A7
:101ED00000093D002DE9F8430446DFF8F88020783A
:101EE000C0075FD00027D8F81C00C0000BD4D8F87A
:101EF0001C0040F08050C8F81C00D8F81C0000F00E
:101F0000805000900127344D2868C00512D42868FD
:101F100040F480702860FFF7E9FE064607E0FFF70F
:101F2000E5FE801B642802D90320BDE8F8832868F9
:101F3000C005F4D5D8F8200000F4407010B3A18893
:101F400001F4407181421DD0D8F8200020F4407087
:101F5000224901220A6000220A60C8F82000C00756
:101F600010D0FFF7C3FE054641F2883606E0FFF7C2
:101F7000BDFE401BB04201D90320D6E7D8F82000AF
:101F80008007F4D5D8F82000616820F44070084339
:101F9000C8F82000012F05D1D8F81C0020F080508F
:101FA000C8F81C002078800707D5D8F80400A1687D
:101FB00020F440400843C8F804002078C00607D544
:101FC000D8F80400E16820F480000843C8F8040051
:101FD0000020AAE700100240007000404004424286
:101FE0002DE9F04704460D46002C17D0DFF830816C
:101FF000D8F8000000F00700A84211D2D8F800007D
:1020000020F007002843C8F80000D8F8000000F0CE
:102010000700A84204D00120BDE8F0870120FBE7BB
:102020002068404E810712D5400703D5706840F400
:10203000E06070602078000703D5706840F460505D
:1020400070607068A16820F0F0000843706020782C
:10205000C0072CD06068012806D0022809D031685A
:1020600089070BD40120D7E73168890306D4012002
:10207000D2E73168890101D40120CDE7716821F0F0
:10208000030101437160FFF731FE074641F28839D1
:1020900006E0FFF72BFEC01B484501D90320BBE734
:1020A0007068616800F00C00B0EB810FF1D1D8F8D6
:1020B000000000F00700A8420ED9D8F8000020F078
:1020C00007002843C8F80000D8F8000000F0070017
:1020D000A84201D001209FE72078400705D570680D
:1020E000E16820F4E060084370602078000706D5BE
:1020F0007068216920F4605040EAC100706000F00F
:102100003FF87168084AC1F30311515CC8400749A0
:10211000086007480068FFF709FE00207CE7000020
:102120000020024000100240806700080C000020E0
:102130000400002001480068704700000C000020E7
:1021400000B5FFF7F7FF04494968044AC1F30221CB
:10215000515CC84000BD00000010024090670008BC
:1021600000B5FFF7E7FF04494968044AC1F3C221FB
:10217000515CC84000BD000000100240906700089C
:102180000E4B59680E4801F00C02042A11D0082A9F
:102190000FD10C48C1F38342805CC9030AD559684A
:1021A000084AC1F34041921E515C054A5043B0FBBE
:1021B000F1F07047044948437047000000100240A6
:1021C00000127A005E67000800093D002DE9F84F13
:1021D0000446002C0ED02078D94DC0075ED0686828
:1021E000C0F3810001280BD06868C0F38100022889
:1021F00003D00CE00120BDE8F88F6868C00306D565
:10220000286880034AD56068A8BB0120F3E76068AE
:10221000B0F5803F11D0A8B1B0F5A02F1BD0286831
:1022200020F480302860286820F4802028606068CE
:1022300030B3FFF75BFD06461EE0286840F48030AF
:102240002860F4E7286820F480302860286820F4AB
:1022500080202860EBE7286840F480202860286808
:1022600040F480302860E2E7FFF740FD801B6428DF
:1022700002D90320BFE711E028688003F4D50DE000
:10228000FFF734FD064606E0FFF730FD801B6428AB
:1022900001D90320AFE728688003F5D42078DFF860
:1022A000A48280074FF0010A4FF0000945D5686805
:1022B00010F00C0F07D06868C0F38100022812D11B
:1022C0006868C0030FD42868800704D520690128F6
:1022D00001D001208FE72868616920F0F80040EA0A
:1022E000C100286029E02069B8B1C8F800A0FFF754
:1022F000FDFC064606E0FFF7F9FC801B022801D929
:10230000032078E728688007F5D52868616920F000
:10231000F80040EAC10028600FE0C8F80090FFF71D
:10232000E5FC064606E0FFF7E1FC801B022801D928
:10233000032060E728688007F5D42078000726D5B9
:102340008148A16999B1C0F800A0FFF7CFFC06460B
:1023500006E0FFF7CBFC801B022801D903204AE7E7
:10236000686A8007F5D5012001F018F90FE0C0F880
:102370000090FFF7BBFC064606E0FFF7B7FC801BAA
:10238000022801D9032036E7686A8007F5D420784F
:10239000400773D50026E869C00008D4E86940F01A
:1023A0008050E861E86900F0805000900126DFF875
:1023B0009CB1DBF80000C00514D4DBF8000040F449
:1023C0008070CBF80000FFF791FC074606E0FFF7AE
:1023D0008DFCC01B642801D903200CE7DBF800004A
:1023E000C005F4D5E068012812D0B0B105281DD091
:1023F000286A20F001002862286A20F00400286280
:10240000E06841F2883B28B3FFF770FC07461DE007
:10241000286A40F001002862F2E7286A20F00100F3
:102420002862286A20F004002862E9E7286A40F060
:1024300004002862286A40F001002862E0E7FFF704
:1024400055FCC01B584501D90320D4E6286A8007F3
:10245000F5D50DE0FFF74AFC074606E0FFF746FC1E
:10246000C01B584501D90320C5E6286A8007F5D46A
:10247000012E03D1E86920F08050E861E069A0B343
:102480006968C1F38101022946D0022805D0C8F845
:102490006090FFF72BFC04463AE0C8F86090FFF725
:1024A00025FC064606E0FFF721FC801B022801D927
:1024B0000320A0E628688001F5D4206AB0F5803FAB
:1024C00005D16868A16820F4003008436860D4E949
:1024D00008010843696821F4741108436860C8F86A
:1024E00060A0FFF703FC044607E026E0FFF7FEFBD1
:1024F000001B022801D903207DE628688001F5D55C
:102500001BE0FFF7F3FB001B022801D9032072E652
:1025100028688001F5D410E001280CD06868226A90
:1025200000F48031914204D1616A00F47010884255
:1025300003D001205FE601205DE600205BE600009D
:1025400000100240000042428004424200700040FD
:1025500010B5401EB0F1807F01D3012010BD4FF0B7
:10256000E02460610F21601701F00CFC0020A061E5
:1025700007202061002010BD10B590F83C20012AF2
:1025800022D0012280F83C20CA6800238C6822F403
:10259000407222434C6822F4806222430C6822F489
:1025A000006222430C6922F4805222434C6922F4D7
:1025B00000522243C96922F480420A4301684A64F6
:1025C00080F83C30002010BD022010BD70B590F89E
:1025D0003C20012A25D0012680F83C60022280F8A8
:1025E0003D2002685468936824F070050C682C4301
:1025F00054600D4C0268A24208D0B2F1804F05D061
:102600000A4CA24202D00A4CA24204D123F0800319
:102610004968194391603C304670002101700020E8
:1026200070BD022070BD0000002C0140000400407D
:10263000000800402DE9F04104460D46002C03D06F
:1026400094F83D0018B108E00120BDE8F0810020B9
:1026500084F83C00204600F045F8022084F83D0054
:102660002068816844F2070291438160211D20683F
:1026700001F014F9273454F8270C82688169066A3E
:102680002B68134340F203329143AF69AA6841EAD1
:1026900007210A4340F60C418A434FF2F0018A4376
:1026A000EF69E96842EA072211432A692F6A120199
:1026B00042EA07320A4326F0220669686D6946EA53
:1026C00005152943836054F8270C826154F8270CC0
:1026D00001620120E077E0752076E0762077A07532
:1026E0000020B2E700B585B000210191029103916D
:1026F00004911B4B01681B48C022994216D1C16945
:1027000041F00201C161C16901F0020100918169DA
:1027100041F004018161806900F0040000900192A1
:1027200001A91148FFF7DCF905B000BD0F4B994234
:10273000FAD1C16941F00401C161C16901F004012C
:102740000091816941F008018161806900F0080011
:102750000090019201A90648FFF7C2F9E4E70000E2
:102760000004004000100240000801400008004042
:10277000000C014070B5044614F83E0F62782379CE
:1027800065793E3C0226002904D004290DD0012899
:102790001CD115E0012801D1012B01D0012070BD11
:1027A00084F83E6084F8426018E0012A01D1012DCE
:1027B00001D0012070BD84F83F6084F843600DE0D3
:1027C000012A03D1012B01D1012D01D0012070BDBF
:1027D00004F83E6F6670267166713E3C91B1042923
:1027E00016D001220021206801F094F80122042172
:1027F000206801F08FF82068016841F00101016054
:10280000002070BD01220021206801F083F8F2E76A
:1028100001220421206801F07DF8ECE700B585B0C5
:102820000021019102910391049100680B498842B3
:1028300012D10B48816941F004018161806900F087
:10284000040000904FF47060019002200290049008
:1028500001A90448FFF744F905B000BD002C014070
:10286000001002400008014070B504460D460026E5
:1028700094F83C0001280FD0012084F83C006AB194
:10288000042A1FD0082A32D00C2A44D00126002066
:1028900084F83C00304670BD022070BD2946206897
:1028A00001F046F82068816941F0080181612068E3
:1028B000816921F004018161206881692A691143DD
:1028C0008161E4E72946206801F062F820688169A7
:1028D00041F4006181612068816921F48061816136
:1028E000206881692A6941EA02218161CFE729468E
:1028F000206801F07FF82068C16941F00801C161DA
:102900002068C16921F00401C1612068C1692A6998
:102910001143C161BBE72946206801F09BF820689C
:10292000C16941F40061C1612068C16921F480611D
:10293000C1612068C1692A6941EA0221C161A6E733
:1029400010B50446002C03D094F83D0010B107E008
:10295000012010BD002084F83C00204600F016F84D
:10296000022084F83D00211D206800F097FF01201F
:102970003D3460726070A070E07020716071A07171
:10298000E07120722070002010BD000008B50068C2
:102990000649884208D10648816941F40061816195
:1029A000806900F40060009008BD0000002C014028
:1029B0000010024010B50446002909D004290AD0AD
:1029C00008290BD094F8410001280AD0012010BD3D
:1029D00094F83E00F8E794F83F00F5E794F84000DB
:1029E000F2E7022039B3042928D0082929D084F835
:1029F00041000122206800F08DFF164920688842BE
:102A000003D1426C42F4004242642068884208D0FC
:102A1000B0F1804F05D01049884202D00F4988425A
:102A200012D1816801F00701062911D0016841F037
:102A3000010101600CE084F83E00DAE784F83F0011
:102A4000D7E784F84000D4E7016841F00101016054
:102A5000002010BD002C0140000400400008004090
:102A600030B504460D4600222946206800F052FF8A
:102A7000174941F2111320689A10884209D1016A5E
:102A8000194206D1016A114203D1416C21F400417F
:102A900041642068016A194206D1016A114203D1DA
:102AA000016821F00101016001203DB1042D08D031
:102AB000082D09D084F84100002030BD84F83E0084
:102AC000FAE784F83F00F7E784F84000F4E70000F5
:102AD000002C014070477047F8B504462268106822
:102AE000D168536900F00F06002E08D1850606D57F
:102AF0008D0604D52046BDE8F84001F00BB800254E
:102B0000002E66D003F0010601F49077374360D0C1
:102B1000C20705D0CA0503D5626C42F001026264A7
:102B2000420705D5DA0703D0626C42F00202626404
:102B3000820705D5DA0703D0626C42F004026264B2
:102B4000020707D501F02002324303D0626C42F045
:102B500008026264626C002A31D0800604D58806BF
:102B600002D5204600F0D6FF20684069C0F38010EF
:102B7000616C090700D438B3204600F097FF206845
:102B8000406940061CD52068143050E8001F21F031
:102B9000400140E80012002AF5D1E06B60B15949CC
:102BA0004163E06BFEF71EFE002808D0E06B416B2E
:102BB00001B0BDE8F04008472046FFF78CFFF8BDA4
:102BC0002046FFF788FFF8BD2046FFF784FF6564C5
:102BD000F8BD236B012B7DD1C3067BD5CB067ED5FB
:102BE00010685068009050694FF0200340064FF085
:102BF000020643D5E16B0868406880B20028E7D040
:102C0000A28D8242E4D9E085886920282DD02068F1
:102C10000C3050E8001F21F4807140E80012002AB7
:102C2000F5D12068143050E8001F21F0010140E880
:102C30000012002AF5D12068143050E8001F21F05E
:102C4000400140E80012002AF5D184F842302563A3
:102C500020680C3050E8001F21F0100140E80012FD
:102C6000002AF5D1E06BFEF799FD6663A08DE18D3A
:102C7000401A81B22046FFF72DFFF8BDA08DE18DEF
:102C8000401A81B2E08D0028F7D00029F5D02068E5
:102C90000C3050E8002F22F4907240E80027002FFB
:102CA000F5D12068143050E8002F22F0010240E8EE
:102CB0000027002FF5D184F84230256320680C30BE
:102CC00050E8002F22F0100240E80023002BF5D13D
:102CD000666300E003E02046FFF7FCFEF8BD020655
:102CE00006D50A0604D52046BDE8F84000F0EEBF40
:102CF0004006F3D54806F1D52046BDE8F84000F07F
:102D0000FCBE00009D3A000870B50446002C04D0BB
:102D100094F84100002510B106E0012070BD84F850
:102D20004050204600F024F8242084F84100206818
:102D3000C16821F40051C160204600F04FFF2068B7
:102D4000016921F4904101612068416921F02A0163
:102D500041612068C16841F40051C1606564202070
:102D600084F8410084F842006563002070BD0000D3
:102D700030B585B000240194029403940494006853
:102D8000184988422BD11848C16941F40031C1610A
:102D9000C16901F400310091816941F00401816150
:102DA000806900F00400009004200190022002904D
:102DB000032004900D4D01A92846FEF791FE08213D
:102DC00001910294039401A92846FEF789FE00228E
:102DD00011462620FEF7F8FF2620FEF7E7FF05B094
:102DE00030BD0000004400400010024000080140D7
:102DF00090F84230202B01D00220704721B11AB147
:102E00000023036300F046BF0120704700680449B7
:102E1000884204D1052203490348FFF7E9BF704700
:102E20000044004060000020D40100207047FEE70D
:102E300070B50B4C002525600A48416821F07041AF
:102E40004160416841F0405141606560012001F0FE
:102E500047FC0120206001F043FC256070BD0000AC
:102E6000B80122420010014070B50B4C00252560CE
:102E70000A48416821F070414160416841F0405189
:102E8000416001266660012001F02AFC26600120D5
:102E900001F026FC256070BDB801224200100140FF
:102EA0002DE9F047814600241648416821F0704121
:102EB0004160416841F0004141600025124E002709
:102EC0004FF00108C6F8B871022001F009FCC6F8FD
:102ED000B8816006040ED6F83C0108B1641CE4B267
:102EE000022001F0FDFB6D1CEDB2082DEAD3B9F113
:102EF000000F02D0FFF79CFF01E0FFF7B5FF20466F
:102F0000BDE8F08700100140000022422DE9F041A9
:102F100005461448416821F070414160416841F024
:102F200040514160104E4FF00008C6F8B8810024AF
:102F30000127E809C6F8BC016806050E012001F06A
:102F4000CFFBC6F8B871012001F0CAFBC6F8B88102
:102F5000012001F0C5FB641CE4B2082CE9D3BDE8F4
:102F6000F0810000001001400000224270B51348BB
:102F7000416821F070414160416841F04051416039
:102F80000F4C0120C4F8BC01D4F83C1100290BD02F
:102F9000C4F8B80101F0A4FB0025C4F8BC51D4F872
:102FA0003C0118B1002070BD002070BD012001F06F
:102FB00097FBC4F8B851012070BD0000001001401B
:102FC0000000224210B50B48416821F07041416079
:102FD000416841F040514160074C00202060606032
:102FE000012001F07DFB012020606060BDE8104001
:102FF00001F076BB00100140B801224270B50024F8
:103000001448416821F070414160416841F000413D
:103010004160114D0126C5F8BC61012001F060FB43
:10302000C5F8B861012001F05BFB0AE0641CE4B262
:10303000322C03D9FFF7C6FF002070BD012001F03C
:103040004FFBD5F83C010028F0D1C5F8B8010120AC
:1030500070BD00000010014000002242FEB50024B7
:103060000094019402941F481D49016089158160F4
:10307000047304754FF46021C16144600425056147
:10308000FEF71EFA08B1FDF747FF009401260196EE
:10309000029469461348FEF71DF908B1FDF73CFF9D
:1030A00000960220019069460E48FEF713F908B118
:1030B000FDF732FF00950320019069460948FEF7AD
:1030C00009F908B1FDF728FF052000900195694630
:1030D0000448FEF7FFF8002801D0FDF71DFFFEBDF4
:1030E00000240140CC00002008B50948416941F0A6
:1030F00001014161406900F0010000900022114689
:103100000B20FEF761FEBDE808400B20FEF74EBE27
:10311000001002402DE9F04385B000240194029490
:10312000039404942E48816941F010018161816902
:1031300001F010010091816941F0200181618169F4
:1031400001F020010091816941F0040181618169F0
:1031500001F004010091816941F0080181618069F9
:1031600000F008000090DFF87C8000224FF46041FE
:103170004046FEF7B4FDDFF870904FF47047002230
:1031800039464846FEF7ABFD4FF40050019001254B
:10319000029503940226049601A94046FEF7A0FC7E
:1031A0004FF44040019011200290039503200490B9
:1031B00001A94046FEF794FC0197029503940496FA
:1031C00001A94846FEF78CFC4FF440700190029430
:1031D000039501A94846FEF783FC05B0BDE8F083DE
:1031E0000010024000100140000C014010B592B0E8
:1031F0000024109411941C2109A8FCF7DDFF202164
:1032000001A8FCF7D9FF2C482A49016047214160F9
:1032100084601321C160046144618461FFF790FB05
:1032200008B1FDF779FE1094119410A92248FFF718
:10323000CDF908B1FDF770FE602009900A940B9457
:103240000C940D940E940F94002209A91A48FFF7CC
:103250000BFB08B1FDF760FE042209A91648FFF731
:1032600003FB08B1FDF758FE082209A91248FFF731
:10327000FBFA08B1FDF750FE0C2209A90E48FFF732
:10328000F3FA08B1FDF748FE019402940394049404
:1032900005944FF400500690089401A90648FFF7E2
:1032A0006BF908B1FDF738FE0348FFF7B7FA12B023
:1032B00010BD0000002C0140FC00002010B58CB0B7
:1032C000242103A8FCF778FF0024019402941448F9
:1032D00012490160446084604EF66021C16004615F
:1032E0008461012003900494059006940794089447
:1032F00009900A940B9403A90948FFF79BF908B1B8
:10330000FDF70AFE0194029401A90548FFF75EF952
:10331000002801D0FDF700FE0CB010BD00040040F5
:103320004401002010B58CB0242103A8FCF744FF11
:10333000002401940294144812490160446084609E
:103340004EF66021C1600461846101200390049401
:10335000059006940794089409900A940B9403A985
:103360000948FFF767F908B1FDF7D6FD019402940B
:1033700001A90548FFF72AF9002801D0FDF7CCFD87
:103380000CB010BD000800408C01002010B50B48A7
:10339000094901604FF4E131416000218160C16061
:1033A00001610C2242618161C161FFF7ADFC00281F
:1033B00001D0FDF7B1FD10BD00440040D401002054
:1033C000FEE7FEE72DE9F04104460E461546207E55
:1033D000000602D52046FDF79DFE4FF07E50206787
:1033E0002663A56631462846FCF750FF0746A063D2
:1033F0006069FDF790F905460E463846FDF78BF9F2
:1034000021F000412A463346FDF7B0F97ED2258BE4
:10341000B5F5807F57D0A66B20683146FCF73CFF9E
:10342000A06431466068FCF737FF276F3946FCF728
:1034300033FFA0653046E16BFCF728FFA168FCF77D
:103440002BFF3946FCF75AFF2065680702D5204656
:10345000FDF79CFE207E800602D52046FDF75EFD2E
:10346000207E800702D52046FDF7D2FD207E400653
:1034700002D52046FDF7ADFD207EC00702D02046D4
:10348000FDF7D4FDA16DE06CFCF7AEFE0546E064EF
:10349000D4E90C01FCF7FAFEE168FCF7FDFE0646F4
:1034A00060652946A06CFCF79FFE216DFCF79CFE31
:1034B0003146FCF799FEE065207EC00637D52046F0
:1034C000FDF7F3FD33E0D4E90E6529463046FCF7FD
:1034D000DDFE2168FCF7E0FE0746A0643146606827
:1034E000FCF7DAFE8046A06501212846FCF744FF80
:1034F0003146FCF7CEFE216CFCF776FEA168FCF7A6
:10350000CBFE064620654146E06C00E013E0FCF788
:103510006BFE8046E0643946206EFCF765FE41464E
:10352000FCF762FE3146FCF75FFEE065256420464D
:10353000FDF7DAFD02E00020E065A065206B606326
:10354000E06D2066216D6166A16BE163A16D616430
:10355000BDE8F08110B50D49682008706920203160
:1035600008700A480221503801700321417000247C
:1035700080F84C40FDF764FB044805494030016089
:103580004460846004830349016110BDC0020020CF
:103590000000484200007A447047000008B507491F
:1035A0004FF4FA520968B1FBF2F14143009100BFB8
:1035B0000098411E0091FAD208BD00000C000020C6
:1035C0002DE9F04F8BB00446207802F0E9FF07ADFB
:1035D00004F11C0604F1160804F11007CDE900659A
:1035E00008AB03AA4146384601F00CFA0028F5D191
:1035F000A08BC0057ED50398FDF752F86FF01D062D
:103600003146FCF7B9FEDFF890910546C9F8000095
:103610000498FDF745F83146FCF7AEFE0746C9F8B9
:1036200004000598FDF73CF83146FCF7A5FE8046FE
:10363000C9F808000698FDF733F83146FCF79CFE00
:103640008246C9F80C0001212846FCF795FE414648
:10365000FCF722FE06464FF0404529463846FCF767
:103660001BFE5146FCF718FE3146FCF7BDFDFDF789
:1036700052F800F001FDDFF824814FF066373A463A
:103680004346FCF72CFFFDF789F86060D9F8080085
:1036900001210646FCF770FE82463146FCF7FCFD30
:1036A0000646D9F8040029468346FCF7F5FD59463D
:1036B000FCF7F2FD3146FCF7E9FD4FF07E51FCF7D7
:1036C00093FDFDF728F805460E460121D9F80000C4
:1036D000FCF752FE5946FCF7DFFD83465046D9F809
:1036E0000C10FCF7D9FD5946FCF77EFDFDF713F8E9
:1036F0002A4600E04DE0334600F006FF3A464346D6
:10370000FCF7EDFEFDF74AF8A060D9F80C100A911D
:103710000846FCF7C1FDD9F808100546084609918E
:10372000FCF7BAFDD9F8041006468B465846FCF75C
:10373000B3FDD9F80010824689464846FCF7ACFD37
:103740005146FCF751FD3146FCF7A0FD2946FCF738
:103750009DFDFCF7E0FF05460E4648460A99FCF73A
:103760009BFD814658460999FCF796FD4946FCF7B2
:103770003BFD0121FCF700FEFCF7CDFF2A46334656
:1037800000F0C2FE3A464346FCF7A9FEFDF706F8F4
:10379000E0600BB0BDE8F08FA000002066A64C40B2
:1037A000704700000F4A1078012806D1517821B9DE
:1037B0009178012904D0022904D0012804D00AE01C
:1037C00000207047012070475078012803D190787D
:1037D00018B1012803D0042070470220704703204D
:1037E000704700006000002010B50848FFF7A8F8F7
:1037F0003C210748FEF7BEFF3C210648FEF7BAFF12
:10380000BDE810400448FDF7E9BC0000FC000020C2
:10381000440100208C010020CC000020FEF76CBA8F
:1038200030B593B0282109A8FCF7C6FC142104A8E0
:10383000FCF7C2FC0024009401940294039401213B
:10384000099108040A900B940D910225109511908E
:103850004FF4E010129009A8FEF7B8FC08B1FDF78C
:103860005BFB0F200490059506944FF48060079051
:103870000894022104A8FEF7B3FB08B1FDF74CFB46
:1038800000954FF4004002906846FEF723FB0028A5
:1038900001D0FDF741FB13B030BD7047F0B50268B1
:1038A000194C1A4D1A4E4FF08047A04205D0B8422D
:1038B00003D0A84201D0B04203D122F070034A687D
:1038C0001A43A04205D0B84203D0A84201D0B0426A
:1038D00003D122F44073CA681A434B6922F0800274
:1038E0001A4302608A68C2620A688262A04201D1F9
:1038F00009690163012141610169C90703D00169B7
:1039000021F001010161F0BD002C014000040040E4
:103910000008004010B501F01F0101238B40046A2C
:103920009C430462036A8A401343036210BD000093
:1039300030B5026A036A23F00103036243688469B5
:1039400024F0700424F003050C682C4322F00205D7
:103950008A682A430D4DA84206D122F00802CD689C
:1039600045EA020525F0040209D123F4807323F40B
:1039700000734D6945EA03058B6943EA050343601B
:10398000846149684163026230BD0000002C01403F
:1039900030B5036A026A22F010020262426884694A
:1039A00024F4E04424F440740D6844EA052423F030
:1039B00020038D6843EA05130D4DA84206D123F07C
:1039C0008003CD6843EA051323F0400309D122F4B4
:1039D000806222F400624D6942EA85028D6942EA02
:1039E00085024260846149688163036230BD0000E2
:1039F000002C014030B5026A036A23F4807303622D
:103A00004368C46924F0700424F003050C682C4357
:103A100022F400728D6842EA05220D4DA84206D1BB
:103A200022F40062CD6842EA052222F4806209D1C4
:103A300023F4805323F400534D6943EA05138D6941
:103A400043EA05134360C4614968C163026230BD43
:103A5000002C014030B5036A026A22F480520262EF
:103A60004268C46924F4E04424F440740D6844EAD4
:103A7000052423F400538D6843EA0533064DA8421C
:103A800004D122F480424D6942EA85124260C46149
:103A900049680164036230BD002C014010B5406AE2
:103AA0000021C185C184FFF716F810BD01680C31F3
:103AB00051E8002F22F4907241E80023002BF5D149
:103AC0000168143151E8002F22F0010241E800237F
:103AD000002BF5D1016B012909D101680C3151E8A6
:103AE000002F22F0100241E80023002BF5D1202105
:103AF00080F8421000210163704710B50168CA6860
:103B000022F04002CA60202180F84110FFF78EF9B0
:103B1000002010BD08B590F84210222901D00220E3
:103B200008BD82684FF480539A4201D1016921B1E6
:103B3000816A9A421DD052B10BE0816A02685268D4
:103B4000C2F308020A80816A891C816209E0026965
:103B50007AB10268526802F07F020A70816A491CD9
:103B60008162C18D491E0904090CC18505D0002060
:103B700008BD026852680A70F0E70168CA6822F05E
:103B80002002CA600168CA6822F48072CA600168B3
:103B90004A6922F001024A61202180F84210002186
:103BA0004163026B012A03D0FFF730F9002008BD02
:103BB000016301680C3151E8002F22F0100241E846
:103BC0000023002BF5D101680A68D20602D50A68E5
:103BD00049680091818DFEF77DFFE7E770B50446E7
:103BE00020680169E26821F4405111430161A16834
:103BF00020690143606901432068C26841F20C6397
:103C00009A430A43C26020684169A26921F4407165
:103C1000114341611E492068884202D1FEF7A0FA93
:103C200001E0FEF78DFA00EBC00101EB00106168C6
:103C300064228900B0FBF1F3B3FBF2F36FF01806D6
:103C40007343B0FBF1F5B0FBF1F605EB83053223CE
:103C500003EB0515B5FBF2F5B6FBF2F605F0F00542
:103C600005EB0615B0FBF1F6B0FBF1F0B0FBF2F09E
:103C70006FF01801484306EB800003EB0010B0FB27
:103C8000F2F0216800F00F002844886070BD000049
:103C90000038014081628285C28500214164222171
:103CA00080F842100169002904D00168CA6842F412
:103CB0008072CA6001684A6942F001024A61006884
:103CC000C16841F02001C1600020704790F84110A8
:103CD000212901D0022070478168B1F5805F01D1B0
:103CE000016961B1016A4A1C026202680978516087
:103CF000C18C491E0904090CC1840AD013E0016A71
:103D000002680988C1F308015160016A891C0162D7
:103D1000EEE70168CA6822F08002CA600068C168E4
:103D200041F04001C1600020704700000148FEF7EB
:103D3000D3BE0000D4010020FEE700000FB4054B05
:103D400010B503A9044A029800F0AAF810BC5DF867
:103D500014FB000095510008C4000020490050EAFF
:103D6000C12018BF04204A0D18BF40F0010040F2E6
:103D7000FF72B2EB515F08BF40F00200012808BF9C
:103D8000052070470907090E002804DB00F1E02038
:103D900080F80014704700F00F0000F1E02080F878
:103DA000141D70472DE9F0414F1E00EBC70104467A
:103DB000D1E9000115461E4637F006020DD02A460D
:103DC0003346FCF78CFB7F1E04EBC703D3E90023CB
:103DD000FCF7DEFA37F00602F1D1022F25D0042FCE
:103DE00013D0062F18BFBDE8F0812A463346FCF7F2
:103DF00076FBD4E90A23FCF7CBFA2A463346FCF7D4
:103E00006EFBD4E90823FCF7C3FA2A463346FCF7D5
:103E100066FBD4E90623FCF7BBFA2A463346FCF7D7
:103E20005EFBD4E90423FCF7B3FA2A463346FCF7D9
:103E300056FBD4E90223FCF7ABFA2A463346FCF7DB
:103E40004EFBD4E90023BDE8F041FCF7A1BA012202
:103E5000FCF7D0BDFCF79CBA002213461046114671
:103E6000FCF7AFBB024A00201107FCF7C3BD0000FE
:103E700001FDFFFF02E008C8121F08C1002AFAD1A5
:103E800070477047002001E001C1121F002AFBD1DA
:103E9000704700000149086070470000C80000201A
:103EA0002DE9FF4F89B09B460446002506E02528F2
:103EB0000BD05A460B999047641C6D1C2078002843
:103EC000F5D10DB02846BDE8F08F0027B846012295
:103ED000474900E0074314F8013F203B02FA03F092
:103EE0000842F7D120782E2819D114F8010F47F095
:103EF00004072A280ED06FF02F022078A0F130019D
:103F000009290CD808EB880102EB410100EB0108FC
:103F1000641CF2E70A98641C50F8048B0A9020781D
:103F20000028CED0642808D0692806D075281ED075
:103F30005A460B9990476D1C58E00A994FF00A09B0
:103F400001C90A91002802DA40422D2102E0390518
:103F500004D52B218DF82010012103E0F90704D0AE
:103F60002021F7E78A4608AE0DE00021FAE70A991A
:103F70004FF00A0901C90A91F7E74946FCF73EFCF0
:103F8000303106F8011D0028F7D1ADEB060000F135
:103F90002009780701D44FF00108C84502DDA8EBDD
:103FA000090000E000208046002706E008A85A46E5
:103FB000C05D0B9990476D1C7F1C5745F6DB04E0F4
:103FC00030205A460B9990476D1CB8F10001A8F1BA
:103FD0000108F5DC05E016F8010B5A460B999047ED
:103FE0006D1CB9F10001A9F10109F4DC641C65E75D
:103FF000092801002DE9FE4F07468846002568463E
:1040000001F0D2F800246FF00F0AE946012657F8B4
:10401000240058F82410401A00D54042FCF740FB19
:104020005146FCF7A9F959F8241011F0FF4F0ED0B2
:10403000FCF764F94FF07E51FCF728F90B4920F0AA
:10404000004088420BDD06FA04F0054307E008490A
:1040500008440849884202D306FA04F00543641C68
:10406000032CD4DB2846BDE8FE8F0000295C0F3E00
:10407000666666C19A99D9002DE9F04D8D4F21F001
:10408000004A86B005460C46BA452ADBAAEB070073
:1040900028430AD08848824501DC1AD1CDB106B048
:1040A0002846BDE8F04DFFF7D2BE844A844B28462F
:1040B000FCF715FA07460E46824A834B28462146EE
:1040C000FCF70DFA06B03A463346BDE8F04DFCF772
:1040D0005FB90120FFF7DEFE06B0BDE8F04DFFF747
:1040E000BBBE7A48824542DABAF1795F0BDA2846DC
:1040F000FFF734FE042808BFFFF7B4FE284606B0D9
:104100002146BDE8F08D2A460B461046FCF7E7F93C
:10411000834602466E480E460B4606217844FFF75A
:1041200041FE5A463346FCF7DAF9804669488A462A
:104130005A46334604217844FFF734FE5A46334644
:10414000FCF7CDF900223B46FCF722F902460B466C
:1041500040465146FCF735FA2A462346FCF7BFF99C
:1041600006B02A462346BDE8F04DFCF711B92846B3
:1041700024F0004100223D463B46FCF7ADF94FF0EC
:10418000FF32FCF737FC0646024653480F460B4603
:1041900006217844FFF706FE32463B46FCF79FF9BE
:1041A000CDE900014D4832463B4604217844FFF7F3
:1041B000F9FD32463B46FCF792F900222B46FCF70C
:1041C000E7F8834602913046394602F0A1FA80466C
:1041D00043480D46504517DCDDE900015A46029B75
:1041E000FCF7EFF942462B46FCF779F942462B469D
:1041F000FCF7CEF80122FCF7FDFB304A304BFCF710
:1042000068F9304A304B4CE04FF0000A52460B46FA
:104210004046FCF7BDF8CDE9031052462B46104648
:104220001946FCF75CF932463B46FCF755F9DDE9E7
:104230000332FCF7C6F906460F46DDE900015A468F
:10424000029BFCF7BEF983460091012230463946B5
:10425000FCF7D0FB194A1A4BFCF73EF906460F460D
:10426000012240462946FCF7C5FB5A46009BFCF755
:1042700036F932463B46FCF72CF906460F4601223A
:1042800050462946FCF7B6FB0E4DDFF858802A460B
:104290004346FCF721F932463B46FCF71DF92A4616
:1042A0004346FCF719F9002CD8BF81F0004106B055
:1042B000BDE8F08D0000F03F0000F07F075C143394
:1042C00026A6913C182D4454FB21F93F0000E03F05
:1042D000B8320000CE3200004232000058320000F6
:1042E0003333EF3FFB21E93F2DE9F84F04460D46FC
:1042F00021F0004000917349814211DC72498842EB
:1043000001DC06D12CB120462946BDE8F84FFFF765
:104310009EBD6E48002DCCBF6D496E49BDE8F88F3B
:104320006D49814211DD6D498142D8BF4FF0FF36A2
:104330006DDD20462946FFF711FD042808BFFFF771
:1043400091FD20462946BDE8F88F6549654F25F067
:104350000045814233DD6449814219DD0026324641
:104360004FF0804320462946FCF712F880468A46E3
:10437000012220462946FCF73DFB00223B46FCF784
:10438000A8F842465346FCF71CF904460D463EE0A9
:1043900001260022BA463B4620462946FBF7F8FF95
:1043A00080460F460022534620462946FCF791F8E6
:1043B00042463B46FCF705F904460D4627E04B49CB
:1043C00081421BDDDFF828A1022600225346204649
:1043D0002946FCF784F800223B46FBF7D9FF8046CC
:1043E0000F460022534620462946FCF772F8424603
:1043F0003B46FCF7E6F804460D4608E00326224655
:104400002B4600203B49FCF7DCF804460D462246CB
:104410002B4610461946FCF762F88B468246024648
:104420000B46FCF75CF807460246334888460B46C5
:1044300006217844FFF7B6FC52465B46FCF74FF87E
:1044400082462E488B463A46434605217844FFF77C
:10445000A9FC3A464346FCF742F802460B46002EBA
:10446000504659460CDAFBF793FF22462B46FCF7E1
:1044700036F801B022462B46BDE8F04FFCF72CB8C9
:10448000FBF786FF22462B46FCF729F81C4A7A44A4
:1044900002EBC603D3E90023FCF71BF822462B46A8
:1044A000FCF717F8174A7A4402EBC603D3E9002356
:1044B000FCF712F8009A002AB8BF81F00041BDE86D
:1044C000F88F0000000010440000F07F182D4454C5
:1044D000FB21F93FFB21F9BF0000DC3F0000203E3B
:1044E0000000F33F0000F03F0000E63F0080034083
:1044F0000000F83F0000F0BF5A3000001830000004
:10450000B62F00007E2F00002DE9F04D9446CCF12F
:10451000000423F000464CEA0404594F46EAD474E0
:104520009A46884621F00042BC4206D8454240EAFD
:10453000050442EAD474BC4204D9BDE8F04D624699
:10454000FFF788BCAAF14055A5F17F6555EA0C0438
:104550000BD0022404EAAA744A4DDFF82CE144EAA5
:10456000D87452EA000B04D00CE0BDE8F04DFFF720
:10457000BBBE002C14BF012CBDE8F08D022C30D046
:10458000032C32D056EA0C0B0AD0BE4220D1BA42DC
:1045900009D126F0804622F080423346114617E0CA
:1045A00000291ADB25E0DFF8E4B0FB44002C04BF4F
:1045B000DBE90001BDE8F08D012C02BFDBE9000161
:1045C00081F00041BDE8F08D022C0AD0032C0CD004
:1045D000BA4212D1B8F1000F0BDA2A482C49BDE8D3
:1045E000F08D28462B49BDE8F08D28467146BDE880
:1045F000F08D24482849BDE8F08D921B12153C2A05
:10460000C4BF204F244E10DCBAF1000FBEBF12F120
:104610003C0F00273E4608DB6246FBF7D2FF21F045
:104620000041FFF761FE07460E4694B1012C08BF1A
:1046300086F000460DD0194A194B022C38463146F7
:1046400015D0FBF746FF2A46BDE8F04D114BFBF7AE
:1046500040BF0022134638463146FCF76FF804BFCE
:104660000220FFF717FC38463146BDE8F08DFBF716
:1046700030FF2A46BDE8F04D064BFBF72DBF00008A
:104680000000F07F182D4454FB2109C0122F0000B8
:10469000FB21F9BFFB210940FB21F93F075C1433E3
:1046A00026A6A13C70B50446E07800F0C00500F0F5
:1046B0003F006178094EC90707D0C30800F0070121
:1046C000491C32680AB1184690476078000703D544
:1046D000716809B1A8098847002070BD60020020F8
:1046E00031B54FF461754FF0E0241CE000982B4683
:1046F000984200D8009BA069594201EBC10100EB30
:10470000C101002905DBA269824209DA8A42FADA8C
:1047100006E0074A0A44A1698142FCDD9142FADCC5
:104720000098C01A009000980028DFD138BD000022
:104730004019010008B500280CD020208DF8000099
:1047400028208DF8010030208DF8020038208DF8E7
:10475000030004E0A32204216846FBF726FD6A4615
:10476000042140F69E2001F023FF01F0A5FB08BDC7
:104770003EB5044602208DF80000CA208DF80100E5
:10478000E3208DF8020009208DF803006A46042119
:10479000682001F00DFFA3208DF80000610609D507
:1047A000C0218DF80110C8218DF80210C2218DF8AA
:1047B000031005E08DF801008DF802008DF803006C
:1047C00014F4C07F09D0C4218DF80410CC218DF8D9
:1047D0000510C6218DF8061005E08DF804008DF84F
:1047E00005008DF806008DF807008DF808008DF89B
:1047F00009006A460A2140F6A72001F0D9FEA00769
:104800004FF0D80503D020208DF8000001E08DF88E
:1048100000506A46012140F6B62001F0C9FEA0060C
:1048200003D5012000F09AF802E0002000F096F88D
:1048300014F4C07F20D0E0050CD5B2208DF8000024
:104840008B208DF80100B6208DF802009B208DF89A
:1048500003000BE0B0208DF8000080208DF80100EF
:10486000B4208DF8020090208DF803006A460421E0
:1048700040F6A22001F09CFEE0074FF40B6323D02A
:10488000F8208DF800006A460121184601F090FEDC
:10489000FA21072000F0ACFB072000F07BFB012091
:1048A00000F094FB642000F055FC4FF4FA7000F027
:1048B00061FCC821274800F035FB282000F04AFBA6
:1048C0000A2000F057FB06E08DF800506A460121EF
:1048D000184601F06DFEA00703D5D9208DF8000021
:1048E00001E08DF800506A46012140F23D7001F070
:1048F0005FFE600703D5012000F05CF802E00020B5
:1049000000F058F8E00603D50120FFF713FF02E09E
:104910000020FFF70FFF104D44F00800688101F000
:10492000CBFA0020A873600601D50620A87314F402
:10493000C07F02D0A87B801DA87314F0140F02D092
:10494000A87B1030A873A00702D0A87B001DA87315
:1049500000203EBD09E3CA02600200200EB54FF4FC
:10496000976300280CD00DA0D0E900128068CDE933
:10497000001202906A460921184601F019FE0EBD88
:1049800009A0D0E900128068CDE9001202906A46C1
:104990000921184601F00CFE0EBD0000B8AAB38D27
:1049A000B4980D355D000000B8AAAAAAB088C3C5A6
:1049B000C700000008B500280CD0C0208DF800000A
:1049C000C2208DF80100C4208DF80200C6208DF8A9
:1049D000030004E08B2204216846FBF7E6FB6A46ED
:1049E000042140F6982001F0E3FD01F065FA08BDCE
:1049F000C8234FF48062024940F6F63001F00CB94A
:104A0000DC6700082DE9FF4F8DB01646DDE91A522C
:104A1000074688460024A146A5F80090DFF864B157
:104A200005A99BF80E0001F0B9F94FF0FF3A18B153
:104A3000504611B0BDE8F08FBBF80A3013F0140FE8
:104A400061D09DF817009DF814109DF8162040EADB
:104A500001609DF81510090441EA02210843306005
:104A60009DF81B109DF818209DF81A4041EA02613C
:104A70009DF81920120442EA0422114371609DF846
:104A80001F209DF81C409DF81EC042EA04629DF85C
:104A90001D40240444EA0C242243B2609DF82340C4
:104AA0009DF820C09DF822B044EA0C6C9DF821408E
:104AB000240444EA0B244CEA040CC6F80CC010246D
:104AC0000014019008140290101403904FEA2C4037
:104AD000049001980299404301FB01010398049A54
:104AE000404302FB02000844A0F17060B0F1007F77
:104AF00005D901F0E1F9A5F80090504699E728881A
:104B000040F480702880590605A818D50219065D62
:104B1000517841EA0621A8F80010D178967841EA48
:104B20000621A8F802105179127941EA0221A8F869
:104B30000410A41DE4B2298841F00801298013F46F
:104B4000C07F15D00119065D4A7842EA06223A80F4
:104B5000CA788E7842EA06227A804A79097942EA4E
:104B60000121B980A41DE4B2298841F07001298097
:104B7000990702D02044FFF795FD109801F050FDF1
:104B8000002056E76002002030B587B00446684632
:104B900000F0CAFEBDF80000420CC1033C48038986
:104BA00003F0030054F820000490580702D504983D
:104BB00040420490C3F3C10054F8200005909806C9
:104BC00002D5059840420590C3F3811054F82000A7
:104BD0000690D80502D50698404206900498A0FB9E
:104BE0000145C31703FB015300FB0230830043EA76
:104BF000947004900598A0FB0145C31703FB015373
:104C000000FB0230830043EA947005900698A0FBF5
:104C10000145C31703FB015100FB0210810041EA6B
:104C2000947006900498000E8DF804000498000C0F
:104C30008DF805000498000A8DF8060004988DF898
:104C400007000598000E8DF808000598000C8DF8F7
:104C500009000598000A8DF80A0005988DF80B00E8
:104C60000698000E8DF80C000698000C8DF80D00CB
:104C70000698000A8DF80E0006988DF80F0001AA1C
:104C80000C214FF4257001F093FC07B030BD0000FB
:104C90006002002030B585B0044616A1D1E90002BB
:104CA0008968CDE9032102904FF0FF35C82C02D965
:104CB000284605B030BDC820B0FBF4F1491E080AF3
:104CC0008DF800008DF801106A46022140F216208E
:104CD00001F06EFC08B12846EBE702AA0C2140F671
:104CE000C12001F065FC08B12846E2E70448848150
:104CF0000020DEE7FEF2ABC4AAF1DFDFBBAFDFDFEF
:104D0000600200201FB53F49098901F0030250F8F5
:104D1000222001924A0702D5019A52420192C1F320
:104D2000C10250F8222002928A0602D5029A52420B
:104D30000292C1F3811250F822000390C80502D5F7
:104D40000398404203903048019981FB00218B0079
:104D500043EA92710191029981FB00218B0043EAA1
:104D600092710291039981FB0001800F40EA81005A
:104D700003900198000E8DF800000198000C8DF84A
:104D800001000198000A8DF8020001988DF80300D7
:104D90006A4604214FF4747001F00AFC4FF0FF34AE
:104DA00010B1204604B010BD0298000E8DF800002E
:104DB0000298000C8DF801000298000A8DF802009C
:104DC00002988DF803006A4604214FF4757001F0D3
:104DD000EFFB08B12046E5E70398000E8DF80000D0
:104DE0000398000C8DF801000398000A8DF802006A
:104DF00003988DF803006A4604214FF4767001F0A1
:104E0000D7FBCFE76002002009E3CA0230B587B0C4
:104E100004463FA0006804903EA0006803903EA0B6
:104E2000006802903DA00068019004F0030004AB0C
:104E3000195C8DF81810C4F3C102995C8DF8191033
:104E4000C4F381115B5C8DF81A3003AB185C8DF8EC
:104E50001400985C8DF81500585C8DF8160006AAB1
:104E6000032140F2264001F0A3FB4FF0FF3510B1C3
:104E7000284607B030BD05AA032140F22A4001F0C0
:104E800097FB08B12846F4E7029806900198059030
:104E900060070BD59DF8180040F001008DF8180050
:104EA0009DF8140040F001008DF81400A0060BD509
:104EB0009DF8190040F001008DF819009DF81500CB
:104EC00040F001008DF81500E0050BD59DF81A00A3
:104ED00040F001008DF81A009DF8160040F0010026
:104EE0008DF8160006AA03214FF4886001F060FBDC
:104EF00008B12846BDE705AA032140F2314001F080
:104F000057FB08B12846B4E7054804810020B0E704
:104F10004CCD6C000CC92C00365676002646660037
:104F20006002002008B54FF47A7290FBF2F048431B
:104F3000010E8DF80010010C8DF80110010A8DF89A
:104F400002108DF803006A4604214FF4AE7001F0A0
:104F50002FFB08BD08B50521B0FBF1F0010A8DF863
:104F600000108DF801006A4602214FF4AD7001F087
:104F70001FFB08BD08B50521B0FBF1F0010A8DF853
:104F800000108DF801006A4602214FF4AC7001F068
:104F90000FFB08BD08B500210091C10701D03021E9
:104FA0000091810704D59DF8001041F00C0100919B
:104FB000400704D59DF8000040F0030000906A46C9
:104FC00001214FF4A47001F0F3FA08BD08B50028E0
:104FD0000BD0042800D90420401E00906A4601210D
:104FE00040F24F1001F0E4FA08BD0120F4E70000A0
:104FF0002DE9FC410546084669074FF0FF3602D00F
:10500000B0F5C86F02D93046BDE8FC81FBF751FB13
:105010004B49FBF773F90746684600F063FC9DF8BF
:105020000000022807D0042814D0082821D0102816
:105030002ED03046E8E70E213846FBF79DF9FBF706
:1050400056FB84B23F493846FBF726F9FBF74FFB86
:1050500080B22BE00D213846FBF78EF9FBF747FBBA
:1050600084B239493846FBF717F9FBF740FB80B2A9
:105070001CE00C213846FBF77FF9FBF738FB84B2C4
:1050800032493846FBF708F9FBF731FB80B20DE0F7
:105090000B213846FBF770F9FBF729FB84B22C494A
:1050A0003846FBF7F9F8FBF722FB80B2210A8DF8AE
:1050B00004108DF80540010A8DF806108DF80700E0
:1050C000E80701AC11D001AA02214FF4EA7001F007
:1050D0006FFA08B1304697E7A21C02214FF4927094
:1050E00001F066FA08B130468EE7A80711D501AA8B
:1050F00002214FF4EC7001F05BFA08B1304683E70F
:10510000A21C02214FF4947001F052FA08B130460B
:105110007AE7680711D501AA02214FF4EE7001F079
:1051200047FA08B130466FE7A21C02214FF496708F
:1051300001F03EFA08B1304666E7002064E700005F
:1051400000004843000040460000C04500004045C4
:105150000000C04408B50521B0FBF1F0010A8DF84C
:1051600000108DF801006A4602214FF4EF7001F043
:105170001FFA08BD08B50521B0FBF1F0010A8DF852
:1051800000108DF801006A4602214FF4ED7001F025
:105190000FFA08BD38B504468DF8000069460320B3
:1051A000ABBE204638BD00002DE9FC41054626482F
:1051B00001AB042240680D21007800F0A5FA10B17F
:1051C0000720BDE8FC819DF807009DF80420C0F38E
:1051D000011102F0E00241EAD2018DF800109DF8C1
:1051E0000520C0F3810102F0E00241EAD2018DF80E
:1051F00001109DF8061000F0030001F0E00140EA04
:10520000D1008DF8020000246E46305D20B10F48B9
:1052100045F824000E4F0AE0002045F824000CE079
:1052200055F824003946FBF737F845F82400305D7F
:10523000401E10F0FF003055F2D1641CE4B2032C84
:10524000E3D30020BDE70000740000207B14AE3ED5
:105250001D5A843F2DE9F04788B005460C4692461A
:1052600001208DF8140000278DF81570DFF8B88341
:1052700005AB0222D8F80000817CD8F80400007841
:1052800000F07DFA4FF0FF3918B1484608B0BDE88C
:10529000F087C820FCF712FC8DF81470D8F80000D5
:1052A00005AB0122C17BD8F80400007800F067FA52
:1052B00008B14846EAE7D8F8000005AB0122417979
:1052C000D8F80400007800F05AFA08B14846DDE743
:1052D000D8F8000005AB0122817CD8F804000078E2
:1052E00000F04DFA08B14846D0E7D8F8000005AB09
:1052F0000122C17DD8F80400007800F040FA08B11E
:105300004846C3E7D8F8000005AB01220179D8F878
:105310000400007800F033FA08B14846B6E70C26DE
:105320008DF81460D8F8000005AB01220179D8F897
:105330000400007800F023FA08B14846A6E70F20E1
:10534000FCF7BCFBD8F82800407A8DF81400D8F898
:10535000000005AB01228178D8F80400007800F045
:105360000EFA08B1484691E7D8F82800007A8DF87F
:105370001400D8F8000005AB01224178D8F80400E9
:10538000007800F0FCF908B148467FE7BAF1000F59
:1053900007D0D8F82800807A40F0E0008DF814009B
:1053A00004E0D8F82800807A8DF81400D8F80000BE
:1053B00005AB01228179D8F80400007800F0DFF90C
:1053C00008B1484662E7BAF1000F07D0D8F82800C4
:1053D000C07A40F0E0008DF8140002E018208DF84B
:1053E0001400D8F8000005AB0122C179D8F80400F8
:1053F000007800F0C4F908B1484647E7BAF1000F59
:1054000002D0C820FCF75AFB40208DF81400D8F8D1
:10541000000005AB01220179D8F80400007800F003
:10542000AEF908B1484631E778208DF81400D8F875
:10543000000005AB01224179D8F80400007800F0A3
:105440009EF908B1484621E73220FCF737FB8DF87A
:105450001470D8F8000005AB01224179D8F8040097
:10546000007800F08CF908B148460FE7D8F8000042
:1054700005AB0222817AD8F80400007800F044F9E4
:1054800008B1484602E79DF815009DF8141040EA5F
:105490000120B0FBF6F0C6B2AF606F602F60A7606E
:1054A00067602760002756E0D8F8000005AB0C22A3
:1054B000C17AD8F80400007800F026F908B148460F
:1054C000E4E69DF815009DF8141040EA012000B2B2
:1054D000ADF80C009DF817109DF8162041EA022146
:1054E00009B2ADF80E109DF819209DF8183042EA67
:1054F000032212B2ADF810202368184420606068BF
:1055000008446060A0681044A0609DF81B009DF8EE
:105510001A1040EA012000B2ADF804009DF81D10F9
:105520009DF81C2041EA022109B2ADF806109DF851
:105530001F209DF81E3042EA032212B2ADF8082067
:105540002B6818442860686808446860A86810449C
:10555000A8607F1CFFB2B742A6D328688322C11778
:10556000090441EA104100040023FAF7DDFD324648
:105570000023FAF7D9FD286068688322C11709045F
:1055800041EA104100040023FAF7CEFD3246002321
:10559000FAF7CAFD6860A8688322C117090441EAC6
:1055A000104100040023FAF7BFFD32460023FAF74A
:1055B000BBFDA86020684FF40065C117090441EAEB
:1055C000104100042A460023FAF7AEFD32460023BC
:1055D000FAF7AAFD206060682A46C117090441EA6B
:1055E000104100040023FAF79FFD32460023FAF72A
:1055F0009BFD6060A0682A46C117090441EA10417A
:1056000000040023FAF790FD32460023FAF78CFDE0
:10561000A060002803DDA0F58030A06002E000F566
:105620008030A060002031E6740000202DE9F84FA2
:1056300081468A4600252F486B46032240680D218B
:10564000007800F061F810B10720BDE8F88F9DF8F0
:10565000000000F01F008DF800009DF8010000F030
:105660001F008DF801009DF8020000F01F008DF86A
:10567000020000246F464FF0010859F824005AF840
:105680002410401A00D54042FBF70AF86FF00F01D2
:10569000FAF772FE0646385DF8B1174ADFF85CB0DB
:1056A00004E059461046FAF7F7FD0246385D401E01
:1056B00010F0FF003855F4D111463046FAF71EFEBF
:1056C0004FF07E51FAF7E2FD0D4920F0004088428C
:1056D0000BDD08FA04F0054307E00A483044B0F156
:1056E000D97F02D908FA04F00543641C032CC4DBFB
:1056F0002846AAE7740000200000C84154E3853F13
:10570000295C0F3E0000E0BE2DE9F04106460F4641
:1057100014461D46FDF72AFCB0B17006000EFDF7D9
:10572000F5FBFDF76BFC90B13846FDF7EFFBFDF79D
:1057300065FCFDF71BFC012000EB4600C0B2FDF745
:10574000E5FBFDF75BFC0FE00120BDE8F081FDF714
:1057500039FC0120F9E7012C0CD00120FDF7A0FB5A
:1057600028706D1C641EE4B2002CF4D1FDF72AFCF5
:105770000020EAE70020FDF793FB2870F1E72DE910
:10578000F04104460F4616461D46FDF7EFFB68B193
:105790006006000EFDF7BAFBFDF730FC48B1384655
:1057A000FDF7B4FBFDF72AFC00240DE00120BDE865
:1057B000F081FDF707FC0120F9E7285DFDF7A6FB66
:1057C000FDF71CFC30B1641CB442F6DBFDF7FAFBBC
:1057D0000020ECE7FDF7F6FB0020E8E770B5044693
:1057E000204600F00DF80546E01C00F009F845EAF7
:1057F000C005A01D00F004F845EA801080B270BD1D
:1058000090F90010002902DD4FF00000704702DA25
:105810004FF00400704790F90110002902DD4FF0AD
:105820000100704702DA4FF00500704790F902005E
:10583000002802DD4FF00200704702DA4FF0060048
:1058400070474FF007007047FCF75EFAFDF7E8FF7E
:10585000FDF760FCFDF748FCFDF700FCFDF7C6FC1A
:10586000FDF72CFDFDF75EFDFDF790FDFDF7BCFF9C
:10587000FDF770FEFBF736FBFBF79AFCFBF792FA9D
:10588000FAE700002DE9F041002620F00104144D54
:1058900095F82400002802D00020BDE8F081A97A04
:1058A0004FF0FF3839B12F7C21402974A14200D03C
:1058B000464624B901E04046EFE7287D18B10120B3
:1058C00000F0ECFE02E0002000F0E8FE2CB100F059
:1058D000F3FA10B12F744046DFE73046DDE70000F1
:1058E000740000200F4A517A002908D0012909D0FC
:1058F00002290AD003290BD04FF0FF307047022154
:10590000017007E00421017004E00821017001E04A
:1059100010210170D17C11B1017849000170002083
:105920007047000074000020114A517A002908D005
:1059300001290AD002290CD003290ED04FF0FF30E4
:1059400070474FF4804101800AE041F69C7101806C
:1059500006E04FF48051018002E04FF400610180C5
:10596000D17C11B1018849080180002070470000F6
:10597000740000200249097C01700020704700007B
:10598000740000200E49097A002909D001290AD0A3
:1059900002290CD003290ED000210180002070477D
:1059A000FA210180FAE74FF4FA710180F6E74FF42B
:1059B0007A710180F2E74FF4FA610180EEE70000AE
:1059C000740000200C49097A002908D0012909D067
:1059D00002290AD003290BD04FF0FF307047074946
:1059E000016007E00649016004E00649016001E04A
:1059F0000549016000207047740000200000034347
:105A00000000834233330342333383410F49C97A61
:105A1000072917D2DFE801F01604070A0D1013005A
:105A2000BC21018010E0622101800DE02A2101806B
:105A30000AE01421018007E00A21018004E0052129
:105A4000018001E0002101800020704774000020E7
:105A5000054991F82420002A02D04FF0FF3070470A
:105A6000C989018000207047740000202DE9FC41A5
:105A700080208DF80000544C6B4601222068817C08
:105A800060680078FFF77BFE4FF0FF3610B13046BC
:105A9000BDE8FC816420FCF711F800258DF800506A
:105AA00020686B460122817C60680078FFF767FE02
:105AB00008B13046ECE720686B460622817D6068BD
:105AC0000078FFF721FE08B13046E1E79DF80500B8
:105AD0009DF80310C007400F01F0010140EA4101A9
