:020000040800F2
:100000001007002005010008672F0008932A000848
:10001000652F00084D0D00081D3800080000000085
:100020000000000000000000000000001D33000878
:10003000750E00080000000051310008A9330008C7
:100040001F0100081F0100081F0100081F01000810
:100050001F0100081F0100081F0100081F01000800
:100060001F0100081F0100081F010008050E0008FD
:100070001F0100081F0100081F0100081F010008E0
:100080001F0100081F010008BD0A00081F01000829
:100090001F0100081F0100081F0100081F010008C0
:1000A0001F0100081F0100081F0100081F010008B0
:1000B0001F0100081F0100081F0100081F010008A0
:1000C0001F0100081F0100081F0100081F01000890
:1000D0001F0100081F010008113800081F01000857
:1000E0001F0100081F0100081F010008DFF810D0E1
:1000F00000F080FC00480047DD500008AFF30080AE
:10010000100700200648804706480047FEE7FEE744
:10011000FEE7FEE7FEE7FEE7FEE7FEE7FEE7FEE7B7
:1001200025340008ED0000082DE9F0410024061BED
:10013000254671F1000605DA01240027D0EB0700FF
:1001400067EB0101161E73F1000605DA0027D2EBFA
:100150000702012567EB030300F036FB86460E46D7
:1001600017469C46AC4204D00025D0EB050E65EB4B
:10017000010624B10020D2EB000760EB030C7046AF
:1001800031463A466346BDE8F081202A04DB203A36
:1001900021FA02F00021704721FA02F3D040C2F1A7
:1001A00020029140084319467047D2B201E000F89E
:1001B000012B491EFBD270470022F6E710B513460B
:1001C0000A4604461946FFF7F0FF204610BD30B539
:1001D00004460020034600E05B1C934203D2E05C2F
:1001E000CD5C401BF8D030BDF0B480EA0102D40FE2
:1001F0004200B2EB410F02D20246084611464A00C5
:1002000042D0C30DDDB2C1F3C752AD1A202D35DA8D
:10021000C1F3160141F4000204B15242C5F12006B7
:1002200002FA06F12A411044B3EBD05F23D0C4B1E7
:10023000012DA0EBC35009DCF0BC4FF0004202EAF4
:10024000C352DBB200F5000000F019BB400000F122
:10025000807000EBC350A0F1807040EAD17049007B
:1002600009E0490841EAC071A0EBC35000F5000065
:10027000400800EBC350F0BC00F0F8BA6142012224
:1002800002EB4101001BF6E7F0BC704781F0004132
:10029000AAE780F00040A7E780EA010210B502F06B
:1002A0000043400022D04A001FD0010E01EB126132
:1002B000C0F35600C2F3560240F4000042F40002BC
:1002C000A0FB022000047F39140400D0401C50EA37
:1002D000124001D44000491EC2B20C0604EBD010FB
:1002E000401C4008802A02D003E0002010BD20F00E
:1002F0000100002900DA0020184310BD30B480EA64
:10030000010202F0004530F0004221F0004013D01D
:1003100090B1C30DD40DC2F31601C0F31600E41A58
:1003200041F4000140F400027D34914201D3641C89
:1003300000E04900002C02DA30BC002070474FF486
:1003400000000023914201D3891A034340084FEA79
:100350004101F7D151B1914202D14FF0004105E086
:1003600002D24FF0010101E06FF0010103EBC45034
:10037000284430BC00F07ABA420005D0C0F3C7521E
:100380005242914201DC0020704700EBC15070479F
:100390002DE9FE4F804681EA0300C00F0C46009015
:1003A00021F0004123F00045B8EB0200A94105D23D
:1003B0004046214690461C460B46024623F000402C
:1003C000104347D0270DC7F30A00C3F30A51029028
:1003D000401A019040286BDAC3F3130040F4801BED
:1003E0000098924620B10023D2EB030A63EB0B0B7B
:1003F00001985946C0F14002504600F016FA0646F0
:100400000D4650465946019A00F01EFA10EB0800BE
:100410006141002487EA115284EAE7731A4340D00D
:10042000009A62B3019A012A4FEA075215DC001BB9
:1004300061EB02014FF0004202EA0752CDE90042AF
:10044000001C41F5801132462B4600F055FA03B0EE
:10045000BDE8F08F40462146F9E7001B61EB020141
:10046000001C41F5801300185B412018A2F500170D
:1004700047EB030140EAD570B6196D4111E06D08F4
:100480004FEA360645EAC0754FEA0752001B61EB9A
:100490000201001C41F5801149084FEA30000019A3
:1004A000514132462B4603B0BDE8F04F00F015BA7B
:1004B0000098012240000023D0EB020263EBE073BE
:1004C000009821464FEAE074B8EB000061EB0401AC
:1004D000E9E783F000435BE781F0004158E72DE94D
:1004E000FE4F81EA030404F0004421F0004100942F
:1004F0004FF0000B23F0004350EA01045ED052EAB3
:1005000003045BD0C3F30A54C1F30A552C44A4F28C
:10051000F3340194A0FB0254C1F3130141F48011A0
:10052000C3F3130343F4801301FB024400FB034EA7
:10053000840A970A44EA815447EA8357A4FB076870
:1005400002958D0A05FB07854FEA932C04FB0C549A
:100550002705029D4FEA065847EA1637B5EB08050E
:100560006EEB070C870E920E47EA811742EA831260
:10057000A7FB0201B6EB0B0164EB00042B0D43EA71
:100580000C335E1844EB1C50DA465146E7FB02017F
:10059000C5F313044FEA0B3343EA14534FEA043212
:1005A000019C43EA0603A4F10C040294009CCDE9EB
:1005B00000B400F0A1F903B0BDE8F08F00200146BF
:1005C000F9E72DE9F04D81EA030404F0004B21F036
:1005D000004514464FF0000A23F0004150EA05029E
:1005E00020D054EA01021DD0C5F30A570246C5F3D4
:1005F0001303C1F31300C1F30A5640F4801543F40A
:100600008013A7EB0608101BD64608F2FD3873EBE3
:10061000050002D308F1010801E092185B41B8F12E
:10062000000F03DA00200146BDE8F08D00204FF4F2
:100630008011064684460EE0171B73EB050705D3B1
:10064000121B63EB050306434CEA010C49084FEA11
:10065000300092185B4150EA0107EDD152EA0300E5
:1006600012D082EA040083EA0501084305D0101B7A
:10067000AB4106D20122002306E000224FF00043E6
:1006800002E06FF0010253101AEB06004CEB085128
:1006900010EB0A0041EB0B01BDE8F04D00F01DB975
:1006A000C10F80EAE0700844CA079623002100F0D9
:1006B000E6B896230022114600F0E1B800F00042AF
:1006C00020F00040C10DC0F3160040F400007F2967
:1006D00001DA00207047962903DCC1F19601C84079
:1006E00001E096398840002AF4D04042704720F05B
:1006F0000040C10DC0F3160040F400007F2901DA6C
:1007000000207047962903DCC1F19601C84070476C
:1007100096398840704700F0004230F000400AD01F
:10072000C10D01F56071C0F3160042EA0151C20823
:1007300040071143704700200146704701F0004315
:1007400030B421F0004150EA010206D00A0DA2F5B2
:100750006072C1F31301002A02DC30BC0020704734
:10076000440F44EAC104C100E01830BC00EBC250A1
:1007700000F07CB8002801DBC0F10040002901DB5B
:10078000C1F1004181427047002801DBC0F1004007
:10079000002901DBC1F100418842704730B50B46AA
:1007A000014600202022012409E021FA02F59D42A1
:1007B00005D303FA02F5491B04FA02F52844151E75
:1007C000A2F10102F1DC30BD2DE9F05F0546002009
:1007D00092469B4688460646814640241BE02846B2
:1007E000414647462246FFF7D0FC53465A46C01AB8
:1007F000914110D311461846224600F016F82D1AE2
:1008000067EB01084F4622460120002100F00DF859
:1008100017EB00094E41201EA4F10104DFDC48461D
:1008200031462A464346BDE8F09F202A04DB203AA1
:1008300000FA02F1002070479140C2F1200320FA33
:1008400003F3194390407047202A06DBCB17203A68
:1008500041FA02F043EAE07306E041FA02F3D040C5
:10086000C2F1200291400843194670470029A8BFF1
:100870007047401C490008BF20F00100704710B4C9
:10088000B0FA80FC00FA0CF050EA010404BF10BC7E
:10089000704749B1CCF1200421FA04F411FA0CF1AB
:1008A00018BF012121430843A3EB0C01CB1D4FEAE4
:1008B00000614FEA102042BF002010BC704700EBDF
:1008C000C35010440029A4BF10BC7047401C49000D
:1008D00008BF20F0010010BC704710B5141E73F162
:1008E000000408DA401C41F1000192185B411A43F0
:1008F00001D120F0010010BD2DE9F04D92469B463C
:1009000011B1B1FA81F202E0B0FA80F220329046E1
:10091000FFF78BFF04460F4640EA0A0041EA0B014D
:1009200053465A46084313D0114653EA010019D0E2
:10093000C8F140025046FFF728FC05460E465046D7
:1009400059464246FFF771FF084305D0012004E0F5
:1009500020463946BDE8F08D0020054346EAE076A2
:100960002C4337430A986305E40AA0EB08000022F1
:10097000FD0A44EA47540A3002D500200146E9E75F
:10098000010510196941DDE9084500196941BDE813
:10099000F04DA2E770B521F0004303430CD0C1F342
:1009A0000A550024D5EB040564EB0403D617AD1AF1
:1009B000B34102DB0020014670BD201841EB02511B
:1009C00070BD000030B5041E71F1000404DB4FF06F
:1009D0000044404264EB0101141E73F1000405DB86
:1009E0001C464FF00043524263EB04038B4208BFA6
:1009F000824230BD064C074D06E0E06840F001033E
:100A000094E8070098471034AC42F6D3FFF772FB26
:100A1000706C0008906C00082DE9F04D00231A4618
:100A20001B1A8A4103DB00200146BDE8F08DC1F3AB
:100A30000A52C1F3130141F480154FF0000BD107A6
:100A400002D100186D41521E0027044640F2FF11EA
:100A5000384601EB620A3E468046024600204FF4CB
:100A60008011FFF792FBC2197141BB1846EB0100E0
:100A7000B4EB030C75EB000C04D3E41A65EB000532
:100A800017460E46241908F101006D4180463428AE
:100A9000E3DDF91946EB0600091BA84103D24FF02C
:100AA000FF32134601E0002213461BEB070046EB22
:100AB0000A51BDE8F04DFFF710BF0000014800F0FB
:100AC00020BC0000D400002070B504460068816896
:100AD000C943C90717D1816821F00101816000F085
:100AE000B3FF05460AE000BF00F0AEFF401B02283E
:100AF00004D920688068C043C00706D02068806899
:100B0000C043C007F0D0002070BDA06A40F01000C4
:100B1000A062E06A40F00100E062012070BD0000C8
:100B2000F8B500260446009600688168C943C907E5
:100B30002DD0816841F00101816016481649006896
:100B4000B0FBF1F000E0401E00900028FBD100F067
:100B50007BFF054616E000BF00F076FF401B022831
:100B600010D920688068C043C0070BD0A06A40F04D
:100B70001000A062E06A40F00100E06284F82460A6
:100B80000120F8BD20688068C043C007E4D1002080
:100B9000F8BD00000C00002040420F0010B50446D4
:100BA0004078012100F07EF8207A00F0B5F80120AD
:100BB000207110BD10B504464078002100F072F895
:100BC000207A00F0B3F80020207110BD10B5044663
:100BD000007900280AD0A07800F05AF8002805D142
:100BE000E0780028E08802D0401EE08010BD401C64
:100BF000FBE70000B0F906208A4201D1002104E0A1
:100C0000511A01D5024900E0024900F005B8000080
:100C10000000C8420000C8C270B50A46044619491F
:100C20001046FFF76BFB05461748854207DA174861
:100C3000854204D82046BDE87040FFF7BBBF204680
:100C4000FFF7ACFF4FF07E5015F1FF4F0AD301467E
:100C50002846FFF7C9FA05462078012100F022F85E
:100C6000012008E02946FFF711FB05462078002106
:100C700000F018F80020E070207A2946BDE87040A6
:100C800000F01CB800007A44CDCC4C3DCDCC4CBD1E
:100C9000034A02EBC00152F83000898800F0CABE56
:100CA00030000020044B0A4603EBC00153F830002B
:100CB000898800F0C4BE0000300000202DE9F0411A
:100CC00006464FF07E500C46814201DD044603E0AB
:100CD00014F1FF4F00D300240E4F57F8360005687B
:100CE000E86AFFF7E6FC2146FFF7D6FAFFF7FFFCBC
:100CF00007EBC60180B2898831B1042906D00829E2
:100D000006D02864BDE8F0816863FBE7A863F9E7D3
:100D1000E863F7E710000020034A02EBC00152F835
:100D20003000898801F066BC10000020034A02EB05
:100D3000C00152F83000898801F0AABC10000020E0
:100D40000522014901F086BE68000020FEE7000090
:100D50002DE9F041274C00252078012800D165605D
:100D600004260327052832D2DFE800F0030B111B0D
:100D70002800214860600120FFF78AFF38BB01206E
:100D800003E002F0DDFA022821D120701FE002F01A
:100D9000D7FA00B9277002F0D3FA012817D12670CC
:100DA00015E0164800224168243002F0DDF860604A
:100DB00002F0C6FA012805D1267003E002F0C0FA5D
:100DC00000B9277002F0BCFA032800D125706068D2
:100DD00080F0004109483438FFF71EFF08480078CA
:100DE000BDE8F04100EB8000410004482A38FFF7DD
:100DF00001BF0000C400002000004844640200203D
:100E0000C1000020014800F03BBC0000DC010020D4
:100E100070B504F08FFF04F073FA782004F02EFF11
:100E2000782004F09FF9C82004F0E8FE03F018FBD6
:100E30000F48044604F02EF90546E01C04F02AF998
:100E400045EAC005A01D04F025F945EA801080B2EE
:100E500003F0C6FC40F2731003F0DAF9C82003F087
:100E600027FC04F09AFFBDE87040012004F0ECBDBF
:100E7000B8000020704700000A4810B50078FFF75E
:100E8000C7FF084820300078FFF7C2FF0220FFF7B5
:100E900043FF0320FFF740FFBDE810400248FFF783
:100EA0004FBF0000440200209401002072B6FEE70C
:100EB0002DE9F047856B0446C16C2846FFF7ECF935
:100EC000B0F5000F39DB25F00040616AFFF752FCF6
:100ED00033D9D4E90801FFF787F90146A06B20F068
:100EE0000040FFF747FC26D8206AFFF714FC0546B0
:100EF0000E46606AFFF70FFC0746A06B894620F09C
:100F00000040FFF708FC2A463346FFF7E5FA3A4669
:100F10004B46FFF73DFA2A463346FFF752FB06469B
:100F20000D46A06DFFF7F7FB32462B46FFF7D7FAC9
:100F3000FFF704FC00E00020A065BDE8F0872DE984
:100F4000F041076FC66A044639463046FFF74CF950
:100F500005463146606EFFF79FF92946FFF7CEF947
:100F600006463946206DFFF797F92946FFF7C6F97F
:100F70003146FFF739F92065BDE8F08110B5044628
:100F8000D4E90C10FFF782F9A168FFF785F9216F0A
:100F9000FFF7B4F9206510BD2DE9F041C56C04469A
:100FA000816D00262846FFF71FF907462946A06CE9
:100FB000FFF71AF9216DFFF717F920F000402169BA
:100FC000FFF7E2FB07D2E16CA06BFFF765F9B0F524
:100FD000000F00DBA6653846E169FFF7D5FB02D2BA
:100FE000A665E069E064E069394680F00040FFF7FB
:100FF000CBFB04D2A665E06980F00040E064BDE868
:10100000F0812DE9F041076F866A04463946304683
:10101000FFF7EAF805463146206EFFF73DF929460D
:10102000FFF76CF906463946E06DFFF735F92946BA
:10103000FFF764F93146FFF7D7F8E065BDE8F081C6
:1010400010B504460169C06DFFF79EFB01D220690F
:10105000E0652069E16D80F00040FFF795FB03D269
:10106000206980F00040E06510BD000070B50446C6
:1010700000691849FFF710F90146E06D20F00040C3
:10108000FFF778FB24D3A06E134920F000458D4272
:101090001EDB216BFFF7FAF820F000402946FFF72E
:1010A0002DF90E49884205DDD4E91E01401C41F1AD
:1010B000000101E0002001460246C4E91E014FF490
:1010C000FA7300209A1A884102D2012084F8800025
:1010D00070BD00006F12833A17B7D1383333733FB6
:1010E00010B50446D4E90E01FFF77EF84FF0FF314A
:1010F000FFF742F96168FFF7CFF8216FFFF7CCF8EF
:10110000A06510BD10B5074802F024F8054820304E
:1011100002F020F803480A38FFF758FDBDE81040F8
:1011200002F0FEB844020020F8B500250446009500
:1011300090F8240001280BD0012084F824002046D8
:10114000FFF7C2FC2046FFF7EBFC060002D050E0A0
:101150000220F8BDA06A20F4885040F00200A0628E
:10116000022000F00FFD25490968B1FBF0F04000B6
:1011700000E0401E00900028FBD12068816841F00B
:101180000801816000F060FC074608E000F05CFCAC
:10119000C01B0A2803D920688068000715D420687E
:1011A00080680007F2D42068816841F00401816002
:1011B00000F04AFC074612E000F046FCC01B0A287B
:1011C0000DD920688068400709D5A06A20F0020088
:1011D00040F01000A06284F824500120F8BD20687F
:1011E00080684007E8D4A06A20F0020040F00100C7
:1011F000A06284F824503046F8BD00000C000020A6
:1012000070470000F8B50024009490F8242025468B
:10121000012A12D0012280F824204A681F23072ABD
:101220000DD20668776B521E02EB820293409F43F9
:101230000B6893401F43776319E00220F8BD0668EE
:101240000D2A0AD2376BD21F02EB820293409F43D2
:101250000B6893401F43376309E0F76A0D3A02EBCE
:10126000820293409F430B6893401F43F7620A68D2
:10127000072306680A2A0AD3F7680A3A02EB4202F1
:1012800093409F438B6893401F43F76008E03769A2
:1012900002EB420293409F438B6893401F433761A8
:1012A0000A68102A01D0112A20D1124B02689A42F2
:1012B00017D193681B0219D4936843F40003936019
:1012C0000968102912D10C490C4A0968B1FBF2F1E6
:1012D00001EB8101490000E0491E00910029FBD18A
:1012E00004E0816A41F020018162012480F82450E9
:1012F0002046F8BD002401400C00002040420F00B1
:10130000704770B50446006806684568A90625D58B
:10131000B10723D5A16AC90603D4A16A41F40071BB
:10132000A1628168C1F34241072910D1217B71B9C3
:10133000416821F020014160A06A20F48070A06221
:10134000A06AC00403D4A06A40F00100A062204655
:10135000FFF7D6FF21686FF01200086028062ED52F
:1013600070072CD5A06AC00603D4A06A40F40050D0
:10137000A06220688168C1F30231072909D0416861
:10138000490515D48168C1F34241072910D1217B59
:1013900071B9416821F080014160A06A20F4805059
:1013A000A062A06AC00503D4A06A40F00100A06258
:1013B0002046FFF725FF21686FF00C0008606806E3
:1013C0000CD5F0070AD0A06A40F48030A062204615
:1013D00000F094F821686FF00100086070BD000013
:1013E0002DE9F0414FF0000704003D467ED0A06A91
:1013F000002628B9E66284F82460204600F080F8D0
:101400002046FFF761FBA16AC90600D420B1A06A9B
:1014100040F01000A06269E0A16A21F4885141F017
:101420000201A1626268E169237B0A4347EA430142
:101430000A43A1684FF48077B94209D0012907D047
:101440005FF0000194F814C0BCF1010F02D00AE073
:101450003946F7E7F3B1A36A43F02003A362E36AD6
:1014600043F00103E3622368D3F804C02CF4694C11
:101470004CEA010CC3F804C021688B68DFF870C027
:1014800003EA0C0313438B60A168B9420BD0012916
:1014900009D00CE0DFF85CC0A3690CEB43330B43CD
:1014A00043F40061DFE7218A0D05A5F58015216869
:1014B000CB6A23F470032B43CB62216889680E4BFF
:1014C0001940914208D1E662A16A21F0020141F07F
:1014D0000101A162BDE8F081A06A20F0020040F0A5
:1014E0001000A062E06A40F00100E0620120F1E734
:1014F000FDF7E1FF00E0FFFFFE0E1FFF7047000059
:1015000070B586B0002506460095019502950395B5
:1015100000681E49884236D11D49886940F4007030
:101520008861886900F400700490886940F00400C4
:1015300088618869694600F00400049033200090B7
:1015400003200190134800F085F9144C1248C4E9B7
:1015500000058020C4E902504000206180006061E5
:101560002020C4E90605204600F034F908B1FFF751
:101570009DFC3462002201211220666200F0D0FA44
:10158000122000F0BFFA06B070BD00000024014038
:10159000001002400008014008000240DC01002069
:1015A00010B590F821100022022905D00421816392
:1015B00080F82020012010BD01680B6823F00E0385
:1015C0000B6001680B6823F001030B6090F840305A
:1015D000C46B012101FA03F3636080F8211080F8E5
:1015E0002020104610BD000010B590F821100024F6
:1015F000022903D00421816301243DE001680A68C7
:1016000022F00E020A6001680A6822F001020A60F4
:101610001A4A0168914201D1012121E0174A14328E
:10162000914201D110211BE0144A2832914201D18C
:10163000891515E0114A3C32914201D189140FE01D
:101640000E4A5032914202D14FF4803108E00B4AE9
:101650006432914202D14FF4801101E04FF0807169
:10166000064A083A5160012180F82110002180F8D3
:101670002010416B01B18847204610BD0800024090
:101680002DE9F05FC16B0C6801680B68D0F840C0B1
:10169000042202FA0CF2494DDFF824A1494E4A4FC8
:1016A000DFF828B1DFF828E122422CD05A072AD5EA
:1016B0000A68920603D40A6822F004020A600168EC
:1016C000A94201D1042219E0514501D1402215E07F
:1016D000B14202D14FF4806210E0B94202D14FF41E
:1016E00080420BE0594502D14FF4802206E071455B
:1016F00002D14FF4800201E04FF080622F49083997
:101700004A60C16A3BE04FF0020808FA0CF818EA98
:10171000040F4FF000094FF0010235D05FEA8378E3
:1017200032D50B689B0605D40B6823F00A030B60C7
:1017300080F821200168A94201D1022219E0514517
:1017400001D1202215E0B14202D14FF4007210E025
:10175000B94202D14FF400520BE0594502D14FF487
:10176000003206E0714502D14FF4001201E04FF063
:101770000072124908394A6080F82090816A002975
:101780001AD0BDE8F05F0847082505FA0CF5254298
:1017900012D01B0710D50B6823F00E030B6090F8D6
:1017A0004010C36B02FA01F15960826380F8212076
:1017B00080F82090016BE2E7BDE8F09F080002404E
:1017C0001C00024030000240440002405800024029
:1017D0006C00024030B528B308C8134914221944DC
:1017E000B1FBF2F18900C1631049816302214177A5
:1017F0001A6843F6F0718A43D0E900142143D0E916
:1018000002452C43214304692143446921438469EF
:10181000214311431960002141630122427701777E
:10182000084630BD012030BDF8FFFDBF000002407A
:1018300070B5044600F008F90546601C02D0044863
:101840000078044400F000F9401BA042FAD370BDB8
:10185000000000202DE9F84FDFF8B8910024A9F12D
:10186000040B23460F2709F1040AABF1040EC9E06B
:101870000125A5402A40AA427DD1674ED1F804C077
:10188000ACEB0608B44532D014DCBCF1030F3AD0FF
:1018900009DCBCF1000F2AD0BCF1010F1CD0BCF157
:1018A000020F31D11DE0BCF1110F17D0BCF1120FA6
:1018B0002AD119E0B8F5881F19D006DCB8F5803FA9
:1018C00015D0B8F5801F1FD111E0B8F5001F0ED05C
:1018D000B8F5041F18D10AE0CB6815E0CB681B1DD2
:1018E00012E0CB6808330FE0CB680C330CE08B6858
:1018F0002BB1012B4FF0080303D0456104E0042312
:1019000002E0056100E00023FF2A01D8064601E05D
:1019100000F104064FEA840501D9A5F12005D6F8A7
:10192000008007FA05FC28EA0C0803FA05F548EAE6
:101930000508C6F800804D68ED0062D5374DAE69E8
:1019400046F00106AE61AD6924F0030605F001051D
:101950000095334D06EB050CDCF80850A607360F52
:1019600007FA06F825EA0805DFF8B880404503D1F4
:101970004FF0000817E044E0DFF8AC80404502D1AA
:101980004FF001080FE0DFF8A480404502D14FF08E
:10199000020808E0DFF89880404502D14FF00308C4
:1019A00001E04FF0040808FA06F848EA0508CCF808
:1019B00008804D68D9F80060ED024D4601D5164308
:1019C00000E096432E604D68DAF80060AD0255469F
:1019D00001D5164300E096432E604D68DBF80060A9
:1019E000AD035D4601D5164300E096432E604D6879
:1019F000DEF80060ED03754601D5164300E096431E
:101A00002E60641C0D682A46E5407FF431AFBDE8C6
:101A1000F88F00000804014000001110001002407F
:101A20000000014000080140000C0140001001408E
:101A3000001401408068084000D0012070470AB1BE
:101A4000016170470904FBE70148806870470000A6
:101A500000000020024881680278114481607047CC
:101A600000000020074810B5016841F01001016036
:101A7000032000F075F80F2000F006F800F024F8BD
:101A8000002010BD0020024070B50D4D04464FF4FB
:101A90007A712878B1FBF0F00A490968B1FBF0F0DF
:101AA00000F0A4FB48B9102C07D200222146501E9A
:101AB00000F036F800206C6070BD012070BD0000A1
:101AC000000000200C0000200C4808B5816941F09E
:101AD00001018161816901F001010091C16941F059
:101AE0008051C161C06900F0805000900448416895
:101AF00021F0E06141F00071416008BD001002403A
:101B000000000140002809DB00F01F020121914084
:101B10004009800000F1E020C0F80011704700008B
:101B2000F0B40E4B1B680C46C3F30223C3F1070548
:101B3000042D00D90425191D072901D2002300E036
:101B4000DB1E012606FA05F1491E214099409E4000
:101B5000761E16403143F0BC01F086BE0CED00E06D
:101B6000064900F0070208684FF6FF03184040EAF4
:101B70000220034A10430860704700000CED00E0AB
:101B80000000FA0510B501460020234C012922D09F
:101B9000022939D010291DD161682268D20119D5D6
:101BA0001E48C1F38342C903805C0AD561681B4AA1
:101BB000C1F34041921E515C194AB2FBF1F1484316
:101BC00001E0184948436168490203D440000321F9
:101BD000B0FBF1F010BD226AC2F30121012903D14B
:101BE000920701D5C80310BD022905D1626A920788
:101BF00002D549F6404010BD0329FCD12168890374
:101C0000F9D54FF2244010BD00F02AF96168C1F304
:101C10008131491C4900DBE700100240CC5E00081E
:101C200000127A0000093D002DE9F84305460078CE
:101C3000354CC00754D0E0690026C00008D4E069E4
:101C400040F08050E061E069012600F08050009093
:101C50002E480168C90512D40168804641F480719C
:101C60000160FFF7F1FE074605E000BFFFF7ECFE5D
:101C7000C01B642823D8D8F80000C005F6D5206A18
:101C800010F4407021D0A98801F4407181421CD029
:101C9000206A1F49012220F440700A6000220A6075
:101CA0002062C00711D0FFF7CFFE074641F2883807
:101CB00008E000BFFFF7C8FEC11B414502D9032061
:101CC000BDE8F883206A8007F4D5206A696820F4AB
:101CD0004070084320621EB1E06920F08050E0614E
:101CE0002878800705D56068A96820F4404008433B
:101CF00060602878C00605D56068E96820F4800037
:101D0000084360600020DBE70010024000700040E4
:101D1000400442422DE9F0470F46050061D0434E92
:101D2000306800F00700B84209D2306820F00700A0
:101D300038433060306800F00700B84251D128685D
:101D40003B4C810712D5400703D5606840F4E06042
:101D500060602878000703D5606840F460506060D8
:101D60006068A96820F0F000084360602878C00728
:101D700028D06868012810D02168022810D089076F
:101D800000292EDA616821F0030101436160FFF749
:101D90005BFE804641F288390DE021688903EFE758
:101DA0008901EDE7FFF750FEA0EB0801494502D994
:101DB0000320BDE8F0876068696800F00C00B0EBB4
:101DC000810FEFD1306800F00700B8420BD93068BE
:101DD00020F0070038433060306800F00700B84258
:101DE00001D00120E5E72878400705D56068E9685B
:101DF00020F4E060084360602878000706D560683A
:101E0000296920F4605040EAC100606000F038F8B1
:101E10006168084AC1F30311515CC8400649086073
:101E200006480068FFF730FE0020C2E700200240AD
:101E300000100240DC5E00080C00002004000020BE
:101E40000448054900684968044AC1F30221515C0D
:101E5000C84070470C00002000100240EC5E0008F3
:101E60000448054900684968044AC1F3C221515C2D
:101E7000C84070470C00002000100240EC5E0008D3
:101E80000E4A51680E4801F00C03042B11D0082BA8
:101E90000FD10C48C1F38343C903C05C0AD5516814
:101EA000084AC1F34041921E515C054A5043B0FBC1
:101EB000F1F07047044948437047000000100240A9
:101EC00000127A00BA5E000800093D002DE9F84FC3
:101ED000040070D02078C04DC00749D06868C0F3B6
:101EE0008100012807D06868C0F38100022809D169
:101EF0006868C00306D52868800339D56068002863
:101F0000E7D035E06068B0F5803F0BD010B1B0F598
:101F1000A02F11D0286820F480302860286820F491
:101F2000802002E0286840F480302860606890B12A
:101F3000FFF78AFD06460AE0286840F48020286002
:101F4000F0E700BFFFF780FD801B642873D8286886
:101F50008003F7D50CE0FFF777FD064605E000BFEC
:101F6000FFF772FD801B6428F0D828688003F7D43F
:101F700020789A4E80074FF001094FF0000839D5BC
:101F8000686810F00C0F07D06868C0F38100022861
:101F900009D16868C00306D42868800714D5206971
:101FA000012808D110E02069B0B1C6F80090FFF711
:101FB0004BFD074605E00AE1FFF746FDC01B02287E
:101FC000C4D828688007F7D52868616920F0F80030
:101FD00040EAC10028600DE0C6F80080FFF734FD3C
:101FE000074604E0FFF730FDC01B022823D828680D
:101FF0008007F7D4207800072CD57948A169D9B19A
:10200000C0F80090FFF720FD074604E0FFF71CFD35
:10201000C01B02280FD8686A8007F7D571484FF4B3
:10202000FA510068B0FBF1F0009000BF0098411E2B
:102030000091FAD20EE080E0C0F80080FFF704FDC6
:10204000074604E0FFF700FDC01B022875D8686A48
:102050008007F7D42078400760D5E8690027C000E2
:1020600008D4E86940F08050E861E869012700F091
:10207000805000905C480168C90513D4016883460C
:1020800041F480710160FFF7DFFC824606E000BF8B
:10209000FFF7DAFCA0EB0A0064284ED8DBF800005A
:1020A000C005F5D5E06801280AD008B1052813D08D
:1020B000286A20F001002862286A20F0040002E06B
:1020C000286A40F001002862E06841F2883B98B13C
:1020D000FFF7BAFC82460BE0286A40F00400286251
:1020E000EEE700BFFFF7B0FCA0EB0A0159455AD854
:1020F000286A8007F6D50CE0FFF7A6FC824605E0CB
:10210000FFF7A2FCA0EB0A0159454CD8286A8007CA
:10211000F6D41FB1E86920F08050E861E06988B327
:102120006968C1F38101022944D00228C6F86080A1
:1021300004D0FFF789FC044638E034E0FFF784FC64
:10214000074604E0FFF780FCC01B02282BD8286854
:102150008001F7D4206AB0F5803F05D16868A16896
:1021600020F4003008436860D4E908010843696836
:1021700021F4741108436860C6F86090FFF764FCAE
:10218000044606E025E000BFFFF75EFC001B0228C6
:1021900009D828688001F7D51BE000BFFFF754FC81
:1021A000001B022802D90320BDE8F88F28688001AF
:1021B000F4D40EE00128F7D06868226A00F4803178
:1021C000914204D1616A00F47010884201D001206C
:1021D000EAE70020E8E70000001002400000424269
:1021E000800442420C0000200070004010B5401EE8
:1021F000B0F1807F01D3012010BD4FF0E024606179
:102200000F21601701F030FB0020A0610720206142
:10221000002010BD10B590F83C20012A22D00122E8
:1022200080F83C20CA688C6822F4407222434C68D3
:1022300022F4806222430C6822F4006222430C697B
:1022400022F4805222434C6922F400522243C9698D
:10225000002322F480420A4301684A6480F83C303B
:10226000002010BD022010BD70B590F83C20012A5E
:1022700026D0012480F83C40022280F83D200368EB
:102280005A689D6822F070060A6832435A600D4B06
:1022900002689A4208D0B2F1804F05D00A4B9A42A8
:1022A00002D00A4B9A4204D1496825F080031943B1
:1022B000916080F83D40002180F83C10084670BDD8
:1022C000022070BD002C01400004004000080040C6
:1022D0002DE9F0410D46040003D094F83D0018B1FB
:1022E00008E00120BDE8F081002084F83C00204691
:1022F00000F040F8022084F83D002068816844F234
:10230000070291438160211D206801F08DF8226849
:1023100090689169166A2B68AF69034340F20330F5
:10232000814341EA0721A868EF6908434FF6FC4161
:102330008843E96840EA0720014328692F6A0001C1
:1023400040EA0730084369686D6926F0220646EACC
:102350000515294393602268906154F8460B016289
:10236000012004F81F09E0752076E0762077A0753B
:102370000020B7E700B585B00021009101910291DE
:10238000039100680D49884216D10D48C16941F09A
:102390000201C161C16901F002010491816941F04A
:1023A000040181618069694600F004000490C02046
:1023B00000900448FFF74EFA05B000BD000400404D
:1023C000001002400008014070B590F83E600446DD
:1023D00090F83F5090F8423090F84320022021B10D
:1023E00004290ED0012E1BD114E0012E18D1012B8F
:1023F00016D184F83E0084F84200012200212068B2
:1024000020E0012D0CD1012A0AD184F83F0084F884
:10241000430014E0012D03D1012B01D1012A01D089
:10242000012070BD84F83E0084F83F0084F842002B
:1024300084F8430001220021206801F031F80122D4
:102440000421206801F02CF82068016841F00101A6
:102450000160002070BD000000B585B00021009132
:1024600001910291039100680B49884212D10B48F7
:10247000816941F0040181618069694600F00400CE
:1024800004904FF470600090022001900390044883
:10249000FFF7E0F905B000BD002C0140001002403C
:1024A0000008014070B5044690F83C0000260D4637
:1024B00001280FD0012084F83C006AB1042A1DD005
:1024C000082A2FD00C2A3FD00126002084F83C0097
:1024D000304670BD022070BD206800F0EFFF20681C
:1024E000816941F0080181612068816921F004015E
:1024F0008161206881692A69114311E0206801F037
:1025000005F82068816941F4006181612068816972
:1025100021F480618161206881692A6941EA022190
:102520008161D2E7206801F01DF82068C16941F09F
:102530000801C1612068C16921F00401C1612068FE
:10254000C1692A69114311E0206801F037F8206859
:10255000C16941F40061C1612068C16921F48061F1
:10256000C1612068C1692A6941EA0221C161ACE701
:1025700010B5040003D094F83D0010B107E001202D
:1025800010BD002084F83C00204600F01FF8022017
:1025900084F83D00211D206800F046FF012084F8EA
:1025A000460084F83E0084F83F0084F8400084F838
:1025B000410084F8420084F8430084F8440084F821
:1025C000450084F83D00002010BD000008B50068FB
:1025D0000649884208D10648816941F40061816159
:1025E000806900F40060009008BD0000002C0140EC
:1025F0000010024010B50446022249B104290ED051
:10260000082913D094F84100012816D0012010BDEC
:1026100094F83E000128F9D184F83E200FE094F8A8
:102620003F000128F2D184F83F2008E094F84000F0
:102630000128EBD184F8402001E084F841200122F8
:10264000206800F02DFF0F492068884203D1426CBA
:1026500042F4004242642068884208D0B0F1804FC2
:1026600005D00949884202D00849884204D18168CE
:1026700001F00701062903D0016841F00101016062
:10268000002010BD002C0140000400400008004064
:1026900030B504460D460068002200F001FF174BDC
:1026A00041F2111120688A10984209D1036A0B4245
:1026B00006D1036A134203D1436C23F400434364FD
:1026C0002068036A0B4206D1016A114203D10168F6
:1026D00021F00101016001203DB1042D08D0082D39
:1026E00009D084F84100002030BD84F83E00FAE7AC
:1026F00084F83F00F7E784F84000F4E7002C01403D
:1027000070477047F8B5016804460868CA684B69A5
:1027100010F00F0F4FF0000559D003F0010602F43E
:102720009077374365D0C10705D0D10503D5616CDB
:1027300041F001016164410705D5D90703D0616CFF
:1027400041F002016164810705D5D90703D0616CAE
:1027500041F004016164010707D502F02001314313
:1027600003D0616C41F008016164616C00293AD0CA
:10277000800604D5900602D5204600F070FF206840
:102780004069616CC0F38010090700D460B3204633
:1027900000F03EFF20684069400621D520681430D3
:1027A00050E8001F21F0400140E80012002AF5D156
:1027B000E06BA8B16D494163E06BFEF715FF00289F
:1027C00011D0E06B416B01B0BDE8F04008478306D3
:1027D0000FD593060DD52046BDE8F84000F03FBF69
:1027E0002046FFF78EFFF8BD2046FFF78AFF65649D
:1027F000F8BD266B2023012E7CD1C6067AD5D606DD
:1028000078D508684868009048694FF0020640068D
:1028100040D5E16B086840680004000CE8D0A28D48
:102820008242E5D9E085886920282DD020680C30C7
:1028300050E8001F21F4807140E80012002AF5D111
:102840002068143050E8001F21F0010140E8001218
:10285000002AF5D12068143050E8001F21F0400113
:1028600040E80012002AF5D184F842302563206840
:102870000C3050E8001F21F0100140E80012002A3F
:10288000F5D1E06BFEF78CFE6663A08DE18D401AFA
:1028900081B22AE0A08DE18D401A81B2E08D00283E
:1028A000A6D00029A4D022680C3252E8000F20F4F0
:1028B000907042E80007002FF5D12068143050E8EE
:1028C000002F22F0010240E80027002FF5D184F804
:1028D0004230256320680C3050E8002F22F01002AF
:1028E00040E80023002BF5D166632046FFF708FF80
:1028F000F8BDFFE705062BD5150629D594F841004C
:102900002128F5D1A068B0F5805F01D12069B0B170
:10291000206A411C2162216800784860E08C401EDA
:102920000004000CE084E3D12068C16821F080013C
:10293000C1602068C16841F04001C160D8E7206AE9
:102940000088C0F308004860206A801C2062E5E728
:102950004006CDD55006CBD5CA68204622F04002AD
:10296000CA6084F8413000F093F8C1E701360008EE
:1029700070B5040004D094F84100002510B106E0C1
:10298000012070BD84F84050204600F023F8242038
:1029900084F841002068C16821F40051C1602046DC
:1029A00000F0BEFE2068016921F4904101612068B9
:1029B000416921F02A0141612068C16841F4005158
:1029C000C1606564202084F8410084F8420065639A
:1029D000002070BD30B585B00024009401940294AD
:1029E00003940068184988422BD11848C16941F402
:1029F0000031C161C16901F400310491816941F084
:102A0000040181618069124D00F0040004900420EB
:102A10000090022001900320039069462846FEF7AB
:102A200019FF0820CDE90004694628460294FEF704
:102A300011FF002211462620FFF772F82620FFF72B
:102A400061F805B030BD00000044004000100240B5
:102A50000008014090F84230202B01D0022070473E
:102A600021B11AB10023036300F0B6BE0120704704
:102A700000680449884204D1052203490348FFF74E
:102A8000E9BF704700440040680000209401002026
:102A90007047FEE770B50D4C0025C4F8B8510C48DE
:102AA000416821F070414160416841F0405141600E
:102AB000C4F8BC51012004F5DC7401F063FB012073
:102AC000206001F05FFB256070BD00000000224225
:102AD0000010014070B50D4C0025C4F8B8510C48E9
:102AE000416821F070414160416841F040514160CE
:102AF0000126C4F8BC61304604F5DC7401F042FBE9
:102B00002660012001F03EFB256070BD00002242DE
:102B1000001001402DE9F047814617480024416824
:102B200021F070414160416841F000414160134E25
:102B3000254627464FF00108C6F8B871022001F07B
:102B400021FBC6F8B8816006040ED6F83C0108B136
:102B5000641CE4B2022001F015FB6D1CEDB2082DDF
:102B6000EAD3B9F1000F02D0FFF794FF01E0FFF7BD
:102B7000B1FF2046BDE8F08700100140000022426E
:102B80002DE9F04106461448416821F0704141604A
:102B9000416841F040514160104C0027C4F8B871C1
:102BA0003D464FF00108F009C4F8BC017006060E5E
:102BB000012001F0E7FAC4F8B881012001F0E2FA3F
:102BC000C4F8B871012001F0DDFA6D1CEDB2082DDA
:102BD000E9D3BDE8F081000000100140000022426E
:102BE00070B51148416821F070414160416841F081
:102BF000405141600D4C0120C4F8BC01D4F83C1197
:102C000049B1C4F8B80101F0BDFA0025C4F8BC51BF
:102C1000D4F83C0108B1002070BD012001F0B2FAE7
:102C2000C4F8B851012070BD0010014000002242DC
:102C30000D4810B5416821F070414160416841F094
:102C400040514160094C0020C4F8B801C4F8BC01EF
:102C5000012004F5DC7401F095FA01202060606029
:102C6000BDE8104001F08EBA001001400000224281
:102C700070B513480024416821F0704141604168FB
:102C800041F0004141600F4D0126C5F8BC6130465E
:102C900001F078FAC5F8B86107E0641CE4B2322CA0
:102CA00003D9FFF7C5FF002070BD012001F06AFACB
:102CB000D5F83C010028F0D1C5F8B801012070BD5D
:102CC0000010014000002242FEB50024204800947C
:102CD00001941E4902940160891581600473047592
:102CE000042505614FF460214460C161FEF778FB63
:102CF00008B172B6FEE70126CDE9004669461448E0
:102D00000294FEF77FFA08B172B6FEE70220CDE921
:102D1000006069460E48FEF775FA08B172B6FEE724
:102D20000320CDE9005069460948FEF76BFA08B167
:102D300072B6FEE70520CDE9000569460448FEF7B6
:102D400061FA002801D072B6FEE7FEBD0024014002
:102D5000D40000202DE9F04385B0002430480094D1
:102D6000019402940394816941F0100181618169A9
:102D700001F010010491816941F0200181618169B4
:102D800001F020010491816941F0040181618169B0
:102D900001F004010491816941F0080181618069B9
:102DA000DFF8808000F00800049000224FF46041BA
:102DB0004046FEF744FEDFF870904FF47047002263
:102DC00039464846FEF73BFE4FF400500125CDE959
:102DD00000050220CDE9024069464046FEF73AFD73
:102DE0004FF44040009001AA1120032682E86100C0
:102DF00069464046FEF72EFD00970396CDE9015443
:102E000069464846FEF726FD4FF450708DE83100C4
:102E100069464846FEF71EFD05B0BDE8F083000098
:102E20000010024000100140000C014010B592B0AB
:102E300000240F941C2168461094FDF7BDF9202151
:102E400007A8FDF7B9F92C482A4901604721C0E9D4
:102E500001141321C0E9031444618461FFF788FB66
:102E600008B172B6FEE70F940FA923481094FFF73C
:102E7000FBF908B172B6FEE76020CDE900040294C8
:102E8000039404940594002269461B480694FFF7B6
:102E900009FB08B172B6FEE7042269461648FFF73F
:102EA00001FB08B172B6FEE7082269461248FFF737
:102EB000F9FA08B172B6FEE70C2269460E48FFF730
:102EC000F1FA08B172B6FEE70794089409944FF43A
:102ED00000500A94CDE90B4007A907480E94FFF76C
:102EE00099F908B172B6FEE70348FFF7B5FA12B0D8
:102EF00010BD0000002C01400401002010B58CB072
:102F000024216846FDF758F900241548099413490F
:102F10000A94C0E900144EF66021C0E90241046140
:102F200084610120CDE90004CDE902040494CDE9D7
:102F30000540079469460A480894FFF7C9F908B1A3
:102F400072B6FEE7099409A905480A94FFF78CF9BF
:102F5000002801D072B6FEE70CB010BD000400409E
:102F60004C010020FEE7FEE72DE9F0410446007E1B
:102F700016460D46000602D52046FEF777F84FF0BC
:102F80007E502563206729463046A666FDF77EF908
:102F9000A06320F000406169FDF7F6FB7ED2278B2D
:102FA000B7F5807F57D0A56B20682946FDF774F9E7
:102FB000A06429466068FDF76FF9266F3146FDF77A
:102FC0006BF9A0652846E16BFDF760F9A168FDF794
:102FD00063F93146FDF792F92065780702D520465E
:102FE000FEF77EF8207E800602D52046FDF760FFC2
:102FF000207E800702D52046FDF7C0FF207E4006D8
:1030000002D52046FDF79BFF207EC00702D0204658
:10301000FDF7C2FFA16DE06CFDF7E6F80646E0643F
:10302000D4E90C01FDF732F9E168FDF735F9054601
:1030300060653146A06CFDF7D7F8216DFDF7D4F837
:103040002946FDF7D1F8E065207EC00637D5204639
:10305000FDF7D7FF33E0D4E90E7529463846FDF772
:1030600015F92168FDF718F98046A06439466068B3
:10307000FDF712F90646A06501212846FDF77CF907
:103080003946FDF706F9216CFDF7AEF8A168FDF7AA
:1030900003F9074620653146E06C00E013E0FDF7D8
:1030A000A3F80646E0644146206EFDF79DF83146E0
:1030B000FDF79AF83946FDF797F82564E065204654
:1030C000FDF7BEFF02E00020E065A065206B6063B5
:1030D000E06D2066216D6166A16BE163A16D6164A5
:1030E000BDE8F081174910B56820087020316920CB
:1030F0000870144803211438002401700421417021
:103100000472FDF74BFD0F4805210A3801700621B6
:103110004170847001210172FDF740FD09480A49A0
:103120004430C0E90014846004830849016100212F
:103130005838FDF771FD03480021BDE810400A38FA
:10314000FDF76ABD440200200000204100007A44DF
:10315000704700002DE9F04F04468FB0007802F070
:10316000E9FD0CAE04F11C0504F1160804F110078A
:10317000CDE900560DAB08AA4146384601F07AF970
:103180000028F5D1A08BC0057ED50898FDF788FAF8
:103190006FF01D063146FDF7EFF85E4D8046286062
:1031A0000998FDF77DFA3146FDF7E6F8814668603B
:1031B0000A98FDF775FA3146FDF7DEF80746A86074
:1031C0000B98FDF76DFA3146FDF7D6F80646E86034
:1031D00001214046FDF7D0F83946FDF75DF8074676
:1031E0004FF0404841464846FDF756F83146FDF756
:1031F00053F83946FCF7F8FFFDF78DFA00F0ACFC08
:10320000DFF814A14FF066394A465346FDF767F9D7
:10321000FDF794FA6060A86801210646FDF7ACF856
:1032200083463146FDF738F80646686841468046D1
:10323000FDF732F84146FDF72FF83146FDF726F845
:103240004FF07E51FCF7D0FFFDF765FA07460E46BA
:1032500001212868FDF790F84146FDF71DF88046EA
:103260005846E968FDF718F84146FCF7BDFFFDF741
:1032700052FA3A46334600F0B7FE4A465346FDF747
:103280002EF9FDF75BFA00E040E0A060E9680391E9
:103290000846FDF701F8A968834608460291FCF745
:1032A000FBFF6968074608460191FCF7F5FF2968AE
:1032B000064688464046FCF7EFFF3146FCF794FF90
:1032C0003946FCF7E3FF5946FCF7E0FFFDF723FA28
:1032D00006460D4640460399FCF7DEFF0746DDE94A
:1032E0000101FCF7D9FF3946FCF77EFF0121FDF70C
:1032F00043F8FDF710FA32462B4600F075FE4A46B9
:103300005346FDF7ECF8FDF719FAE0600FB0BDE8A1
:10331000F08F0000A800002066A64C407047000017
:1033200005480178022905D14178002902D10349D5
:10333000807808707047000068000020C1000020FD
:103340000E480178012912D1417811B101290AD022
:103350000DE08078012802D0022802D007E000208A
:10336000704701207047807818B1012803D00420ED
:10337000704702207047032070470000680000205B
:1033800010B50648FFF7F4F83C210548FFF71CF894
:10339000BDE810400348FDF7C7BE0000040100204F
:1033A0004C010020D4000020FEF754BB30B593B090
:1033B00028216846FCF700FF14210AA8FCF7FCFE50
:1033C000002501200F9510951195010412958DE8A7
:1033D000230004904FF4E010CDE908100224079474
:1033E0006846FEF773FD08B172B6FEE70AA90F2022
:1033F00081E831004FF48060CDE90D0502210AA873
:10340000FEF788FC08B172B6FEE74FF40040119059
:103410000F940FA8FEF708FC002801D072B6FEE753
:1034200013B030BD70470000F0B50268194B1A4C5C
:103430001A4D4FF08047984205D0B84203D0A042C1
:1034400001D0A84203D122F070064A683243984264
:1034500005D0B84203D0A04201D0A84203D122F443
:103460004074CA6822434C6922F080022243026001
:103470008A68C2620A688262984201D1096901635E
:10348000012141610169C90703D0016921F00101EE
:103490000161F0BD002C0140000400400008004024
:1034A00010B501F01F030121046A99408C430462A6
:1034B000016A9A401143016210BD000030B5036AF1
:1034C000026A22F0010202624268846924F07305F4
:1034D0000C682C4323F002058B682B430A4DA8424D
:1034E0000BD123F00805CB6822F440722B434D69C1
:1034F00023F0040315438A692A43426084614968C2
:103500004163036230BD0000002C014030B5026A07
:10351000036A23F010030362436884690D6824F48E
:10352000E64444EA05248D6822F0200242EA0512AE
:103530000B4DA8420ED1CD6822F0800242EA05125E
:103540004D6923F4406343EA85038D6922F040020C
:1035500043EA85034360846149688163026230BD48
:10356000002C014030B5036A026A22F480720262C4
:103570004268C46923F4007324F073050C682C437B
:103580008D6843EA05230C4DA8420ED1CD6823F483
:10359000006343EA05234D6922F4405242EA0512D2
:1035A0008D6923F4806342EA05124260C461496870
:1035B000C163036230BD0000002C014030B5046AD5
:1035C000026A22F4805202624268C3690D6823F4E1
:1035D000E64343EA05238D6824F4005444EA0534A5
:1035E000064DA84204D14D6922F4804242EA851278
:1035F0004260C36149680164046230BD002C01402F
:1036000010B5406A0021C185C184FFF77AF810BD6A
:1036100001680C3151E8002F22F4907241E8002338
:10362000002BF5D10168143151E8002F22F001027E
:1036300041E80023002BF5D1016B012909D1016874
:103640000C3151E8002F22F0100241E80023002B3A
:10365000F5D1202180F8421000210163704708B5A0
:1036600090F84210222901D0022008BD82684FF450
:1036700080539A4201D1016921B1816A9A421BD0DB
:103680004AB10AE00268816A5268C2F308020A80FD
:10369000816A891C08E0026972B10268526802F00E
:1036A0007F020A70816A491C8162C18D491E09042A
:1036B000090CC18503D01BE002685268F1E701687C
:1036C000CA6822F02002CA600168CA6822F48072C7
:1036D000CA6001684A6922F001024A61202180F82B
:1036E000421000214163026B012A03D0FFF7C0F9A9
:1036F000002008BD016301680C3151E8002F22F061
:10370000100241E80023002BF5D101680A68D206B7
:1037100002D50A6849680091818DFEF7F1FFE7E75D
:1037200070B5044600680169E26821F44051114314
:1037300001612169A0680843616908432168CA687A
:1037400041F20C639A430243CA6020684169A2694E
:1037500021F44071114341611E492068884202D121
:10376000FEF77EFB01E0FEF76BFB00EBC00101EB17
:103770000012606864218000B2FBF0F3B3FBF1F348
:103780006FF018067343B2FBF0F5B2FBF0F605EBF1
:103790008305322303EB0515B5FBF1F5B6FBF1F616
:1037A00005F0F00505EB0615B2FBF0F6B2FBF0F004
:1037B000B0FBF1F06FF01802504306EB800003EB12
:1037C0000010B0FBF1F0216800F00F002844886081
:1037D00070BD00000038014081628285C2850021F1
:1037E0004164222180F84210016921B10168CA6850
:1037F00042F48072CA6001684A6942F001024A617B
:103800000068C16841F02001C160002070470000DD
:103810000148FEF777BF000094010020FEE700009A
:103820000FB4054B10B503A9044A029800F0AAF89A
:1038300010BC5DF814FB0000294B0008CC000020F0
:10384000490050EAC12018BF04204A0D18BF40F0BB
:10385000010040F2FF72B2EB515F08BF40F002007E
:10386000012808BF052070470907090E002804DB5E
:1038700000F1E02080F80014704700F00F0000F124
:10388000E02080F8141D70472DE9F0414F1E00EB39
:10389000C7010446D1E9000115461E4637F006026D
:1038A0000DD02A463346FCF71AFE7F1E04EBC703F1
:1038B000D3E90023FCF76CFD37F00602F1D1022FAB
:1038C00025D0042F13D0062F18BFBDE8F0812A465B
:1038D0003346FCF704FED4E90A23FCF759FD2A46D7
:1038E0003346FCF7FCFDD4E90823FCF751FD2A46DA
:1038F0003346FCF7F4FDD4E90623FCF749FD2A46DC
:103900003346FCF7ECFDD4E90423FCF741FD2A46DD
:103910003346FCF7E4FDD4E90223FCF739FD2A46DF
:103920003346FCF7DCFDD4E90023BDE8F041FCF7A9
:103930002FBD0122FDF72EB8FCF72ABD0022134649
:1039400010461146FCF73DBE024A00201107FDF764
:1039500021B8000001FDFFFF02E008C8121F08C1E6
:10396000002AFAD170477047002001E001C1121F00
:10397000002AFBD170470000014908607047000031
:10398000D00000202DE9FF4F89B09B46044600255A
:1039900006E025280BD05A460B999047641C6D1CF5
:1039A00020780028F5D10DB02846BDE8F08F00271B
:1039B000B8460122474900E0074314F8013F203B85
:1039C00002FA03F00842F7D120782E2819D114F812
:1039D000010F47F004072A280ED06FF02F0220783D
:1039E000A0F1300109290CD808EB880102EB410154
:1039F00000EB0108641CF2E70A98641C50F8048B81
:103A00000A9020780028CED0642808D0692806D0F3
:103A100075281ED05A460B9990476D1C58E00A999C
:103A20004FF00A0901C90A91002802DA40422D210B
:103A300002E0390504D52B218DF82010012103E087
:103A4000F90704D02021F7E78A4608AE0DE00021EF
:103A5000FAE70A994FF00A0901C90A91F7E74946BE
:103A6000FCF79CFE303106F8011D0028F7D1ADEBC4
:103A7000060000F12009780701D44FF00108C8457D
:103A800002DDA8EB090000E000208046002706E0E8
:103A900008A85A46C05D0B9990476D1C7F1C57457E
:103AA000F6DB04E030205A460B9990476D1CB8F1C4
:103AB0000001A8F10108F5DC05E016F8010B5A46F3
:103AC0000B9990476D1CB9F10001A9F10109F4DCD3
:103AD000641C65E7092801002DE9FE4F07460E46E4
:103AE0000025684601F02AF800246FF00F0AE84626
:103AF0004FF0010957F8240056F82410401A00D559
:103B00004042FCF7CDFD5146FCF736FC58F8241036
:103B100011F0FF4F0BD0FCF7F1FB4FF07E51FCF79B
:103B2000B5FB0A4920F00040884205DC07E008495F
:103B300008440849884202D309FA04F00543641C8A
:103B4000032CD7DB2846BDE8FE8F0000295C0F3E22
:103B5000666666C19A99D9002DE9F04D8D4F21F026
:103B6000004A86B005460C46BA452ADBAAEB070098
:103B700028430AD08848824501DC1AD1CDB106B06D
:103B80002846BDE8F04DFFF7D4BE844A844B284652
:103B9000FCF7A5FC07460E46824A834B2846214681
:103BA000FCF79DFC06B03A463346BDE8F04DFCF705
:103BB000EFBB0120FFF7E0FE06B0BDE8F04DFFF7D8
:103BC000BDBE7A48824542DABAF1795F0BDA2846FF
:103BD000FFF736FE042808BFFFF7B6FE284606B0FA
:103BE0002146BDE8F08D2A460B461046FCF777FCCF
:103BF000834602466E480E460B4606217844FFF780
:103C000043FE5A463346FCF76AFC804669488A46BA
:103C10005A46334604217844FFF736FE5A46334667
:103C2000FCF75DFC00223B46FCF7B2FB02460B466C
:103C300040465146FCF7C5FC2A462346FCF74FFC9C
:103C400006B02A462346BDE8F04DFCF7A1BB284646
:103C500024F0004100223D463B46FCF73DFC4FF07E
:103C6000FF32FCF797FE0646024653480F460B46C6
:103C700006217844FFF708FE32463B46FCF72FFC4E
:103C8000CDE900014D4832463B4604217844FFF718
:103C9000FBFD32463B46FCF722FC00222B46FCF79C
:103CA00077FB834602913046394602F0DFF88046C2
:103CB00043480D46504517DCDDE900015A46029B9A
:103CC000FCF77FFC42462B46FCF709FC42462B469C
:103CD000FCF75EFB0122FCF75DFE304A304BFCF73F
:103CE000F8FB304A304B4CE04FF0000A52460B468E
:103CF0004046FCF74DFBCDE9031052462B461046DB
:103D00001946FCF7ECFB32463B46FCF7E5FBDDE9E8
:103D10000332FCF756FC06460F46DDE900015A4621
:103D2000029BFCF74EFC8346009101223046394647
:103D3000FCF730FE194A1A4BFCF7CEFB06460F463D
:103D4000012240462946FCF725FE5A46009BFCF717
:103D5000C6FB32463B46FCF7BCFB06460F4601223B
:103D600050462946FCF716FE0E4DDFF858802A46CD
:103D70004346FCF7B1FB32463B46FCF7ADFB2A4617
:103D80004346FCF7A9FB002CD8BF81F0004106B0E8
:103D9000BDE8F08D0000F03F0000F07F075C1433B9
:103DA00026A6913C182D4454FB21F93F0000E03F2A
:103DB000302F0000462F0000BA2E0000D02E000049
:103DC0003333EF3FFB21E93F2DE9F84F04460D4621
:103DD00021F0004000917349814211DC7249884210
:103DE00001DC06D12CB120462946BDE8F84FFFF78B
:103DF000A0BD6E48002DCCBF6D496E49BDE8F88F5F
:103E00006D49814211DD6D498142D8BF4FF0FF36C7
:103E10006DDD20462946FFF713FD042808BFFFF794
:103E200093FD20462946BDE8F88F6549654F25F08A
:103E30000045814233DD6449814219DD0026324666
:103E40004FF0804320462946FCF7A2FA80468A4676
:103E5000012220462946FCF79DFD00223B46FCF747
:103E600038FB42465346FCF7ACFB04460D463EE0A9
:103E700001260022BA463B4620462946FCF788FA2E
:103E800080460F460022534620462946FCF721FB78
:103E900042463B46FCF795FB04460D4627E04B495E
:103EA00081421BDDDFF828A102260022534620466E
:103EB0002946FCF714FB00223B46FCF769FA8046D2
:103EC0000F460022534620462946FCF702FB424695
:103ED0003B46FCF776FB04460D4608E003262246E7
:103EE0002B4600203B49FCF76CFB04460D4622465E
:103EF0002B4610461946FCF7F2FA8B4682460246DC
:103F00000B46FCF7ECFA07460246334888460B4658
:103F100006217844FFF7B8FC52465B46FCF7DFFA0F
:103F200082462E488B463A46434605217844FFF7A1
:103F3000ABFC3A464346FCF7D2FA02460B46002E4B
:103F4000504659460CDAFCF723FA22462B46FCF77A
:103F5000C6FA01B022462B46BDE8F04FFCF7BCBACA
:103F6000FCF716FA22462B46FCF7B9FA1C4A7A44AB
:103F700002EBC603D3E90023FCF7ABFA22462B463B
:103F8000FCF7A7FA174A7A4402EBC603D3E90023E9
:103F9000FCF7A2FA009A002AB8BF81F00041BDE800
:103FA000F88F0000000010440000F07F182D4454EA
:103FB000FB21F93FFB21F9BF0000DC3F0000203E60
:103FC0000000F33F0000F03F0000E63F00800340A8
:103FD0000000F83F0000F0BFD22C0000902C000041
:103FE0002E2C0000F62B00002DE9F04D9446CCF16C
:103FF000000423F000464CEA0404594F46EAD47406
:104000009A46884621F00042BC4206D8454240EA22
:10401000050442EAD474BC4204D9BDE8F04D6246BE
:10402000FFF78ABCAAF14055A5F17F6555EA0C045B
:104030000BD0022404EAAA744A4DDFF82CE144EACA
:10404000D87452EA000B04D00CE0BDE8F04DFFF745
:10405000BBBE002C14BF012CBDE8F08D022C30D06B
:10406000032C32D056EA0C0B0AD0BE4220D1BA4201
:1040700009D126F0804622F080423346114617E0EF
:1040800000291ADB25E0DFF8E4B0FB44002C04BF74
:10409000DBE90001BDE8F08D012C02BFDBE9000186
:1040A00081F00041BDE8F08D022C0AD0032C0CD029
:1040B000BA4212D1B8F1000F0BDA2A482C49BDE8F8
:1040C000F08D28462B49BDE8F08D28467146BDE8A5
:1040D000F08D24482849BDE8F08D921B12153C2A2A
:1040E000C4BF204F244E10DCBAF1000FBEBF12F146
:1040F0003C0F00273E4608DB6246FCF762FA21F0DF
:104100000041FFF761FE07460E4694B1012C08BF3F
:1041100086F000460DD0194A194B022C384631461C
:1041200015D0FCF7D6F92A46BDE8F04D114BFCF747
:10413000D0B90022134638463146FCF743FC04BF91
:104140000220FFF719FC38463146BDE8F08DFCF738
:10415000C0F92A46BDE8F04D064BFCF7BDB900009A
:104160000000F07F182D4454FB2109C08A2B000069
:10417000FB21F9BFFB210940FB21F93F075C143308
:1041800026A6A13C71B54FF461754FF0E023104EA7
:10419000009819E02C46A04200D804469869614274
:1041A00001EBC10110EBC10105D49A69824208DA22
:1041B0008A42FADA05E08A1999698142FCDD914266
:1041C000FADC0098001B00900028E3D178BD0000C5
:1041D0004019010008B560B120208DF800002820AA
:1041E0008DF8010030208DF8020038208DF8030092
:1041F00004E0A32204216846FBF7D7FF6A460421A6
:1042000040F69E2001F09EFD01F05CFA08BD000022
:104210003EB5044602208DF80000CA208DF801004A
:10422000E3208DF8020009208DF803006A4604217E
:10423000682001F087FDA3208DF80000610609D5F4
:10424000C0218DF80110C8218DF80210C2218DF80F
:10425000031005E08DF801008DF802008DF80300D1
:1042600014F4C07F09D0C4218DF80410CC218DF83E
:104270000510C6218DF8061005E08DF804008DF8B4
:1042800005008DF806008DF808008DF807008DF800
:1042900009006A460A2140F6A72001F053FDA00755
:1042A0004FF0D80503D020208DF8000001E08DF8F4
:1042B00000506A46012140F6B62001F043FDA006F9
:1042C00001D5012000E0002000F08EF814F4C07F3A
:1042D0001ED0E0050AD5B2208DF800008B208DF8A5
:1042E0000100B6208DF802009B2009E0B0208DF877
:1042F000000080208DF80100B4208DF8020090208D
:104300008DF803006A46042140F6A22001F01AFD50
:10431000E1074FF40B6022D0F8218DF800106A46B7
:10432000012101F00FFDFA21072000F049FB0720D1
:1043300000F014FB012000F031FB642000F0D4FBFE
:104340004FF4FA7000F0E0FBC821254800F0CEFAE7
:10435000282000F0E3FA0A2000F0F0FA05E08DF8DA
:1043600000506A46012101F0EDFCA00703D5D920D9
:104370008DF8000001E08DF800506A46012140F2FE
:104380003D7001F0DFFC600701D5012000E0002056
:1043900000F048F8E00601D5012000E00020FFF71A
:1043A00019FF104D44F00800688101F08BF90020DE
:1043B000A873600601D50620A87314F4C07F02D04C
:1043C000A87B801DA87314F0140F02D0A87B1030B6
:1043D000A873A00702D0A87B001DA87300203EBDD3
:1043E00009E3CA02200200200EB54FF4976310B112
:1043F00006A107C901E008A207CA8DE807006A46BE
:104400000921184601F09EFC0EBD0000B8AAB38D2C
:10441000B4980D355D000000B8AAAAAAB088C3C53B
:10442000C700000008B560B1C0208DF80000C220B0
:104430008DF80100C4208DF80200C6208DF803001D
:1044400004E08B2204216846FBF7AFFE6A46042194
:1044500040F6982001F076FC01F034F908BD000028
:10446000C8234FF48062024940F6F63001F00CB8E0
:10447000385F00082DE9FF4F89B01746DDE9165275
:104480000024544E884681462C80A246B07B694663
:1044900001F0A6F84FF0FF3B18B158460DB0BDE84B
:1044A000F08F708910F0140F4CD0BDF800109DF8FB
:1044B000022049BA090441EA02239DF803100B4384
:1044C0003B60BDF804109DF8062049BA090441EA92
:1044D00002229DF807101B140A437A60BDF80810E9
:1044E0009DF80A4049BA090441EA04219DF80B40AD
:1044F00012142143B960BDF80C409DF80EC064BA97
:10450000240444EA0C2C9DF80F4009144CEA040CD6
:10451000C7F80CC04FEA2C475B43494302FB023209
:1045200007FB071111441024A1F17061B1F1007F64
:1045300004D901F0C7F8A5F800A0AEE7298841F436
:10454000807129804206694611D50A19A41D138875
:104550005BBAA8F8003053885BBAA8F8023092889A
:1045600052BAA8F804202A8842F008022A8010F4DF
:10457000C07F11D00A19A41D13885BBAA9F80030B6
:1045800053885BBAA9F80230928852BAA9F804207D
:104590002A8842F070022A80800716D00C44E07806
:1045A00000F0C00500F03F016078C00706D0C808E1
:1045B00001F007013268491C02B19047607800079A
:1045C00003D5716809B1A80988470C9801F0E4FB8C
:1045D000002063E7200200202DE9FF41044603A8E4
:1045E00000F008FEBDF80C00410CC3032F48008901
:1045F00000F0030254F82250420700D56D42C0F388
:10460000C102860654F8222000D55242C0F381161A
:10461000C00554F8264000D56442A5FB0367E8179F
:1046200000FB037005FB0100850045EA9670A2FBC4
:104630000367D51705FB037502FB0152950045EA98
:104640009672A4FB0367E51705FB037304FB0131B6
:104650008B0043EA9671030E8DF80030030C8DF841
:104660000130030A8DF802308DF80300100E8DF82A
:104670000400100C8DF80500100A8DF80600080ED5
:104680008DF80800080C8DF80900080A8DF80A005A
:104690008DF807208DF80B106A460C214FF4257019
:1046A00001F050FB04B0BDE8F081000020020020C2
:1046B00030B5044613A285B007CA8DE807004FF055
:1046C000FF35C82C16D8C820B0FBF4F1491E080AE3
:1046D0008DF80C008DF80D1003AA022140F216206F
:1046E00001F030FB30B96A460C2140F6C12001F0E0
:1046F00029FB10B1284605B030BD05488481002053
:10470000F9E70000FEF2ABC4AAF1DFDFBBAFDFDFE9
:1047100020020020F8B53049098901F0030250F861
:1047200022404A0700D56442C1F3C1028B0650F80B
:10473000222000D55242C1F3811350F82330C8051E
:1047400000D55B42254984FB0140850045EA947011
:1047500082FB0142A40F44EA820483FB0121950FEE
:1047600045EA8105010E8DF80010010C8DF801104D
:10477000010A8DF802108DF803006A4604214FF4F7
:10478000747001F0DFFA4FF0FF3688B9200E8DF813
:104790000000200C8DF80100200A8DF802008DF831
:1047A00003406A4604214FF4757001F0CBFA08B15A
:1047B0003046F8BD280E8DF80000280C8DF8010059
:1047C000280A8DF802008DF803506A4604214FF440
:1047D000767001F0B7FAF8BD2002002009E3CA02A2
:1047E0002DE9FF4104463CA004F003030068029059
:1047F0003AA0006803903AA006683AA0056802A8AB
:10480000C15C8DF80010C4F3C101425C8DF8012039
:10481000C4F38112805C8DF8020003A8C35C8DF89C
:104820000430415C8DF80510805C8DF806006A4606
:10483000032140F2264001F085FA4FF0FF37E0BB3C
:1048400001AA032140F22A4001F07CFAA8BBCDE97D
:10485000006560070BD59DF8000040F001008DF861
:1048600000009DF8040040F001008DF80400A0064F
:104870000BD59DF8010040F001008DF801009DF876
:10488000050040F001008DF80500E0050BD59DF80E
:10489000020040F001008DF802009DF8060040F093
:1048A00001008DF806006A4603214FF4886001F08C
:1048B00049FA10B901AA032100E004E040F23140B6
:1048C00001F040FA18B1384604B0BDE8F08106485E
:1048D00004810020F8E700004CCD6C000CC92C00CE
:1048E0003656760026466600200200204FF47A7283
:1048F00090FBF2F008B54843010E8DF80010010C52
:104900008DF80110010A8DF802108DF803006A4637
:1049100004214FF4AE7001F015FA08BD0521B0FB7B
:10492000F1F008B5010A8DF800108DF801006A4613
:1049300002214FF4AD7001F005FA08BD0521B0FB6E
:10494000F1F008B5010A8DF800108DF801006A46F3
:1049500002214FF4AC7001F0F5F908BD08B5002153
:104960008DF80010C10702D030218DF800108107AA
:1049700005D59DF8001041F00C018DF8001040079E
:1049800005D59DF8000040F003008DF800006A4650
:1049900001214FF4A47001F0D5F908BD08B560B14C
:1049A000042800D90420401E8DF800006A46012129
:1049B00040F24F1001F0C6F908BD0120F3E70000F6
:1049C0002DE9FC41054640074FF0FF367CD0B1F59C
:1049D000C86F79D80846FBF76CFE3E49FBF78EFCA2
:1049E000074601A800F0E8FB9DF80400022806D065
:1049F00004280DD008282ED0102865D134E00E21CF
:104A00003846FBF7B9FCFBF772FE84B2324907E087
:104A10000D213846FBF7B0FCFBF769FE2F4984B245
:104A20003846FBF739FCFBF762FE210A8DF80010CF
:104A300080B28DF80140010A8DF802108DF8030054
:104A4000E8076C4620D0224602214FF4EA7001F0BC
:104A500079F9C8BB11E00C213846FBF78DFCFBF758
:104A600046FE84B21E49DBE70B213846FBF784FC87
:104A7000FBF73DFE84B21B49D2E7A21C02214FF492
:104A8000927001F05FF9F8B9A8070DD56A460221C6
:104A90004FF4EC7001F056F9B0B9A21C02214FF4AA
:104AA000947001F04FF978B9680710D56A46022171
:104AB0004FF4EE7001F046F930B9A21C02214FF418
:104AC000967001F03FF910B13046BDE8FC8100203E
:104AD000FBE7000000004843000040460000C045DE
:104AE000000040450000C0440521B0FBF1F008B5CE
:104AF000010A8DF800108DF801006A4602214FF47A
:104B0000EF7001F01FF908BD0521B0FBF1F008B509
:104B1000010A8DF800108DF801006A4602214FF459
:104B2000ED7001F00FF908BD38B504468DF80000AE
:104B300069460320ABBE204638BD00002DE9FE4388
:104B40000646264801AB042240680D21007800F09B
:104B50003FFA10B10720BDE8FE839DF804101C2029
:104B600000EAD1029DF80710DFF87490C1F3011339
:104B70001A438DF800209DF80520C1F3810300EA57
:104B8000D2021A438DF801209DF8062001F003019E
:104B900000EAD20008430024124F8DF80200A0461C
:104BA0006D46285D10B146F824900AE046F824804E
:104BB0000DE000BF56F824003946FBF76DFB46F8C0
:104BC0002400285D401E10F0FF002855F2D1641C1F
:104BD000E4B2032CE5D30020BDE700007C000020F8
:104BE0007B14AE3E1D5A843F2DE9FE4F0546012041
:104BF000C14E8DF800004FF000088DF8018030683C
:104C00000C461746817C70686B460222007800F0E3
:104C100017FA4FF0FF3A00287AD1C820FCF708FEB7
:104C20008DF8008030686B460122C17B7068007887
:104C300000F006FA0028EFD130686B460122417976
:104C40007068007800F0FCF90028E5D130686B4608
:104C50000122817C7068007800F0F2F90028DBD135
:104C600030686B460122C17D7068007800F0E8F979
:104C70000028D1D130686B46012201797068007834
:104C800000F0DEF90028C7D14FF00C098DF8009034
:104C900030686B46012201797068007800F0D0F925
:104CA000002835D10F20FCF7C3FDB06A6B46012206
:104CB000407A8DF80000306881787068007800F0E4
:104CC000BFF9002824D1B06A6B460122007A8DF822
:104CD0000000306841787068007800F0B1F9002871
:104CE00073D1B06A807A0FB140F0E0008DF8000017
:104CF00030686B46012281797068007800F0A0F975
:104D0000002862D12FB1B06AC07A40F0E00001E023
:104D10004AE018208DF8000030686B460122C17906
:104D20007068007800F08CF9F0BB17B1C820FCF770
:104D30007FFD40208DF8000030686B46012201792C
:104D40007068007800F07CF970BB78208DF8000066
:104D500030686B46012241797068007800F070F984
:104D600010BB3220FCF764FD8DF8008030684746A8
:104D70006B46417970680122007800F061F998B9BA
:104D800031687068B046897A00786B46022200F07C
:104D90001FF948B9BDF80000AF6040BAB0FBF9F0A8
:104DA0006F60C6B22F6000E00FE0A7606760276009
:104DB000002739E0D8F80010D8F804006B46C97A0B
:104DC00000780C2200F004F910B15046BDE8FE8FC7
:104DD000BDF80000236840BA00B2BDF80210BDF86B
:104DE00004201844206049BA606809B20844606031
:104DF00052BAA06812B21044A060BDF806002B6839
:104E000040BA01B2BDF80800BDF80A201944296073
:104E100040BA696800B20844686052BAA86812B221
:104E200010447F1CFFB2A860B742C3D32868832216
:104E3000C117090441EA104100040023FBF774F98B
:104E400032460023FBF770F9286068688322C11797
:104E5000090441EA104100040023FBF765F93246DA
:104E60000023FBF761F96860A8688322C117090471
:104E700041EA104100040023FBF756F932460023B3
:104E8000FBF752F9A86020684FF40065C1170904C8
:104E900041EA104100042A460023FBF745F9324657
:104EA0000023FBF741F9206060682A46C117090416
:104EB00041EA104100040023FBF736F93246002393
:104EC000FBF732F96060A0682A46C117090441EA7D
:104ED000104100040023FBF727F932460023FBF7BB
:104EE00023F9A060002802DDA0F5803001E000F584
:104EF0008030A060002069E77C0000202DE9F84F99
:104F000081462E488846002540686B46032200787B
:104F10000D2100F05DF810B10720BDE8F88F9DF875
:104F20000000002400F01F008DF800009DF8010033
:104F30006FF00F0B00F01F008DF801009DF80200CC
:104F40006E4600F01F008DF802004FF0010A00BF0E
:104F500059F8241058F82400081A00D54042FBF7ED
:104F60009FFB5946FBF708FA0746305DC0B114486D
:104F700002E01449FBF790F9315D491E11F0FF0181
:104F80003155F6D101463846FBF7B8F94FF07E515E
:104F9000FBF77CF90C4920F00040884205DC07E073
:104FA0000A483844B0F1D97F02D90AFA04F005431F
:104FB000641C032CCCDB2846AFE700007C000020FB
:104FC0000000C84154E3853F295C0F3E0000E0BE6D
:104FD0002DE9F0411D4614460F460646FDF700FE3A
:104FE000B0B17006000EFDF7CBFDFDF741FE90B1AC
:104FF0003846FDF7C5FDFDF73BFEFDF7F1FD01204D
:1050000000EB4600C0B2FDF7BBFDFDF731FE0FE03F
:105010000120BDE8F081FDF70BFEF9E7012C0DD072
:105020005FF00100FDF776FD641E05F8010BE4B2A8
:10503000002CF3D1FDF7FCFD0020EAE70020F1E7AA
:105040002DE9F0411E4615460F460446FDF7C8FD02
:1050500068B16006000EFDF793FDFDF709FE48B14B
:105060003846FDF78DFDFDF703FE00240CE001201E
:10507000BDE8F081FDF7DCFDF9E7305DFDF780FD6F
:10508000FDF7F6FD10B1641CAC42F6DBFDF7D0FD78
:105090000020EDE790F90010002902DD4FF000003C
:1050A000704702DA4FF00400704790F901100029B0
:1050B00002DD4FF00100704702DA4FF00500704743
:1050C00090F90200002802DD4FF00200704702DA7A
:1050D0004FF0060070474FF00700704708B5FCF727
:1050E000C1FCFEF763F9FDF735FE1B48416941F04D
:1050F000010141614069002200F001000090114669
:105100000B20FCF70DFD0B20FCF7FCFCFDF7DCFD94
:10511000FDF78CFEFDF7F2FE114810490C220160EC
:105120004FF4E131416000218160C160C0E90412A7
:105130008161C161FDF71CFC08B172B6FEE7FEF7A4
:105140001FF9FDF7CFFFFBF797FE00BFFBF7DAFF74
:10515000FBF7FEFDFAE700000010024000440040AB
:10516000940100202DE9F041124C20F001010025AE
:1051700094F8240010B10020BDE8F081A07A4FF02F
:10518000FF3668B10840277C2074884200D035463D
:1051900041B1012000F03EFE00F094FA38B12774CE
:1051A0003046E9E7207D00B1012000F033FE2846BB
:1051B000E2E700007C0000200D494A7A42B1012A52
:1051C00008D0022A0FD0032A0FD04FF0FF307047CB
:1051D000022200E004220270C97C11B11106C90D3F
:1051E0000170002070470822F5E71022F3E7000065
:1051F0007C0000200F494A7A42B1012A09D0022AD4
:1052000011D0032A12D04FF0FF3070474FF4804284
:1052100001E041F69C720280C97C11B1C2F34E01DB
:105220000180002070474FF48052F4E74FF4006291
:10523000F1E700007C0000200B49097A39B101290F
:1052400007D002290AD003290BD0002103E0FA215C
:1052500001E04FF4FA710180002070474FF47A7139
:10526000F9E74FF4FA61F6E77C0000200A49097A71
:1052700041B1012908D002290AD003290AD04FF0F0
:10528000FF307047054900E0054901600020704784
:105290000449FAE70449F8E77C00002000000343D2
:1052A0000000834233330342333383410C49C97ACC
:1052B000072913D2DFE801F01204060A0C0E1000D1
:1052C000BC2100E062210180002070472A21FAE71A
:1052D0001421F8E70A21F6E70521F4E70021F2E7B7
:1052E0007C000020054991F8242012B14FF0FF30D6
:1052F0007047C98901800020704700007C000020B1
:105300002DE9FC414C4C80208DF8000020686B4654
:105310000122817C60680078FFF792FE4FF0FF3732
:10532000002832D16420FCF783FA00258DF8005064
:1053300020686B460122817C60680078FFF780FE60
:10534000002870D120686B460622817D6068007855
:10535000FFF73EFE002866D19DF805009DF803107A
:10536000C007400F01F0010140EA41019DF8010032
:105370004FF0010600F00100014309D0012905D0DA
:10538000022915D02DA0FEF74BFA4CE0E67410E090
:1053900020686B460122C17860680078FFF718FE2C
:1053A00040BB9DF8000010F00F0020D0042822D050
:1053B000E574FF2004F80A0F4FF6FF7104F8020CA1
:1053C00004F8010C6070A180A0712072A67026768E
:1053D0006576E572A572E56025616561A576E5767D
:1053E000A5834FF4FA6000F06BFB18B907E01D4885
:1053F000FEF716FA17E01CA0FEF712FAC6E7022025
:1054000000F080FA78B92A2000F0C2FB58B93220A7
:1054100000F0F4FB38B90020FFF7A4FE18B9002013
:1054200000F0A4FA10B13846BDE8FC81002000F07D
:1054300025FC0020F8E700007C000020556E737505
:1054400070706F7274656420736F667477617265D3
:105450002070726F64756374207265762025642EE7
:105460000A000000206C000848616C662073656EBD
:105470007369746976697479207061727420666FDB
:10548000756E642E0D0A00002DE9FF4FDFF8948041
:10549000064685B098F8250015460F464FF0FF39AF
:1054A000B0BBAFB3002420E0301B102800DD10207B
:1054B00080B283463A1901469246204600F042FCEB
:1054C00030BB6A465946204600F0D2F800BB504631
:1054D0005A466946FAF77BFE20B16FF0010009B029
:1054E000BDE8F08F04EB0B0084B2B442DCD3280A91
:1054F0008DF810008DF81150D8F80000444604AB28
:10550000817ED8F8040002220078FFF799FD08B1E7
:105510004846E4E7012084F825000898E08400204C
:10552000DDE700007C0000202DE9F84305464FF040
:10553000FF39282844D80727284C00267DB10120B0
:1055400000F0F4FA20208DF800004FF00108012D42
:1055500017D0052D18D88DF8018005201FE00020F8
:1055600000F0E4FA8DF800608DF8017020686B4659
:105570000222817C60680078FFF762FD00BB26751F
:1055800029E08DF80160E8E7142D04D802208DF899
:1055900001000A2003E003208DF80100142000F030
:1055A000F7FA9DF801006B4607EB80108DF80100BB
:1055B00020680222817C60680078FFF741FD10B10D
:1055C0004846BDE8F8830820A072267384F814804A
:1055D0000020FFF7C7FD0020F3E700007C0000205B
:1055E0002DE9F843214C0646174694F824008946D5
:1055F0004FF0FF3890B3A07A80B320686B46022248
:10560000817A60680078FFF7E3FC38BBBDF80000E2
:1056100045BAB54202D2002038701FE06068418868
:10562000B5EB510F11D9216800786B46497C0122F6
:10563000FFF7CEFC90B99DF80000C00605D500F03C
:1056400041F86FF00100BDE8F8832068F2B24B46E4
:10565000C17A60680078FFF7BBFC08B14046F2E70A
:10566000B5FBF6F0401E38700020ECE77C0000200F
:10567000F8B516000D464FF0FF371FD0104CA17A39
:10568000E1B1010A8DF80010C0B28DF80100411996
:1056900060684289914211D8216800786B46097E82
:1056A0000222FFF7CDFC48B92068EAB23346417DBB
:1056B00060680078FFF78CFC002800D03846F8BD01
:1056C0007C000020F8B5524C4FF0FF36A07A00283D
:1056D0007CD000258DF8005020686B460122C17BEC
:1056E00060680078FFF7ACFC00286FD120686B463B
:1056F0000122417960680078FFF7A2FC002865D19B
:1057000020686B460122017960680078FFF798FCF9
:1057100000287AD194F82400C8B30C208DF800003A
:1057200020686B460122017960680078FFF788FCE9
:1057300000286AD1C0208DF80000A07AC00702D0EE
:10574000E0208DF8000020686B4601220179606836
:105750000078FFF775FC002857D1607C18B1022053
:105760008DF8000001E08DF8005020686B460122A2
:10577000C17B60680078FFF763FC38BB8DF8005090
:1057800020686B46012241796068007839E0FFE7C4
:1057900004208DF8000020686B46012201796068C2
:1057A0000078FFF74DFC88B9A07C80B9A07AC007CB
:1057B0000DD060208DF8000020686B460122017931
:1057C00060680078FFF73CFC00B902E01DE0402073
:1057D000F0E7607C18B101208DF8000001E08DF841
:1057E000005020686B460122C17B60680078FFF79B
:1057F00027FC50B92068064B0122417960681033BC
:105800000078FFF71DFC002800D03046F8BD0000EE
:105810007C0000202DE9F047394C82468AB094F88C
:1058200024000F4620B1002000F00EF9012600E010
:10583000002607A8FFF700FD06A8FFF7BDFC09A892
:10584000FFF734FD08A8FFF74DFD94F80A9094F88F
:1058500010800025002239465046FFF7C5F910B1E7
:105860006D1C022DF6DB022D1AD00025012203A9A2
:105870006846FFF7B9F910B16D1C022DF6DB022D59
:105880000ED003A93846FEF727F9C7B2694650463D
:10589000FFF734FB10F0FF0F4FF0000502D002E0DD
:1058A000002503E001250FB945F00205FF20207215
:1058B0006072E0724FF6FF71E181A07220740120E6
:1058C0002073BDF81C0000F0FBF89DF8180000F0F4
:1058D00019F8BDF8240000F05BF9BDF8200000F0D5
:1058E0008DF9484600F0CAF94046FFF73BFC16B177
:1058F000012000F0A9F80AB02846BDE8F0870000B2
:105900007C00002038B5184C4FF0FF35A17A19B350
:10591000022806D0042806D008280ED010281BD153
:105920000DE0002000E008208DF80000607A9DF86E
:105930000010B0EBD10F04D005E01020F4E71820E0
:10594000F2E7002038BD20686B460122C17960680B
:105950000078FFF775FB08B1284638BD9DF80000B8
:10596000C0086072EDE700007C000020F8B5354CFF
:105970000546A07CA84201D10020F8BD31484FF077
:10598000FF366B46D0E900104FF00102097900782C
:1059900035B3FFF71DFB70BB9DF800006B4620F090
:1059A00020008DF8000020680122017960680078ED
:1059B000FFF746FBF8B90320FBF73AFF02208DF80A
:1059C000000094F8220078B382202BE020686B4618
:1059D0000122017D60680078FFF732FB58B92EE0A4
:1059E000FFF7F6FA38B9A07AC0079DF8000003D097
:1059F00040F0200002E00CE020F020008DF80000D4
:105A000020686B460122017960680078FFF718FB77
:105A100008B13046F8BD0320FBF70AFF94F82200D6
:105A200000B180208DF8000094F823000028CDD02C
:105A30009DF8000040F030008DF80000C6E7A57426
:105A40009AE700007C00002038B51C4C94F8241024
:105A500081421DD0002500B394F82500D0B100206C
:105A600000F0D8F90020FFF781FFE08C00F0C6F8C5
:105A70008DF8005060686B46012200782321FFF703
:105A8000DFFA012084F8240000F0C4F9FFF71AFEC1
:105A9000002038BD4FF0FF3038BD002000F0BAF9CB
:105AA000207C8DF8000060686B460122007823217D
:105AB000FFF7C6FA84F82450E8E700007C000020D5
:105AC00038B5194C4FF0FF35A17A31B3FA2809D017
:105AD000B0F5FA7F08D0B0F57A7F0FD0B0F5FA6F45
