:020000040800F2
:1000000068070020050100087F330008AB2E0008B8
:100010007D330008F90D0008B13C00080000000025
:100020000000000000000000000000003137000860
:10003000151000080000000065350008CD370008E5
:100040001F0100081F0100081F0100081F01000810
:100050001F0100081F0100081F0100081F01000800
:100060001F0100081F0100081F010008790F000888
:100070001F0100081F0100081F0100081F010008E0
:100080001F0100081F0100081D0B00081F010008C8
:100090001F0100081F0100081F0100081F010008C0
:1000A0001F0100081F0100081F0100081F010008B0
:1000B0001F0100081F0100081F0100081F010008A0
:1000C0001F0100081F0100081F0100081F01000890
:1000D0001F0100081F010008A53C00081F010008BF
:1000E0001F0100081F0100081F010008DFF810D0E1
:1000F00000F0B0FC00480047AD5C0008AFF30080A2
:10010000680700200648804706480047FEE7FEE7EC
:10011000FEE7FEE7FEE7FEE7FEE7FEE7FEE7FEE7B7
:1001200049380008ED0000082DE9F0410024061BC5
:10013000254671F1000605DA01240027D0EB0700FF
:1001400067EB0101161E73F1000605DA0027D2EBFA
:100150000702012567EB030300F036FB86460E46D7
:1001600017469C46AC4204D00025D0EB050E65EB4B
:10017000010624B10020D2EB000760EB030C7046AF
:1001800031463A466346BDE8F081202A04DB203A36
:1001900021FA02F00021704721FA02F3D040C2F1A7
:1001A00020029140084319467047D2B201E000F89E
:1001B000012B491EFBD270470022F6E710B513460B
:1001C0000A4604461946FFF7F0FF204610BD30B539
:1001D00004460020034600E05B1C934203D2E05C2F
:1001E000CD5C401BF8D030BDF0B480EA0102D40FE2
:1001F0004200B2EB410F02D20246084611464A00C5
:1002000042D0C30DDDB2C1F3C752AD1A202D35DA8D
:10021000C1F3160141F4000204B15242C5F12006B7
:1002200002FA06F12A411044B3EBD05F23D0C4B1E7
:10023000012DA0EBC35009DCF0BC4FF0004202EAF4
:10024000C352DBB200F5000000F019BB400000F122
:10025000807000EBC350A0F1807040EAD17049007B
:1002600009E0490841EAC071A0EBC35000F5000065
:10027000400800EBC350F0BC00F0F8BA6142012224
:1002800002EB4101001BF6E7F0BC704781F0004132
:10029000AAE780F00040A7E780EA010210B502F06B
:1002A0000043400022D04A001FD0010E01EB126132
:1002B000C0F35600C2F3560240F4000042F40002BC
:1002C000A0FB022000047F39140400D0401C50EA37
:1002D000124001D44000491EC2B20C0604EBD010FB
:1002E000401C4008802A02D003E0002010BD20F00E
:1002F0000100002900DA0020184310BD30B480EA64
:10030000010202F0004530F0004221F0004013D01D
:1003100090B1C30DD40DC2F31601C0F31600E41A58
:1003200041F4000140F400027D34914201D3641C89
:1003300000E04900002C02DA30BC002070474FF486
:1003400000000023914201D3891A034340084FEA79
:100350004101F7D151B1914202D14FF0004105E086
:1003600002D24FF0010101E06FF0010103EBC45034
:10037000284430BC00F07ABA420005D0C0F3C7521E
:100380005242914201DC0020704700EBC15070479F
:100390002DE9FE4F804681EA0300C00F0C46009015
:1003A00021F0004123F00045B8EB0200A94105D23D
:1003B0004046214690461C460B46024623F000402C
:1003C000104347D0270DC7F30A00C3F30A51029028
:1003D000401A019040286BDAC3F3130040F4801BED
:1003E0000098924620B10023D2EB030A63EB0B0B7B
:1003F00001985946C0F14002504600F016FA0646F0
:100400000D4650465946019A00F01EFA10EB0800BE
:100410006141002487EA115284EAE7731A4340D00D
:10042000009A62B3019A012A4FEA075215DC001BB9
:1004300061EB02014FF0004202EA0752CDE90042AF
:10044000001C41F5801132462B4600F055FA03B0EE
:10045000BDE8F08F40462146F9E7001B61EB020141
:10046000001C41F5801300185B412018A2F500170D
:1004700047EB030140EAD570B6196D4111E06D08F4
:100480004FEA360645EAC0754FEA0752001B61EB9A
:100490000201001C41F5801149084FEA30000019A3
:1004A000514132462B4603B0BDE8F04F00F015BA7B
:1004B0000098012240000023D0EB020263EBE073BE
:1004C000009821464FEAE074B8EB000061EB0401AC
:1004D000E9E783F000435BE781F0004158E72DE94D
:1004E000FE4F81EA030404F0004421F0004100942F
:1004F0004FF0000B23F0004350EA01045ED052EAB3
:1005000003045BD0C3F30A54C1F30A552C44A4F28C
:10051000F3340194A0FB0254C1F3130141F48011A0
:10052000C3F3130343F4801301FB024400FB034EA7
:10053000840A970A44EA815447EA8357A4FB076870
:1005400002958D0A05FB07854FEA932C04FB0C549A
:100550002705029D4FEA065847EA1637B5EB08050E
:100560006EEB070C870E920E47EA811742EA831260
:10057000A7FB0201B6EB0B0164EB00042B0D43EA71
:100580000C335E1844EB1C50DA465146E7FB02017F
:10059000C5F313044FEA0B3343EA14534FEA043212
:1005A000019C43EA0603A4F10C040294009CCDE9EB
:1005B00000B400F0A1F903B0BDE8F08F00200146BF
:1005C000F9E72DE9F04D81EA030404F0004B21F036
:1005D000004514464FF0000A23F0004150EA05029E
:1005E00020D054EA01021DD0C5F30A570246C5F3D4
:1005F0001303C1F31300C1F30A5640F4801543F40A
:100600008013A7EB0608101BD64608F2FD3873EBE3
:10061000050002D308F1010801E092185B41B8F12E
:10062000000F03DA00200146BDE8F08D00204FF4F2
:100630008011064684460EE0171B73EB050705D3B1
:10064000121B63EB050306434CEA010C49084FEA11
:10065000300092185B4150EA0107EDD152EA0300E5
:1006600012D082EA040083EA0501084305D0101B7A
:10067000AB4106D20122002306E000224FF00043E6
:1006800002E06FF0010253101AEB06004CEB085128
:1006900010EB0A0041EB0B01BDE8F04D00F01DB975
:1006A000C10F80EAE0700844CA079623002100F0D9
:1006B000E6B896230022114600F0E1B800F00042AF
:1006C00020F00040C10DC0F3160040F400007F2967
:1006D00001DA00207047962903DCC1F19601C84079
:1006E00001E096398840002AF4D04042704720F05B
:1006F0000040C10DC0F3160040F400007F2901DA6C
:1007000000207047962903DCC1F19601C84070476C
:1007100096398840704700F0004230F000400AD01F
:10072000C10D01F56071C0F3160042EA0151C20823
:1007300040071143704700200146704701F0004315
:1007400030B421F0004150EA010206D00A0DA2F5B2
:100750006072C1F31301002A02DC30BC0020704734
:10076000440F44EAC104C100E01830BC00EBC250A1
:1007700000F07CB8002801DBC0F10040002901DB5B
:10078000C1F1004181427047002801DBC0F1004007
:10079000002901DBC1F100418842704730B50B46AA
:1007A000014600202022012409E021FA02F59D42A1
:1007B00005D303FA02F5491B04FA02F52844151E75
:1007C000A2F10102F1DC30BD2DE9F05F0546002009
:1007D00092469B4688460646814640241BE02846B2
:1007E000414647462246FFF7D0FC53465A46C01AB8
:1007F000914110D311461846224600F016F82D1AE2
:1008000067EB01084F4622460120002100F00DF859
:1008100017EB00094E41201EA4F10104DFDC48461D
:1008200031462A464346BDE8F09F202A04DB203AA1
:1008300000FA02F1002070479140C2F1200320FA33
:1008400003F3194390407047202A06DBCB17203A68
:1008500041FA02F043EAE07306E041FA02F3D040C5
:10086000C2F1200291400843194670470029A8BFF1
:100870007047401C490008BF20F00100704710B4C9
:10088000B0FA80FC00FA0CF050EA010404BF10BC7E
:10089000704749B1CCF1200421FA04F411FA0CF1AB
:1008A00018BF012121430843A3EB0C01CB1D4FEAE4
:1008B00000614FEA102042BF002010BC704700EBDF
:1008C000C35010440029A4BF10BC7047401C49000D
:1008D00008BF20F0010010BC704710B5141E73F162
:1008E000000408DA401C41F1000192185B411A43F0
:1008F00001D120F0010010BD2DE9F04D92469B463C
:1009000011B1B1FA81F202E0B0FA80F220329046E1
:10091000FFF78BFF04460F4640EA0A0041EA0B014D
:1009200053465A46084313D0114653EA010019D0E2
:10093000C8F140025046FFF728FC05460E465046D7
:1009400059464246FFF771FF084305D0012004E0F5
:1009500020463946BDE8F08D0020054346EAE076A2
:100960002C4337430A986305E40AA0EB08000022F1
:10097000FD0A44EA47540A3002D500200146E9E75F
:10098000010510196941DDE9084500196941BDE813
:10099000F04DA2E770B521F0004303430CD0C1F342
:1009A0000A550024D5EB040564EB0403D617AD1AF1
:1009B000B34102DB0020014670BD201841EB02511B
:1009C00070BDC1F30A52C1F3130140F2FF3341F489
:1009D00080119A4202DA00200146704740F2334308
:1009E0009A42A2F2334202DC5242FFF7CEBBFFF73B
:1009F0001CBF000030B5041E71F1000404DB4FF091
:100A00000044404264EB0101141E73F1000405DB55
:100A10001C464FF00043524263EB04038B4208BF75
:100A2000824230BD30B5041E71F1000404DB4FF08A
:100A30000044404264EB0101141E73F1000405DB25
:100A40001C464FF00043524263EB0403994208BF37
:100A5000904230BD064C074D06E0E06840F00103CF
:100A600094E8070098471034AC42F6D3FFF742FBF6
:100A700080780008A07800082DE9F04D00231A4680
:100A80001B1A8A4103DB00200146BDE8F08DC1F34B
:100A90000A52C1F3130141F480154FF0000BD10746
:100AA00002D100186D41521E0027044640F2FF118A
:100AB000384601EB620A3E468046024600204FF46B
:100AC0008011FFF762FBC2197141BB1846EB0100B0
:100AD000B4EB030C75EB000C04D3E41A65EB0005D2
:100AE00017460E46241908F101006D41804634284E
:100AF000E3DDF91946EB0600091BA84103D24FF0CC
:100B0000FF32134601E0002213461BEB070046EBC1
:100B10000A51BDE8F04DFFF7E0BE0000014800F0CB
:100B2000C6BC0000E400002070B50446006881687F
:100B3000C943C90717D1816821F00101816001F023
:100B400017F905460AE000BF01F012F9401B022820
:100B500004D920688068C043C00706D02068806838
:100B6000C043C007F0D0002070BDA06A40F0100064
:100B7000A062E06A40F00100E062012070BD10B5A3
:100B80000146406A826A12F0500F05D0006A026B7B
:100B9000BDE8104008461047816A41F40071816247
:100BA00001688968C1F3424107290CD1017B51B921
:100BB000816A21F480718162816AC90403D4816AE7
:100BC00041F00101816200F06FFC10BD10B5406A78
:100BD000816A41F040018162C16A41F00401C16251
:100BE00000F064FC10BD10B5406A00F05EFC10BD62
:100BF000F8B500260446009600688168C943C90715
:100C00002DD0816841F001018160164816490068C5
:100C1000B0FBF1F000E0401E00900028FBD101F095
:100C2000A7F8054616E000BF01F0A2F8401B022815
:100C300010D920688068C043C0070BD0A06A40F07C
:100C40001000A062E06A40F00100E06284F82460D5
:100C50000120F8BD20688068C043C007E4D10020AF
:100C6000F8BD00000C00002040420F0010B5044603
:100C70004078012100F06CF8207A00F0A3F8012000
:100C8000207110BD10B504464078002100F060F8D6
:100C9000207A00F0A1F80020207110BD10B50446A4
:100CA000007900280AD0A07800F048F8002805D183
:100CB000E0780028E08802D0401EE08010BD401C93
:100CC000FBE7000070B50A46044619491046FFF7D5
:100CD00015FB05461748854207DA1748854204D8B0
:100CE0002046BDE87040FFF7CDBF2046FFF7BEFFAE
:100CF0004FF07E5015F1FF4F0AD301462846FFF70B
:100D000073FA05462078012100F022F8012008E05E
:100D10002946FFF7BBFA05462078002100F018F8B5
:100D20000020E070207A2946BDE8704000F01CB831
:100D300000007A44CDCC4C3DCDCC4CBD034A02EBF7
:100D4000C00152F83000898801F008B83000002056
:100D5000044B0A4603EBC00153F83000898801F0C8
:100D600002B80000300000202DE9F04106464FF0A7
:100D70007E500C46814201DD044603E014F1FF4F32
:100D800000D300240E4F57F836000568E86AFFF7D5
:100D900090FC2146FFF780FAFFF7A9FC07EBC6019C
:100DA00080B2898831B1042906D0082906D0286488
:100DB000BDE8F0816863FBE7A863F9E7E863F7E75C
:100DC00010000020034A02EBC00152F8300089886D
:100DD00001F0A4BD10000020034A02EBC00152F84C
:100DE0003000898801F0E8BD10000020052201498B
:100DF00001F0ECBF68000020FEE700002DE9F0479D
:100E000052480078FFF755FC5149524C00250860C4
:100E10002078012800D165604D484F4A4438416828
:100E2000443002F0ADFA002260601146484802F0FA
:100E3000A7FAA060474A2178DFF814A10526042705
:100E400010324FF0060C4FF003094FF4FA63AAF189
:100E5000240A072954D2DFE801F0040F141A2E3FA8
:100E60004D003E4860601088984213D30120FFF780
:100E700065FFF8B901203BE06560A078022837D013
:100E80003FE06560A07800B3012812D039E01088F7
:100E9000984204D2617084F800C0BDE8F087022057
:100EA000FFF74CFF10B9207860702670A0780128F9
:100EB0000ED1277025E060600220FFF73FFF10B9D8
:100EC000207860702670A07810B984F8009018E03F
:100ED000032816D1257014E021496068884202D3A6
:100EE0006560A078F4E7DAF80400884209D36078F6
:100EF000207006E065601088984201D36078207009
:100F00006560606880F0004111485838FFF7DAFEEC
:100F100014480078462801D31349E1601E2801D8FF
:100F20001249E1601F38272800D2E5600848E168CF
:100F30004E38FFF7C7FEDAF80400FFF7ECFBBDE818
:100F4000F04702460B460AA002F0B4BEC2000020E1
:100F5000E0020020C400002000004040000048449F
:100F600000008080C10000200000C8C20000C8420C
:100F7000643A2025660A0000014800F0DDBC00004C
:100F80003402002030B590F840500124AC40C56BCD
:100F90006C60046863604368102B036803D0996039
:100FA0000068C26030BD9A600068C16030BD00005A
:100FB00070B505F0C7FC04F0ABFF782005F066FCC7
:100FC000782004F0D7FEC82005F020FC04F02EF8AD
:100FD0000F48044604F046FE0546E01C04F042FEBD
:100FE00045EAC005A01D04F03DFE45EA801080B230
:100FF00004F0DCF940F2731003F0F0FEC82004F0B6
:101000003DF905F0D2FCBDE87040012005F024BB9D
:10101000B800002070470000074810B50078FFF7BF
:10102000C7FF0220FFF7CEFE0320FFF7CBFEBDE88F
:1010300010400248FFF7DABE9C020020A401002005
:1010400072B6FEE72DE9F047856B0446C16C284671
:10105000FFF722F9B0F5000F39DB25F00040616A97
:10106000FFF788FB33D9D4E90801FFF7BDF8014643
:10107000A06B20F00040FFF77DFB26D8206AFFF729
:101080004AFB05460E46606AFFF745FB0746A06B24
:10109000894620F00040FFF73EFB2A463346FFF723
:1010A0001BFA3A464B46FFF773F92A463346FFF7D9
:1010B00088FA06460D46A06DFFF72DFB32462B46FB
:1010C000FFF70DFAFFF73AFB00E00020A065BDE84E
:1010D000F0872DE9F041076FC66A0446394630466D
:1010E000FFF782F805463146606EFFF7D5F82946CE
:1010F000FFF704F906463946206DFFF7CDF829467B
:10110000FFF7FCF83146FFF76FF82065BDE8F08186
:1011100010B50446D4E90C10FFF7B8F8A168FFF742
:10112000BBF8216FFFF7EAF8206510BD2DE9F0410B
:10113000C56C0446816D00262846FFF755F8074622
:101140002946A06CFFF750F8216DFFF74DF820F00D
:1011500000402169FFF718FB07D2E16CA06BFFF795
:101160009BF8B0F5000F00DBA6653846E169FFF794
:101170000BFB02D2A665E069E064E069394680F0C5
:101180000040FFF701FB04D2A665E06980F0004053
:10119000E064BDE8F0812DE9F041076F866A0446FE
:1011A00039463046FFF720F805463146206EFFF7F6
:1011B00073F82946FFF7A2F806463946E06DFFF7B7
:1011C0006BF82946FFF79AF83146FFF70DF8E0650E
:1011D000BDE8F08110B504460169C06DFFF7D4FA8F
:1011E00001D22069E0652069E16D80F00040FFF7E1
:1011F000CBFA03D2206980F00040E06510BD00000A
:1012000070B5044600691849FFF746F80146E06DDD
:1012100020F00040FFF7AEFA24D3A06E134920F06F
:1012200000458D421EDB216BFFF730F820F00040B7
:101230002946FFF763F80E49884205DDD4E91E010F
:10124000401C41F1000101E0002001460246C4E9D2
:101250001E014FF4FA7300209A1A884102D201202D
:1012600084F8800070BD00006F12833A17B7D13840
:101270003333733F10B50446D4E90E01FEF7B4FFD3
:101280004FF0FF31FFF778F86168FFF705F8216F3D
:10129000FFF702F8A06510BD10B50A4802F064F926
:1012A00008480A38FFF7FAFC02F044FA02F05AFA4A
:1012B000054904228870BDE810401031034800F051
:1012C00045BA00009C020020C4000020E400002079
:1012D000F8B500250446009590F8240001280BD0AD
:1012E000012084F824002046FFF71EFC2046FFF76B
:1012F0007FFC060002D050E00220F8BDA06A20F476
:10130000885040F00200A062022000F0CFFD254985
:101310000968B1FBF0F0400000E0401E009000289A
:10132000FBD12068816841F00801816000F020FD58
:10133000074608E000F01CFDC01B0A2803D92068FE
:101340008068000715D4206880680007F2D4206800
:10135000816841F00401816000F00AFD074612E057
:1013600000F006FDC01B0A280DD9206880684007E0
:1013700009D5A06A20F0020040F01000A06284F8B5
:1013800024500120F8BD206880684007E8D4A06A96
:1013900020F0020040F00100A06284F824503046A2
:1013A000F8BD00000C00002070470000F8B50024D4
:1013B000009490F824202546012A12D0012280F8BA
:1013C00024204A681F23072A0DD20668776B521E15
:1013D00002EB820293409F430B6893401F43776365
:1013E00019E00220F8BD06680D2A0AD2376BD21F19
:1013F00002EB820293409F430B6893401F43376385
:1014000009E0F76A0D3A02EB820293409F430B68B2
:1014100093401F43F7620A68072306680A2A0AD323
:10142000F7680A3A02EB420293409F438B6893406D
:101430001F43F76008E0376902EB420293409F4385
:101440008B6893401F4337610A68102A01D0112A24
:1014500020D1124B02689A4217D193681B0219D40B
:10146000936843F4000393600968102912D10C4972
:101470000C4A0968B1FBF2F101EB8101490000E07F
:10148000491E00910029FBD104E0816A41F020014E
:101490008162012480F824502046F8BD00240140D8
:1014A0000C00002040420F0070477047704770B535
:1014B0000446006806684568A90625D5B10723D506
:1014C000A16AC90603D4A16A41F40071A1628168CE
:1014D000C1F34241072910D1217B71B9416821F044
:1014E00020014160A06A20F48070A062A06AC0045C
:1014F00003D4A06A40F00100A0622046FFF7D4FFA9
:1015000021686FF01200086028062ED570072CD5D0
:10151000A06AC00603D4A06A40F40050A06220680C
:101520008168C1F30231072909D04168490515D402
:101530008168C1F34241072910D1217B71B941680B
:1015400021F080014160A06A20F48050A062A06A6E
:10155000C00503D4A06A40F00100A0622046FFF756
:1015600023FF21686FF00C00086068060CD5F007B7
:101570000AD0A06A40F48030A062204600F094F8BF
:1015800021686FF00100086070BD00002DE9F04196
:101590004FF0000704003D467ED0A06A002628B91F
:1015A000E66284F82460204600F080F82046FFF7C9
:1015B000BBFAA16AC90600D420B1A06A40F01000AD
:1015C000A06269E0A16A21F4885141F00201A162A0
:1015D0006268E169237B0A4347EA43010A43A16841
:1015E0004FF48077B94209D0012907D05FF000019C
:1015F00094F814C0BCF1010F02D00AE03946F7E7B5
:10160000F3B1A36A43F02003A362E36A43F001034A
:10161000E3622368D3F804C02CF4694C4CEA010C53
:10162000C3F804C021688B68DFF870C003EA0C03BC
:1016300013438B60A168B9420BD0012909D00CE09B
:10164000DFF85CC0A3690CEB43330B4343F4006148
:10165000DFE7218A0D05A5F580152168CB6A23F403
:1016600070032B43CB62216889680E4B194091426D
:1016700008D1E662A16A21F0020141F00101A162F4
:10168000BDE8F081A06A20F0020040F01000A062E6
:10169000E06A40F00100E0620120F1E7FDF7E1FFC0
:1016A00000E0FFFFFE0E1FFF7047000070B586B020
:1016B00000250646009501950295039500681E4990
:1016C000884236D11D49886940F400708861886974
:1016D00000F400700490886940F004008861886913
:1016E000694600F00400049033200090032001902C
:1016F000134800F043FA144C1248C4E90005802056
:10170000C4E9025040002061800060612020C4E9EB
:101710000605204600F0BAF908B1FFF791FC3462E3
:10172000002201211220666200F08EFB122000F0E0
:101730007DFB06B070BD0000002401400010024097
:101740000008014008000240340200202DE9F04763
:10175000894604463B4900683B4F0E1D904688422F
:1017600001D0B84207D1306810F4702F03D00125A2
:101770002846BDE8F08794F8240001280CD0012009
:1017800084F824002046FFF733FA05004FF00000EC
:1017900004D084F82400EBE70220EAE7A16A40F6CF
:1017A0000162914341F48071A1622168B94218D16C
:1017B000326812F4702F14D0A16A41F48011A16232
:1017C0003168490505D5A16A21F4005141F48051E1
:1017D000A162A16AC9040AD5E16A21F00601E162A9
:1017E00006E0A26A22F48012A2624968E9E7E06298
:1017F00084F82400216A15488862216A1448C86266
:10180000216A1448086321686FF0020008602068AC
:10181000816841F480718160216843464A464C31B9
:10182000206A00F061F920688168C1F3424107290C
:10183000816803D041F48011816099E741F4A001EF
:10184000FAE7000000240140002801407F0B000857
:10185000E70B0008CD0B000810B590F8211000220E
:10186000022905D00421816380F82020012010BDC9
:1018700001680B6823F00E030B6001680B6823F00E
:1018800001030B6090F84030C46B012101FA03F3AF
:10189000636080F8211080F82020104610BD000001
:1018A00010B590F821100024022903D0042181638F
:1018B00001243DE001680A6822F00E020A60016816
:1018C0000A6822F001020A601A4A0168914201D1B5
:1018D000012121E0174A1432914201D110211BE06D
:1018E000144A2832914201D1891515E0114A3C323F
:1018F000914201D189140FE00E4A5032914202D137
:101900004FF4803108E00B4A6432914202D14FF427
:10191000801101E04FF08071064A083A51600121C0
:1019200080F82110002180F82010416B01B1884718
:10193000204610BD080002402DE9F05FC16B0C6825
:1019400001680B68D0F840C0042202FA0CF2494D3D
:10195000DFF824A1494E4A4FDFF828B1DFF828E12B
:1019600022422CD05A072AD50A68920603D40A6864
:1019700022F004020A600168A94201D1042219E0A0
:10198000514501D1402215E0B14202D14FF48062AD
:1019900010E0B94202D14FF480420BE0594502D128
:1019A0004FF4802206E0714502D14FF4800201E03D
:1019B0004FF080622F4908394A60C16A3BE04FF01E
:1019C000020808FA0CF818EA040F4FF000094FF06B
:1019D000010235D05FEA837832D50B689B0605D4C7
:1019E0000B6823F00A030B6080F821200168A942EC
:1019F00001D1022219E0514501D1202215E0B14266
:101A000002D14FF4007210E0B94202D14FF40052FB
:101A10000BE0594502D14FF4003206E0714502D186
:101A20004FF4001201E04FF00072124908394A6089
:101A300080F82090816A00291AD0BDE8F05F08473D
:101A4000082505FA0CF5254212D01B0710D50B68A6
:101A500023F00E030B6090F84010C36B02FA01F103
:101A60005960826380F8212080F82090016BE2E7C2
:101A7000BDE8F09F080002401C0002403000024018
:101A800044000240580002406C00024030B528B3C8
:101A900008C8134914221944B1FBF2F18900C1634B
:101AA00010498163022141771A6843F6F0718A4335
:101AB000D0E900142143D0E902452C4321430469B5
:101AC0002143446921438469214311431960002162
:101AD0004163012242770177084630BD012030BDC5
:101AE000F8FFFDBF0000024070B5044690F82000EA
:101AF000002501280CD0012084F8200094F82160F2
:101B00000020012E06D084F820000225284670BD52
:101B1000022070BD022684F82160A0632068066858
:101B200026F0010606602046FFF72CFAE06A00283E
:101B30002068016802D041F00E0106E021F00401A6
:101B400001602068016841F00A01016020680168B5
:101B500041F001010160D9E770B5044600F008F9D1
:101B60000546601C02D004480078044400F000F9E7
:101B7000401BA042FAD370BD000000202DE9F84FB1
:101B8000DFF8B8910024A9F1040B23460F2709F1CF
:101B9000040AABF1040EC9E00125A5402A40AA427F
:101BA0007DD1674ED1F804C0ACEB0608B44532D005
:101BB00014DCBCF1030F3AD009DCBCF1000F2AD0D1
:101BC000BCF1010F1CD0BCF1020F31D11DE0BCF102
:101BD000110F17D0BCF1120F2AD119E0B8F5881FE8
:101BE00019D006DCB8F5803F15D0B8F5801F1FD19D
:101BF00011E0B8F5001F0ED0B8F5041F18D10AE0A7
:101C0000CB6815E0CB681B1D12E0CB6808330FE0F2
:101C1000CB680C330CE08B682BB1012B4FF0080321
:101C200003D0456104E0042302E0056100E00023E5
:101C3000FF2A01D8064601E000F104064FEA8405B8
:101C400001D9A5F12005D6F8008007FA05FC28EA9D
:101C50000C0803FA05F548EA0508C6F800804D6847
:101C6000ED0062D5374DAE6946F00106AE61AD6953
:101C700024F0030605F001050095334D06EB050C35
:101C8000DCF80850A607360F07FA06F825EA08051B
:101C9000DFF8B880404503D14FF0000817E044E07A
:101CA000DFF8AC80404502D14FF001080FE0DFF8CB
:101CB000A480404502D14FF0020808E0DFF8988088
:101CC000404502D14FF0030801E04FF0040808FA44
:101CD00006F848EA0508CCF808804D68D9F8006095
:101CE000ED024D4601D5164300E096432E604D6847
:101CF000DAF80060AD02554601D5164300E0964380
:101D00002E604D68DBF80060AD035D4601D51643DB
:101D100000E096432E604D68DEF80060ED037546E6
:101D200001D5164300E096432E60641C0D682A46D8
:101D3000E5407FF431AFBDE8F88F000008040140B2
:101D40000000111000100240000001400008014096
:101D5000000C014000100140001401408068084060
:101D600000D0012070470AB1016170470904FBE708
:101D70000148806870470000000000200248816828
:101D8000027811448160704700000020074810B5B8
:101D9000016841F010010160032000F075F80F2088
:101DA00000F006F800F024F8002010BD00200240EA
:101DB00070B50D4D04464FF47A712878B1FBF0F000
:101DC0000A490968B1FBF0F000F0A4FB48B9102CF7
:101DD00007D200222146501E00F036F800206C6029
:101DE00070BD012070BD0000000000200C0000202C
:101DF0000C4808B5816941F001018161816901F0F8
:101E000001010091C16941F08051C161C06900F0D8
:101E1000805000900448416821F0E06141F0007179
:101E2000416008BD0010024000000140002809DBAD
:101E300000F01F02012191404009800000F1E020E4
:101E4000C0F8001170470000F0B40E4B1B680C4640
:101E5000C3F30223C3F10705042D00D90425191D7E
:101E6000072901D2002300E0DB1E012606FA05F156
:101E7000491E214099409E40761E16403143F0BCD9
:101E800001F03CBF0CED00E0064900F007020868D5
:101E90004FF6FF03184040EA0220034A104308604F
:101EA000704700000CED00E00000FA0510B5014697
:101EB0000020234C012922D0022939D010291DD11C
:101EC00061682268D20119D51E48C1F38342C90353
:101ED000805C0AD561681B4AC1F34041921E515C87
:101EE000194AB2FBF1F1484301E0184948436168DF
:101EF000490203D440000321B0FBF1F010BD226A77
:101F0000C2F30121012903D1920701D5C80310BDF5
:101F1000022905D1626A920702D549F6404010BDF8
:101F20000329FCD121688903F9D54FF2244010BD63
:101F300000F02AF96168C1F38131491C4900DBE7EF
:101F400000100240DC6A000800127A0000093D001F
:101F50002DE9F84305460078354CC00754D0E069B8
:101F60000026C00008D4E06940F08050E061E069DC
:101F7000012600F0805000902E480168C90512D457
:101F80000168804641F480710160FFF7F1FE074669
:101F900005E000BFFFF7ECFEC01B642823D8D8F88B
:101FA0000000C005F6D5206A10F4407021D0A98841
:101FB00001F4407181421CD0206A1F49012220F4A3
:101FC00040700A6000220A602062C00711D0FFF74B
:101FD000CFFE074641F2883808E000BFFFF7C8FE91
:101FE000C11B414502D90320BDE8F883206A800760
:101FF000F4D5206A696820F44070084320621EB15D
:10200000E06920F08050E0612878800705D560689D
:10201000A96820F44040084360602878C00605D5D0
:102020006068E96820F48000084360600020DBE716
:102030000010024000700040400442422DE9F04789
:102040000F46050061D0434E306800F00700B842EB
:1020500009D2306820F0070038433060306800F063
:102060000700B84251D128683B4C810712D5400780
:1020700003D5606840F4E06060602878000703D50D
:10208000606840F4605060606068A96820F0F0000B
:10209000084360602878C00728D06868012810D0FD
:1020A0002168022810D0890700292EDA616821F002
:1020B000030101436160FFF75BFE804641F288390E
:1020C0000DE021688903EFE78901EDE7FFF750FE96
:1020D000A0EB0801494502D90320BDE8F0876068FC
:1020E000696800F00C00B0EB810FEFD1306800F0B0
:1020F0000700B8420BD9306820F007003843306041
:10210000306800F00700B84201D00120E5E72878E8
:10211000400705D56068E96820F4E0600843606026
:102120002878000706D56068296920F4605040EAE5
:10213000C100606000F038F86168084AC1F303111B
:10214000515CC8400649086006480068FFF730FE49
:102150000020C2E70020024000100240EC6A0008A4
:102160000C0000200400002004480549006849686C
:10217000044AC1F30221515CC84070470C000020A2
:1021800000100240FC6A00080448054900684968DC
:10219000044AC1F3C221515CC84070470C000020C2
:1021A00000100240FC6A00080E4A51680E4801F017
:1021B0000C03042B11D0082B0FD10C48C1F383431F
:1021C000C903C05C0AD55168084AC1F34041921E58
:1021D000515C054A5043B0FBF1F070470449484355
:1021E000704700000010024000127A00CA6A00081E
:1021F00000093D002DE9F84F040070D02078C04D53
:10220000C00749D06868C0F38100012807D068681A
:10221000C0F38100022809D16868C00306D5286888
:10222000800339D560680028E7D035E06068B0F5F4
:10223000803F0BD010B1B0F5A02F11D0286820F44A
:1022400080302860286820F4802002E0286840F46C
:1022500080302860606890B1FFF78AFD06460AE08A
:10226000286840F480202860F0E700BFFFF780FD79
:10227000801B642873D828688003F7D50CE0FFF72B
:1022800077FD064605E000BFFFF772FD801B64285E
:10229000F0D828688003F7D420789A4E80074FF052
:1022A00001094FF0000839D5686810F00C0F07D00D
:1022B0006868C0F38100022809D16868C00306D4A9
:1022C0002868800714D52069012808D110E020690A
:1022D000B0B1C6F80090FFF74BFD074605E00AE1F4
:1022E000FFF746FDC01B0228C4D828688007F7D531
:1022F0002868616920F0F80040EAC10028600DE01C
:10230000C6F80080FFF734FD074604E0FFF730FD14
:10231000C01B022823D828688007F7D4207800073C
:102320002CD57948A169D9B1C0F80090FFF720FDFC
:10233000074604E0FFF71CFDC01B02280FD8686A9F
:102340008007F7D571484FF4FA510068B0FBF1F0FF
:10235000009000BF0098411E0091FAD20EE080E08C
:10236000C0F80080FFF704FD074604E0FFF700FD1A
:10237000C01B022875D8686A8007F7D42078400708
:1023800060D5E8690027C00008D4E86940F08050B3
:10239000E861E869012700F0805000905C4801681E
:1023A000C90513D40168834641F480710160FFF7C9
:1023B000DFFC824606E000BFFFF7DAFCA0EB0A0074
:1023C00064284ED8DBF80000C005F5D5E068012888
:1023D0000AD008B1052813D0286A20F0010028622D
:1023E000286A20F0040002E0286A40F00100286218
:1023F000E06841F2883B98B1FFF7BAFC82460BE0F7
:10240000286A40F004002862EEE700BFFFF7B0FC46
:10241000A0EB0A0159455AD8286A8007F6D50CE086
:10242000FFF7A6FC824605E0FFF7A2FCA0EB0A013D
:1024300059454CD8286A8007F6D41FB1E86920F0C6
:102440008050E861E06988B36968C1F381010229BD
:1024500044D00228C6F8608004D0FFF789FC044607
:1024600038E034E0FFF784FC074604E0FFF780FC27
:10247000C01B02282BD828688001F7D4206AB0F549
:10248000803F05D16868A16820F400300843686087
:10249000D4E908010843696821F4741108436860AD
:1024A000C6F86090FFF764FC044606E025E000BF34
:1024B000FFF75EFC001B022809D828688001F7D5C9
:1024C0001BE000BFFFF754FC001B022802D90320C9
:1024D000BDE8F88F28688001F4D40EE00128F7D019
:1024E0006868226A00F48031914204D1616A00F484
:1024F0007010884201D00120EAE70020E8E70000E0
:102500000010024000004242800442420C000020C1
:102510000070004010B5401EB0F1807F01D3012053
:1025200010BD4FF0E02460610F21601701F0E6FB61
:102530000020A06107202061002010BD10B590F898
:102540003C20012A22D0012280F83C20CA688C68F5
:1025500022F4407222434C6822F4806222430C68C9
:1025600022F4006222430C6922F4805222434C6917
:1025700022F400522243C969002322F480420A4314
:1025800001684A6480F83C30002010BD022010BD74
:1025900070B590F83C20012A26D0012480F83C40F8
:1025A000022280F83D2003685A689D6822F0700678
:1025B0000A6832435A600D4B02689A4208D0B2F161
:1025C000804F05D00A4B9A4202D00A4B9A4204D15E
:1025D000496825F080031943916080F83D4000214F
:1025E00080F83C10084670BD022070BD002C0140F0
:1025F00000040040000800402DE9F0410D460400B1
:1026000003D094F83D0018B108E00120BDE8F08146
:10261000002084F83C00204600F040F8022084F8B6
:102620003D002068816844F2070291438160211DCA
:10263000206801F00BF9226890689169166A2B688E
:10264000AF69034340F20330814341EA0721A868A0
:10265000EF6908434FF6FC418843E96840EA0720E8
:10266000014328692F6A000140EA0730084369687E
:102670006D6926F0220646EA051529439360226813
:10268000906154F8460B0162012004F81F09E075BF
:102690002076E0762077A0750020B7E700B585B0FA
:1026A0000021009101910291039100680D49884237
:1026B00016D10D48C16941F00201C161C16901F043
:1026C00002010491816941F00401816180696946D8
:1026D00000F004000490C02000900448FFF74EFA78
:1026E00005B000BD00040040001002400008014099
:1026F00070B590F83E60044690F83F5090F8423034
:1027000090F84320022021B104290ED0012E1BD1C4
:1027100014E0012E18D1012B16D184F83E0084F864
:10272000420001220021206820E0012D0CD1012A65
:102730000AD184F83F0084F8430014E0012D03D14E
:10274000012B01D1012A01D0012070BD84F83E0087
:1027500084F83F0084F8420084F8430001220021FD
:10276000206801F0AFF801220421206801F0AAF8E6
:102770002068016841F001010160002070BD000087
:1027800000B585B00021009101910291039100688C
:102790000B49884212D10B48816941F004018161E3
:1027A0008069694600F0040004904FF47060009066
:1027B0000220019003900448FFF7E0F905B000BD46
:1027C000002C0140001002400008014070B5044692
:1027D00090F83C0000260D4601280FD0012084F817
:1027E0003C006AB1042A1DD0082A2FD00C2A3FD001
:1027F0000126002084F83C00304670BD022070BDE8
:10280000206801F06DF82068816941F0080181615C
:102810002068816921F004018161206881692A6949
:10282000114311E0206801F083F82068816941F4C8
:10283000006181612068816921F480618161206883
:1028400081692A6941EA02218161D2E7206801F0A9
:102850009BF82068C16941F00801C1612068C16925
:1028600021F00401C1612068C1692A69114311E0A6
:10287000206801F0B5F82068C16941F40061C161C8
:102880002068C16921F48061C1612068C1692A6939
:1028900041EA0221C161ACE710B5040003D094F80D
:1028A0003D0010B107E0012010BD002084F83C007D
:1028B000204600F01FF8022084F83D00211D20680A
:1028C00000F0C4FF012084F8460084F83E0084F83C
:1028D0003F0084F8400084F8410084F8420084F806
:1028E000430084F8440084F8450084F83D0000204B
:1028F00010BD000008B500680649884208D10648A6
:10290000816941F400618161806900F40060009098
:1029100008BD0000002C01400010024010B5044624
:10292000022249B104290ED0082913D094F841009D
:10293000012816D0012010BD94F83E000128F9D1DD
:1029400084F83E200FE094F83F000128F2D184F88B
:102950003F2008E094F840000128EBD184F84020A3
:1029600001E084F841200122206800F0ABFF0F490C
:102970002068884203D1426C42F4004242642068DD
:10298000884208D0B0F1804F05D00949884202D072
:102990000849884204D1816801F00701062903D063
:1029A000016841F001010160002010BD002C0140D0
:1029B000000400400008004030B504460D460068A1
:1029C000002200F07FFF174B41F2111120688A109E
:1029D000984209D1036A0B4206D1036A134203D11C
:1029E000436C23F4004343642068036A0B4206D11E
:1029F000016A114203D1016821F001010160012047
:102A00003DB1042D08D0082D09D084F841000020E4
:102A100030BD84F83E00FAE784F83F00F7E784F819
:102A20004000F4E7002C014070477047F8B501689A
:102A300004460868CA684B6910F00F0F4FF0000594
:102A400059D003F0010602F49077374365D0C107EF
:102A500005D0D10503D5616C41F0010161644107E6
:102A600005D5D90703D0616C41F00201616481078B
:102A700005D5D90703D0616C41F0040161640107F9
:102A800007D502F02001314303D0616C41F0080109
:102A90006164616C00293AD0800604D5900602D5A5
:102AA000204600F0EEFF20684069616CC0F38010A2
:102AB000090700D460B3204600F0BCFF20684069DD
:102AC000400621D52068143050E8001F21F0400155
:102AD00040E80012002AF5D1E06BA8B16D494163CE
:102AE000E06BFEF7DDFE002811D0E06B416B01B01A
:102AF000BDE8F040084783060FD593060DD5204664
:102B0000BDE8F84000F0BDBF2046FFF78EFFF8BDDE
:102B10002046FFF78AFF6564F8BD266B2023012E4F
:102B20007CD1C6067AD5D60678D508684868009064
:102B300048694FF00206400640D5E16B08684068DE
:102B40000004000CE8D0A28D8242E5D9E0858869B6
:102B500020282DD020680C3050E8001F21F480710F
:102B600040E80012002AF5D12068143050E8001F18
:102B700021F0010140E80012002AF5D1206814304C
:102B800050E8001F21F0400140E80012002AF5D172
:102B900084F84230256320680C3050E8001F21F093
:102BA000100140E80012002AF5D1E06BFEF754FE58
:102BB0006663A08DE18D401A81B22AE0A08DE18D7F
:102BC000401A81B2E08D0028A6D00029A4D0226846
:102BD0000C3252E8000F20F4907042E80007002FFA
:102BE000F5D12068143050E8002F22F0010240E8AF
:102BF0000027002FF5D184F84230256320680C307F
:102C000050E8002F22F0100240E80023002BF5D1FD
:102C100066632046FFF708FFF8BDFFE705062BD5E2
:102C2000150629D594F841002128F5D1A068B0F502
:102C3000805F01D12069B0B1206A411C2162216806
:102C400000784860E08C401E0004000CE084E3D172
:102C50002068C16821F08001C1602068C16841F02E
:102C60004001C160D8E7206A0088C0F308004860CE
:102C7000206A801C2062E5E74006CDD55006CBD502
:102C8000CA68204622F04002CA6084F8413000F051
:102C90000BF9C1E7253A000870B5040004D094F898
:102CA0004100002510B106E0012070BD84F84050BD
:102CB000204600F023F8242084F841002068C168F1
:102CC00021F40051C160204600F03CFF20680169FA
:102CD00021F4904101612068416921F02A0141619C
:102CE0002068C16841F40051C1606564202084F807
:102CF000410084F842006563002070BD30B585B0A6
:102D0000002400940194029403942B4D03682B48F3
:102D100002210322AB422AD1C36943F40033C361C9
:102D2000C36903F400330493836943F004038361AC
:102D30008069234D00F0040004900420CDE90001D7
:102D4000039269462846FEF719FF0820CDE90004E2
:102D5000694628460294FEF711FF002211462620FC
:102D6000FFF772F82620FFF761F805B030BD154D6A
:102D7000AB42FAD1C36943F48023C361C36903F44E
:102D800080230493836943F008038361806903927D
:102D900000F0080004902815CDE900010A4D6946AD
:102DA0002846FEF7EBFEE814CDE900046946284604
:102DB0000294FEF7E3FED8E7004400400010024012
:102DC0000008014000480040000C014090F84230EB
:102DD000202B01D00220704721B11AB100230363D8
:102DE00000F00CBF0120704700680449884204D1FC
:102DF000052203490348FFF7E9BF7047004400403C
:102E000068000020A40100202DE9F843044690F852
:102E10004100984616460D46202802D00220BDE803
:102E2000F88385B17EB100206064212084F84100E0
:102E3000FEF79EFFA6848146E684A0682027B0F5B1
:102E4000805F02D003E00120E9E7206910B12E463F
:102E500000250EE000260CE08021204600F0E9FE6F
:102E6000A8B9C6B116F8010B21684860E08C401E75
:102E7000E084E08C4B464FF00002CDF80080002843
:102E8000EAD14FF04001204600F0D3FE40B184F873
:102E900041700320C3E735F8020BC0F30800E3E7F5
:102EA00084F841700020BAE77047FEE770B50D4C1A
:102EB0000025C4F8B8510C48416821F070414160C8
:102EC000416841F040514160C4F8BC51012004F513
:102ED000DC7401F03DFF0120206001F039FF256026
:102EE00070BD0000000022420010014070B50D4C82
:102EF0000025C4F8B8510C48416821F07041416088
:102F0000416841F0405141600126C4F8BC6130463F
:102F100004F5DC7401F01CFF2660012001F018FFAD
:102F2000256070BD00002242001001402DE9F047ED
:102F3000814617480024416821F070414160416892
:102F400041F000414160134E254627464FF00108ED
:102F5000C6F8B871022001F0FBFEC6F8B881600621
:102F6000040ED6F83C0108B1641CE4B2022001F062
:102F7000EFFE6D1CEDB2082DEAD3B9F1000F02D0BF
:102F8000FFF794FF01E0FFF7B1FF2046BDE8F087AF
:102F900000100140000022422DE9F041064614488D
:102FA000416821F070414160416841F04051416009
:102FB000104C0027C4F8B8713D464FF00108F009E5
:102FC000C4F8BC017006060E012001F0C1FEC4F871
:102FD000B881012001F0BCFEC4F8B871012001F0F5
:102FE000B7FE6D1CEDB2082DE9D3BDE8F0810000FD
:102FF000001001400000224270B51148416821F0E4
:1030000070414160416841F0405141600D4C0120E8
:10301000C4F8BC01D4F83C1149B1C4F8B80101F0BE
:1030200097FE0025C4F8BC51D4F83C0108B100203B
:1030300070BD012001F08CFEC4F8B851012070BDB4
:1030400000100140000022420D4810B5416821F0F7
:1030500070414160416841F040514160094C00209D
:10306000C4F8B801C4F8BC01012004F5DC7401F017
:103070006FFE012020606060BDE8104001F068BE76
:10308000001001400000224270B51348002441683E
:1030900021F070414160416841F0004141600F4DB5
:1030A0000126C5F8BC61304601F052FEC5F8B86192
:1030B00007E0641CE4B2322C03D9FFF7C5FF0020FF
:1030C00070BD012001F044FED5F83C010028F0D18C
:1030D000C5F8B801012070BD001001400000224277
:1030E000FEB500242048009401941E49029401601A
:1030F0008915816004730475042505614FF460210E
:103100004460C161FEF742FA08B172B6FEE70126DB
:10311000CDE90046694614480294FEF747F908B124
:1031200072B6FEE70220CDE9006069460E48FEF760
:103130003DF908B172B6FEE70320CDE900506946BB
:103140000948FEF733F908B172B6FEE70520CDE96C
:10315000000569460448FEF729F9002801D072B637
:10316000FEE7FEBD00240140E40000202DE9F0430D
:1031700085B000243048009401940294039481693E
:1031800041F010018161816901F0100104918169B0
:1031900041F020018161816901F020010491816980
:1031A00041F004018161816901F0040104918169A8
:1031B00041F0080181618069DFF8808000F008003B
:1031C000049000224FF460414046FEF7CCFDDFF84A
:1031D00070904FF47047002239464846FEF7C3FD11
:1031E0004FF400500125CDE900050220CDE9024051
:1031F00069464046FEF7C2FC4FF44040009001AAE9
:103200001120032682E8610069464046FEF7B6FCBD
:1032100000970396CDE9015469464846FEF7AEFC97
:103220004FF450708DE8310069464846FEF7A6FC21
:1032300005B0BDE8F083000000100240001001401E
:10324000000C014010B592B000240F941C21684678
:103250001094FCF7B1FF202107A8FCF7ADFF2C4824
:103260002A4901604721C0E901141321C0E9031470
:1032700044618461FFF710FB08B172B6FEE70F945A
:103280000FA923481094FFF783F908B172B6FEE73F
:103290006020CDE900040294039404940594002274
:1032A00069461B480694FFF791FA08B172B6FEE72B
:1032B000042269461648FFF789FA08B172B6FEE79C
:1032C000082269461248FFF781FA08B172B6FEE794
:1032D0000C2269460E48FFF779FA08B172B6FEE78C
:1032E0000794089409944FF400500A94CDE90B40D8
:1032F00007A907480E94FFF721F908B172B6FEE757
:103300000348FFF73DFA12B010BD0000002C014049
:103310001401002010B58CB024216846FCF74CFF46
:1033200000241548099413490A94C0E900144EF684
:103330006021C0E90241046184610120CDE90004FB
:10334000CDE902040494CDE90540079469460A4892
:103350000894FFF751F908B172B6FEE7099409A97C
:1033600005480A94FFF714F9002801D072B6FEE769
:103370000CB010BD000400405C010020FEE7FEE739
:103380002DE9F0410446007E16460D46000602D5A2
:103390002046FDF735FF4FF07E5025632067294614
:1033A0003046A666FCF772FFA06320F0004061691A
:1033B000FDF7EAF97ED2278BB7F5807F57D0A56B52
:1033C00020682946FCF768FFA06429466068FCF77E
:1033D00063FF266F3146FCF75FFFA0652846E16B6F
:1033E000FCF754FFA168FCF757FF3146FCF786FF56
:1033F0002065780702D52046FDF73CFF207E800639
:1034000002D52046FDF71EFE207E800702D520460D
:10341000FDF77EFE207E400602D52046FDF759FED0
:10342000207EC00702D02046FDF780FEA16DE06C33
:10343000FCF7DAFE0646E064D4E90C01FCF726FF4F
:10344000E168FCF729FF054660653146A06CFCF792
:10345000CBFE216DFCF7C8FE2946FCF7C5FEE065F2
:10346000207EC00637D52046FDF795FE33E0D4E92F
:103470000E7529463846FCF709FF2168FCF70CFF5A
:103480008046A06439466068FCF706FF0646A065E2
:1034900001212846FCF770FF3946FCF7FAFE216C43
:1034A000FCF7A2FEA168FCF7F7FE0746206531464F
:1034B000E06C00E013E0FCF797FE0646E06441464E
:1034C000206EFCF791FE3146FCF78EFE3946FCF784
:1034D0008BFE2564E0652046FDF77CFE02E00020BF
:1034E000E065A065206B6063E06D2066216D61661C
:1034F000A16BE163A16D6164BDE8F081164910B56F
:103500006820087014480321143800240170042135
:1035100041700472FDF7AAFB0F4805210A380170BB
:1035200006214170847001210172FDF79FFB0A485A
:103530000A494430C0E900148460048308490161E9
:1035400000215838FDF7BEFB03480021BDE81040BC
:103550000A38FDF7B7BB00009C0200200000704253
:1035600000007A44704700002DE9F04F04468FB008
:10357000007803F0E7F90CAE04F11C0504F116081D
:1035800004F11007CDE900560DAB08AA41463846B4
:1035900001F056FD0028F5D1A08BC0057ED5089816
:1035A000FDF77EF86FF01D063146FCF7E5FE5E4D37
:1035B000804628600998FDF773F83146FCF7DCFE79
:1035C000814668600A98FDF76BF83146FCF7D4FE37
:1035D0000746A8600B98FDF763F83146FCF7CCFE70
:1035E0000646E86001214046FCF7C6FE3946FCF776
:1035F00053FE07464FF0404841464846FCF74CFE14
:103600003146FCF749FE3946FCF7EEFDFDF783F83D
:1036100001F088F8DFF814A14FF066394A465346A6
:10362000FCF75DFFFDF78AF86060A8680121064697
:10363000FCF7A2FE83463146FCF72EFE064668687C
:1036400041468046FCF728FE4146FCF725FE314600
:10365000FCF71CFE4FF07E51FCF7C6FDFDF75BF852
:1036600007460E4601212868FCF786FE4146FCF716
:1036700013FE80465846E968FCF70EFE4146FCF70B
:10368000B3FDFDF748F83A46334601F093FA4A464F
:103690005346FCF724FFFDF751F800E040E0A0603E
:1036A000E96803910846FCF7F7FDA96883460846D8
:1036B0000291FCF7F1FD6968074608460191FCF7A5
:1036C000EBFD2968064688464046FCF7E5FD314695
:1036D000FCF78AFD3946FCF7D9FD5946FCF7D6FDC3
:1036E000FDF719F806460D4640460399FCF7D4FD50
:1036F0000746DDE90101FCF7CFFD3946FCF774FD13
:103700000121FCF739FEFDF706F832462B4601F0A1
:1037100051FA4A465346FCF7E2FEFDF70FF8E06027
:103720000FB0BDE8F08F0000A800002066A64C4056
:103730007047000009480A490278022A07D0032A84
:1037400004D14278002A01D18078487070474278CD
:10375000002AFBD1807808707047000068000020C4
:10376000C10000200E480178012912D1417811B121
:1037700001290AD00DE08078012802D0022802D069
:1037800007E00020704701207047807818B10128B9
:1037900003D00420704702207047032070470000C8
:1037A0006800002010B50648FFF776F83C21054870
:1037B000FEF79EFFBDE810400348FDF789BD0000FD
:1037C000140100205C010020E4000020FEF7D6BABE
:1037D00030B593B028216846FCF7EEFC14210AA806
:1037E000FCF7EAFC002501200F95109511950104C6
:1037F00012958DE8230004904FF4E010CDE90810F5
:10380000022407946846FEF7F5FC08B172B6FEE79D
:103810000AA90F2081E831004FF48060CDE90D0541
:1038200002210AA8FEF70AFC08B172B6FEE74FF4BF
:10383000004011900F940FA8FEF78AFB002801D0DA
:1038400072B6FEE713B030BD70470000F0B50268F5
:10385000194B1A4C1A4D4FF08047984205D0B84288
:1038600003D0A04201D0A84203D122F070064A68DA
:103870003243984205D0B84203D0A04201D0A842BA
:1038800003D122F44074CA6822434C6922F08002BA
:10389000224302608A68C2620A688262984201D149
:1038A00009690163012141610169C90703D0016907
:1038B00021F001010161F0BD002C01400004004035
:1038C0000008004010B501F01F030121046A99406F
:1038D0008C430462016A9A401143016210BD0000EA
:1038E00030B5036A026A22F001020262426884690A
:1038F00024F073050C682C4323F002058B682B43DE
:103900000A4DA8420BD123F00805CB6822F440727F
:103910002B434D6923F0040315438A692A4342600F
:10392000846149684163036230BD0000002C01409E
:1039300030B5026A036A23F01003036243688469A6
:103940000D6824F4E64444EA05248D6822F0200240
:1039500042EA05120B4DA8420ED1CD6822F080023A
:1039600042EA05124D6923F4406343EA85038D69F9
:1039700022F0400243EA8503436084614968816321
:10398000026230BD002C014030B5036A026A22F4A5
:10399000807202624268C46923F4007324F07305E4
:1039A0000C682C438D6843EA05230C4DA8420ED1C8
:1039B000CD6823F4006343EA05234D6922F44052A5
:1039C00042EA05128D6923F4806342EA05124260DF
:1039D000C4614968C163036230BD0000002C01402E
:1039E00030B5046A026A22F4805202624268C369F6
:1039F0000D6823F4E64343EA05238D6824F400545C
:103A000044EA0534064DA84204D14D6922F48042AF
:103A100042EA85124260C36149680164046230BDB4
:103A2000002C014010B5406A0021C185C184FEF719
:103A3000FCFF10BD01680C3151E8002F22F4907298
:103A400041E80023002BF5D10168143151E8002F23
:103A500022F0010241E80023002BF5D1016B01297E
:103A600009D101680C3151E8002F22F0100241E821
:103A70000023002BF5D1202180F8421000210163A2
:103A8000704708B590F84210222901D0022008BDE5
:103A900082684FF480539A4201D1016921B1816A51
:103AA0009A421BD04AB10AE00268816A5268C2F3A6
:103AB00008020A80816A891C08E0026972B1026802
:103AC000526802F07F020A70816A491C8162C18DCE
:103AD000491E0904090CC18503D01BE00268526825
:103AE000F1E70168CA6822F02002CA600168CA686A
:103AF00022F48072CA6001684A6922F001024A61B8
:103B0000202180F8421000214163026B012A03D07A
:103B1000FFF76AF9002008BD016301680C3151E824
:103B2000002F22F0100241E80023002BF5D101689C
:103B30000A68D20602D50A6849680091818DFEF7AD
:103B400073FFE7E770B5044600680169E26821F495
:103B50004051114301612169A0680843616908432C
:103B60002168CA6841F20C639A430243CA60206824
:103B70004169A26921F44071114341611E492068E5
:103B8000884202D1FEF700FB01E0FEF7EDFA00EB00
:103B9000C00101EB0012606864218000B2FBF0F309
:103BA000B3FBF1F36FF018067343B2FBF0F5B2FB11
:103BB000F0F605EB8305322303EB0515B5FBF1F5B4
:103BC000B6FBF1F605F0F00505EB0615B2FBF0F6D5
:103BD000B2FBF0F0B0FBF1F06FF01802504306EBCF
:103BE000800003EB0010B0FBF1F0216800F00F0043
:103BF0002844886070BD00000038014081628285E1
:103C0000C28500214164222180F84210016921B15E
:103C10000168CA6842F48072CA6001684A6942F069
:103C200001024A610068C16841F02001C1600020C2
:103C300070472DE9F843984617460D460446089EFE
:103C400024E0701C22D0FEF793F8A0EB0800B042ED
:103C50001AD8CEB12068C168490717D5802D15D074
:103C6000402D13D00168C94309070FD4016800250E
:103C7000406800902046FFF7DDFE0820606484F86D
:103C800040500120BDE8F8830320FBE7206800686E
:103C900035EA000004D00020B842D2D00020F1E77D
:103CA0000120F9E70148FEF7C1BE0000A401002091
:103CB000FEE700000FB4054B10B503A9044A0298B3
:103CC00000F06CF910BC5DF814FB0000F55600081C
:103CD000DC000020490050EAC12018BF04204A0D32
:103CE00018BF40F0010040F2FF72B2EB515F08BF15
:103CF00040F00200012808BF052070470907090E9F
:103D0000002804DB00F1E02080F80014704700F088
:103D10000F0000F1E02080F8141D70472DE9F041FC
:103D20004F1E00EBC7010446D1E9000115461E46AF
:103D300037F006020DD02A463346FCF7D0FB7F1E33
:103D400004EBC703D3E90023FCF722FB37F006029C
:103D5000F1D1022F25D0042F13D0062F18BFBDE8B4
:103D6000F0812A463346FCF7BAFBD4E90A23FCF774
:103D70000FFB2A463346FCF7B2FBD4E90823FCF7D5
:103D800007FB2A463346FCF7AAFBD4E90623FCF7D7
:103D9000FFFA2A463346FCF7A2FBD4E90423FCF7DA
:103DA000F7FA2A463346FCF79AFBD4E90223FCF7DC
:103DB000EFFA2A463346FCF792FBD4E90023BDE82C
:103DC000F041FCF7E5BA0122FCF7E4BDFCF7E0BAEC
:103DD0000022134610461146FCF7F3BB024A0020AE
:103DE0001107FCF7D7BD000001FDFFFF02E008C886
:103DF000121F08C1002AFAD170477047002001E065
:103E000001C1121F002AFBD1704700000149086060
:103E100070470000E00000202DE9FF5F82B0002124
:103E2000DDE90430020DDDF840B0034318D044F65C
:103E30001050A2F2FF3242431514119801281FD0EE
:103E4000A5EB0B00401C5FEA000A4FF000064E4F46
:103E5000DFF83891B046504615D5CAF1000413E09A
:103E6000119801244AA3012801D16FEA0B0102989D
:103E7000119AC0E90031C0E9024206B0BDE8F09FE6
:103E8000CBF10000DFE704460021404A491842EB2D
:103E90000450CDE9001012E0E00707D032463B465F
:103EA00040464946FCF71BFB8046894632463B4666
:103EB00010461946FCF713FB06460F466410002C0B
:103EC000EAD1DDE90401DDE90023BAF1000F06DAE9
:103ED000FCF705FB42464B46FCF701FB05E0FCF70F
:103EE00070FB42464B46FCF76CFB04460E46002234
:103EF000284BFCF797FD03D84FF0FF30014607E051
:103F00000022254B20463146FCF742FAFCF759FDCA
:103F1000102409E0002C0ADB0A220023FCF754FCE1
:103F2000039B30321A55641E50EA0102F2D1641C20
:103F3000039AC4F111031444119A012A03D00122F7
:103F400008430DD10AE0084304D000204FF0110BC4
:103F5000119072E7A3EB0B056D1E0DE05B4504DDD0
:103F60004FF0000205F1010504E003DA4FF0000212
:103F7000A5F10105002AECD002981199C0E902319F
:103F8000C0E9004579E70000000014400000F03F60
:103F9000300000000000F0430000E03F2DE9FF4F3B
:103FA00095B09A46884606460025EEE1252877D149
:103FB00000242746F94A0121039400E0044316F83F
:103FC000013F203B01FA03F01042F7D130782A2854
:103FD00011D06FF02F033078A0F13002092A16D8E3
:103FE000039A44F0020402EB820203EB4202104403
:103FF000761C0390EFE758F8042B0392002A03DAAB
:10400000504244F40054039044F00204761C30788B
:104010002E2816D116F8010F44F004042A280DD0DA
:104020006FF02F023078A0F13003092B09D807EB8D
:10403000870302EB4303C718761CF3E758F8047BA9
:10404000761C30786C280FD006DC4C2817D06828F6
:104050000DD06A2814D104E0742810D07A280FD12A
:104060000DE044F400140AE044F4801401E044F448
:1040700040147278824202D104F58014761C761CBA
:10408000307866280BD013DC582877D009DC00285C
:1040900075D04528F6D04628F4D047281AD193E1A8
:1040A00018E0632835D0642879D0652812D18BE1D7
:1040B000702873D008DC6728F1D069286FD06E288B
:1040C0000DD06F2806D1ACE073282CD0752874D0A1
:1040D000782853D05246179990476D1C54E1C4F389
:1040E0000250022809D003280DD0D8F80010042867
:1040F0000DD00D6008F1040846E1D8F80010EA1769
:10410000C1E90052F6E7D8F800100D80F2E70D7013
:10411000F0E718F8041B8DF8001000208DF801005E
:10412000EB46012003E058F804BB4FF0FF30610775
:104130004FF0000102D40DE009F101018946B942B6
:104140000FDA8145F8DB1BF809100029F4D108E0EB
:1041500009F1010189468142FADB1BF809100029A7
:10416000F6D103985346A0EB090721463846179A23
:1041700000F080FA284400EB090507E044E008E17C
:104180000DE01BF8010B524617999047B9F1010950
:10419000F7D2534621463846179AF2E039E00A2111
:1041A000C4F302524FF0000B0091022A06D058F8D7
:1041B000040BC117032A09D00AE023E008F1070025
:1041C00020F00702F2E80201904605E000B2C117B4
:1041D000042A01D140B2C117002906DA0A4600219B
:1041E000404261EB02012D2202E0220504D52B2280
:1041F0008DF80420012203E0E20701D02022F7E736
:10420000914657E00A2100E010214FF0000B009189
:104210000BE010214FF0000B44F00404082700913C
:1042200003E008204FF0000B0090C4F30252022A72
:1042300005D058F8040B0021032A08D008E008F143
:10424000070020F00702F2E80201904603E080B286
:10425000042A00D1C0B24FF0000922072AD53278D3
:10426000702A07D0DDF800C08CF0100C5CEA0B0C53
:1042700005D00EE040228DF80420012208E050EA2B
:10428000010306D030238DF804308DF8052002227A
:104290009146009B83F0080353EA0B030AD150EACE
:1042A000010201D1620705D530228DF804204FF0BC
:1042B00001097F1E3278582A04D039A20C920CAA28
:1042C00002920BE03BA2F9E75B46009AFCF77CFA0E
:1042D0000C9B9B5C029A521E0292137050EA0102E0
:1042E000F2D1029804A9081A00F1200B600702D548
:1042F00024F4803400E001275F4502DDA7EB0B00CA
:1043000000E0002000EB0B01009003984944401AA4
:104310000390E00306D453462146179A039800F011
:10432000A9F90544002706E001A85246C05D179987
:1043300090476D1C7F1C4F45F6DBE0030CD55346C0
:104340002146179A039800F095F9054404E03020BF
:104350005246179990476D1C0099481E00900029FD
:10436000F5DC08E00298029952460078491C029157
:10437000179990476D1CBBF10001ABF1010BF1DC0B
:104380005BE100F065F90544761C307800287FF485
:104390000DAE19B02846BDE8F08F000009280100D5
:1043A00030313233343536373839616263646566AB
:1043B000000000003031323334353637383941426D
:1043C0004344454600000000600700D4062708F17A
:1043D000070020F00700F0E80223804603F0004CBD
:1043E0005FEA0C0001D097A009E0200501D596A056
:1043F00005E0E00701D095A001E0AFF24C0013907A
:10440000307823F0004365280CD006DC452809D01D
:1044100046281DD047287FD13BE0662818D0672862
:104420007AD136E00021112F01DB112000E0781C49
:10443000CDE9000104A90CA8FFF7EEFCDDE90D01B0
:104440000C9A4FF0000B07F10109109200914EE019
:104450004FF000400097CDE9011004A90CA8FFF728
:10446000DBFCDDE90D020C9B0F994FF0000B914630
:104470001093009211B9791C00EB0109B7EB090008
:1044800003D4C0F1FF3B07F10109A9EB070001903C
:1044900042E0012F00DA01270021112F01DD112058
:1044A00000E03846CDE9000104A90CA8FFF7B4FCF0
:1044B000DDE90D010C9A00914FF0000BB946109206
:1044C00021070FD4009A4A4503DA914601E0A9F189
:1044D0000109B9F1010F05DD109AA9F10101515C43
:1044E0003029F4D0B84202DA10F1040F03DA0121C6
:1044F000CDE9011010E0002803DC8344A9EB0001A2
:1045000002E0411C494500DD8946A0EB0B00401C40
:1045100001904FF000400290200705D401984845D3
:1045200002DB4FF0FF30019000208DF84B00029825
:104530000DF14B07B0F1004F25D002200C902B203D
:104540000D90029800280CDA404202902D200D9028
:1045500007E00A210298FCF721F93031029007F8B0
:10456000011D0C99481E0C900029F2DC02980028CD
:10457000EFD1791E0D980870307800F0200040F0DF
:10458000450007F8020D11A8C01BC01D029013982A
:10459000007800B1012000EB0901019801EBE07106
:1045A000029801440398401A401E0390E00306D489
:1045B00053462146179A039800F05CF80544139877
:1045C000007818B15246179990476D1CE00323D527
:1045D00053462146179A039800F04CF805441BE017
:1045E000BBF1000F07DB0098584504DD10981799C0
:1045F00010F80B0001E017993020524690470198BF
:104600000BF1010B401E05F10105019004D12E2094
:104610005246179990476D1CB9F10001A9F10109A3
:10462000DEDC05E017F8010B5246179990476D1C28
:104630000299481E02900029F4DC53462146179A3D
:1046400003989EE62D0000002B00000020000000D3
:104650002DE9F041044600251E461746880404D47F
:1046600005E039462020B0476D1C641EF9D5284668
:10467000BDE8F0812DE9F041044600251E46904634
:10468000C80301D5302700E02027880404D505E0C1
:1046900041463846B0476D1C641EF9D52846BDE832
:1046A000F08100002DE9FE4F07460E4600256846C2
:1046B00001F02CF800246FF00F0AE8464FF00109D2
:1046C00057F8240056F82410401A00D54042FBF752
:1046D000E7FF5146FBF750FE58F8241011F0FF4F4A
:1046E0000BD0FBF70BFE4FF07E51FBF7CFFD0A49D5
:1046F00020F00040884205DC07E0084908440849EA
:10470000884202D309FA04F00543641C032CD7DB6A
:104710002846BDE8FE8F0000295C0F3E666666C134
:104720009A99D9002DE9F04D8D4F21F0004A86B0BD
:1047300005460C46BA452ADBAAEB070028430AD0F7
:104740008848824501DC1AD1CDB106B02846BDE8C3
:10475000F04DFFF738BB844A844B2846FBF7BFFE79
:1047600007460E46824A834B28462146FBF7B7FE92
:1047700006B03A463346BDE8F04DFBF709BE0120CE
:10478000FFF744FB06B0BDE8F04DFFF721BB7A48C8
:10479000824542DABAF1795F0BDA2846FFF79AFAD6
:1047A000042808BFFFF71AFB284606B02146BDE8DB
:1047B000F08D2A460B461046FBF791FE83460246D3
:1047C0006E480E460B4606217844FFF7A7FA5A4674
:1047D0003346FBF784FE804669488A465A4633468C
:1047E00004217844FFF79AFA5A463346FBF777FEDE
:1047F00000223B46FBF7CCFD02460B4640465146A5
:10480000FBF7DFFE2A462346FBF769FE06B02A4681
:104810002346BDE8F04DFBF7BBBD284624F0004120
:1048200000223D463B46FBF757FE4FF0FF32FCF7B8
:10483000B1F80646024653480F460B460621784417
:10484000FFF76CFA32463B46FBF749FECDE9000123
:104850004D4832463B4604217844FFF75FFA324622
:104860003B46FBF73CFE00222B46FBF791FD8346BF
:1048700002913046394602F001F9804643480D4620
:10488000504517DCDDE900015A46029BFBF799FE13
:1048900042462B46FBF723FE42462B46FBF778FDAC
:1048A0000122FCF777F8304A304BFBF712FE304A12
:1048B000304B4CE04FF0000A52460B464046FBF7A7
:1048C00067FDCDE9031052462B4610461946FBF70B
:1048D00006FE32463B46FBF7FFFDDDE90332FBF700
:1048E00070FE06460F46DDE900015A46029BFBF7C3
:1048F00068FE83460091012230463946FCF74AF8AB
:10490000194A1A4BFBF7E8FD06460F4601224046BE
:104910002946FCF73FF85A46009BFBF7E0FD32467C
:104920003B46FBF7D6FD06460F4601225046294678
:10493000FCF730F80E4DDFF858802A464346FBF767
:10494000CBFD32463B46FBF7C7FD2A464346FBF705
:10495000C3FD002CD8BF81F0004106B0BDE8F08D4A
:104960000000F03F0000F07F075C143326A6913C66
:10497000182D4454FB21F93F0000E03F742F000044
:104980008A2F0000FE2E0000142F00003333EF3F6B
:10499000FB21E93F2DE9F84F04460D4621F0004088
:1049A00000917349814211DC7249884201DC06D1D1
:1049B0002CB120462946BDE8F84FFFF704BA6E48EF
:1049C000002DCCBF6D496E49BDE8F88F6D4981421D
:1049D00011DD6D498142D8BF4FF0FF366DDD2046B5
:1049E0002946FFF777F9042808BFFFF7F7F92046B3
:1049F0002946BDE8F88F6549654F25F0004581429D
:104A000033DD6449814219DD002632464FF0804390
:104A100020462946FBF7BCFC80468A4601222046F8
:104A20002946FBF7B7FF00223B46FBF752FD424603
:104A30005346FBF7C6FD04460D463EE00126002224
:104A4000BA463B4620462946FBF7A2FC80460F4665
:104A50000022534620462946FBF73BFD42463B4693
:104A6000FBF7AFFD04460D4627E04B4981421BDDB5
:104A7000DFF828A102260022534620462946FBF7EC
:104A80002EFD00223B46FBF783FC80460F460022AA
:104A9000534620462946FBF71CFD42463B46FBF7A2
:104AA00090FD04460D4608E0032622462B460020D2
:104AB0003B49FBF786FD04460D4622462B46104631
:104AC0001946FBF70CFD8B46824602460B46FBF768
:104AD00006FD07460246334888460B4606217844C1
:104AE000FFF71CF952465B46FBF7F9FC82462E485D
:104AF0008B463A46434605217844FFF70FF93A467C
:104B00004346FBF7ECFC02460B46002E5046594646
:104B10000CDAFBF73DFC22462B46FBF7E0FC01B02C
:104B200022462B46BDE8F04FFBF7D6BCFBF730FC26
:104B300022462B46FBF7D3FC1C4A7A4402EBC60301
:104B4000D3E90023FBF7C5FC22462B46FBF7C1FC4B
:104B5000174A7A4402EBC603D3E90023FBF7BCFCF7
:104B6000009A002AB8BF81F00041BDE8F88F00002C
:104B7000000010440000F07F182D4454FB21F93F41
:104B8000FB21F9BF0000DC3F0000203E0000F33FA6
:104B90000000F03F0000E63F008003400000F83FC7
:104BA0000000F0BF162D0000D42C0000722C000075
:104BB0003A2C00002DE9F04D9446CCF1000423F08E
:104BC00000464CEA0404594F46EAD4749A46884693
:104BD00021F00042BC4206D8454240EA050442EAC0
:104BE000D474BC4204D9BDE8F04D6246FFF7EEB87C
:104BF000AAF14055A5F17F6555EA0C040BD00224BB
:104C000004EAAA744A4DDFF82CE144EAD87452EA67
:104C1000000B04D00CE0BDE8F04DFFF7BBBE002C4C
:104C200014BF012CBDE8F08D022C30D0032C32D003
:104C300056EA0C0B0AD0BE4220D1BA4209D126F066
:104C4000804622F080423346114617E000291ADBE5
:104C500025E0DFF8E4B0FB44002C04BFDBE90001F1
:104C6000BDE8F08D012C02BFDBE9000181F00041BD
:104C7000BDE8F08D022C0AD0032C0CD0BA4212D120
:104C8000B8F1000F0BDA2A482C49BDE8F08D284610
:104C90002B49BDE8F08D28467146BDE8F08D2448CB
:104CA0002849BDE8F08D921B12153C2AC4BF204F45
:104CB000244E10DCBAF1000FBEBF12F13C0F0027EA
:104CC0003E4608DB6246FBF77CFC21F00041FFF723
:104CD00061FE07460E4694B1012C08BF86F00046DF
:104CE0000DD0194A194B022C3846314615D0FBF726
:104CF000F0FB2A46BDE8F04D114BFBF7EABB002262
:104D0000134638463146FBF775FE04BF0220FFF715
:104D10007DF838463146BDE8F08DFBF7DAFB2A46D0
:104D2000BDE8F04D064BFBF7D7BB00000000F07F5D
:104D3000182D4454FB2109C0CE2B0000FB21F9BFE4
:104D4000FB210940FB21F93F075C143326A6A13C57
:104D500071B54FF461754FF0E023104E009819E0E3
:104D60002C46A04200D804469869614201EBC1017B
:104D700010EBC10105D49A69824208DA8A42FADA54
:104D800005E08A1999698142FCDD9142FADC0098BC
:104D9000001B00900028E3D178BD000040190100FD
:104DA00008B560B120208DF8000028208DF80100A2
:104DB00030208DF8020038208DF8030004E0A32293
:104DC00004216846FBF7F1F96A46042140F69E206B
:104DD00001F0C0FD01F07EFA08BD00003EB50446BA
:104DE00002208DF80000CA208DF80100E3208DF824
:104DF000020009208DF803006A460421682001F0B2
:104E0000A9FDA3208DF80000610609D5C0218DF809
:104E10000110C8218DF80210C2218DF8031005E0A1
:104E20008DF801008DF802008DF8030014F4C07FA6
:104E300009D0C4218DF80410CC218DF80510C621AD
:104E40008DF8061005E08DF804008DF805008DF84A
:104E500006008DF808008DF807008DF809006A46F5
:104E60000A2140F6A72001F075FDA0074FF0D805F4
:104E700003D020208DF8000001E08DF800506A4634
:104E8000012140F6B62001F065FDA00601D5012004
:104E900000E0002000F08EF814F4C07F1ED0E00582
:104EA0000AD5B2208DF800008B208DF80100B620C5
:104EB0008DF802009B2009E0B0208DF800008020D2
:104EC0008DF80100B4208DF8020090208DF80300C9
:104ED0006A46042140F6A22001F03CFDE1074FF4B0
:104EE0000B6022D0F8218DF800106A46012101F0F4
:104EF00031FDFA21072000F049FB072000F014FBE8
:104F0000012000F031FB642000F0D4FB4FF4FA7074
:104F100000F0E0FBC821254800F0CEFA282000F080
:104F2000E3FA0A2000F0F0FA05E08DF800506A4636
:104F3000012101F00FFDA00703D5D9208DF8000055
:104F400001E08DF800506A46012140F23D7001F009
:104F500001FD600701D5012000E0002000F048F8C5
:104F6000E00601D5012000E00020FFF719FF104DF9
:104F700044F00800688101F0ADF90020A8736006D4
:104F800001D50620A87314F4C07F02D0A87B801D31
:104F9000A87314F0140F02D0A87B1030A873A007D8
:104FA00002D0A87B001DA87300203EBD09E3CA0201
:104FB000780200200EB54FF4976310B106A107C91F
:104FC00001E008A207CA8DE807006A4609211846D1
:104FD00001F0C0FC0EBD0000B8AAB38DB4980D3529
:104FE0005D000000B8AAAAAAB088C3C5C700000027
:104FF00008B560B1C0208DF80000C2208DF8010016
:10500000C4208DF80200C6208DF8030004E08B2236
:1050100004216846FBF7C9F86A46042140F6982047
:1050200001F098FC01F056F908BD0000C8234FF4C8
:105030008062024940F6F63001F02EB8486B000855
:105040002DE9FF4F89B01746DDE916520024544E72
:10505000884681462C80A246B07B694601F0C8F89C
:105060004FF0FF3B18B158460DB0BDE8F08F708986
:1050700010F0140F4CD0BDF800109DF8022049BA72
:10508000090441EA02239DF803100B433B60BDF87D
:1050900004109DF8062049BA090441EA02229DF84D
:1050A00007101B140A437A60BDF808109DF80A40E7
:1050B00049BA090441EA04219DF80B401214214326
:1050C000B960BDF80C409DF80EC064BA240444EAEF
:1050D0000C2C9DF80F4009144CEA040CC7F80CC0C6
:1050E0004FEA2C475B43494302FB023207FB07119F
:1050F00011441024A1F17061B1F1007F04D901F0D5
:10510000E9F8A5F800A0AEE7298841F4807129806C
:105110004206694611D50A19A41D13885BBAA8F87E
:10512000003053885BBAA8F80230928852BAA8F8C7
:1051300004202A8842F008022A8010F4C07F11D08F
:105140000A19A41D13885BBAA9F8003053885BBA0A
:10515000A9F80230928852BAA9F804202A8842F0AD
:1051600070022A80800716D00C44E07800F0C00559
:1051700000F03F016078C00706D0C80801F00701C1
:105180003268491C02B190476078000703D5716806
:1051900009B1A80988470C9801F006FC002063E7D4
:1051A000780200202DE9FF41044603A800F02AFE02
:1051B000BDF80C00410CC3032F48008900F0030226
:1051C00054F82250420700D56D42C0F3C102860652
:1051D00054F8222000D55242C0F38116C00554F87D
:1051E000264000D56442A5FB0367E81700FB037067
:1051F00005FB0100850045EA9670A2FB0367D51701
:1052000005FB037502FB0152950045EA9672A4FB6B
:105210000367E51705FB037304FB01318B0043EAC9
:105220009671030E8DF80030030C8DF80130030ADF
:105230008DF802308DF80300100E8DF80400100C6C
:105240008DF80500100A8DF80600080E8DF808008C
:10525000080C8DF80900080A8DF80A008DF807205F
:105260008DF80B106A460C214FF4257001F072FB8B
:1052700004B0BDE8F08100007802002030B504469B
:1052800013A285B007CA8DE807004FF0FF35C82C80
:1052900016D8C820B0FBF4F1491E080A8DF80C009E
:1052A0008DF80D1003AA022140F2162001F052FBE6
:1052B00030B96A460C2140F6C12001F04BFB10B119
:1052C000284605B030BD054884810020F9E700007C
:1052D000FEF2ABC4AAF1DFDFBBAFDFDF7802002054
:1052E000F8B53049098901F0030250F822404A0715
:1052F00000D56442C1F3C1028B0650F8222000D5CC
:105300005242C1F3811350F82330C80500D55B42E7
:10531000254984FB0140850045EA947082FB0142E7
:10532000A40F44EA820483FB0121950F45EA81051D
:10533000010E8DF80010010C8DF80110010A8DF896
:1053400002108DF803006A4604214FF4747001F0D6
:1053500001FB4FF0FF3688B9200E8DF80000200CBD
:105360008DF80100200A8DF802008DF803406A468E
:1053700004214FF4757001F0EDFA08B13046F8BD24
:10538000280E8DF80000280C8DF80100280A8DF8F1
:1053900002008DF803506A4604214FF4767001F044
:1053A000D9FAF8BD7802002009E3CA022DE9FF41CD
:1053B00004463CA004F00303006802903AA0006891
:1053C00003903AA006683AA0056802A8C15C8DF86F
:1053D0000010C4F3C101425C8DF80120C4F38112B6
:1053E000805C8DF8020003A8C35C8DF80430415C3A
:1053F0008DF80510805C8DF806006A46032140F2A6
:10540000264001F0A7FA4FF0FF37E0BB01AA0321C5
:1054100040F22A4001F09EFAA8BBCDE90065600782
:105420000BD59DF8000040F001008DF800009DF8BC
:10543000040040F001008DF80400A0060BD59DF893
:10544000010040F001008DF801009DF8050040F0DA
:1054500001008DF80500E0050BD59DF8020040F035
:1054600001008DF802009DF8060040F001008DF863
:1054700006006A4603214FF4886001F06BFA10B908
:1054800001AA032100E004E040F2314001F062FA99
:1054900018B1384604B0BDE8F08106480481002008
:1054A000F8E700004CCD6C000CC92C003656760095
:1054B00026466600780200204FF47A7290FBF2F0E4
:1054C00008B54843010E8DF80010010C8DF801104D
:1054D000010A8DF802108DF803006A4604214FF48A
:1054E000AE7001F037FA08BD0521B0FBF1F008B548
:1054F000010A8DF800108DF801006A4602214FF470
:10550000AD7001F027FA08BD0521B0FBF1F008B538
:10551000010A8DF800108DF801006A4602214FF44F
:10552000AC7001F017FA08BD08B500218DF8001025
:10553000C10702D030218DF80010810705D59DF8F4
:10554000001041F00C018DF80010400705D59DF8C2
:10555000000040F003008DF800006A4601214FF47E
:10556000A47001F0F7F908BD08B560B1042800D9AE
:105570000420401E8DF800006A46012140F24F10C1
:1055800001F0E8F908BD0120F3E700002DE9FC4136
:10559000054640074FF0FF367CD0B1F5C86F79D88B
:1055A0000846FBF786F83E49FAF7A8FE074601A829
:1055B00000F00AFC9DF80400022806D004280DD053
:1055C00008282ED0102865D134E00E213846FAF78D
:1055D000D3FEFBF78CF884B2324907E00D21384640
:1055E000FAF7CAFEFBF783F82F4984B23846FAF778
:1055F00053FEFBF77CF8210A8DF8001080B28DF87D
:105600000140010A8DF802108DF80300E8076C468E
:1056100020D0224602214FF4EA7001F09BF9C8BB6A
:1056200011E00C213846FAF7A7FEFBF760F884B2C8
:105630001E49DBE70B213846FAF79EFEFBF757F8C9
:1056400084B21B49D2E7A21C02214FF4927001F0F0
:1056500081F9F8B9A8070DD56A4602214FF4EC701C
:1056600001F078F9B0B9A21C02214FF4947001F056
:1056700071F978B9680710D56A4602214FF4EE70C7
:1056800001F068F930B9A21C02214FF4967001F0C4
:1056900061F910B13046BDE8FC810020FBE7000055
:1056A00000004843000040460000C045000040455F
:1056B0000000C0440521B0FBF1F008B5010A8DF8E7
:1056C00000108DF801006A4602214FF4EF7001F0DE
:1056D00041F908BD0521B0FBF1F008B5010A8DF8CC
:1056E00000108DF801006A4602214FF4ED7001F0C0
:1056F00031F908BD13B54FF6FF7301226946024820
:10570000FDF782FB00981CBDEC0100202DE9FE4353
:105710000646264801AB042240680D21007800F0BF
:105720003FFA10B10720BDE8FE839DF804101C204D
:1057300000EAD1029DF80710DFF87490C1F301135D
:105740001A438DF800209DF80520C1F3810300EA7B
:10575000D2021A438DF801209DF8062001F00301C2
:1057600000EAD20008430024124F8DF80200A04640
:105770006D46285D10B146F824900AE046F8248072
:105780000DE000BF56F824003946FAF785FD46F8CB
:105790002400285D401E10F0FF002855F2D1641C43
:1057A000E4B2032CE5D30020BDE700007C0000201C
:1057B0007B14AE3E1D5A843F2DE9FE4F0546012065
:1057C000C14E8DF800004FF000088DF80180306860
:1057D0000C461746817C70686B460222007800F008
:1057E00017FA4FF0FF3A00287AD1C820FCF7B4F935
:1057F0008DF8008030686B460122C17B70680078AC
:1058000000F006FA0028EFD130686B46012241799A
:105810007068007800F0FCF90028E5D130686B462C
:105820000122817C7068007800F0F2F90028DBD159
:1058300030686B460122C17D7068007800F0E8F99D
:105840000028D1D130686B46012201797068007858
:1058500000F0DEF90028C7D14FF00C098DF8009058
:1058600030686B46012201797068007800F0D0F949
:10587000002835D10F20FCF76FF9B06A6B46012282
:10588000407A8DF80000306881787068007800F008
:10589000BFF9002824D1B06A6B460122007A8DF846
:1058A0000000306841787068007800F0B1F9002895
:1058B00073D1B06A807A0FB140F0E0008DF800003B
:1058C00030686B46012281797068007800F0A0F999
:1058D000002862D12FB1B06AC07A40F0E00001E048
:1058E0004AE018208DF8000030686B460122C1792B
:1058F0007068007800F08CF9F0BB17B1C820FCF795
:105900002BF940208DF8000030686B4601220179A8
:105910007068007800F07CF970BB78208DF800008A
:1059200030686B46012241797068007800F070F9A8
:1059300010BB3220FCF710F98DF800803068474624
:105940006B46417970680122007800F061F998B9DE
:1059500031687068B046897A00786B46022200F0A0
:105960001FF948B9BDF80000AF6040BAB0FBF9F0CC
:105970006F60C6B22F6000E00FE0A760676027602D
:10598000002739E0D8F80010D8F804006B46C97A2F
:1059900000780C2200F004F910B15046BDE8FE8FEB
:1059A000BDF80000236840BA00B2BDF80210BDF88F
:1059B00004201844206049BA606809B20844606055
:1059C00052BAA06812B21044A060BDF806002B685D
:1059D00040BA01B2BDF80800BDF80A201944296098
:1059E00040BA696800B20844686052BAA86812B246
:1059F00010447F1CFFB2A860B742C3D3286883223B
:105A0000C117090441EA104100040023FAF78CFB96
:105A100032460023FAF788FB286068688322C117A2
:105A2000090441EA104100040023FAF77DFB3246E5
:105A30000023FAF779FB6860A8688322C11709047C
:105A400041EA104100040023FAF76EFB32460023BE
:105A5000FAF76AFBA86020684FF40065C1170904D3
:105A600041EA104100042A460023FAF75DFB324662
:105A70000023FAF759FB206060682A46C117090421
:105A800041EA104100040023FAF74EFB324600239E
:105A9000FAF74AFB6060A0682A46C117090441EA88
:105AA000104100040023FAF73FFB32460023FAF7C7
:105AB0003BFBA060002802DDA0F5803001E000F58E
:105AC0008030A060002069E77C0000202DE9F84FBD
:105AD00081462E488846002540686B4603220078A0
