:020000040800F2
:10000000F01F00209D010008E1290008F5250008E7
:10001000DF290008C50B0008792D0008000000004A
:1000200000000000000000000000000005010008C2
:10003000050E00080000000049010008F92B000827
:10004000B7010008B7010008B7010008B7010008B0
:10005000B7010008B7010008B7010008B7010008A0
:10006000B7010008B7010008B7010008B701000890
:10007000B7010008B7010008B7010008B701000880
:10008000B7010008B7010008B7010008B701000870
:10009000B7010008B7010008B7010008B701000860
:1000A000B7010008B7010008B7010008B701000850
:1000B000292C0008B7010008B7010008B7010008A3
:1000C000B7010008B7010008B7010008B701000830
:1000D000B7010008B7010008B7010008B701000820
:1000E000B7010008B7010008B7010008DFF810D019
:1000F00000F0CAFC0048004765460008AFF30080E6
:10010000F01F0020224B19680868B0E8F00F80F358
:100110000988BFF36F8F4FF0000080F311884EF015
:100120000D0E70470000000006480068006880F36C
:10013000088862B661B6BFF34F8FBFF36F8F00DFE1
:1001400000BF00BF08ED00E0EFF30980BFF36F8F41
:100150000F4B1A6820E9F00F106008B54FF05000FF
:1001600080F31188BFF34F8FBFF36F8F06F020FB32
:100170004FF0000080F31188BDE808401968086856
:10018000B0E8F00F80F30988BFF36F8F704700BFAE
:10019000A8000020EFF30580704700000648804764
:1001A00006480047FEE7FEE7FEE7FEE7FEE7FEE75C
:1001B000FEE7FEE7FEE7FEE7252C0008ED0000085D
:1001C0002DE9F0410024061B254671F1000605DAF1
:1001D00001240027D0EB070067EB0101161E73F125
:1001E000000605DA0027D2EB0702012567EB0303BF
:1001F00000F0C5FA86460E4617469C46AC4204D02F
:100200000025D0EB050E65EB010624B10020D2EBF2
:10021000000760EB030C704631463A466346BDE882
:10022000F081202A04DB203A21FA02F000217047F5
:1002300021FA02F3D040C2F120029140084319464E
:10024000704740EA01039B0703D009E008C9121F69
:1002500008C0042AFAD203E011F8013B00F8013B80
:10026000521EF9D27047D2B201E000F8012B491EAC
:10027000FBD270470022F6E710B513460A46044643
:100280001946FFF7F0FF204610BD30B504460020A8
:10029000034600E05B1C934203D2E05CCD5C401B54
:1002A000F8D030BDF0B480EA0102D40F4200B2EBC6
:1002B000410F02D20246084611464A0042D0C30D01
:1002C000DDB2C1F3C752AD1A202D35DAC1F31601E4
:1002D00041F4000204B15242C5F1200602FA06F1CF
:1002E0002A411044B3EBD05F23D0C4B1012DA0EB61
:1002F000C35009DCF0BC4FF0004202EAC352DBB24B
:1003000000F5000000F096BA400000F1807000EBAC
:10031000C350A0F1807040EAD170490009E049085B
:1003200041EAC071A0EBC35000F50000400800EBAB
:10033000C350F0BC00F075BA6142012202EB4101EA
:10034000001BF6E7F0BC704781F00041AAE780F09F
:100350000040A7E780EA010210B502F00043400028
:1003600022D04A001FD0010E01EB1261C0F35600EB
:10037000C2F3560240F4000042F40002A0FB022047
:1003800000047F39140400D0401C50EA124001D40C
:100390004000491EC2B20C0604EBD010401C4008BD
:1003A000802A02D003E0002010BD20F001000029C7
:1003B00000DA0020184310BD30B480EA010202F0D8
:1003C000004530F0004221F0004013D090B1C30D41
:1003D000D40DC2F31601C0F31600E41A41F4000173
:1003E00040F400027D34914201D3641C00E04900D6
:1003F000002C02DA30BC002070474FF400000023CC
:10040000914201D3891A034340084FEA4101F7D1D1
:1004100051B1914202D14FF0004105E002D24FF0BC
:10042000010101E06FF0010103EBC450284430BC2E
:1004300000F0F7B9420005D0C0F3C75252429142D2
:1004400001DC0020704700EBC15070472DE9FE4FE2
:10045000804681EA0300C00F0C46009021F0004165
:1004600023F00045B8EB0200A94105D240462146E1
:1004700090461C460B46024623F00040104347D0EE
:10048000270DC7F30A00C3F30A510290401A0190E6
:1004900040286BDAC3F3130040F4801B00989246A7
:1004A00020B10023D2EB030A63EB0B0B01985946F2
:1004B000C0F14002504600F093F906460D46504602
:1004C0005946019A00F09BF910EB080061410024A5
:1004D00087EA115284EAE7731A4340D0009A62B364
:1004E000019A012A4FEA075215DC001B61EB020159
:1004F0004FF0004202EA0752CDE90042001C41F5EC
:10050000801132462B4600F0D2F903B0BDE8F08FDF
:1005100040462146F9E7001B61EB0201001C41F552
:10052000801300185B412018A2F5001747EB030168
:1005300040EAD570B6196D4111E06D084FEA3606F4
:1005400045EAC0754FEA0752001B61EB0201001C2F
:1005500041F5801149084FEA3000001951413246F7
:100560002B4603B0BDE8F04F00F092B9009801228D
:1005700040000023D0EB020263EBE07300982146B9
:100580004FEAE074B8EB000061EB0401E9E783F0A7
:1005900000435BE781F0004158E72DE9FE4F81EA17
:1005A000030404F0004421F0004100944FF0000BDC
:1005B00023F0004350EA01045ED052EA03045BD00A
:1005C000C3F30A54C1F30A552C44A4F2F334019442
:1005D000A0FB0254C1F3130141F48011C3F31303D0
:1005E00043F4801301FB024400FB034E840A970A84
:1005F00044EA815447EA8357A4FB076802958D0AB1
:1006000005FB07854FEA932C04FB0C542705029D3C
:100610004FEA065847EA1637B5EB08056EEB070CAC
:10062000870E920E47EA811742EA8312A7FB020166
:10063000B6EB0B0164EB00042B0D43EA0C335E18A0
:1006400044EB1C50DA465146E7FB0201C5F31304A4
:100650004FEA0B3343EA14534FEA0432019C43EA56
:100660000603A4F10C040294009CCDE900B400F050
:100670001EF903B0BDE8F08F00200146F9E7C10F75
:1006800080EAE0700844CA079623002100F0D2B83F
:1006900096230022114600F0CDB800F0004220F071
:1006A0000040C10DC0F3160040F400007F2901DABC
:1006B00000207047962903DCC1F19601C84001E093
:1006C00096398840002AF4D04042704720F000401C
:1006D000C10DC0F3160040F400007F2901DA0020AC
:1006E0007047962903DCC1F19601C84070479639DE
:1006F0008840704700F0004230F000400AD0C10D41
:1007000001F56071C0F3160042EA0151C2084007CA
:100710001143704700200146704701F0004330B498
:1007200021F0004150EA010206D00A0DA2F56072E4
:10073000C1F31301002A02DC30BC00207047440FD3
:1007400044EAC104C100E01830BC00EBC25000F024
:1007500068B830B50B46014600202022012409E08C
:1007600021FA02F59D4205D303FA02F5491B04FA6A
:1007700002F52844151EA2F10102F1DC30BD2DE97D
:10078000F05F0546002092469B4688460646814615
:1007900040241BE02846414647462246FFF741FDDC
:1007A00053465A46C01A914110D311461846224664
:1007B00000F016F82D1A67EB01084F46224601207B
:1007C000002100F00DF817EB00094E41201EA4F1A6
:1007D0000104DFDC484631462A464346BDE8F09F27
:1007E000202A04DB203A00FA02F1002070479140F1
:1007F000C2F1200320FA03F3194390407047202AE6
:1008000006DBCB17203A41FA02F043EAE07306E038
:1008100041FA02F3D040C2F1200291400843194648
:1008200070470029A8BF7047401C490008BF20F04E
:100830000100704710B4B0FA80FC00FA0CF050EAE6
:10084000010404BF10BC704749B1CCF1200421FA67
:1008500004F411FA0CF118BF012121430843A3EB62
:100860000C01CB1D4FEA00614FEA102042BF00206F
:1008700010BC704700EBC35010440029A4BF10BC4B
:100880007047401C490008BF20F0010010BC7047B1
:1008900010B5141E73F1000408DA401C41F1000188
:1008A00092185B411A4301D120F0010010BD2DE9DF
:1008B000F04D92469B4611B1B1FA81F202E0B0FAD6
:1008C00080F220329046FFF78BFF04460F4640EA45
:1008D0000A0041EA0B0153465A46084313D0114619
:1008E00053EA010019D0C8F140025046FFF799FCC5
:1008F00005460E46504659464246FFF771FF0843EB
:1009000005D0012004E020463946BDE8F08D0020E6
:10091000054346EAE0762C4337430A986305E40A28
:10092000A0EB08000022FD0A44EA47540A3002D531
:1009300000200146E9E7010510196941DDE9084594
:1009400000196941BDE8F04DA2E72DE9F04D81EABB
:10095000030404F0004B21F0004514464FF0000A58
:1009600023F0004150EA050220D054EA01021DD0D4
:10097000C5F30A570246C5F31303C1F31300C1F3CD
:100980000A5640F4801543F48013A7EB0608101BA9
:10099000D64608F2FD3873EB050002D308F10108D2
:1009A00001E092185B41B8F1000F03DA0020014624
:1009B000BDE8F08D00204FF48011064684460EE01D
:1009C000171B73EB050705D3121B63EB05030643E7
:1009D0004CEA010C49084FEA300092185B4150EA9A
:1009E0000107EDD152EA030012D082EA040083EA43
:1009F0000501084305D0101BAB4106D2012200239C
:100A000006E000224FF0004302E06FF001025310B5
:100A10001AEB06004CEB085110EB0A0041EB0B01FE
:100A2000BDE8F04DFFF734BF70B521F0004303433C
:100A30000CD0C1F30A550024D5EB040564EB040384
:100A4000D617AD1AB34102DB0020014670BD201855
:100A500041EB025170BD000030B5041E71F100047D
:100A600004DB4FF00044404264EB0101141E73F1BB
:100A7000000405DB1C464FF00043524263EB0403C5
:100A80008B4208BF824230BD064C074D06E0E0684D
:100A900040F0010394E8070098471034AC42F6D3C5
:100AA000FFF728FB04860008248600082DE9F04D96
:100AB00000231A461B1A8A4103DB00200146BDE8C9
:100AC000F08DC1F30A52C1F3130141F480154FF0C8
:100AD000000BD10702D100186D41521E00270446B9
:100AE00040F2FF11384601EB620A3E46804602465C
:100AF00000204FF48011FFF794FBC2197141BB181D
:100B000046EB0100B4EB030C75EB000C04D3E41AC4
:100B100065EB000517460E46241908F101006D41EA
:100B200080463428E3DDF91946EB0600091BA8418D
:100B300003D24FF0FF32134601E0002213461BEBB5
:100B4000070046EB0A51BDE8F04DFFF7A1BE0000DB
:100B500070B504460068816811F0010F25D08168E6
:100B600021F00101816000F0EBFB05462068806800
:100B700010F0010F19D000BF00F0E2FB401B02286B
:100B80000ED92068806810F0010F09D0A06A40F0EB
:100B90001000A062E06A40F00100E062012070BD38
:100BA0002068806810F0010FE6D1002070BD0000C1
:100BB000034A02EBC00152F83000898801F024BCDE
:100BC0001C000020FEE700000B4C0C4D4FF0FF31E5
:100BD000606806F06DF950B14FF40051284600F0FE
:100BE000A1FB00231A461946606805F03DFF4FF44B
:100BF0007A7004F095FEE9E73C0000200010014007
:100C000028B1012818BF70470120FFF7D1BF00208D
:100C1000FFF7CEBF10B58AB00020089008AB0122C4
:100C20007521682003F092FC9DF8200068280CD004
:100C3000BFF34F8F59480168594A01F4E0611143ED
:100C40000160BFF34F8F00BFFDE703F05BFF78202B
:100C500004F0D0FD782003F0C3FEC82004F088FD26
:100C600002F0B6FF4F4A92F900000028B8BF0420F6
:100C7000C8BF002024D000BF92F903100029B8BFDC
:100C80000421C8BF00212DD040EAC10192F906001D
:100C90000028B8BF0420C8BF002035D041EA80102A
:100CA00003F07EF940F2731002F0EAFDC82003F071
:100CB000D7F8694604A804F0F3F9072869D135E0AC
:100CC00092F901000028B8BF0520C8BF0120D3D188
:100CD00092F90200002808BF0720B8BF0620C8BF4D
:100CE0000220C9E792F904100029B8BF0521C8BF46
:100CF0000121C9D192F90510002908BF0721B8BF09
:100D00000621C8BF0221BFE792F907000028B8BF3B
:100D10000520C8BF0120C1D192F90800002808BFF2
:100D20000720B8BF0620C8BF0220B7E707A803F016
:100D3000C7FE0498FFF7A3FC07990C46FFF70AFBD0
:100D4000FFF7ABFC04900598FFF799FC2146FFF7ED
:100D500001FBFFF7A2FC05900698FFF790FC2146E7
:100D6000FFF7F8FAFFF799FC069004A803F0ACF837
:100D700003A803F083FEBDF80C00009941430091E5
:100D8000019941430191029948430290684602F05B
:100D9000F7FF012004F012FC0AB010BD0CED00E0DA
:100DA0000400FA059C000020154C00BF4FF0FF31F5
:100DB000606806F07DF8F0B101F014FE002000F04C
:100DC00023F82080012000F01FF86080012002F04D
:100DD00037FC012002F064FC012002F091FC0120AC
:100DE00002F0BEFC012002F0EBFC00231A4619467B
:100DF000606805F039FE012004F092FDD6E700009E
:100E00003C0000207047000040B101281CBF0020BA
:100E1000704705480068406A80B270470348006820
:100E2000406A80B270470000E8010020A001002065
:100E300070B483B04FF0000CCDF808C090F82420B7
:100E40006446012A01BF022003B070BC7047012232
:100E500080F824204A681F23072A0DD205686E6B8C
:100E6000521E02EB8202934026EA03030E6806FA42
:100E700002F21A436A631BE005680D2A0CD22E6B3E
:100E8000D21F02EB8202934026EA03030E6806FAA1
:100E900002F21A432A630BE0EE6A0D3A02EB820279
:100EA000934026EA03030E6806FA02F21A43EA6246
:100EB0000A68072503680A2A0CD3DE680A3A02EB9F
:100EC0004202954026EA05058E6806FA02F22A4398
:100ED000DA600AE01E6902EB4202954026EA050547
:100EE0008E6806FA02F22A431A610A68102A18BFAD
:100EF000112A0BD10268A2F18043B3F592330BD0D3
:100F0000816A41F0200181624FF0010C80F8244099
:100F100003B0604670BC7047936813F4000FF5D1BE
:100F2000936843F40003936009681029EED11549D2
:100F3000154A0968B1FBF2F101EB81014900029108
:100F40000091E3D0B1F1004F16D20029D8BF0021A3
:100F500005DD11F0010102D0029A521E0292009AA0
:100F6000491C521C9142D1DA029B891C5B1E5B1EFC
:100F700002939142F8DBC9E70299491E0291FCD124
:100F8000C4E700001800002040420F002DE9F041A6
:100F90004FF0000704003D4604BF0120BDE8F0818A
:100FA000A06A002628B9E66284F82460204600F092
:100FB00085F82046FFF7CCFD0146A06A10F0100F1F
:100FC00008BF002904D0A06A40F01000A0626AE0C7
:100FD000A06A20F4885040F00200A062E2696068D4
:100FE000237B40EA020047EA430240EA0202A0688B
:100FF000B0F5807F1ABF012800204FF4807094F86C
:1010000014C0BCF1010F08D1F3B1A36A43F020036F
:10101000A362E36A43F00103E3622368D3F804C0E8
:101020002CF4694C4CEA0000586020688368DFF8B3
:1010300080C003EA0C0313438360A068B0F5807F8F
:1010400018BF01280FD109E0DFF868C0A3690CEBD5
:10105000433343EA000040F40060DEE7208A4FEAB1
:101060000050A0F580152068C36A23F4700343EA9A
:101070000503C362206880680F4B00EA03009042BA
:1010800007D1E662A06A20F0020040F00100A062F1
:101090000AE0A06A20F0020040F01000A062E06ABE
:1010A00040F00100E06201210846BDE8F081000047
:1010B000FDF7E1FF00E0FFFFFE0E1FFF00B585B06A
:1010C000002100910191029103910068A0F18041FB
:1010D000B1F592311CBF05B000BD0D48816941F4E6
:1010E00000718161816901F400710491816941F0AD
:1010F000040181618069694600F0040004900320C6
:1011000000900190034800F01BF805B000BD0000FE
:10111000001002400008014070B5044600F010F9CC
:101120000546B4F1FF3F02D004480078044400F0C3
:1011300007F9401BA042FAD370BD00000C0000204C
:1011400000230A689C46002A08BF70472DE9F84F23
:10115000704EDFF8BC914FF001080F2706F1040E26
:101160000A6808FA03F42240A2427DD14D68A5F135
:10117000805AAAF5881A4D4577D077DC032D08BF31
:101180004FF0000C1BD00DDC002D6ED0012D08BFE0
:10119000D1F80CC013D0022D04BFD1F80CC00CF153
:1011A000080C0CE0112D04BFD1F80CC00CF1040C9C
:1011B00005D0122D04BFD1F80CC00CF10C0CB2F507
:1011C000807F34BF0546051D4FEA830428BF203CBD
:1011D000D5F800A007FA04FB2AEA0B0A0CFA04F47B
:1011E0004AEA04042C604C6814F0805F64D04A4CD6
:1011F000A56945F00105A561A46904F00104009406
:1012000023F0030404F1804505F58035D5F808A0E6
:101210004FEA83744FEA147407FA04FB2AEA0B0AB4
:10122000A0F1804BBBF5843B18D0A0F1804BBBF5FF
:10123000863B08BF4FF0010B10D0A0F1804BBBF5EF
:10124000883B08BF4FF0020B08D0A0F1804BBBF5E4
:101250008A3B0CBF4FF0030B4FF0040B0BFA04F466
:1012600044EA0A04AC6002E026E03FE02BE04C6870
:1012700014F4801F346814BF1443944334604C68E2
:1012800014F4001FDEF8004014BF14439443CEF85A
:1012900000404C6814F4003F204C256814BF1543EF
:1012A000954325604C6814F4803F1D4C256814BF9D
:1012B0002A4325EA020222600A685B1CDA407FF4B6
:1012C0004FAFBDE8F88FBAF5881F0FD007DCBAF52D
:1012D000803F18BFBAF5801F7FF471AF06E0BAF502
:1012E000001F18BFBAF5041F7FF469AFD1F808C01A
:1012F000BCF1000F08BF4FF0040C3FF460AFBCF12D
:10130000010F4FF0080C0CBF0461446157E7000067
:1013100000001110080401400010024004040140C4
:1013200000040140C26821EA0203114043EA01417E
:1013300001617047002A08BF09040161704700007D
:1013400001488068704700000C0000200248816856
:1013500002781144816070470C000020074810B5E6
:10136000016841F010010160032000F0BBF80F207C
:1013700000F006F800F050F8002010BD00200240F8
:1013800030B50546204887B0C16941F00101C1610F
:10139000C06906A900F001000590684600F020FA37
:1013A0000398B8B100F03CFA400018494FF0804271
:1013B000B0FBF1F0411E16480260416040F2E73296
:1013C0000021C0E903218160816100F08FFC0400ED
:1013D00016D102E000F024FAE7E70D4800F0B4FC73
:1013E00004000DD11C2000F03BF8102D28BF012473
:1013F00006D2002229461C2000F042F8054805606C
:1014000007B0204630BD00000010024040420F00EF
:10141000C0020020100000200F4808B5816941F08B
:1014200001018161816901F001010091C16941F00F
:101430008051C161C069002200F0805000900F21EE
:10144000901E00F01DF80548416821F0E06141F070
:101450000071416008BD0000001002400000014022
:101460000028B8BF704700F01F01012202FA01F105
:101470004009800000F1E020C0F800117047000032
:10148000174B10B41B68C3F30223C3F1070CBCF164
:10149000040F88BF4FF0040C1C1D072C34BF002321
:1014A000DB1E012404FA0CFCACF1010C0CEA010176
:1014B000994004FA03F35B1E1A40114300284FEAD7
:1014C0000111A1BF00F1E02080F8001410BC7047AA
:1014D00000F00F0000F1E02080F8141D10BC7047F0
:1014E0000CED00E0074900F007000A684FF6FF0323
:1014F0001A4042EA002040F0FD7040F08060086031
:10150000704700000CED00E02DE9F8430446007838
:10151000DFF8148110F0010F6AD0D8F81C00002702
:1015200010F0805F0BD1D8F81C0040F08050C8F854
:101530001C00D8F81C00012700F0805000903B4EA2
:10154000306810F4807F14D1306840F480703060CF
:10155000FFF7F6FE0546306810F4807F09D100BF22
:10156000FFF7EEFE401B64282BD8306810F4807F14
:10157000F6D0D8F8200010F440702AD0A18801F4E9
:101580004071814225D0D8F82000012220F440711A
:101590002748026000220260C8F8201011F0010FF5
:1015A00017D0FFF7CDFE0546D8F8200010F0020F47
:1015B00008BF41F288360CD1FFF7C2FE401BB04293
:1015C00002D90320BDE8F883D8F8200010F0020FFC
:1015D000F2D0D8F82000616820F440700843C8F8C1
:1015E00020002FB1D8F81C0020F08050C8F81C0053
:1015F000207810F0020F07D0D8F80400A16820F47A
:1016000040400843C8F80400207810F0100F07D0BD
:10161000D8F80400E16820F480000843C8F804000A
:101620000020BDE8F8830000001002400070004078
:1016300040044242002804BF012070472DE9F047D2
:10164000DFF8788105460E46D8F8000000F0070064
:10165000B0420CD2D8F8000020F007003043C8F8A0
:101660000000D8F8000000F00700B04263D12868FD
:10167000534C10F0020F14D010F0040F03D0606828
:1016800040F4E0606060287810F0080F03D06068D4
:1016900040F4605060606068A96820F0F000084382
:1016A0006060287810F0010F32D0686801281FD0E0
:1016B0002168022821D011F0020F3CD0616821F08E
:1016C000030108436060FFF73BFE074660686968F6
:1016D00000F00C00B0EB810F18BF41F2883917D031
:1016E000FFF72EFEC01B48450BD90320BDE8F0874D
:1016F000216811F4003FE1D11DE011F0007FDDD140
:1017000019E06068696800F00C00B0EB810FE7D168
:10171000D8F8000000F00700B0420FD9D8F8000058
:1017200020F007003043C8F80000D8F8000000F0AF
:101730000700B04202D00120BDE8F087287810F001
:10174000040F05D06068E96820F4E0600843606039
:10175000287810F0080F06D06068296920F46050DE
:1017600040EAC10060606168164801F00C02042A7A
:1017700014D0082A12D11448C1F3834211F4803FD7
:10178000805C04BF1149484308D06168104AC1F326
:101790004041515C0B4A5043B0FBF1F061680D4A87
:1017A000C1F30311515CC8400B4908600B48006845
:1017B000FFF7E6FD0020BDE8F087000000200240B2
:1017C0000010024000127A003278000800093D0043
:1017D000307800084278000818000020100000202F
:1017E0000F2202600C4A536803F0030343605368FE
:1017F00003F0F0038360536803F4E063C36052684E
:101800004FF4E06303EAD20202610448006800F08A
:1018100007000860704700000010024000200240EE
:101820000448054900684968044AC1F30221515C33
:10183000C84070471800002000100240527800088D
:101840000448054900684968044AC1F3C221515C53
:10185000C84070471800002000100240527800086D
:10186000002804BF012070472DE9F84F0446007896
:10187000E84D10F0010F59D0686800F00C00042802
:1018800008D0686800F00C0008280CD1686810F4D3
:10189000803F08D0286810F4003F47D060680028D7
:1018A00000F0B28142E06068B0F5803F04BF286874
:1018B00040F480300AD010B1B0F5A02F11D02868C4
:1018C00020F480302860286820F480202860606838
:1018D000D0B1FFF735FD0646286810F4003F08D068
:1018E00024E0286840F480202860286840F4803094
:1018F000ECE7FFF725FD801B642800F2368128689D
:1019000010F4003FF5D011E0FFF71AFD06462868F5
:1019100010F4003F0AD000BFFFF712FD801B6428BF
:1019200000F22381286810F4003FF5D12078BA4EE8
:1019300010F0020F4FF0010B4FF0000845D068681F
:1019400010F00C0F14D0686800F00C00082804BFD9
:10195000686810F4803F0BD0206918B3C6F800B057
:10196000FFF7EEFC0746286810F0020F09D011E0DF
:10197000286810F0020F1CBF206901280AD000F06F
:1019800043B9FFF7DDFCC01B02287DD8286810F0A2
:10199000020FF6D02868616920F0F80040EAC10023
:1019A000286012E0C6F80080FFF7CAFC07462868E6
:1019B00010F0020F09D000BFFFF7C2FCC01B0228C5
:1019C00062D8286810F0020FF6D1207810F0080FC6
:1019D00035D09248A169F9B1C0F800B0FFF7B0FC6A
:1019E0000746686A10F0020F09D100BFFFF7A8FC94
:1019F000C01B022848D8686A10F0020FF6D0884849
:101A000001684FF4FA50B1FBF0F0009000BF00986D
:101A1000411E0091FAD212E0C0F80080FFF790FC5E
:101A20000746686A10F0020F09D000BFFFF788FC74
:101A3000C01B022828D8686A10F0020FF6D120785F
:101A400010F0040F79D0E8694FF0000A10F0805FC1
:101A500009D1E86940F08050E861E8694FF0010A77
:101A600000F080500090DFF8BC91D9F8000010F42D
:101A7000807F19D1D9F8000040F48070C9F80000C7
:101A8000FFF75EFC074600E06FE0D9F8000010F4B5
:101A9000807F09D1FFF754FCC01B642865D8D9F8B2
:101AA000000010F4807FF5D0E068012804BF286AA8
:101AB00040F0010009D008B1052813D0286A20F0B1
:101AC00001002862286A20F004002862E06841F2E0
:101AD0008837D0B1FFF734FC8146286A10F0020F36
:101AE00008D023E0286A40F004002862286A40F009
:101AF0000100EAE7FFF724FCA0EB0900B84234D864
:101B0000286A10F0020FF5D010E0FFF719FC8146AB
:101B1000286A10F0020F09D0FFF712FCA0EB0900B1
:101B2000B84222D8286A10F0020FF5D1BAF1000F9E
:101B300003D0E86920F08050E861E069F0B369689B
:101B400001F00C01082950D00228C6F860800FD09F
:101B5000FFF7F6FB0446286810F0007F57D000BF5F
:101B6000FFF7EEFB001B02283AD90320BDE8F88FEF
:101B7000FFF7E6FB0746286810F0007F09D000BF9A
:101B8000FFF7DEFBC01B0228EFD8286810F0007FAB
:101B9000F6D1206AB0F5803F05D16868A16820F4CD
:101BA000003008436860D4E908010843696821F4FB
:101BB000741108436860C6F860B000E027E0FFF7E2
:101BC000BFFB0446286810F0007F20D1FFF7B8FB68
:101BD000001B0228C9D8286810F0007FF6D016E054
:101BE000286810F0007FBBD111E0012808BFBDE8D4
:101BF000F88F6868226A00F48031914204D1616AEA
:101C000000F47010884202D00120BDE8F88F002057
:101C1000BDE8F88F001002400000424280044242BA
:101C200018000020007000407047704790F83C207A
:101C3000012A04BF02207047012280F83C20CA68B4
:101C40008B6822F440721A434B6822F480621A4374
:101C50000B6822F400621A430B6922F480521A4383
:101C60004B6922F400521A43C96922F4804211439D
:101C700002685164002180F83C100846704790F8D3
:101C80003C20012A04BF0220704730B4012380F8B1
:101C90003C30022280F83D2002685468D2F808C027
:101CA0000D6824F070042C4354600268A2F1804453
:101CB000B4F5963418BFB2F1804F09D0A2F1804438
:101CC000B4F580641CBFA2F18044B4F5006405D172
:101CD00049682CF0800C41EA0C01916080F83D309D
:101CE000002180F83C1030BC08467047002804BF33
:101CF0000120704710B5044690F83D0028B9002037
:101D000084F83C00204600F01EF8022084F83D00D4
:101D1000211D206800F08EFF012084F8460084F821
:101D20003E0084F83F0084F8400084F8410084F8C5
:101D3000420084F8430084F8440084F8450084F8A5
:101D40003D00002010BD704790F83D1001291CBFD8
:101D500001207047022180F83D100168CA6842F0F6
:101D60000102CA600068A0F18041B1F5963118BF48
:101D7000B0F1804F09D0A0F18041B1F580611CBF66
:101D8000A0F18041B1F5006104D1816801F0070143
:101D9000062903D0016841F001010160002070476D
:101DA000002804BF0120704770B5044690F83D003C
:101DB0000D4628B9002084F83C00204600F052F877
:101DC000022084F83D002068816821F0070121F499
:101DD00080418160211D206800F02CFF206882680E
:101DE0008369016AD5F800C023F00303AE694CEAA9
:101DF000020223F4407343EA0623D5F808C0EE69D3
:101E00004CEA030323F0FC0323F47C43D5F80CC015
:101E100043EA06234CEA0303D5F810C02E6A4FEAC2
:101E20000C1C4CEA063C4CEA0303D5F804C06D696F
:101E300021F0220141EA05114CEA0101826020688B
:101E4000836120680162012084F8460084F83E0026
:101E500084F83F0084F8420084F8430084F83D0091
:101E6000002070BD00B585B0002100910191029164
:101E7000039102681C48C021A2F18043B3F580633E
:101E80001ED0A2F18043B3F500631CBF05B000BDB6
:101E9000C26942F00402C261C26902F00402049203
:101EA000826942F0080282618069009100F00800B6
:101EB00004900E48694600BFFFF742F905B000BD27
:101EC000C26942F00202C261C26902F002020492D7
:101ED000826942F0040282618069009100F004008E
:101EE000049069460248E7E700100240000C0140F8
:101EF0000008014030B490F83E3090F83F5090F820
:101F0000424090F843C0022231B1042915D0012B80
:101F100008BF012D24D028E0012B08BF012C24D1BB
:101F200080F83E2080F8422001680A6A22F001020F
:101F30000A620A6A42F0010234E0012D08BFBCF1D6
:101F4000010F12D180F83F2080F8432001680A6A0F
:101F500022F010020A620A6A42F010020A6222E0CB
:101F6000012C08BFBCF1010F03D030BC4FF00100C1
:101F7000704780F83E2080F83F2080F8422080F8AB
:101F8000432001680A6A22F001020A620A6A42F0EA
:101F900001020A6201680A6A22F010020A620A6AF1
:101FA00042F010020A620068016841F0010101601C
:101FB00030BC4FF000007047704770B504460068B1
:101FC00001694FF0000511F0020F1CBFC16811F04C
:101FD000020F13D06FF00201016101202077206809
:101FE000806910F0030F204602D0FFF7E5FF04E000
:101FF00000F0C2F8204600F005FA25772068016954
:1020000011F0040F1CBFC16811F0040F13D06FF062
:1020100004010161022020772068806910F4407F6C
:10202000204602D0FFF7C8FF04E000F0A5F82046E4
:1020300000F0E8F925772068016911F0080F1CBF4E
:10204000C16811F0080F13D06FF00801016104207E
:1020500020772068C06910F0030F204602D0FFF7F8
:10206000ABFF04E000F088F8204600F0CBF92577BC
:102070002068016911F0100F1CBFC16811F0100F2A
:1020800013D06FF010010161082020772068C0692B
:1020900010F4407F204602D0FFF78EFF04E000F0EE
:1020A0006BF8204600F0AEF925772068016911F041
:1020B000010F1CBFC16811F0010F05D06FF00101C5
:1020C0000161204600F0F8F92068016911F0800FE5
:1020D0001CBFC16811F0800F05D06FF08001016155
:1020E0002046FFF7A1FD2068016911F0400F1CBFD9
:1020F000C16811F0400F05D06FF04001016120462A
:1021000000F0E1F92068016911F0200F1ABFC168E1
:1021100011F0200F70BD6FF0200101612046BDE875
:102120007040FFF782BD000000B585B0002100912E
:102130000191029103910068A0F18041B1F59631BF
:102140001CBF05B000BD0A48816941F004018161EE
:102150008069694600F0040004904FF470600090BC
:102160000220019003900348FEF7EAFF05B000BD8E
:10217000001002400008014070470000F0B490F8E1
:102180003C300024012B02BF0220F0BC7047012329
:1021900080F83C30784B6AB1042A42D0082A7ED0BD
:1021A0000C2A18BF012479D0002180F83C10204669
:1021B000F0BC70470268D2F820C0156A25F001050E
:1021C0001562556896690F6826F073063E438F685E
:1021D0002CF0020C47EA0C0C9A420DD12CF00803AB
:1021E000D1F80CC04CEA030323F0040C25F440732F
:1021F0004D692B438D691D43556096614B68536350
:10220000C2F820C00268936943F008039361026832
:10221000936923F004039361026893690969194380
:1022200039E00268D2F820C0156A25F01005156261
:10223000556896690F6826F4E64646EA07268F68D1
:102240002CF0200C4CEA071C9A420FD12CF0800392
:10225000D1F80CC043EA0C1323F0400C25F4406382
:102260004D6943EA85038D6943EA850555609661AA
:102270004B689363C2F820C00268936943F400631B
:1022800093610268936923F48063936102689369A0
:10229000096943EA0121916186E700E038E00268BC
:1022A000D2F820C0156A25F4807515625568D66984
:1022B0000F6826F073063E438F682CF4007C4CEACE
:1022C000072C9A420FD12CF40063D1F80CC043EADA
:1022D0000C2323F4806C25F440534D6943EA051325
:1022E0008D6943EA05155560D6614B68D363C2F822
:1022F00020C00268D36943F00803D3610268D36940
:1023000023F00403D3610268D3690969194331E0FA
:102310000268166AD2F820C02CF4805CC2F820C093
:10232000D2F804C0D5690F6825F4E64545EA0725CB
:102330008F6826F4005646EA07369A4205D12CF4F7
:102340008043D1F814C043EA8C1CC2F804C0D561A4
:102350004B68136416620268D36943F40063D36167
:102360000268D36923F48063D3610268D369096981
:1023700043EA0121D16117E7002C0140002804BF86
:102380000120704710B5044690F83D0028B90020A0
:1023900084F83C00204600F01FF8022084F83D003D
:1023A000211D206800F046FC012084F8460084F8D6
:1023B0003E0084F83F0084F8400084F8410084F82F
:1023C000420084F8430084F8440084F8450084F80F
:1023D0003D00002010BD0000006881B0A0F18041E8
:1023E000B1F596311CBF01B070470548816941F4D1
:1023F00000618161806900F40060009001B0704765
:102400000010024070470000022361B1042935D05A
:1024100008293BD090F84120012A08BF80F84130BC
:1024200008D00120704790F83E20012A08BF80F8AC
:102430003E30F6D101F01F03026801219940136A72
:102440008B431362136A194311621A4A016891425D
:1024500003D14B6C43F400434B640068904218BFB7
:10246000B0F1804F1AD0A0F18041B1F580611CBF5E
:10247000A0F18041B1F5006110D014E090F83F2048
:10248000012A08BF80F83F30CBD1D3E790F8402035
:10249000012A08BF80F84030C3D1CBE7816801F042
:1024A0000701062903D0016841F001010160002005
:1024B00070470000002C01400068B0F1804F18BF49
:1024C0007047FEF743BF7047002804BF01207047E4
:1024D00070B5044690F84100002520B984F84050BA
:1024E000204600F023F8242084F841002068C168C9
:1024F00021F40051C160204600F0D8FB206801693A
:1025000021F4904101612068416921F02A01416173
:102510002068C16841F40051C1606564202084F8DE
:10252000410084F842006563002070BD30B585B07D
:102530000024009401940294039403682A48022121
:102540000322A3F1804CBCF5884C2AD0A3F1804C27
:10255000BCF5904C1CBF05B030BDC36943F480236B
:10256000C361C36903F480230493836943F00803C0
:10257000836180691D4D00F0080004904FF4806075
:10258000CDE90001039269462846FEF7D9FDE8141B
:10259000CDE90004694628460294FEF7D1FD05B056
:1025A00030BDC36943F40033C361C36903F400332E
:1025B0000493836943F00403836180690C4D00F048
:1025C000040004900420CDE90001039269462846E6
:1025D000FEF7B6FD0820CDE90004694628460294BE
:1025E000FEF7AEFD05B030BD00100240000C01400A
:1025F00000080140FEE700002DE9F047DFF8B09049
:1026000082460024D9F8040020F07040C9F8040084
:10261000D9F8040040F00040C9F80400254E2546D2
:1026200027464FF0010800BFC6F8B871022001F03C
:10263000F7F8C6F8B8816006040ED6F83C01002809
:102640001CBF601CC4B2022001F0EAF8681CC5B2CD
:10265000082DE9D3BAF1000FC6F8B871D9F8040013
:1026600020F07040C9F80400D9F8040040F0405050
:10267000C9F804000CD0C6F8BC71012001F0D0F8F4
:10268000C6F8B881012001F0CBF8C6F8B8710BE0AC
:10269000C6F8BC81012001F0C3F8C6F8B88101205A
:1026A00001F0BEF8C6F8B8712046BDE8F08700001A
:1026B00000100140000022422DE9F0410646144876
:1026C000416821F070414160416841F040514160F2
:1026D000104C4FF00008C4F8B88145460127F009B6
:1026E000C4F8BC017006060E012001F099F8C4F888
:1026F000B871012001F094F8C4F8B881012001F00C
:102700008FF8681CC5B2082DE9D3BDE8F081000040
:10271000001001400000224270B51148416821F0CC
:1027200070414160416841F0405141600D4C0120D1
:10273000C4F8BC01D4F83C1149B1C4F8B80101F0A7
:102740006FF80025C4F8BC51D4F83C0108B1002052
:1027500070BD012001F064F8C4F8B851012070BDCB
:1027600000100140000022420D4810B5416821F0E0
:1027700070414160416841F040514160094C002086
:10278000C4F8B801C4F8BC01012004F5DC7401F000
:1027900047F8012020606060BDE8104001F040B8BB
:1027A00000100140000022422DE9F041214E00249A
:1027B000706820F070407060706840F00040706099
:1027C0001D4D0127C5F8BC71384601F029F8C5F840
:1027D000B871012001F024F8D5F83C01A04618B3E7
:1027E000601CC4B2322C18D9706820F07040706040
:1027F000706840F040507060C5F8B881C5F8BC8181
:10280000012001F00DF8C5F8B871C5F8BC710120C0
:1028100001F006F80020BDE8F081012001F000F889
:10282000D5F83C010028DBD1C5F8B8810120BDE80E
:10283000F081000000100140000022422DE9F84321
:10284000984691460C460546FFF766FF2846FFF777
:1028500033FF0127FFF7A8FF2046FFF72DFFFFF703
:10286000A3FFFFF759FF681CC0B2FFF725FFFFF772
:102870009BFF0020FFF7C0FE0646FFF775FF012013
:1028800000FA09F0B8F1000F14BF304326EA000047
:102890008DF80000A946A04601266D460024FFF7EA
:1028A0003BFF4846FFF708FFFFF77EFF4046FFF774
:1028B00003FFFFF779FF285DFFF7FEFEFFF774FFC8
:1028C000601CC4B2B442F6D3FFF74EFF3846BDE8F1
:1028D000F8832DE9F84F994616460C468046DDF8F8
:1028E00028A0FFF719FF4046FFF7E6FE0127FFF794
:1028F0005BFF2046FFF7E0FEFFF756FFFFF70CFFF8
:1029000008F10100C0B2FFF7D7FEFFF74DFF00202E
:10291000FFF772FE0546FFF727FF711CFF20C6F187
:10292000080200FA01F14A44521ED0400843C9F19E
:1029300008010AFA01F1C6F10702C9B22840D140E4
:102940000843A1468DF8000001266D460024FFF7DC
:10295000E3FE4046FFF7B0FEFFF726FF4846FFF7CD
:10296000ABFEFFF721FF285DFFF7A6FEFFF71CFF78
:10297000601CC4B2B442F6D3FFF7F6FE3846BDE899
:10298000F88F08B502200246009003236B21D02067
:10299000FFF79FFF03200090022304221B21D02079
:1029A000FFF797FF00200090022304221C21D02073
:1029B000FFF78FFF002306226B21D020FFF73EFF99
:1029C000002305226A21D020FFF738FF01B0002341
:1029D00001223721D0205DF804EBFFF72FBFFEE77F
:1029E000FEE700002DE9F04F89B06A4C07AD6A4957
:1029F00006AB02AA881FCDE9004501F0F3F80028D4
:102A0000F5D1208810F4807F04BF09B0BDE8F08FB5
:102A10000298FDF734FE6FF01D01FDF70BFD8046B7
:102A200060600398FDF72BFE6FF01D01FDF702FDBE
:102A30000746A0600498FDF722FE6FF01D01FDF728
:102A4000F9FC0546E0600598FDF719FE6FF01D01E1
:102A5000FDF7F0FC0646206101214046FDF7EAFC47
:102A60002946FDF777FC05464FF040413846FDF713
:102A700071FC3146FDF76EFC2946FDF713FCFDF7AE
:102A800039FE00F0C7FA454E4FF066323346FDF787
:102A900084FDFDF742FE6061E06801210546FDF717
:102AA000C9FC81462946FDF755FC0546A06871071B
:102AB0008046FDF74FFC4146FDF74CFC2946FDF7EB
:102AC00043FC4FF07E51FDF7EDFBFDF713FE07468B
:102AD0000D4601216068FDF7ADFC4146FDF73AFC6B
:102AE000804648462169FDF735FC4146FDF7DAFB93
:102AF000FDF700FE3A462B4600F0D4FC4FF066325C
:102B00003346FDF74AFDFDF708FEA06121690091FB
:102B10000846FDF71FFCE16883468A465046FDF7EC
:102B200019FCA168074689464846FDF713FC616811
:102B3000054688464046FDF70DFC2946FDF7B2FBE9
:102B40003946FDF701FC5946FDF7FEFBFDF7D2FDC6
:102B500005460F4640460099FDF7FCFB804651466E
:102B60004846FDF7F7FB4146FDF79CFB0121FDF7C9
:102B700061FCFDF7BFFD2A463B4600F093FC4FF099
:102B800066323346FDF709FDFDF7C7FDE06109B088
:102B9000BDE8F08F700000209600002066A64C4033
:102BA000012002F0BDFEFBE710B50F48FFF7E6FB82
:102BB0003C210E48FFF79EF93C210D48FFF79AF99A
:102BC0000020FEF71DF80220FDF7F2FF0320FDF7BD
:102BD000EFFFFFF7D6FEFEF71DF8012003F08AFE97
:102BE0000449486010BD000058010020A0010020E9
:102BF000E80100203C00002010B5502080F311882F
:102C0000BFF34F8FBFF36F8F04F03CFB18B1044943
:102C10004FF080500860002080F3118810BD000044
:102C200004ED00E0704700000148FFF7C6B900005E
:102C3000C002002030B40268194BDFF868C01A4C9B
:102C4000984218BFB0F1804F03D0604518BFA04232
:102C500004D14D6822F0700245EA0202984218BF82
:102C6000B0F1804F03D0604518BFA04205D1D1F824
:102C70000CC022F440724CEA0202D1F814C022F0D7
:102C8000800242EA0C0202608A68C2620A688262BA
:102C9000984204BF096901630121416130BC70475A
:102CA000002C0140000400400008004070B50446BC
:102CB00000680169E26821F4405111430161216912
:102CC000A0680843616901432068C26822F4037266
:102CD00022F4A0521143C16020684169A26921F425
:102CE0004071114341612068A0F18041B1F59C31F0
:102CF0003CD0FEF795FD00BF00EBC00101EB0012D8
:102D000060681C498000B2FBF0F3A1FB0353B2FBE7
:102D1000F0FC5B096FF018056B430CEB830C32235E
:102D200003EB0C1CA1FB0C5C4FEA5C1C0CF0F005E7
:102D3000B2FBF0FCA1FB0C6C4FEA5C1C05EB0C1C1D
:102D4000B2FBF0F5B2FBF0F0A1FB002040096FF000
:102D50001802504305EB800003EB0010A1FB0010AC
:102D60002168C0F343106044886070BDFEF768FDC1
:102D7000C2E700001F85EB51FEE700000FB4054BD2
:102D800010B503A9044A029800F09AF810BC5DF847
:102D900014FB00000142000820010020490050EA15
:102DA000C12018BF04204A0D18BF40F0010040F2B6
:102DB000FF72B2EB515F08BF40F00200012808BF6C
:102DC000052070472DE9F0414F1E00EBC701044676
:102DD000D1E9000115461E4637F006020DD02A46FD
:102DE0003346FDF7DAFB7F1E04EBC703D3E900236C
:102DF000FDF72CFB37F00602F1D1022F25D0042F6E
:102E000013D0062F18BFBDE8F0812A463346FDF7E0
:102E1000C4FBD4E90A23FDF719FB2A463346FDF724
:102E2000BCFBD4E90823FDF711FB2A463346FDF726
:102E3000B4FBD4E90623FDF709FB2A463346FDF728
:102E4000ACFBD4E90423FDF701FB2A463346FDF72A
:102E5000A4FBD4E90223FDF7F9FA2A463346FDF72D
:102E60009CFBD4E90023BDE8F041FDF7EFBA012255
:102E7000FDF7DABDFDF7EABA002213461046114607
:102E8000FDF763BD024A00201107FDF7CDBD00002C
:102E900001FDFFFF02E008C8121F08C1002AFAD195
:102EA00070477047002001E001C1121F002AFBD1CA
:102EB00070470000014908607047000024010020AD
:102EC0002DE9FF4F89B09B460446002506E02528E2
:102ED0000BD05A460B999047641C6D1C2078002833
:102EE000F5D10DB02846BDE8F08F0027B846012285
:102EF000474900E0074314F8013F203B02FA03F082
:102F00000842F7D120782E2819D114F8010F47F084
:102F100004072A280ED06FF02F022078A0F130018C
:102F200009290CD808EB880102EB410100EB0108EC
:102F3000641CF2E70A98641C50F8048B0A9020780D
:102F40000028CED0642808D0692806D075281ED065
:102F50005A460B9990476D1C58E00A994FF00A09A0
:102F600001C90A91002802DA40422D2102E0390508
:102F700004D52B218DF82010012103E0F90704D09E
:102F80002021F7E78A4608AE0DE00021FAE70A990A
:102F90004FF00A0901C90A91F7E74946FDF7D9FB45
:102FA000303106F8011D0028F7D1ADEB060000F125
:102FB0002009780701D44FF00108C84502DDA8EBCD
:102FC000090000E000208046002706E008A85A46D5
:102FD000C05D0B9990476D1C7F1C5745F6DB04E0E4
:102FE00030205A460B9990476D1CB8F10001A8F1AA
:102FF0000108F5DC05E016F8010B5A460B999047DD
:103000006D1CB9F10001A9F10109F4DC641C65E74C
:10301000092801002DE9F04D8D4F21F0004A86B0BE
:1030200005460C46BA452ADBAAEB070028430AD01E
:103030008848824501DC1AD1CDB106B02846BDE8EA
:10304000F04DFFF714BF844A844B2846FDF7A5FADC
:1030500007460E46824A834B28462146FDF79DFAD5
:1030600006B03A463346BDE8F04DFDF7EFB9012012
:10307000FFF720FF06B0BDE8F04DFFF7FDBE7A4830
:10308000824542DABAF1795F0BDA2846FFF786FE0D
:10309000042808BFFFF7F6FE284606B02146BDE823
:1030A000F08D2A460B461046FDF777FA8346024616
:1030B0006E480E460B4606217844FFF783FE5A46BB
:1030C0003346FDF76AFA804669488A465A463346CF
:1030D00004217844FFF776FE5A463346FDF75DFA41
:1030E00000223B46FDF7B2F902460B4640465146E8
:1030F000FDF72BFC2A462346FDF74FFA06B02A4679
:103100002346BDE8F04DFDF7A1B9284624F0004163
:1031100000223D463B46FDF73DFA4FF0FF32FDF7FA
:1031200083FC0646024653480F460B460621784468
:10313000FFF748FE32463B46FDF72FFACDE9000186
:103140004D4832463B4604217844FFF73BFE324669
:103150003B46FDF722FA00222B46FDF777F983461E
:1031600002913046394603F0A7F8804643480D46A1
:10317000504517DCDDE900015A46029BFDF7E5FBEF
:1031800042462B46FDF709FA42462B46FDF75EF90B
:103190000122FDF749FC304A304BFDF7F8F9304A7F
:1031A000304B4CE04FF0000A52460B464046FDF7CC
:1031B0004DF9CDE9031052462B4610461946FDF74E
:1031C000ECF932463B46FDF7E5F9DDE90332FDF760
:1031D000BCFB06460F46DDE900015A46029BFDF79F
:1031E000B4FB83460091012230463946FDF71CFCB2
:1031F000194A1A4BFDF7CEF906460F460122404602
:103200002946FDF711FC5A46009BFDF7C6F93246E8
:103210003B46FDF7BCF906460F46012250462946BB
:10322000FDF702FC0E4DDFF858802A464346FDF7B5
:10323000B1F932463B46FDF7ADF92A464346FDF764
:10324000A9F9002CD8BF81F0004106B0BDE8F08D8F
:103250000000F03F0000F07F075C143326A6913C8D
:10326000182D4454FB21F93F0000E03FEC530000CF
:1032700002540000765300008C5300003333EF3FBC
:10328000FB21E93F2DE9F84F04460D4621F00040AF
:1032900000917349814211DC7249884201DC06D1F8
:1032A0002CB120462946BDE8F84FFFF7E0BD6E4837
:1032B000002DCCBF6D496E49BDE8F88F6D49814244
:1032C00011DD6D498142D8BF4FF0FF366DDD2046DC
:1032D0002946FFF763FD042808BFFFF7D3FD20460A
:1032E0002946BDE8F88F6549654F25F000458142C4
:1032F00033DD6449814219DD002632464FF08043B8
:1033000020462946FDF7A2F880468A46012220463B
:103310002946FDF789FB00223B46FDF738F9424676
:103320005346FDF712FB04460D463EE001260022FF
:10333000BA463B4620462946FDF788F880460F46A8
:103340000022534620462946FDF721F942463B46D6
:10335000FDF7FBFA04460D4627E04B4981421BDD91
:10336000DFF828A102260022534620462946FDF711
:1033700014F900223B46FDF769F880460F4600220B
:10338000534620462946FDF702F942463B46FDF7E3
:10339000DCFA04460D4608E0032622462B460020B0
:1033A0003B49FDF7D2FA04460D4622462B4610460D
:1033B0001946FDF7F2F88B46824602460B46FDF7AA
:1033C000ECF807460246334888460B460621784407
:1033D000FFF7F8FC52465B46FDF7DFF882462E48C1
:1033E0008B463A46434605217844FFF7EBFC3A46C4
:1033F0004346FDF7D2F802460B46002E504659468A
:103400000CDAFDF723F822462B46FDF7C6F801B08B
:1034100022462B46BDE8F04FFDF7BCB8FDF716F885
:1034200022462B46FDF7B9F81C4A7A4402EBC60344
:10343000D3E90023FDF7ABF822462B46FDF7A7F8AA
:10344000174A7A4402EBC603D3E90023FDF7A2F83A
:10345000009A002AB8BF81F00041BDE8F88F000053
:10346000000010440000F07F182D4454FB21F93F68
:10347000FB21F9BF0000DC3F0000203E0000F33FCD
:103480000000F03F0000E63F008003400000F83FEE
:103490000000F0BF8E5100004C510000EA500000C7
:1034A000B25000002DE9F04D9446CCF1000423F019
:1034B00000464CEA0404594F46EAD4749A468846BA
:1034C00021F00042BC4206D8454240EA050442EAE7
:1034D000D474BC4204D9BDE8F04D6246FFF7CABCC3
:1034E000AAF14055A5F17F6555EA0C040BD00224E2
:1034F00004EAAA744A4DDFF82CE144EAD87452EA8F
:10350000000B04D00CE0BDE8F04DFFF7BBBE002C73
:1035100014BF012CBDE8F08D022C30D0032C32D02A
:1035200056EA0C0B0AD0BE4220D1BA4209D126F08D
:10353000804622F080423346114617E000291ADB0C
:1035400025E0DFF8E4B0FB44002C04BFDBE9000118
:10355000BDE8F08D012C02BFDBE9000181F00041E4
:10356000BDE8F08D022C0AD0032C0CD0BA4212D147
:10357000B8F1000F0BDA2A482C49BDE8F08D284637
:103580002B49BDE8F08D28467146BDE8F08D2448F2
:103590002849BDE8F08D921B12153C2AC4BF204F6C
:1035A000244E10DCBAF1000FBEBF12F13C0F002711
:1035B0003E4608DB6246FDF7C8F921F00041FFF7FF
:1035C00061FE07460E4694B1012C08BF86F0004606
:1035D0000DD0194A194B022C3846314615D0FCF74C
:1035E000D6FF2A46BDE8F04D114BFCF7D0BF0022B4
:1035F000134638463146FDF72FFA04BF0220FFF785
:1036000059FC38463146BDE8F08DFCF7C0FF2A462C
:10361000BDE8F04D064BFCF7BDBF00000000F07F99
:10362000182D4454FB2109C046500000FB21F9BF6E
:10363000FB210940FB21F93F075C143326A6A13C7E
:1036400001B40098002819BF4FF08040009901B0E4
:10365000704700BFB1F5617F8CBF4FF4617C8C4631
:10366000426ACCF1000101EBC10112EBC10144BF80
:1036700001F5803303F5CA5305D4436A934207DA50
:103680008B42FADA04E0416A9142FCDD9942FADCAD
:103690000099B1EB0C010091DCD101B07047000042
:1036A00001B40098002819BF4FF08040009901B084
:1036B000704700BFB1F5617F8CBF4FF4617C8C46D1
:1036C000426ACCF1000101EBC10112EBC10144BF20
:1036D00001F5803303F5CA5305D4436A934207DAF0
:1036E0008B42FADA04E0416A9142FCDD9942FADC4D
:1036F0000099B1EB0C010091DCD101B070470000E2
:1037000001B40098002819BF4FF08040009901B023
:10371000704700BFB1F5617F8CBF4FF4617C8C4670
:10372000426ACCF1000101EBC10112EBC10144BFBF
:1037300001F5803303F5CA5305D4436A934207DA8F
:103740008B42FADA04E0416A9142FCDD9942FADCEC
:103750000099B1EB0C010091DCD101B07047000081
:1037600001B40098002819BF4FF08040009901B0C3
:10377000704700BFB1F5617F8CBF4FF4617C8C4610
:10378000426ACCF1000101EBC10112EBC10144BF5F
:1037900001F5803303F5CA5305D4436A934207DA2F
:1037A0008B42FADA04E0416A9142FCDD9942FADC8C
:1037B0000099B1EB0C010091DCD101B07047000021
:1037C00001B40098002819BF4FF08040009901B063
:1037D000704700BFB1F5617F8CBF4FF4617C8C46B0
:1037E000426ACCF1000101EBC10112EBC10144BFFF
:1037F00001F5803303F5CA5305D4436A934207DACF
:103800008B42FADA04E0416A9142FCDD9942FADC2B
:103810000099B1EB0C010091DCD101B070470000C0
:1038200001B40098002819BF4FF08040009901B002
:10383000704700BFB1F5617F8CBF4FF4617C8C464F
:10384000426ACCF1000101EBC10112EBC10144BF9E
:1038500001F5803303F5CA5305D4436A934207DA6E
:103860008B42FADA04E0416A9142FCDD9942FADCCB
:103870000099B1EB0C010091DCD101B07047000060
:103880002DE9F04F87B0044602278DF80070CA205A
:103890008DF80100E3208DF8020009208DF8030067
:1038A0006A460421682002F00BF8A3208DF800007E
:1038B00014F0400F09D0C0218DF80110C8218DF8F7
:1038C0000210C2218DF8031005E08DF801008DF87B
:1038D00002008DF8030014F4C07F4FF0C4084FF0CD
:1038E000C60907D08DF80480CC218DF805108DF81D
:1038F000069005E08DF804008DF805008DF80600AF
:103900008DF808008DF807008DF809006A460A2135
:1039100040F6A72001F0D4FF14F0030F4FF0200A67
:103920004FF0D80514BF8DF800A08DF800506A46FE
:10393000012140F6B62001F0C3FF14F0200F0DD096
:10394000884AD2E9000192680390CDE9041203AAE3
:1039500009214FF4976001F0B3FF0CE0824AD2E9ED
:10396000000192680390CDE9041203AA09214FF4E3
:10397000976001F0A5FF14F4C07F4FF08B001ED0BC
:1039800014F4807F09D0B2218DF800108DF8010069
:10399000B6208DF802009B2009E0B0208DF80000D1
:1039A00080208DF80100B4208DF8020090208DF861
:1039B00003006A46042140F6A22001F081FF14F0C2
:1039C000010F4FF0300B4FF0000660D0F8208DF85B
:1039D00000006A4601214FF40B6001F071FFFA21EB
:1039E000072000F063FB3C203F208DF80C0003AA69
:1039F00001214FF4A47001F063FF8DF80C6003AA5D
:103A0000012140F24F1001F05BFF8DF80C60142093
:103A10008DF80D0003AA02214FF4EF7001F050FF62
:103A20008DF80C6064208DF80D0003AA02214FF47C
:103A3000ED7001F045FF4D484FF47A7190FBF1F0C5
:103A4000C8214843010E8DF80C10010C8DF80D10A3
:103A5000010A8DF80E108DF80F0003AA04214FF40F
:103A6000AE7001F02DFF8DF80C6008208DF80D0070
:103A700003AA02214FF4AD7001F022FF8DF80C6013
:103A80008DF80D7003AA02214FF4AC7005E08DF89B
:103A900000506A4601214FF40B6001F011FF14F051
:103AA000020F1ABFD9208DF800008DF800506A4629
:103AB000012140F23D7001F003FF14F0040F04BF38
:103AC0004FF08B30039009D0C0208DF80C00C2203D
:103AD0008DF80D008DF80E808DF80F9003AA04214B
:103AE00040F6982001F0ECFE01F028FA14F0100FD7
:103AF00004BF4FF0A330039009D08DF80CA028200C
:103B00008DF80D008DF80EB038208DF80F0003AA47
:103B1000042140F69E2001F0D3FE01F00FFA144D6F
:103B200044F00800688101F009FAAE7314F0400F08
:103B30001CBF0620A87314F4C07F02D0A87B801D90
:103B4000A87314F0140F02D0A87B1030A87314F0DF
:103B5000030F02D0A87B001DA87307B00020BDE8AA
:103B6000F08F0000B83B0008C43B000809E3CA021C
:103B70000803002000B583B070B10FA2516810682F
:103B800092680090CDE901126A4609214FF49760CE
:103B900001F096FE03B000BD0AA2D2E900109268BF
:103BA0000091CDE901026A4609214FF4976001F0C6
:103BB00087FE03B000BD0000B8AAB38DB4980D35E0
:103BC0005D000000B8AAAAAAB088C3C5C70000005B
:103BD000C8234FF48062024940F6F63001F05CB829
:103BE000AC7800082DE9F04F89B01746DDE9125294
:103BF0000024624E884681462C809A46A346B07BBC
:103C0000694601F04BF900281EBF4FF0FF3009B0A4
:103C1000BDE8F08F718911F0140F5DD0BDF8000080
:103C20009DF8022040BA4FEA004040EA02209DF889
:103C3000032040EA020CC7F800C0BDF804009DF85C
:103C4000062040BA4FEA004040EA02209DF80720D3
:103C50004FEA2C4C40EA02027A60BDF808009DF859
:103C60000A3040BA4FEA004040EA03209DF80B308A
:103C70004FEA224240EA0300B860BDF80C309DF8DC
:103C80000E405BBA4FEA034343EA04239DF80F401A
:103C90004FEA204043EA0403FB604FEA23430CFB56
:103CA0000CFC00FB00F002FB02C203FB030010440B
:103CB000A0F170604FF01004B0F1007F08D901F05E
:103CC0003DF9A5F800B009B04FF0FF30BDE8F08F26
:103CD000288840F48070288011F0400F684611D089
:103CE0000219A41D13885BBAA8F8003053885BBA88
:103CF000A8F80230928852BAA8F804202A8842F024
:103D000008022A8011F4C07F11D00219A41D138863
:103D10005BBAA9F8003053885BBAA9F802309288E0
:103D200052BAA9F804202A8842F070022A8011F0C1
:103D3000030F1CD00444E078617800F0C00500F067
:103D40003F0011F0010F08D0C30800F007003268EF
:103D5000411C002A1CBF18469047607810F0080FDD
:103D60001CBF7168002902D04FEA95108847504661
:103D700001F0D4FD09B00020BDE8F08F0803002059
:103D800070B584B0064603A800F078FEBDF80C00BC
:103D9000410CC2033148048904F0030014F0040FFD
:103DA00056F8205018BF6D42C4F3C10014F0200F24
:103DB00056F8203018BF5B42C4F3811014F4807FA2
:103DC00056F820C018BFCCF1000CE817A5FB02463E
:103DD00000FB026005FB0100A3FB0256A40F44EAAE
:103DE0008000DC1704FB026403FB0143AC0FACFB57
:103DF000025644EA83034FEAEC7404FB02620CFBB4
:103E00000121AA0F42EA8101020E8DF80020020C66
:103E10008DF80120020A8DF802208DF80300180E9B
:103E20008DF80400180C8DF80500180A8DF80600AE
:103E3000080E8DF80800080C8DF80900080A8DF8A6
:103E40000A008DF80B108DF807306A460C214FF4EC
:103E5000257001F035FD04B070BD0000080300209E
:103E600010B5044614A286B0D2E90001926802920D
:103E7000C82CCDE9000116D8C820B0FBF4F0411ED3
:103E8000080A8DF810008DF8111004AA022140F2E2
:103E9000162001F015FD30B96A460C2140F6C1200C
:103EA00001F00EFD18B106B04FF0FF3010BD05480F
:103EB000848106B0002010BDFEF2ABC4AAF1DFDFA2
:103EC000BBAFDFDF0803002038B53349098901F0B3
:103ED000030211F0040F50F822C018BFCCF1000CFF
:103EE000C1F3C10211F0200F50F8222018BF524236
:103EF000C1F3811311F4807F50F8233018BF5B4267
:103F000026498CFB01C04FEA9C7C4CEA800082FB76
:103F100001C24FEA9C7C4CEA820483FB0121920F90
:103F200042EA8105010E8DF80010010C8DF8011098
:103F3000010A8DF802108DF803006A4604214FF43F
:103F4000747001F0BDFC88B9200E8DF80000200CC3
:103F50008DF80100200A8DF802008DF803406A46B2
:103F600004214FF4757001F0ABFC10B14FF0FF303D
:103F700038BD280E8DF80000280C8DF80100280AA5
:103F80008DF802008DF803506A4604214FF47670D4
:103F900001F096FC38BD00000803002009E3CA02C6
:103FA00070B504463CA084B0006802903BA004F0C9
:103FB0000302006803903AA006683AA0056802A8C8
:103FC000815C8DF80010C4F3C101435C8DF80130B1
:103FD000C4F38113C05C8DF8020003A8825C8DF8E5
:103FE0000420415C8DF80510C05C8DF806006A461F
:103FF000032140F2264001F063FC002843D101AACE
:10400000032140F22A4001F05BFCE0BBCDE90065F2
:1040100014F0040F0BD09DF8000040F001008DF863
:1040200000009DF8040040F001008DF8040014F039
:10403000200F0BD09DF8010040F001008DF8010029
:104040009DF8050040F001008DF8050014F4807F14
:104050000BD09DF8020040F001008DF802009DF8A1
:10406000060040F001008DF806006A4603214FF477
:10407000886001F025FC30B901AA032140F23140EB
:1040800001F01EFC18B104B04FF0FF3070BD0648BF
:10409000048104B0002070BD4CCD6C000CC92C0014
:1040A00036567600264666000803002070B582B0BA
:1040B000054610F0070F7DD0B1F5C86F7AD80846D5
:1040C000FCF7E6FA4949FCF777F9064601A800F043
:1040D000B7FC9DF80400022806D0042813D0082855
:1040E00020D010282DD07AE00E213046FCF7A2F91E
:1040F000FCF7ECFA84B23E493046FCF72BF9FCF7AA
:10410000E5FA80B22BE00D213046FCF793F9FCF77D
:10411000DDFA84B237493046FCF71CF9FCF7D6FAD1
:1041200080B21CE00C213046FCF784F9FCF7CEFA93
:1041300084B231493046FCF70DF9FCF7C7FA80B27A
:104140000DE00B213046FCF775F9FCF7BFFA84B29D
:104150002A493046FCF7FEF8FCF7B8FA80B2210A8B
:104160008DF800108DF80140010A8DF802108DF8CD
:10417000030015F0010F6C460DD0224602214FF4CA
:10418000EA7001F09DFBA8B9A21C02214FF49270C5
:1041900001F096FB70B915F0020F0FD06A460221AC
:1041A0004FF4EC7001F08CFB20B9A21C02214FF4FB
:1041B000947000E013E001F083FB80B915F0040F68
:1041C00011D06A4602214FF4EE7001F079FB30B94C
:1041D000A21C02214FF4967001F072FB18B102B0DC
:1041E0004FF0FF3070BD02B0002070BD00004843AA
:1041F000000040460000C045000040450000C044AB
:1042000038B504468DF8000069460320ABBE204651
:1042100038BD00002DE9F04184B006460120CA4CAB
:104220008DF800004FF000088DF8018020680D46E1
:104230001746817C60686B460222007800F0C4F962
:10424000002840F0E480C820FCF766FF8DF800806D
:1042500020686B460122C17B6068007800F0B4F9E9
:10426000002840F0D48020686B46012241796068C4
:10427000007800F0A9F9002840F0C98020686B465A
:104280000122817C6068007800F09EF9002840F0EF
:10429000BE8020686B460122C17D6068007800F016
:1042A00093F9002840F0B38020686B460122017921
:1042B0006068007800F088F900287DD10C208DF826
:1042C000000020686B46012201796068007800F0E8
:1042D0007BF9002870D10F20FCF71EFFA06A6B4607
:1042E0000122407A8DF800002068817860680078AB
:1042F00000F06AF900285FD1A06A6B460122007ABB
:104300008DF80000206841786068007800F05CF962
:1043100000287CD1A06A002F807A18BF40F0E0000E
:104320008DF8000020686B46012281796068007872
:1043300000F04AF900286AD1002F1DBFA06AC07A98
:1043400040F0E00018208DF8000020686B46012244
:10435000C1796068007800F037F9002857D1002F44
:104360001CBFC820FCF7D8FE40208DF80000206854
:104370006B46012201796068007800F025F9002879
:1043800045D178208DF8000020686B4601224179E4
:104390006068007800F018F970B93220FCF7BCFEB4
:1043A0008DF8008020686B460122417960680078B2
:1043B00000F00AF900B900E029E020686B4602220B
:1043C000817A6068007800F0C1F800BBBDF8000099
:1043D000C6F80880C6F80480C6F8008040BA4AF6DD
:1043E000AB21C5F808804843C5F80480C00CC5F867
:1043F000008010F0FF074FF000083DD020686B46AA
:104400000C22C17A6068007800F0A0F820B104B0F6
:104410004FF0FF30BDE8F081BDF80210BDF800009C
:1044200049BA40BA0BB22A6800B2BDF80410104471
:104430002860686849BA18446860A86809B20844E6
:10444000A860BDF80600336840BA01B2BDF80800A4
:10445000BDF80A201944316040BA716800B20844BE
:10446000706052BAB06812B21044B06008F1010036
:1044700000F0FF08B845C1D330688322C117090492
:1044800041EA104100040023FBF79AFE3A4600235C
:10449000FBF796FE306070688322C117090441EA79
:1044A000104100040023FBF78BFE3A460023FBF784
:1044B00087FE7060B0688322C117090441EA104189
:1044C00000040023FBF77CFE3A460023FBF778FE4E
:1044D000B06028684FF40062C117090441EA104136
:1044E00000040023FBF76CFE3A460023FBF768FE4E
:1044F000286068684FF40062C117090441EA10415E
:1045000000040023FBF75CFE3A460023FBF758FE4D
:104510006860A8684FF40062C117090441EA1041BD
:1045200000040023FBF74CFE3A460023FBF748FE4D
:10453000A8600028CCBFA0F5803000F58030A860CE
:1045400004B00020BDE8F081440000202DE9F041D6
:104550001D4614460F460646FEF7DEF8002804BF47
:104560000120BDE8F0817006000EFEF7A5F8FEF709
:104570001BF9F8B13846FEF79FF8FEF715F9FEF77C
:10458000CBF8012000EB4600C0B2FEF795F8FEF72D
:104590000BF954B1012C12D00120FEF72DF8287030
:1045A000601E6D1C10F0FF04F4D1FEF7DDF8002052
:1045B000BDE8F081FEF7D8F80120BDE8F0810020C9
:1045C000FEF71AF82870EBE72DE9F0411E46154674
:1045D0000F460446FEF7A0F8002804BF0120BDE8FE
:1045E000F0816006000EFEF767F8FEF7DDF898B17F
:1045F0003846FEF761F8FEF7D7F80024002D08DDF5
:10460000305DFEF759F8FEF7CFF850B1641CAC42AC
:10461000F6DBFEF7A9F81DE0FEF7A6F80120BDE8DD
:10462000F0810E48416821F070414160416841F0DD
:10463000405141600A4C0020C4F8B801C4F8BC01E4
:10464000012004F5DC74FFF7EBF8012020606060C6
:10465000FFF7E6F80020BDE8F081000000100140FF
:104660000000224294B0FCF779FE00240694012554
:1046700005940B940A9410942804029403940E94C5
:10468000CDE900500C940D941394119412940226C9
:104690000495CDE907604FF4E01009906846FDF7F6
:1046A000DFF808B172B6FEE70F20CDE90A064FF435
:1046B0008060CDE90C4002210AA80E94FCF7BAFFF5
:1046C00008B172B6FEE74FF4004710A81297109693
:1046D000FCF71AFF08B172B6FEE7AB4800940194EC
:1046E00002940394816941F010018161816901F0B4
:1046F00010010491816941F020018161816901F01B
:1047000020010491816941F004018161816901F016
:1047100004010491816941F0080181618069DFF839
:104720006C8200F00800049000224FF46041404683
:10473000FCF700FEDFF8589200224FF47041484623
:10474000FCF7F8FD4FF4C040CDE90005CDE9024685
:1047500069464046FCF7F4FC11200097CDE90105BD
:104760000320039069464046FCF7EAFC4FF4704092
:10477000CDE90005CDE9024669464846FCF7E0FC74
:104780008548009401940294824984600160047316
:10479000047505614FF460214460C161FCF7F6FBCC
:1047A00008B172B6FEE7CDE9004569467A48029441
:1047B000FCF73EFB08B172B6FEE71094009411942A
:1047C0000194039404940594754802940694089403
:1047D00009940A940B940C940D940E946F490F94C1
:1047E000016041F61F41C0E90114C721C0E903146B
:1047F00044618461FDF7C2FD08B172B6FEE7109412
:1048000010A967481194FDF73AFA08B172B6FEE7AD
:104810006020CDE9000402940394049405940022DE
:1048200069465F480694FDF7A9FC08B172B6FEE739
:10483000042269465A48FDF7A1FC08B172B6FEE7AA
:10484000082269465648FDF799FC08B172B6FEE7A2
:104850000C2269465248FDF791FC08B172B6FEE79A
:1048600008944FF40050CDE90C400A9409940B943D
:1048700008A94B480F94FDF7D9F908B172B6FEE7C5
:104880004748FDF751FC484801940394059404946B
:10489000079408940A9443490B94C0E900144EF617
:1048A0006026C0E90246046184610095029569466C
:1048B0000695FDF775FA08B172B6FEE70A940AA9E3
:1048C00039480B94FDF7DBF908B172B6FEE73848BA
:1048D0000194039405940494079408940A9433492A
:1048E0000B94C0E90014C0E902460461846100959C
:1048F000029569460695FDF753FA08B172B6FEE7D0
:104900000A940AA92A480B94FDF7B9F908B172B6BE
:10491000FEE7294827494FF4E1350160C0E9015419
:104920000C26C460C0E904468461C461FDF7CCFD77
:1049300008B172B6FEE7224820490160C0E901547F
:10494000C460C0E904468461C461FDF7BDFD08B1DF
:1049500072B6FEE7FEF728F900F0FCFF194A0021C5
:10496000194801F033F8194C194A00212060194800
:1049700001F02CF86060184A0021184801F026F870
:10498000A06001F003F8FEE70010024000100140B3
:10499000000C01400024014028010020002C0140AF
:1049A0005801002000040040A00100200008004041
:1049B000E801002000440040300200200048004090
:1049C00078020020C4770008A12B00080000002016
:1049D000E8770008A90D00080C780008C90B00084A
:1049E00070B5164C20F00101002594F82400002831
:1049F0001CBF002070BDA07A002804BF4FF0FF301C
:104A000070BD267C08402074884218BF4FF0FF35E7
:104A100061B1012001F014FC00F090FA00281EBFE3
:104A200026744FF0FF3070BD284670BD207D0028F1
:104A300018BF012001F004FCF6E70000440000204C
:104A40000D494A7A002A08BF02220DD0012A08BF68
:104A5000042209D0022A08BF082205D0032A16BF63
:104A60004FF0FF30102270470270C97C11B111065F
:104A7000C90D017000207047440000200F494A7A98
:104A8000002A08BF4FF4804210D0012A08BF41F627
:104A90009C720BD0022A08BF4FF4805206D0032A22
:104AA00016BF4FF0FF304FF4006270470280C97CA0
:104AB00011B1C2F34E010180002070474400002074
:104AC0000B49097A002908BF0A490DD0012908BFFE
:104AD000094909D0022908BF084905D0032916BF92
:104AE0004FF0FF300649704701600020704700001A
:104AF000440000200000034300008342333303429C
:104B00003333834170B582B04F4C80208DF8000064
:104B100020686B460122817C60680078FFF754FDB5
:104B200000286BD16420FCF7F7FA00258DF80050BF
:104B300020686B460122817C60680078FFF744FDA5
:104B400000285BD120686B460622817D6068007872
:104B5000FFF7FCFC002851D19DF805009DF80310DB
:104B6000C007400F01F0010140EA41009DF801102B
:104B70004FF0010601F00101014309D0012908BFEE
:104B8000E67416D0022913D030A0FEF7F7F835E00E
:104B900020686B460122C17860680078FFF7D6FC78
:104BA00060BB9DF8000010F00F0024D0042829D02D
:104BB000E574FF20A07220726072E0724FF6FF7100
:104BC000E1812074A074267384F8226084F8235055
:104BD00065752575C4F81650C4F81A50C4F81E50EF
:104BE00084F8245084F82550E5844FF4FA6000F0EE
:104BF00021FD18B90BE01F48FEF7C0F802B04FF0D6
:104C0000FF3070BD1CA0FEF7B9F8E674D1E70220B2
:104C100000F01EFC0028F1D12A2000F073FD0028CE
:104C2000ECD1322000F0A4FD0028E7D1FFF7D8FE38
:104C30000028E3D100F03EFC0028DFD100F0DAFDCF
:104C400002B0002070BD000044000020556E737556
:104C500070706F7274656420736F667477617265CB
:104C60002070726F64756374207265762025642EDF
:104C70000A000000B485000848616C662073656E08
:104C80007369746976697479207061727420666FD3
:104C9000756E642E0D0A00002DE9FF4FDFF830918C
:104CA000074691B099F825009246884600287FD1A2
:104CB000B8F1000F7CD00024002F66D9381B1028D3
:104CC000C8BF102085B218EB04061CBF99F80A0073
:104CD00000286DD04FEA142004F0FF0B8DF800007F
:104CE0008DF801B00BEB050108900F91D9F8040085
:104CF000428991425CD8D9F8001000786B46097E51
:104D00000222FFF761FC002852D1D9F80000EAB274
:104D10003346417DD9F804000078FFF755FC0028A0
:104D200046D10AA8009099F80A00002840D00898B7
:104D30008DF810008DF811B0D9F804000F99428950
:104D4000914235D8D9F80010007804AB097E0222D0
:104D5000FFF73AFC50BBD9F80000EAB2009B417D56
:104D6000D9F804000078FFF7F1FBF8B92A460AA940
:104D70003046FBF78AFA20B115B06FF00100BDE8AC
:104D8000F08F601984B2BC4298D34FEA1A208DF894
:104D900038008DF839A0D9F800000EAB0222817ED0
:104DA000D9F804000078FFF70FFC00E000E020B124
:104DB00015B04FF0FF30BDE8F08F012089F82500D5
:104DC0001498A9F8260015B00020BDE8F08F000067
:104DD00044000020282884BF4FF0FF3070472DE9A1
:104DE000F8432D4D04004FF007084FF0000610D097
:104DF000012000F055FC202001278DF80000012C37
:104E00001BD0052C31D88DF80170052000F07AFCFC
:104E100018E0002000F044FC8DF800608DF801805F
:104E200028686B460222817C68680078FFF7CCFB1B
:104E3000002808BF2E7514D12AE08DF801600520E6
:104E400000F060FC9DF801006B4648EA80108DF888
:104E5000010028680222817C68680078FFF7B4FBB3
:104E600078B14FF0FF30BDE8F883142C94BF0220D6
:104E700003208DF8010094BF0A20142000F042FCAA
:104E8000E0E70820A8722E732F750020FFF7A8FD19
:104E90000020BDE8F8830000440000202DE9F8431D
:104EA000254C0646174694F82400884600281CBF67
:104EB000A07A002834D020686B464FF00202817A35
:104EC00060680078FFF742FB50BBBDF8000045BAB0
:104ED000AE4204D900203870401EBDE8F8836068F7
:104EE0004188B5EB510F12D9216800786B46497C97
:104EF0000122FFF72BFB98B99DF8000010F0100F6E
:104F000005D000F01BF86FF00100BDE8F8832068C1
:104F1000F2B24346C17A60680078FFF717FB18B118
:104F20004FF0FF30BDE8F883B5FBF6F0401E387057
:104F30000020BDE8F88300004400002038B5574C3D
:104F4000A07A002800F0A48000258DF80050206889
:104F50006B460122C17B60680078FFF735FB0028B3
:104F600078D120686B460122417960680078FFF7AC
:104F70002BFB00286ED120686B4601220179606806
:104F80000078FFF721FB002864D194F82400002862
:104F90003FD00C208DF8000020686B46012201797B
:104FA00060680078FFF710FB002871D1C0208DF8F1
:104FB0000000A07A10F0010F1CBFE0208DF8000067
:104FC00020686B460122017960680078FFF7FCFADF
:104FD00000285DD1607C00281ABF02208DF80000F7
:104FE0008DF8005020686B460122C17B6068007814
:104FF000FFF7EAFA00284BD18DF8005020686B4685
:105000000122417960680078FFF7DEFA00283FD17D
:1050100041E004208DF8000020686B4601220179F0
:1050200060680078FFF7D0FAA0B9A07C98B9A07AA0
:1050300010F0010F18BF60200DD000BF8DF80000E8
:1050400020686B460122017960680078FFF7BCFA9E
:1050500000B902E01CE04020F0E7607C00281ABFA5
:1050600001208DF800008DF8005020686B46012269
:10507000C17B60680078FFF7A7FA48B9206804F19F
:1050800010030122417960680078FFF79DFA10B1A2
:105090004FF0FF3038BD002038BD00004400002034
:1050A0002DE9F34FE24C97B08B4694F8240018B1E9
:1050B000002000F083FA01200E90207A4FF00009C2
:1050C000002808BFFA2026D0012808BF4FF4FA7044
:1050D00021D0022808BF4FF47A701CD0032814BFD7
:1050E000CDF834904FF4FA6015D0607A002808BFEC
:1050F0004FF0020811D0012808BF4FF004080CD06F
:10510000022808BF4FF0080807D0032808BF4FF057
:10511000100802D006E00D90E7E7E07C002818BFF9
:105120004FEA4808E07A072811D2DFE800F01004BF
:1051300006080A0C0E00BC270AE0622708E02A27AE
:1051400006E0142704E00A2702E0052700E04F46A6
:1051500094F82400002804BFE0891190B44800248A
:10516000817A1091007C0F90002259461798FFF722
:1051700051F800281CBF641C022CF5DB022C18BF60
:10518000002418D0012205A912A8FFF743F800282F
:105190001CBF641C022CF5DB022C0CD0A4484FF081
:1051A000000A08AE406804AB042200780D21FFF726
:1051B000CDF948B367E000249D49FF204FF6FF7208
:1051C00008724872C872CA81887208740120087314
:1051D0000D9800F02FFA404600F03AF9384600F0FA
:1051E00091FA119800F0C4FA109800F003FB0F98A0
:1051F000FFF7F6FB0E9800281CBF012000F0DEF937
:10520000204619B0BDE8F08F9DF810001C2101EA7E
:10521000D0029DF813006D46C0F301131A438DF8B8
:1052200000209DF81120C0F3810301EAD2021A4345
:105230008DF801209DF8122000F0030001EAD20150
:1052400008438DF802000024295D002908BF46F8B4
:10525000249014D0774846F82400481E10F0FF0030
:1052600028550CD056F824007349FBF773F846F81C
:105270002400285D401E10F0FF002855F2D1601C6C
:10528000C4B2032CE0D3DBF800200599501A48BFC4
:10529000881AFBF7F4F96FF00F01FBF7CBF80899C8
:1052A000664C674DDFF89C9111F0FF4F0AD0FBF779
:1052B00083F84FF07E51FBF747F820F00040484557
:1052C00005DD02E02044A84201D34AF0010ADBF8E0
:1052D00004100698081A44BF0698401AFBF7CFF945
:1052E0006FF00F01FBF7A6F8099911F0FF4F0BD0F3
:1052F0000999FBF761F84FF07E51FBF725F820F094
:105300000040484505DD02E02044A84201D34AF0B0
:10531000020ADBF808100798081A44BF0798401AD9
:10532000FBF7ADF96FF00F01FBF784F80A9911F064
:10533000FF4F0BD00A99FBF73FF84FF07E51FBF778
:1053400003F820F00040484505DD02E02044A84273
:1053500001D34AF0040A3648CDF824A00DF1480BD9
:1053600040680026DDF85CA0007808AB03220D2120
:10537000FFF7ECF8002818BF07264DD19DF8200054
:10538000002400F01F008DF820009DF8210008ADDA
:1053900000F01F008DF821009DF8220000F01F0092
:1053A0008DF822005AF824005BF82410401A48BFF8
:1053B0004042FBF764F96FF00F01FBF73BF8295D02
:1053C0008146E1B1491E204811F0FF01295508D05E
:1053D0001E49FAF7BFFF295D491E11F0FF0129554B
:1053E000F6D101464846FAF7E7FF4FF07E51FAF74B
:1053F000ABFF20F00041134881420ADD06E0A0F136
:105400008040A0F19070B0F1D97F02D90120A04076
:105410000643641C032CC5DB16F0FF0F4FF000049D
:1054200008BF01240998002808BF44F00204C3E61D
:10543000440000207B14AE3E1D5A843F666666C160
:105440009A99D900295C0F3E0000C84154E3853F7A
:1054500038B5174CA17A11B3022808BF00200BD031
:10546000042808BF082007D0082808BF102003D050
:10547000102808BF182012D18DF80000607A9DF81E
:105480000010B0EBD10F04BF002038BD20686B4680
:105490000122C17960680078FFF796F810B14FF0EB
:1054A000FF3038BD9DF80000C0086072002038BD94
:1054B0004400002038B5404C0546A07CA84204BFFB
:1054C000002038BD3C48002D6B46D0E900104FF05D
:1054D00001020979007834D0FFF738F8002864D148
:1054E0009DF800006B4620F020008DF80000206839
:1054F0000122017960680078FFF766F8002854D12E
:105500000320FBF709FE02208DF8000094F822002A
:1055100000281CBF82208DF8000094F8230028B1D9
:105520009DF8000040F030008DF8000020686B46C8
:105530000122017D60680078FFF746F8002834D129
:1055400036E0FFF703F880BBA07A10F0010F9DF85A
:10555000000014BF40F0200020F020008DF8000073
:1055600020686B460122017960680078FFF72CF80B
:10557000D8B90320FBF7D0FD94F82200002818BF0B
:1055800080208DF8000094F8230028B19DF80000D9
:1055900040F030008DF8000020686B460122017D4C
:1055A00060680078FFF710F810B14FF0FF3038BD99
:1055B000A574002038BD00004400002038B51C4C04
:1055C00094F82410814221D0002508B394F82500D6
:1055D000002804BF4FF0FF3038BD002000F030FE3F
:1055E0000020FFF767FFE08C00F0C2F88DF8005054
:1055F00060686B46012200782321FEF7E5FF012059
:1056000084F8240000F01CFEFFF798FC002038BD51
:10561000002000F015FE207C8DF8000060686B46CD
:10562000012200782321FEF7CFFF84F82450EBE716
:105630004400002038B5194CA17A29B3FA2808BFD4
:1056400000200ED0B0F5FA7F08BF082009D0B0F5D1
:105650007A7F08BF102004D0B0F5FA6F08BF182079
:1056600012D18DF80000207A9DF80010B0EBD10F18
:1056700004BF002038BD20686B4601228179606834
:105680000078FEF7A1FF10B14FF0FF3038BD9DF854
:105690000000C0082072002038BD00004400002037
:1056A00038B5174C054694F82300A84204BF0020E3
:1056B00038BD002D14BF302000208DF80000A07CE4
:1056C00028B19DF8000040F002008DF8000094F829
:1056D000220028B19DF8000040F080008DF8000005
:1056E00020686B460122017D60680078FEF76CFF40
:1056F000002812BF4FF0FF3084F82350002038BD3F
:105700004400002038B5194CA17A002925D0BC28C6
:1057100028BF01200FD2622828BF02200BD22A28DE
:1057200028BF032007D2142828BF042003D20A2848
:105730002CBF052006208DF80000E07A9DF80010AF
:10574000884204BF002038BD20686B460122817862
:1057500060680078FEF738FF10B14FF0FF3038BDB9
:105760009DF80000E072002038BD000044000020D9
:10577000F8B51F4D0446A87A58B395F8240040BBED
:10578000287D48B164B1282C03D8E0B2FFF722FB92
:105790002BE00020FFF71EFB042C05D2042408E0B8
:1057A0000020FFF717FBF9E7B4F57A7F88BF4FF4C5
:1057B0007A744FF47A76B6FBF4F0401E8DF8000050
:1057C00028686B460122417868680078FEF7FCFE85
:1057D00010B14FF0FF30F8BD9DF80000401CB6FB43
:1057E000F0F0E8814008FFF78DFF0020F8BD0000D1
:1057F00044000020F8B5044610F0700F4FF000068A
:1058000018BF01200ED000BF8DF800002B4D6B4655
:1058100001222868817C68680078FEF7D5FE0028A0
:1058200038D106E0002C14BF8DF800604020EDD187
:10583000EAE79DF8000014F0400F20F040002873C4
:105840008DF8006004BF04208DF8000014F0200FD4
:1058500005D19DF8000040F002008DF8000014F022
:10586000100F05D19DF8000040F001008DF80000F8
:1058700014F0080F05D19DF8000040F038008DF8B5
:10588000000028686B460122C17C68680078FEF73A
:105890009BFE18B1AE724FF0FF30F8BD002C18BF60
:1058A000082C03D04FF00000FFF7FAFEAC722E7503
:1058B0003220FBF731FC0020F8BD0000440000203E
:1058C000002A04BF4FF0FF307047F8B5124C0D4668
:1058D0001646A17AE9B1010A8DF80010C0B28DF820
:1058E0000100411960684289914212D8216800780C
:1058F0006B46097E0222FEF767FE50B92068EAB2C5
:105900003346417D60680078FEF75EFE002808BFE0
:10591000F8BD4FF0FF30F8BD440000207047000094
:1059200010B5EFF3058149B9EFF3108131B908499A
:105930000968022905D1EFF3118111B16FF0050457
:1059400004E00024002818BF00F02AFE204610BD05
:10595000F8000020EFF3058058B9EFF3108040B94C
:1059600009490868022801D030B109E0EFF311803D
:1059700030B16FF0050070470120086000207047CB
:105980004FF0FF3070470000F800002010B5EFF333
:10599000058060B9EFF3108048B90B490868022808
:1059A00002D0012806D00BE0EFF3118040B16FF078
:1059B000050010BD0220086000F0ACFE002010BD04
:1059C0004FF0FF3010BD0000F8000020F0B585B0AA
:1059D0004FEA01034FF00004EFF30581039400291F
:1059E0004DD1EFF31081002949D1264909680229D8
:1059F00003D1EFF31181002941D100283FD0802548
:105A000018218DF810400DF1100C002A2DD01668C9
:105A1000002E18BFB44696691EB13146761E382E48
:105A200003D2167916F0010F02D005B00020F0BDA8
:105A30005669002E18BFB508976887B1D4685C2CEA
:105A40001DD31269002A18BF002E18D0CDE900120C
:105A500002972A46614601F095FB03900FE0D66855
:105A6000002E04BF1269002A09D103AACDE9001251
:105A7000AAB2614601F02AFB012818BF03940398DB
:105A800005B0F0BDF80000202DE9F041144C0F46A0
:105A9000054666692068001D00F034FCB5F1FF3F43
:105AA00007D137B12068BDE8F041011D0D4800F075
:105AB0007EBC20683544B5424560206800F1040191
:105AC00004D2A068BDE8F04100F054BC606800F06A
:105AD00051FC206BA84288BF2563BDE8F08100001F
