:020000040800F2
:10000000E005002005010008E3200008BF1D0008EE
:10001000E1200008690500089D2500080000000097
:100020000000000000000000000000000B2100089C
:10003000CD05000800000000092100082921000862
:100040001F0100081F0100081F0100081F01000810
:100050001F0100081F0100081F0100081F01000800
:100060001F0100081F0100081F010008C10500084A
:100070001F0100081F0100081F0100081F010008E0
:100080001F0100081F010008A10300081F0100084C
:100090001F0100081F0100081F0100081F010008C0
:1000A0001F0100081F0100081F0100081F010008B0
:1000B0001F0100081F0100081F0100081F010008A0
:1000C0001F0100081F0100081F0100081F01000890
:1000D0001F0100081F010008912500081F010008EA
:1000E0001F0100081F0100081F010008DFF810D0E1
:1000F00000F044F900480047DD250008AFF3008018
:10010000E00500200648804706480047FEE7FEE776
:10011000FEE7FEE7FEE7FEE7FEE7FEE7FEE7FEE7B7
:10012000A5210008ED000008D2B201E000F8012B83
:10013000491EFBD270470022F6E710B513460A4667
:1001400004461946FFF7F0FF204610BDF0B480EAE0
:100150000102D40F4200B2EB410F02D20246084620
:1001600011464A0042D0C30DDDB2C1F3C752AD1AE9
:10017000202D35DAC1F3160141F4000204B15242D8
:10018000C5F1200602FA06F12A411044B3EBD05F14
:1001900023D0C4B1012DA0EBC35009DCF0BC4FF05B
:1001A000004202EAC352DBB200F5000000F0B8B82A
:1001B000400000F1807000EBC350A0F1807040EA75
:1001C000D170490009E0490841EAC071A0EBC35071
:1001D00000F50000400800EBC350F0BC00F097B8F9
:1001E0006142012202EB4101001BF6E7F0BC7047BF
:1001F00081F00041AAE780F00040A7E780EA010211
:1002000010B502F00043400022D04A001FD0010E7A
:1002100001EB1261C0F35600C2F3560240F4000035
:1002200042F40002A0FB022000047F39140400D035
:10023000401C50EA124001D44000491EC2B20C06D4
:1002400004EBD010401C4008802A02D003E00020BC
:1002500010BD20F00100002900DA0020184310BD75
:1002600030B480EA010202F0004530F0004221F093
:10027000004013D090B1C30DD40DC2F31601C0F3EA
:100280001600E41A41F4000140F400027D3491426A
:1002900001D3641C00E04900002C02DA30BC0020CD
:1002A00070474FF400000023914201D3891A0343A1
:1002B00040084FEA4101F7D151B1914202D14FF0CC
:1002C000004105E002D24FF0010101E06FF00101B1
:1002D00003EBC450284430BC00F019B89623002228
:1002E000114600F01DB820F00040C10DC0F316000B
:1002F00040F400007F2901DA00207047962903DCD2
:10030000C1F19601C840704796398840704700296E
:10031000A8BF7047401C490008BF20F0010070478B
:1003200010B4B0FA80FC00FA0CF050EA010404BFEB
:1003300010BC704749B1CCF1200421FA04F411FA41
:100340000CF118BF012121430843A3EB0C01CB1D85
:100350004FEA00614FEA102042BF002010BC7047F6
:1003600000EBC35010440029A4BF10BC7047401CD0
:10037000490008BF20F0010010BC7047064C074D33
:1003800006E0E06840F0010394E807009847103465
:10039000AC42F6D3FFF7AEFE90260008B026000868
:1003A000014800F0A8B900008800002070B504469C
:1003B00000688168C943C90717D1816821F001012C
:1003C000816000F029FD05460AE000BF00F024FD31
:1003D000401B022804D920688068C043C00706D0AB
:1003E00020688068C043C007F0D0002070BDA06ABC
:1003F00040F01000A062E06A40F00100E0620120DD
:1004000070BD10B504464078012100F059F8207AFB
:1004100000F090F80120207110BD10B5044640781E
:10042000002100F04DF8207A00F08EF800202071B5
:1004300010BD000070B50A46044619491046FFF782
:100440000FFF05461748854207DA1748854204D84A
:100450002046BDE87040FFF7E0BF2046FFF7D1FF20
:100460004FF07E5015F1FF4F0AD301462846FFF7A3
:100470006DFE05462078012100F022F8012008E0F9
:100480002946FFF7B5FE05462078002100F018F850
:100490000020E070207A2946BDE8704000F01CB8CA
:1004A00000007A44CDCC4C3DCDCC4CBD034A02EB90
:1004B000C00152F83000898800F0A4BC3000002050
:1004C000044B0A4603EBC00153F83000898800F062
:1004D0009EBC0000300000202DE9F04106464FF0A0
:1004E0007E500C46814201DD044603E014F1FF4FCB
:1004F00000D300240E4F57F836000568E86AFFF76E
:10050000EDFE2146FFF77AFEFFF7EDFE07EBC60191
:1005100080B2898831B1042906D0082906D0286420
:10052000BDE8F0816863FBE7A863F9E7E863F7E7F4
:1005300010000020034A02EBC00152F83000898805
:1005400001F0EEB910000020034A02EBC00152F89E
:100550003000898801F032BA1000002005220149DC
:1005600001F00EBC78000020FEE7000070B5104CD2
:100570000225217841B101290AD00020022901D0A9
:1005800003290ED160600CE00A486060032002E09D
:10059000094860600420FFF789FF10B92078607077
:1005A00025706168BDE870400448FFF743BF000054
:1005B0008000002000004844000048C4D40100200E
:1005C000014800F057BA0000900100207047000079
:1005D00010B50220FFF7AEFF0320FFF7ABFFBDE829
:1005E00010400148FFF7BABF4801002072B6FEE78D
:1005F00001F0E6BB70470000F8B50024009490F8C5
:1006000024202546012A12D0012280F824204A689D
:100610001F23072A0DD20668776B521E02EB820257
:1006200093409F430B6893401F43776319E0022078
:10063000F8BD06680D2A0AD2376BD21F02EB820280
:1006400093409F430B6893401F43376309E0F76A69
:100650000D3A02EB820293409F430B6893401F4385
:10066000F7620A68072306680A2A0AD3F7680A3A73
:1006700002EB420293409F438B6893401F43F76015
:1006800008E0376902EB420293409F438B68934036
:100690001F4337610A68102A01D0112A20D1124B5A
:1006A00002689A4217D193681B0219D4936843F4E5
:1006B000000393600968102912D10C490C4A09689B
:1006C000B1FBF2F101EB8101490000E0491E00910C
:1006D0000029FBD104E0816A41F0200181620124FC
:1006E00080F824502046F8BD002401400C00002072
:1006F00040420F00704770B50446006806684568C0
:10070000A90625D5B10723D5A16AC90603D4A16AD4
:1007100041F40071A1628168C1F34241072910D1FF
:10072000217B71B9416821F020014160A06A20F469
:100730008070A062A06AC00403D4A06A40F00100E7
:10074000A0622046FFF7D6FF21686FF01200086014
:1007500028062ED570072CD5A06AC00603D4A06A3F
:1007600040F40050A06220688168C1F3023107297B
:1007700009D04168490515D48168C1F34241072970
:1007800010D1217B71B9416821F080014160A06ADC
:1007900020F48050A062A06AC00503D4A06A40F093
:1007A0000100A0622046FFF725FF21686FF00C00D2
:1007B000086068060CD5F0070AD0A06A40F48030C3
:1007C000A062204600F094F821686FF001000860F4
:1007D00070BD00002DE9F0414FF0000704003D46D8
:1007E0007ED0A06A002628B9E66284F824602046FC
:1007F00000F080F82046FFF7D9FDA16AC90600D4B1
:1008000020B1A06A40F01000A06269E0A16A21F462
:10081000885141F00201A1626268E169237B0A43C9
:1008200047EA43010A43A1684FF48077B94209D0EF
:10083000012907D05FF0000194F814C0BCF1010F4A
:1008400002D00AE03946F7E7F3B1A36A43F0200388
:10085000A362E36A43F00103E3622368D3F804C0B0
:100860002CF4694C4CEA010CC3F804C021688B6875
:10087000DFF870C003EA0C0313438B60A168B94230
:100880000BD0012909D00CE0DFF85CC0A3690CEBA8
:1008900043330B4343F40061DFE7218A0D05A5F5DF
:1008A00080152168CB6A23F470032B43CB62216847
:1008B00089680E4B1940914208D1E662A16A21F085
:1008C000020141F00101A162BDE8F081A06A20F0BF
:1008D000020040F01000A062E06A40F00100E06217
:1008E0000120F1E7FDF7E1FF00E0FFFFFE0E1FFF33
:1008F0007047000070B586B000250646009501954A
:100900000295039500681E49884236D11D498869C1
:1009100040F400708861886900F400700490886970
:1009200040F0040088618869694600F00400049082
:100930003320009003200190134800F073F9144C09
:100940001248C4E900058020C4E90250400020613B
:10095000800060612020C4E90605204600F034F9DB
:1009600008B1FFF743FE34620022012112206662C3
:1009700000F0BEFA122000F0ADFA06B070BD000023
:10098000002401400010024000080140080002401D
:100990009001002010B590F821100022022905D006
:1009A0000421816380F82020012010BD01680B68BC
:1009B00023F00E030B6001680B6823F001030B604A
:1009C00090F84030C46B012101FA03F3636080F8B2
:1009D000211080F82020104610BD000010B590F8BE
:1009E00021100024022903D00421816301243DE069
:1009F00001680A6822F00E020A6001680A6822F0A3
:100A000001020A601A4A0168914201D1012121E0E4
:100A1000174A1432914201D110211BE0144A2832A6
:100A2000914201D1891515E0114A3C32914201D120
:100A300089140FE00E4A5032914202D14FF48031B6
:100A400008E00B4A6432914202D14FF4801101E078
:100A50004FF08071064A083A5160012180F8211058
:100A6000002180F82010416B01B18847204610BD5D
:100A7000080002402DE9F05FC16B0C6801680B684B
:100A8000D0F840C0042202FA0CF2494DDFF824A14C
:100A9000494E4A4FDFF828B1DFF828E122422CD036
:100AA0005A072AD50A68920603D40A6822F004027B
:100AB0000A600168A94201D1042219E0514501D11F
:100AC000402215E0B14202D14FF4806210E0B942F9
:100AD00002D14FF480420BE0594502D14FF48022FD
:100AE00006E0714502D14FF4800201E04FF08062D0
:100AF0002F4908394A60C16A3BE04FF0020808FA02
:100B00000CF818EA040F4FF000094FF0010235D03D
:100B10005FEA837832D50B689B0605D40B6823F017
:100B20000A030B6080F821200168A94201D102224A
:100B300019E0514501D1202215E0B14202D14FF414
:100B4000007210E0B94202D14FF400520BE0594557
:100B500002D14FF4003206E0714502D14FF4001289
:100B600001E04FF00072124908394A6080F8209085
:100B7000816A00291AD0BDE8F05F0847082505FA08
:100B80000CF5254212D01B0710D50B6823F00E037D
:100B90000B6090F84010C36B02FA01F15960826358
:100BA00080F8212080F82090016BE2E7BDE8F09FFB
:100BB000080002401C000240300002404400024095
:100BC000580002406C00024030B528B308C81349F1
:100BD00014221944B1FBF2F18900C1631049816309
:100BE000022141771A6843F6F0718A43D0E9001474
:100BF0002143D0E902452C43214304692143446940
:100C0000214384692143114319600021416301227A
:100C100042770177084630BD012030BDF8FFFDBFA7
:100C2000000002402DE9F84FDFF8B8910024A9F147
:100C3000040B23460F2709F1040AABF1040EC9E0A7
:100C40000125A5402A40AA427DD1674ED1F804C0B3
:100C5000ACEB0608B44532D014DCBCF1030F3AD03B
:100C600009DCBCF1000F2AD0BCF1010F1CD0BCF193
:100C7000020F31D11DE0BCF1110F17D0BCF1120FE2
:100C80002AD119E0B8F5881F19D006DCB8F5803FE5
:100C900015D0B8F5801F1FD111E0B8F5001F0ED098
:100CA000B8F5041F18D10AE0CB6815E0CB681B1D0E
:100CB00012E0CB6808330FE0CB680C330CE08B6894
:100CC0002BB1012B4FF0080303D0456104E004234E
:100CD00002E0056100E00023FF2A01D8064601E09A
:100CE00000F104064FEA840501D9A5F12005D6F8E4
:100CF000008007FA05FC28EA0C0803FA05F548EA23
:100D00000508C6F800804D68ED0062D5374DAE6924
:100D100046F00106AE61AD6924F0030605F0010559
:100D20000095334D06EB050CDCF80850A607360F8E
:100D300007FA06F825EA0805DFF8B880404503D130
:100D40004FF0000817E044E0DFF8AC80404502D1E6
:100D50004FF001080FE0DFF8A480404502D14FF0CA
:100D6000020808E0DFF89880404502D14FF0030800
:100D700001E04FF0040808FA06F848EA0508CCF844
:100D800008804D68D9F80060ED024D4601D5164344
:100D900000E096432E604D68DAF80060AD025546DB
:100DA00001D5164300E096432E604D68DBF80060E5
:100DB000AD035D4601D5164300E096432E604D68B5
:100DC000DEF80060ED03754601D5164300E096435A
:100DD0002E60641C0D682A46E5407FF431AFBDE803
:100DE000F88F0000080401400000111000100240BC
:100DF0000000014000080140000C014000100140CB
:100E0000001401408068084000D0012070470AB1FA
:100E1000016170470904FBE70148806870470000E2
:100E20000000002002488168027811448160704708
:100E300000000020074810B5016841F01001016072
:100E4000032000F075F80F2000F006F800F024F8F9
:100E5000002010BD0020024070B50D4D04464FF437
:100E60007A712878B1FBF0F00A490968B1FBF0F01B
:100E700000F052FB48B9102C07D200222146501E28
:100E800000F036F800206C6070BD012070BD0000DD
:100E9000000000200C0000200C4808B5816941F0DA
:100EA00001018161816901F001010091C16941F095
:100EB0008051C161C06900F08050009004484168D1
:100EC00021F0E06141F00071416008BD0010024076
:100ED00000000140002809DB00F01F0201219140C1
:100EE0004009800000F1E020C0F8001170470000C8
:100EF000F0B40E4B1B680C46C3F30223C3F1070585
:100F0000042D00D90425191D072901D2002300E072
:100F1000DB1E012606FA05F1491E214099409E403C
:100F2000761E16403143F0BC01F039BB0CED00E0F9
:100F3000064900F0070208684FF6FF03184040EA30
:100F40000220034A10430860704700000CED00E0E7
:100F50000000FA052DE9F84305460078354CC00736
:100F600054D0E0690026C00008D4E06940F0805009
:100F7000E061E069012600F0805000902E48016891
:100F8000C90512D40168804641F480710160FFF701
:100F900043FF074605E000BFFFF73EFFC01B642884
:100FA00023D8D8F80000C005F6D5206A10F44070A8
:100FB00021D0A98801F4407181421CD0206A1F49C8
:100FC000012220F440700A6000220A602062C007FB
:100FD00011D0FFF721FF074641F2883808E000BF33
:100FE000FFF71AFFC11B414502D90320BDE8F88372
:100FF000206A8007F4D5206A696820F440700843AD
:1010000020621EB1E06920F08050E06128788007FE
:1010100005D56068A96820F44040084360602878DE
:10102000C00605D56068E96820F480000843606068
:101030000020DBE700100240007000404004424204
:101040002DE9F0470F46050061D0434E306800F0AF
:101050000700B84209D2306820F0070038433060FA
:10106000306800F00700B84251D128683B4C810736
:1010700012D5400703D5606840F4E06060602878CE
:10108000000703D5606840F4605060606068A9683C
:1010900020F0F000084360602878C00728D0686816
:1010A000012810D02168022810D0890700292EDAE3
:1010B000616821F0030101436160FFF7ADFE8046E6
:1010C00041F288390DE021688903EFE78901EDE7F6
:1010D000FFF7A2FEA0EB0801494502D90320BDE8B5
:1010E000F0876068696800F00C00B0EB810FEFD109
:1010F000306800F00700B8420BD9306820F00700D4
:1011000038433060306800F00700B84201D0012059
:10111000E5E72878400705D56068E96820F4E060D5
:10112000084360602878000706D56068296920F4C4
:10113000605040EAC100606000F038F86168084A19
:10114000C1F30311515CC8400649086006480068B5
:10115000FFF782FE0020C2E700200240001002409C
:10116000762600080C0000200400002004480549F1
:1011700000684968044AC1F30221515CC8407047C5
:101180000C00002000100240862600080448054993
:1011900000684968044AC1F3C221515CC8407047E5
:1011A0000C00002000100240862600080E4A5168FC
:1011B0000E4801F00C03042B11D0082B0FD10C4862
:1011C000C1F38343C903C05C0AD55168084AC1F31F
:1011D0004041921E515C054A5043B0FBF1F070470C
:1011E00004494843704700000010024000127A0092
:1011F0006626000800093D002DE9F84F040070D074
:101200002078C04DC00749D06868C0F3810001282C
:1012100007D06868C0F38100022809D16868C0035C
:1012200006D52868800339D560680028E7D035E006
:101230006068B0F5803F0BD010B1B0F5A02F11D091
:10124000286820F480302860286820F4802002E09C
:10125000286840F480302860606890B1FFF7DCFDBA
:1012600006460AE0286840F480202860F0E700BFC6
:10127000FFF7D2FD801B642873D828688003F7D558
:101280000CE0FFF7C9FD064605E000BFFFF7C4FD0F
:10129000801B6428F0D828688003F7D420789A4E01
:1012A00080074FF001094FF0000839D5686810F049
:1012B0000C0F07D06868C0F38100022809D1686864
:1012C000C00306D42868800714D52069012808D1F6
:1012D00010E02069B0B1C6F80090FFF79DFD074609
:1012E00005E00AE1FFF798FDC01B0228C4D8286872
:1012F0008007F7D52868616920F0F80040EAC1004E
:1013000028600DE0C6F80080FFF786FD074604E080
:10131000FFF782FDC01B022823D828688007F7D476
:10132000207800072CD57948A169D9B1C0F8009080
:10133000FFF772FD074604E0FFF76EFDC01B0228B1
:101340000FD8686A8007F7D571484FF4FA510068E2
:10135000B0FBF1F0009000BF0098411E0091FAD25E
:101360000EE080E0C0F80080FFF756FD074604E07D
:10137000FFF752FDC01B022875D8686A8007F7D4B2
:101380002078400760D5E8690027C00008D4E869E4
:1013900040F08050E861E869012700F0805000903B
:1013A0005C480168C90513D40168834641F4807123
:1013B0000160FFF731FD824606E000BFFFF72CFD1C
:1013C000A0EB0A0064284ED8DBF80000C005F5D574
:1013D000E06801280AD008B1052813D0286A20F057
:1013E00001002862286A20F0040002E0286A40F028
:1013F00001002862E06841F2883B98B1FFF70CFDDC
:1014000082460BE0286A40F004002862EEE700BF45
:10141000FFF702FDA0EB0A0159455AD8286A800758
:10142000F6D50CE0FFF7F8FC824605E0FFF7F4FC88
:10143000A0EB0A0159454CD8286A8007F6D41FB1A1
:10144000E86920F08050E861E06988B36968C1F319
:101450008101022944D00228C6F8608004D0FFF739
:10146000DBFC044638E034E0FFF7D6FC074604E036
:10147000FFF7D2FCC01B02282BD828688001F7D4C4
:10148000206AB0F5803F05D16868A16820F400307B
:1014900008436860D4E908010843696821F47411BD
:1014A00008436860C6F86090FFF7B6FC044606E0A3
:1014B00025E000BFFFF7B0FC001B022809D8286810
:1014C0008001F7D51BE000BFFFF7A6FC001B022838
:1014D00002D90320BDE8F88F28688001F4D40EE01B
:1014E0000128F7D06868226A00F48031914204D163
:1014F000616A00F47010884201D00120EAE7002000
:10150000E8E700000010024000004242800442422E
:101510000C0000200070004010B5401EB0F1807F2C
:1015200001D3012010BD4FF0E02460610F2160174E
:1015300001F035F80020A06107202061002010BDD7
:1015400010B590F83C20012A22D0012280F83C20DE
:10155000CA688C6822F4407222434C6822F480628C
:1015600022430C6822F4006222430C6922F4805268
:1015700022434C6922F400522243C969002322F419
:1015800080420A4301684A6480F83C30002010BD64
:10159000022010BD70B590F83C20012A26D001240D
:1015A00080F83C40022280F83D2003685A689D681C
:1015B00022F070060A6832435A600D4B02689A4264
:1015C00008D0B2F1804F05D00A4B9A4202D00A4BA4
:1015D0009A4204D1496825F080031943916080F84C
:1015E0003D40002180F83C10084670BD022070BDCF
:1015F000002C014000040040000800402DE9F041AB
:101600000D46040003D094F83D0018B108E0012015
:10161000BDE8F081002084F83C00204600F040F84E
:10162000022084F83D002068816844F2070291435B
:101630008160211D206800F0B7FD226890689169E3
:10164000166A2B68AF69034340F20330814341EAD5
:101650000721A868EF6908434FF6FC418843E96811
:1016600040EA0720014328692F6A000140EA073059
:10167000084369686D6926F0220646EA0515294384
:1016800093602268906154F8460B0162012004F8CF
:101690001F09E0752076E0762077A0750020B7E777
:1016A00000B585B00021009101910291039100687D
:1016B0000D49884216D10D48C16941F00201C1614E
:1016C000C16901F002010491816941F00401816165
:1016D0008069694600F004000490C020009004482E
:1016E000FFF7A0FA05B000BD000400400010024062
:1016F0000008014070B590F83E60044690F83F50F5
:1017000090F8423090F84320022021B104290ED0F5
:10171000012E1BD114E0012E18D1012B16D184F813
:101720003E0084F8420001220021206820E0012DC3
:101730000CD1012A0AD184F83F0084F8430014E058
:10174000012D03D1012B01D1012A01D0012070BD4F
:1017500084F83E0084F83F0084F8420084F8430097
:1017600001220021206800F05BFD01220421206895
:1017700000F056FD2068016841F001010160002081
:1017800070BD000000B585B000210091019102916B
:10179000039100680B49884212D10B48816941F0DE
:1017A000040181618069694600F0040004904FF4EF
:1017B000706000900220019003900448FFF732FA15
:1017C00005B000BD002C014000100240000801409F
:1017D00070B5044690F83C0000260D4601280FD055
:1017E000012084F83C006AB1042A1DD0082A2FD0B9
:1017F0000C2A3FD00126002084F83C00304670BD02
:10180000022070BD206800F019FD2068816941F058
:10181000080181612068816921F0040181612068EB
:1018200081692A69114311E0206800F02FFD2068CA
:10183000816941F4006181612068816921F48061DE
:101840008161206881692A6941EA02218161D2E7C8
:10185000206800F047FD2068C16941F00801C161BE
:101860002068C16921F00401C1612068C1692A6949
:10187000114311E0206800F061FD2068C16941F466
:101880000061C1612068C16921F48061C161206883
:10189000C1692A6941EA0221C161ACE710B50400BF
:1018A00003D094F83D0010B107E0012010BD0020E6
:1018B00084F83C00204600F01FF8022084F83D0028
:1018C000211D206800F070FC012084F8460084F897
:1018D0003E0084F83F0084F8400084F8410084F81A
:1018E000420084F8430084F8440084F8450084F8FA
:1018F0003D00002010BD000008B500680649884280
:1019000008D10648816941F400618161806900F471
:101910000060009008BD0000002C01400010024053
:1019200010B50446022249B104290ED0082913D06B
:1019300094F84100012816D0012010BD94F83E0013
:101940000128F9D184F83E200FE094F83F000128E7
:10195000F2D184F83F2008E094F840000128EBD150
:1019600084F8402001E084F841200122206800F042
:1019700057FC0F492068884203D1426C42F4004270
:1019800042642068884208D0B0F1804F05D00949F0
:10199000884202D00849884204D1816801F00701D9
:1019A000062903D0016841F001010160002010BD4B
:1019B000002C0140000400400008004030B50446FF
:1019C0000D460068002200F02BFC174B41F211116C
:1019D00020688A10984209D1036A0B4206D1036A33
:1019E000134203D1436C23F4004343642068036A29
:1019F0000B4206D1016A114203D1016821F00101B5
:101A0000016001203DB1042D08D0082D09D084F8D3
:101A10004100002030BD84F83E00FAE784F83F0022
:101A2000F7E784F84000F4E7002C01407047704766
:101A3000F8B5016804460868CA684B6910F00F0FD2
:101A40004FF0000559D003F0010602F490773743B8
:101A500065D0C10705D0D10503D5616C41F0010106
:101A60006164410705D5D90703D0616C41F00201DB
:101A70006164810705D5D90703D0616C41F0040189
:101A80006164010707D502F02001314303D0616C86
:101A900041F008016164616C00293AD0800604D5E8
:101AA000900602D5204600F09AFC20684069616CDF
:101AB000C0F38010090700D460B3204600F068FC32
:101AC00020684069400621D52068143050E8001F86
:101AD00021F0400140E80012002AF5D1E06BA8B1E6
:101AE0006D494163E06BFEF779FF002811D0E06B90
:101AF000416B01B0BDE8F040084783060FD593065F
:101B00000DD52046BDE8F84000F069BC2046FFF73F
:101B10008EFFF8BD2046FFF78AFF6564F8BD266B8F
:101B20002023012E7CD1C6067AD5D60678D5086842
:101B30004868009048694FF00206400640D5E16BC6
:101B4000086840680004000CE8D0A28D8242E5D904
:101B5000E085886920282DD020680C3050E8001FCF
:101B600021F4807140E80012002AF5D12068143079
:101B700050E8001F21F0010140E80012002AF5D1D1
:101B80002068143050E8001F21F0400140E80012A6
:101B9000002AF5D184F84230256320680C3050E8E3
:101BA000001F21F0100140E80012002AF5D1E06B7F
:101BB000FEF7F0FE6663A08DE18D401A81B22AE047
:101BC000A08DE18D401A81B2E08D0028A6D00029B9
:101BD000A4D022680C3252E8000F20F4907042E842
:101BE0000007002FF5D12068143050E8002F22F0B4
:101BF000010240E80027002FF5D184F84230256328
:101C000020680C3050E8002F22F0100240E800233A
:101C1000002BF5D166632046FFF708FFF8BDFFE70C
:101C200005062BD5150629D594F841002128F5D1B4
:101C3000A068B0F5805F01D12069B0B1206A411C75
:101C40002162216800784860E08C401E0004000C8E
:101C5000E084E3D12068C16821F08001C160206880
:101C6000C16841F04001C160D8E7206A0088C0F334
:101C700008004860206A801C2062E5E74006CDD558
:101C80005006CBD5CA68204622F04002CA6084F8CC
:101C9000413000F093F8C1E78123000870B50400DB
:101CA00004D094F84100002510B106E0012070BD79
:101CB00084F84050204600F023F8242084F84100A6
:101CC0002068C16821F40051C160204600F0E8FBA3
:101CD0002068016921F4904101612068416921F087
:101CE0002A0141612068C16841F40051C160656406
:101CF000202084F8410084F842006563002070BD14
:101D000030B585B0002400940194029403940068D7
:101D1000184988422BD11848C16941F40031C1618A
:101D2000C16901F400310491816941F004018161CC
:101D30008069124D00F004000490042000900220FD
:101D400001900320039069462846FEF76BFF0820A8
:101D5000CDE90004694628460294FEF763FF00229D
:101D600011462620FFF7C4F82620FFF7B3F805B088
:101D700030BD000000440040001002400008014057
:101D800090F84230202B01D00220704721B11AB1C7
:101D90000023036300F0E0BB0120704700680449A2
:101DA000884204D1052203490348FFF7E9BF704781
:101DB0000044004078000020480100207047FEE702
:101DC00070B51A4C0025A07868B101280AD100200E
:101DD000FEF76CFB002805D00120FEF767FB00280A
:101DE00000D0A57070BD0020FEF760FB48B1012057
:101DF000FEF75CFB0028F5D121780120022908D0EC
:101E000008E02078032802D0607003200BE060789F
:101E100009E06178012902D021B1A07070BD607025
:101E2000257070BD6570207070BD000080000020BE
:101E3000FEB500242048009401941E4902940160DC
:101E40008915816004730475042505614FF46021D0
:101E50004460C161FEF7BEFC08B172B6FEE7012620
:101E6000CDE90046694614480294FEF7C5FB08B167
:101E700072B6FEE70220CDE9006069460E48FEF723
:101E8000BBFB08B172B6FEE70320CDE900506946FE
:101E90000948FEF7B1FB08B172B6FEE70520CDE9AF
:101EA000000569460448FEF7A7FB002801D072B67A
:101EB000FEE7FEBD00240140880000202DE9F0432C
:101EC00085B00024344800940194029403948169FD
:101ED00041F010018161816901F010010491816973
:101EE00041F020018161816901F020010491816943
:101EF00041F004018161816901F00401049181696B
:101F000041F0080181618069DFF8908000F00800ED
:101F1000049000224FF460414046FEF778FFDFF85E
:101F200080904FF47047002239464846FEF76FFF15
:101F30004FF400500125CDE900050220CDE9024013
:101F400069464046FEF76EFE4FF44040009001AAFD
:101F50001120032682E8610069464046FEF762FED2
:101F600000970396CDE9015469464846FEF75AFEAC
:101F70004FF410408DE8310069460A48FEF752FEE2
:101F80004FF450708DE8310069464846FEF74AFE2E
:101F900005B0BDE8F08300000010024000100140D1
:101FA000000C01400008014010B592B000240F94CD
:101FB0001C2168461094FEF7BEF8202107A8FEF702
:101FC000BAF82C482A4901604721C0E901141321BD
:101FD000C0E9031444618461FFF760FC08B172B684
:101FE000FEE70F940FA923481094FFF7D3FA08B126
:101FF00072B6FEE76020CDE90004029403940494D5
:102000000594002269461B480694FFF7E1FB08B1DE
:1020100072B6FEE7042269461648FFF7D9FB08B1FD
:1020200072B6FEE7082269461248FFF7D1FB08B1F5
:1020300072B6FEE70C2269460E48FFF7C9FB08B1ED
:1020400072B6FEE70794089409944FF400500A947E
:10205000CDE90B4007A907480E94FFF771FA08B1C4
:1020600072B6FEE70348FFF78DFB12B010BD00000B
:10207000002C0140B800002010B58CB02421684627
:10208000FEF759F800241548099413490A94C0E949
:1020900000144EF66021C0E9024104618461012010
:1020A000CDE90004CDE902040494CDE9054007948C
:1020B00069460A480894FFF7A1FA08B172B6FEE72C
:1020C000099409A905480A94FFF764FA002801D089
:1020D00072B6FEE70CB010BD000400400001002005
:1020E000FEE7FEE7074810B50521017006214170A3
:1020F00000210172FEF785F9BDE81040002101487A
:10210000FEF798B9D40100207047704710B5044815
:10211000FFF7C4FBBDE810403C210248FFF7EABAD4
:10212000B800002000010020FEF77CBE30B593B05F
:1021300028216846FDF7FFFF14210AA8FDF7FBFFE1
:10214000002501200F9510951195010412958DE839
:10215000230004904FF4E010CDE908100224079406
:102160006846FFF749F808B172B6FEE70AA90F20E2
:1021700081E831004FF48060CDE90D0502210AA805
:10218000FEF75EFF08B172B6FEE74FF40040119013
:102190000F940FA8FEF7DEFE002801D072B6FEE70E
:1021A00013B030BD70470000F0B50268194B1A4CEF
:1021B0001A4D4FF08047984205D0B84203D0A04254
:1021C00001D0A84203D122F070064A6832439842F7
:1021D00005D0B84203D0A04201D0A84203D122F4D6
:1021E0004074CA6822434C6922F080022243026094
:1021F0008A68C2620A688262984201D109690163F1
:10220000012141610169C90703D0016921F0010180
:102210000161F0BD002C01400004004000080040B6
:1022200010B501F01F030121046A99408C43046238
:10223000016A9A401143016210BD000030B5036A83
:10224000026A22F0010202624268846924F0730586
:102250000C682C4323F002058B682B430A4DA842DF
:102260000BD123F00805CB6822F440722B434D6953
:1022700023F0040315438A692A4342608461496854
:102280004163036230BD0000002C014030B5026A9A
:10229000036A23F010030362436884690D6824F421
:1022A000E64444EA05248D6822F0200242EA051241
:1022B0000B4DA8420ED1CD6822F0800242EA0512F1
:1022C0004D6923F4406343EA85038D6922F040029F
:1022D00043EA85034360846149688163026230BDDB
:1022E000002C014030B5036A026A22F48072026257
:1022F0004268C46923F4007324F073050C682C430E
:102300008D6843EA05230C4DA8420ED1CD6823F415
:10231000006343EA05234D6922F4405242EA051264
:102320008D6923F4806342EA05124260C461496802
:10233000C163036230BD0000002C014030B5046A67
:10234000026A22F4805202624268C3690D6823F473
:10235000E64343EA05238D6824F4005444EA053437
:10236000064DA84204D14D6922F4804242EA85120A
:102370004260C36149680164046230BD002C0140C1
:1023800010B5406A0021C185C184FFF750FB10BD24
:1023900001680C3151E8002F22F4907241E80023CB
:1023A000002BF5D10168143151E8002F22F0010211
:1023B00041E80023002BF5D1016B012909D1016807
:1023C0000C3151E8002F22F0100241E80023002BCD
:1023D000F5D1202180F8421000210163704708B533
:1023E00090F84210222901D0022008BD82684FF4E3
:1023F00080539A4201D1016921B1816A9A421BD06E
:102400004AB10AE00268816A5268C2F308020A808F
:10241000816A891C08E0026972B10268526802F0A0
:102420007F020A70816A491C8162C18D491E0904BC
:10243000090CC18503D01BE002685268F1E701680E
:10244000CA6822F02002CA600168CA6822F4807259
:10245000CA6001684A6922F001024A61202180F8BD
:10246000421000214163026B012A03D0FFF796FC62
:10247000002008BD016301680C3151E8002F22F0F3
:10248000100241E80023002BF5D101680A68D2064A
:1024900002D50A6849680091818DFFF7C7FAE7E71E
:1024A00070B5044600680169E26821F440511143A7
:1024B00001612169A0680843616908432168CA680D
:1024C00041F20C639A430243CA6020684169A269E1
:1024D00021F44071114341611E492068884202D1B4
:1024E000FEF754FE01E0FEF741FE00EBC00101EBF8
:1024F0000012606864218000B2FBF0F3B3FBF1F3DB
:102500006FF018067343B2FBF0F5B2FBF0F605EB83
:102510008305322303EB0515B5FBF1F5B6FBF1F6A8
:1025200005F0F00505EB0615B2FBF0F6B2FBF0F096
:10253000B0FBF1F06FF01802504306EB800003EBA4
:102540000010B0FBF1F0216800F00F002844886013
:1025500070BD00000038014081628285C285002183
:102560004164222180F84210016921B10168CA68E2
:1025700042F48072CA6001684A6942F001024A610D
:102580000068C16841F02001C16000207047000070
:102590000148FFF74DBA000048010020FEE7090797
:1025A000090E002804DB00F1E02080F800147047D9
:1025B00000F00F0000F1E02080F8141D704702E0E9
:1025C00008C8121F08C1002AFAD1704770470020BE
:1025D00001E001C1121F002AFBD1704708B5FEF7C8
:1025E00029FCFFF7A3FDFFF769FC1B48416941F097
:1025F000010141614069002200F001000090114694
:102600000B20FEF775FC0B20FEF764FCFFF710FCB7
:10261000FFF7CAFCFFF730FD114810490C2201609A
:102620004FF4E131416000218160C160C0E90412D2
:102630008161C161FFF732FB08B172B6FEE7FFF7B7
:1026400065FDFFF74FFDFDF7C3FF00BFFDF7D0FFAE
:10265000FDF78CFFFAE70000001002400044004044
:1026600048010020010202030405060708090A0BBD
:102670000C0D0E0F10100000000000000000010201
:10268000030406070809000000000102030400001B
:10269000B02600080000002088000000BE250008C9
:1026A000382700088800002058050000CE250008C3
:1026B00001000000100000000000000000127A007D
:1026C000B800002000000000B80000200400000056
:1026D000B800002008000000B80000200C00000036
:1026E00000080140001000000008014000800000C8
:1026F000000C014040000000000C014000010000FF
:10270000000C014000020000000C0140001000001D
:10271000000C014000200000000C014000400000BF
:10272000000C0140008000000000000000000000DC
:08273000000000000000484415
:04000005080000ED02
:00000001FF
