:020000040800F2
:10000000E005002005010008AF210008711B000871
:10001000AD210008EB0A0008592600080000000086
:10002000000000000000000000000000692300083C
:10003000850B000800000000B12100086B230008B8
:100040001F0100081F0100081F0100081F01000810
:100050001F0100081F0100081F0100081F01000800
:100060001F0100081F0100081F0100081F010008F0
:100070001F0100081F0100081F0100081F010008E0
:100080001F0100081F0100081F0100081F010008D0
:100090001F0100081F0100081F0100081F010008C0
:1000A0001F0100081F0100081F0100081F010008B0
:1000B0001F0100081F0100081F0100081F010008A0
:1000C0001F0100081F0100081F0100081F01000890
:1000D0001F0100081F0100081F0100081F01000880
:1000E0001F0100081F0100081F010008DFF810D0E1
:1000F00000F06CFC00480047193F0008AFF3008097
:10010000E00500200648804706480047FEE7FEE776
:10011000FEE7FEE7FEE7FEE7FEE7FEE7FEE7FEE7B7
:10012000E1230008ED0000082DE9F0410024061B42
:10013000254671F1000605DA01240027D0EB0700FF
:1001400067EB0101161E73F1000605DA0027D2EBFA
:100150000702012567EB030300F0B3FA86460E465B
:1001600017469C46AC4204D00025D0EB050E65EB4B
:10017000010624B10020D2EB000760EB030C7046AF
:1001800031463A466346BDE8F081202A04DB203A36
:1001900021FA02F00021704721FA02F3D040C2F1A7
:1001A00020029140084319467047D2B201E000F89E
:1001B000012B491EFBD270470022F6E710B513460B
:1001C0000A4604461946FFF7F0FF204610BD30B539
:1001D00004460020034600E05B1C934203D2E05C2F
:1001E000CD5C401BF8D030BDF0B480EA0102D40FE2
:1001F0004200B2EB410F02D20246084611464A00C5
:1002000042D0C30DDDB2C1F3C752AD1A202D35DA8D
:10021000C1F3160141F4000204B15242C5F12006B7
:1002200002FA06F12A411044B3EBD05F23D0C4B1E7
:10023000012DA0EBC35009DCF0BC4FF0004202EAF4
:10024000C352DBB200F5000000F096BA400000F1A6
:10025000807000EBC350A0F1807040EAD17049007B
:1002600009E0490841EAC071A0EBC35000F5000065
:10027000400800EBC350F0BC00F075BA61420122A7
:1002800002EB4101001BF6E7F0BC704781F0004132
:10029000AAE780F00040A7E780EA010210B502F06B
:1002A0000043400022D04A001FD0010E01EB126132
:1002B000C0F35600C2F3560240F4000042F40002BC
:1002C000A0FB022000047F39140400D0401C50EA37
:1002D000124001D44000491EC2B20C0604EBD010FB
:1002E000401C4008802A02D003E0002010BD20F00E
:1002F0000100002900DA0020184310BD30B480EA64
:10030000010202F0004530F0004221F0004013D01D
:1003100090B1C30DD40DC2F31601C0F31600E41A58
:1003200041F4000140F400027D34914201D3641C89
:1003300000E04900002C02DA30BC002070474FF486
:1003400000000023914201D3891A034340084FEA79
:100350004101F7D151B1914202D14FF0004105E086
:1003600002D24FF0010101E06FF0010103EBC45034
:10037000284430BC00F0F7B9420005D0C0F3C752A2
:100380005242914201DC0020704700EBC15070479F
:100390002DE9FE4F804681EA0300C00F0C46009015
:1003A00021F0004123F00045B8EB0200A94105D23D
:1003B0004046214690461C460B46024623F000402C
:1003C000104347D0270DC7F30A00C3F30A51029028
:1003D000401A019040286BDAC3F3130040F4801BED
:1003E0000098924620B10023D2EB030A63EB0B0B7B
:1003F00001985946C0F14002504600F093F9064674
:100400000D4650465946019A00F09BF910EB080042
:100410006141002487EA115284EAE7731A4340D00D
:10042000009A62B3019A012A4FEA075215DC001BB9
:1004300061EB02014FF0004202EA0752CDE90042AF
:10044000001C41F5801132462B4600F0D2F903B072
:10045000BDE8F08F40462146F9E7001B61EB020141
:10046000001C41F5801300185B412018A2F500170D
:1004700047EB030140EAD570B6196D4111E06D08F4
:100480004FEA360645EAC0754FEA0752001B61EB9A
:100490000201001C41F5801149084FEA30000019A3
:1004A000514132462B4603B0BDE8F04F00F092B9FF
:1004B0000098012240000023D0EB020263EBE073BE
:1004C000009821464FEAE074B8EB000061EB0401AC
:1004D000E9E783F000435BE781F0004158E72DE94D
:1004E000FE4F81EA030404F0004421F0004100942F
:1004F0004FF0000B23F0004350EA01045ED052EAB3
:1005000003045BD0C3F30A54C1F30A552C44A4F28C
:10051000F3340194A0FB0254C1F3130141F48011A0
:10052000C3F3130343F4801301FB024400FB034EA7
:10053000840A970A44EA815447EA8357A4FB076870
:1005400002958D0A05FB07854FEA932C04FB0C549A
:100550002705029D4FEA065847EA1637B5EB08050E
:100560006EEB070C870E920E47EA811742EA831260
:10057000A7FB0201B6EB0B0164EB00042B0D43EA71
:100580000C335E1844EB1C50DA465146E7FB02017F
:10059000C5F313044FEA0B3343EA14534FEA043212
:1005A000019C43EA0603A4F10C040294009CCDE9EB
:1005B00000B400F01EF903B0BDE8F08F0020014642
:1005C000F9E7C10F80EAE0700844CA0796230021CA
:1005D00000F0D2B896230022114600F0CDB800F00A
:1005E000004220F00040C10DC0F3160040F40000AE
:1005F0007F2901DA00207047962903DCC1F19601BA
:10060000C84001E096398840002AF4D04042704743
:1006100020F00040C10DC0F3160040F400007F2917
:1006200001DA00207047962903DCC1F19601C84029
:10063000704796398840704700F0004230F0004023
:100640000AD0C10D01F56071C0F3160042EA0151F4
:10065000C20840071143704700200146704701F06F
:10066000004330B421F0004150EA010206D00A0DE7
:10067000A2F56072C1F31301002A02DC30BC002035
:100680007047440F44EAC104C100E01830BC00EBDD
:10069000C25000F068B830B50B4601460020202259
:1006A000012409E021FA02F59D4205D303FA02F57F
:1006B000491B04FA02F52844151EA2F10102F1DCDF
:1006C00030BD2DE9F05F0546002092469B468846E6
:1006D0000646814640241BE02846414647462246BE
:1006E000FFF753FD53465A46C01A914110D31146A5
:1006F0001846224600F016F82D1A67EB01084F46FF
:1007000022460120002100F00DF817EB00094E41B0
:10071000201EA4F10104DFDC484631462A46434648
:10072000BDE8F09F202A04DB203A00FA02F1002005
:1007300070479140C2F1200320FA03F3194390401F
:100740007047202A06DBCB17203A41FA02F043EA31
:10075000E07306E041FA02F3D040C2F1200291407A
:100760000843194670470029A8BF7047401C49003C
:1007700008BF20F00100704710B4B0FA80FC00FA06
:100780000CF050EA010404BF10BC704749B1CCF131
:10079000200421FA04F411FA0CF118BF01212143BD
:1007A0000843A3EB0C01CB1D4FEA00614FEA102078
:1007B00042BF002010BC704700EBC350104400291A
:1007C000A4BF10BC7047401C490008BF20F00100C6
:1007D00010BC704710B5141E73F1000408DA401CF9
:1007E00041F1000192185B411A4301D120F0010050
:1007F00010BD2DE9F04D92469B4611B1B1FA81F240
:1008000002E0B0FA80F220329046FFF78BFF0446F8
:100810000F4640EA0A0041EA0B0153465A46084394
:1008200013D0114653EA010019D0C8F140025046D6
:10083000FFF7ABFC05460E46504659464246FFF7C9
:1008400071FF084305D0012004E020463946BDE889
:10085000F08D0020054346EAE0762C4337430A98A2
:100860006305E40AA0EB08000022FD0A44EA4754AD
:100870000A3002D500200146E9E701051019694157
:10088000DDE9084500196941BDE8F04DA2E72DE911
:10089000F04D81EA030404F0004B21F000451446BA
:1008A0004FF0000A23F0004150EA050220D054EA3C
:1008B00001021DD0C5F30A570246C5F31303C1F365
:1008C0001300C1F30A5640F4801543F48013A7EBDC
:1008D0000608101BD64608F2FD3873EB050002D35C
:1008E00008F1010801E092185B41B8F1000F03DA4A
:1008F00000200146BDE8F08D00204FF4801106462F
:1009000084460EE0171B73EB050705D3121B63EB40
:10091000050306434CEA010C49084FEA30009218DF
:100920005B4150EA0107EDD152EA030012D082EA9E
:10093000040083EA0501084305D0101BAB4106D231
:100940000122002306E000224FF0004302E06FF096
:10095000010253101AEB06004CEB085110EB0A0091
:1009600041EB0B01BDE8F04DFFF734BF70B521F04E
:10097000004303430CD0C1F30A550024D5EB040512
:1009800064EB0403D617AD1AB34102DB0020014625
:1009900070BD201841EB025170BD000030B5041E3F
:1009A00071F1000404DB4FF00044404264EB0101AC
:1009B000141E73F1000405DB1C464FF00043524245
:1009C00063EB04038B4208BF824230BD064C074DE7
:1009D00006E0E06840F0010394E80700984710340F
:1009E000AC42F6D3FFF786FB705A0008905A000815
:1009F0002DE9F04D00231A461B1A8A4103DB002023
:100A00000146BDE8F08DC1F30A52C1F3130141F470
:100A100080154FF0000BD10702D100186D41521E16
:100A20000027044640F2FF11384601EB620A3E46B9
:100A30008046024600204FF48011FFF7A6FBC21942
:100A40007141BB1846EB0100B4EB030C75EB000CD5
:100A500004D3E41A65EB000517460E46241908F185
:100A600001006D4180463428E3DDF91946EB0600AC
:100A7000091BA84103D24FF0FF32134601E00022C8
:100A800013461BEB070046EB0A51BDE8F04DFFF79C
:100A9000A1BE000070B5044600688168C943C9075B
:100AA00017D1816821F00101816000F0ADFA05469F
:100AB0000AE000BF00F0A8FA401B022804D9206811
:100AC0008068C043C00706D020688068C043C00764
:100AD000F0D0002070BDA06A40F01000A062E06A73
:100AE00040F00100E062012070BDFEE738B5002053
:100AF00000906B4601227521682003F087F99DF86C
:100B0000000068280CD0BFF34F8F1B4801681B4AB8
:100B100001F4E06111430160BFF34F8F00BFFDE7B7
:100B200003F0F6FA782003F0B1FF782003F022FA00
:100B3000C82003F06BFF02F0B1FB1148044603F03C
:100B4000C7F90546E01C03F0C3F945EAC005A01D3E
:100B500003F0BEF945EA801080B202F05FFD40F27A
:100B6000731002F073FAC82002F0C0FC04F015F80C
:100B7000012003F071FE38BD0CED00E00400FA0521
:100B80006800002070470000F8B50024009490F839
:100B900024202546012A12D0012280F824204A6808
:100BA0001F23072A0DD20668776B521E02EB8202C2
:100BB00093409F430B6893401F43776319E00220E3
:100BC000F8BD06680D2A0AD2376BD21F02EB8202EB
:100BD00093409F430B6893401F43376309E0F76AD4
:100BE0000D3A02EB820293409F430B6893401F43F0
:100BF000F7620A68072306680A2A0AD3F7680A3ADE
:100C000002EB420293409F438B6893401F43F7607F
:100C100008E0376902EB420293409F438B689340A0
:100C20001F4337610A68102A01D0112A20D1124BC4
:100C300002689A4217D193681B0219D4936843F44F
:100C4000000393600968102912D10C490C4A096805
:100C5000B1FBF2F101EB8101490000E0491E009176
:100C60000029FBD104E0816A41F020018162012466
:100C700080F824502046F8BD002401400C000020DC
:100C800040420F002DE9F0414FF0000704003D46BF
:100C90007ED0A06A002628B9E66284F82460204647
:100CA00000F07EF82046FFF7F5FEA16AC90600D4E1
:100CB00020B1A06A40F01000A06269E0A16A21F4AE
:100CC000885141F00201A1626268E169237B0A4315
:100CD00047EA43010A43A1684FF48077B94209D03B
:100CE000012907D05FF0000194F814C0BCF1010F96
:100CF00002D00AE03946F7E7F3B1A36A43F02003D4
:100D0000A362E36A43F00103E3622368D3F804C0FB
:100D10002CF4694C4CEA010CC3F804C021688B68C0
:100D2000DFF870C003EA0C0313438B60A168B9427B
:100D30000BD0012909D00CE0DFF85CC0A3690CEBF3
:100D400043330B4343F40061DFE7218A0D05A5F52A
:100D500080152168CB6A23F470032B43CB62216892
:100D600089680E4B1940914208D1E662A16A21F0D0
:100D7000020141F00101A162BDE8F081A06A20F00A
:100D8000020040F01000A062E06A40F00100E06262
:100D90000120F1E7FDF7E1FF00E0FFFFFE0E1FFF7E
:100DA00000B585B000210091019102910391006886
:100DB0000E49884218D10E48816941F40071816161
:100DC000816901F400710491816941F0040181613C
:100DD0008069694600F004000490332000900320ED
:100DE0000190044800F01AF805B000BD002401404D
:100DF000001002400008014070B5044600F004F9FC
:100E00000546601C02D004480078044400F0FCF859
:100E1000401BA042FAD370BD000000202DE9F84F1E
:100E2000DFF8B8910024A9F1040B23460F2709F13C
:100E3000040AABF1040EC9E00125A5402A40AA42EC
:100E40007DD1674ED1F804C0ACEB0608B44532D072
:100E500014DCBCF1030F3AD009DCBCF1000F2AD03E
:100E6000BCF1010F1CD0BCF1020F31D11DE0BCF16F
:100E7000110F17D0BCF1120F2AD119E0B8F5881F55
:100E800019D006DCB8F5803F15D0B8F5801F1FD10A
:100E900011E0B8F5001F0ED0B8F5041F18D10AE014
:100EA000CB6815E0CB681B1D12E0CB6808330FE060
:100EB000CB680C330CE08B682BB1012B4FF008038F
:100EC00003D0456104E0042302E0056100E0002353
:100ED000FF2A01D8064601E000F104064FEA840526
:100EE00001D9A5F12005D6F8008007FA05FC28EA0B
:100EF0000C0803FA05F548EA0508C6F800804D68B5
:100F0000ED0062D5374DAE6946F00106AE61AD69C0
:100F100024F0030605F001050095334D06EB050CA2
:100F2000DCF80850A607360F07FA06F825EA080588
:100F3000DFF8B880404503D14FF0000817E044E0E7
:100F4000DFF8AC80404502D14FF001080FE0DFF838
:100F5000A480404502D14FF0020808E0DFF89880F5
:100F6000404502D14FF0030801E04FF0040808FAB1
:100F700006F848EA0508CCF808804D68D9F8006002
:100F8000ED024D4601D5164300E096432E604D68B4
:100F9000DAF80060AD02554601D5164300E09643ED
:100FA0002E604D68DBF80060AD035D4601D5164349
:100FB00000E096432E604D68DEF80060ED03754654
:100FC00001D5164300E096432E60641C0D682A4646
:100FD000E5407FF431AFBDE8F88F00000804014020
:100FE0000000111000100240000001400008014004
:100FF000000C014000100140001401400AB10161E1
:1010000070470904FBE70000014880687047000052
:101010000000002002488168027811448160704716
:1010200000000020074810B5016841F01001016080
:10103000032000F067F8002000F006F800F024F824
:10104000002010BD0020024070B50D4D04464FF445
:101050007A712878B1FBF0F00A490968B1FBF0F029
:1010600000F044FB48B9102C07D200222146501E44
:1010700000F028F800206C6070BD012070BD0000F9
:10108000000000200C0000200C4808B5816941F0E8
:1010900001018161816901F001010091C16941F0A3
:1010A0008051C161C06900F08050009004484168DF
:1010B00021F0E06141F00071416008BD0010024084
:1010C00000000140F0B40E4B1B680C46C3F3022332
:1010D000C3F10705042D00D90425191D072901D2E4
:1010E000002300E0DB1E012606FA05F1491E21401F
:1010F00099409E40761E16403143F0BC01F0D2BAB2
:101100000CED00E0064900F0070208684FF6FF0307
:10111000184040EA0220034A10430860704700006C
:101120000CED00E00000FA052DE9F84305460078D3
:10113000354CC00754D0E0690026C00008D4E069EF
:1011400040F08050E061E069012600F0805000909E
:101150002E480168C90512D40168804641F48071A7
:101160000160FFF751FF074605E000BFFFF74CFFA6
:10117000C01B642823D8D8F80000C005F6D5206A23
:1011800010F4407021D0A98801F4407181421CD034
:10119000206A1F49012220F440700A6000220A6080
:1011A0002062C00711D0FFF72FFF074641F28838B1
:1011B00008E000BFFFF728FFC11B414502D903200B
:1011C000BDE8F883206A8007F4D5206A696820F4B6
:1011D0004070084320621EB1E06920F08050E06159
:1011E0002878800705D56068A96820F44040084346
:1011F00060602878C00605D56068E96820F4800042
:10120000084360600020DBE70010024000700040EF
:10121000400442422DE9F0470F46050061D0434E9D
:10122000306800F00700B84209D2306820F00700AB
:1012300038433060306800F00700B84251D1286868
:101240003B4C810712D5400703D5606840F4E0604D
:1012500060602878000703D5606840F460506060E3
:101260006068A96820F0F000084360602878C00733
:1012700028D06868012810D02168022810D089077A
:1012800000292EDA616821F0030101436160FFF754
:10129000BBFE804641F288390DE021688903EFE703
:1012A0008901EDE7FFF7B0FEA0EB0801494502D93F
:1012B0000320BDE8F0876068696800F00C00B0EBBF
:1012C000810FEFD1306800F00700B8420BD93068C9
:1012D00020F0070038433060306800F00700B84263
:1012E00001D00120E5E72878400705D56068E96866
:1012F00020F4E060084360602878000706D5606845
:10130000296920F4605040EAC100606000F038F8BC
:101310006168084AC1F30311515CC840064908607E
:1013200006480068FFF790FE0020C2E70020024058
:1013300000100240CA4C00080C00002004000020ED
:101340000448054900684968044AC1F30221515C18
:10135000C84070470C00002000100240DA4C000822
:101360000448054900684968044AC1F3C221515C38
:10137000C84070470C00002000100240DA4C000802
:101380000E4A51680E4801F00C03042B11D0082BB3
:101390000FD10C48C1F38343C903C05C0AD551681F
:1013A000084AC1F34041921E515C054A5043B0FBCC
:1013B000F1F07047044948437047000000100240B4
:1013C00000127A00BA4C000800093D002DE9F84FE0
:1013D000040070D02078C04DC00749D06868C0F3C1
:1013E0008100012807D06868C0F38100022809D174
:1013F0006868C00306D52868800339D5606800286E
:10140000E7D035E06068B0F5803F0BD010B1B0F5A3
:10141000A02F11D0286820F480302860286820F49C
:10142000802002E0286840F480302860606890B135
:10143000FFF7EAFD06460AE0286840F480202860AD
:10144000F0E700BFFFF7E0FD801B642873D8286831
:101450008003F7D50CE0FFF7D7FD064605E000BF97
:10146000FFF7D2FD801B6428F0D828688003F7D4EA
:1014700020789A4E80074FF001094FF0000839D5C7
:10148000686810F00C0F07D06868C0F3810002286C
:1014900009D16868C00306D42868800714D520697C
:1014A000012808D110E02069B0B1C6F80090FFF71C
:1014B000ABFD074605E00AE1FFF7A6FDC01B0228C9
:1014C000C4D828688007F7D52868616920F0F8003B
:1014D00040EAC10028600DE0C6F80080FFF794FDE7
:1014E000074604E0FFF790FDC01B022823D82868B8
:1014F0008007F7D4207800072CD57948A169D9B1A5
:10150000C0F80090FFF780FD074604E0FFF77CFD80
:10151000C01B02280FD8686A8007F7D571484FF4BE
:10152000FA510068B0FBF1F0009000BF0098411E36
:101530000091FAD20EE080E0C0F80080FFF764FD71
:10154000074604E0FFF760FDC01B022875D8686AF3
:101550008007F7D42078400760D5E8690027C000ED
:1015600008D4E86940F08050E861E869012700F09C
:10157000805000905C480168C90513D40168834617
:1015800041F480710160FFF73FFD824606E000BF35
:10159000FFF73AFDA0EB0A0064284ED8DBF8000004
:1015A000C005F5D5E06801280AD008B1052813D098
:1015B000286A20F001002862286A20F0040002E076
:1015C000286A40F001002862E06841F2883B98B147
:1015D000FFF71AFD82460BE0286A40F004002862FB
:1015E000EEE700BFFFF710FDA0EB0A0159455AD8FE
:1015F000286A8007F6D50CE0FFF706FD824605E075
:10160000FFF702FDA0EB0A0159454CD8286A800774
:10161000F6D41FB1E86920F08050E861E06988B332
:101620006968C1F38101022944D00228C6F86080AC
:1016300004D0FFF7E9FC044638E034E0FFF7E4FCAF
:10164000074604E0FFF7E0FCC01B02282BD82868FF
:101650008001F7D4206AB0F5803F05D16868A168A1
:1016600020F4003008436860D4E908010843696841
:1016700021F4741108436860C6F86090FFF7C4FC59
:10168000044606E025E000BFFFF7BEFC001B022871
:1016900009D828688001F7D51BE000BFFFF7B4FC2C
:1016A000001B022802D90320BDE8F88F28688001BA
:1016B000F4D40EE00128F7D06868226A00F4803183
:1016C000914204D1616A00F47010884201D0012077
:1016D000EAE70020E8E70000001002400000424274
:1016E000800442420C0000200070004010B5401EF3
:1016F000B0F1807F01D3012010BD4FF0E024606184
:101700000F21601700F0CEFF0020A06107202061AC
:10171000002010BD10B590F83C20012A22D00122F3
:1017200080F83C20CA688C6822F4407222434C68DE
:1017300022F4806222430C6822F4006222430C6986
:1017400022F4805222434C6922F400522243C96998
:10175000002322F480420A4301684A6480F83C3046
:10176000002010BD022010BD70B590F83C20012A69
:1017700026D0012480F83C40022280F83D200368F6
:101780005A689D6822F070060A6832435A600D4B11
:1017900002689A4208D0B2F1804F05D00A4B9A42B3
:1017A00002D00A4B9A4204D1496825F080031943BC
:1017B000916080F83D40002180F83C10084670BDE3
:1017C000022070BD002C01400004004000080040D1
:1017D0002DE9F0410D46040003D094F83D0018B106
:1017E00008E00120BDE8F081002084F83C0020469C
:1017F00000F040F8022084F83D002068816844F23F
:10180000070291438160211D206800F0EBFD2268F2
:1018100090689169166A2B68AF69034340F2033000
:10182000814341EA0721A868EF6908434FF6FC416C
:101830008843E96840EA0720014328692F6A0001CC
:1018400040EA0730084369686D6926F0220646EAD7
:101850000515294393602268906154F8460B016294
:10186000012004F81F09E0752076E0762077A07546
:101870000020B7E700B585B00021009101910291E9
:1018800003911A4B02681A48C0219A4213D1C269C7
:1018900042F00202C261C26902F00202049282694D
:1018A00042F0040282618069009100F0040004901B
:1018B0006946104815E0104B9A4214D1C26942F0B3
:1018C0000402C261C26902F004020492826942F019
:1018D000080282618069009100F008000490694666
:1018E0000648FFF79BFA05B000BD00000004004069
:1018F000001002400008014000080040000C0140B8
:1019000000B585B00021009101910291039100681A
:101910000B49884212D10B48816941F00401816171
:101920008069694600F0040004904FF470600090F4
:101930000220019003900448FFF770FA05B000BD43
:10194000002C0140001002400008014070B5044620
:1019500090F83C0000260D4601280FD0012084F8A5
:101960003C006AB1042A1DD0082A2FD00C2A3FD08F
:101970000126002084F83C00304670BD022070BD76
:10198000206800F06BFD2068816941F008018161E9
:101990002068816921F004018161206881692A69D8
:1019A000114311E0206800F081FD2068816941F455
:1019B000006181612068816921F480618161206812
:1019C00081692A6941EA02218161D2E7206800F039
:1019D00099FD2068C16941F00801C1612068C169B1
:1019E00021F00401C1612068C1692A69114311E035
:1019F000206800F0B3FD2068C16941F40061C16155
:101A00002068C16921F48061C1612068C1692A69C7
:101A100041EA0221C161ACE710B5040003D094F89B
:101A20003D0010B107E0012010BD002084F83C000B
:101A3000204600F01FF8022084F83D00211D206898
:101A400000F0D0FC012084F8460084F83E0084F8C1
:101A50003F0084F8400084F8410084F8420084F894
:101A6000430084F8440084F8450084F83D000020D9
:101A700010BD000008B500680649884208D1064834
:101A8000816941F400618161806900F40060009027
:101A900008BD0000002C01400010024070B5040099
:101AA00004D094F84100002510B106E0012070BD7B
:101AB00084F84050204600F023F8242084F84100A8
:101AC0002068C16821F40051C160204600F068FD23
:101AD0002068016921F4904101612068416921F089
:101AE0002A0141612068C16841F40051C160656408
:101AF000202084F8410084F842006563002070BD16
:101B000030B585B0002400940194029403940068D9
:101B10001449884223D11448C16941F40031C1619C
:101B2000C16901F400310491816941F004018161CE
:101B300080690E4D00F00400049004200090022003
:101B400001900320039069462846FFF767F90820B3
:101B5000CDE90004694628460294FFF75FF905B015
:101B600030BD000000440040001002400008014069
:101B7000FEE770B50D46044600F0C0F8204600F0C0
:101B80008DF800F003F9284600F088F800F0FEF820
:101B900000F0B4F8641CE0B200F080F800F0F6F851
:101BA000002000F045F8044600F0D0F8204670BD53
:101BB00070B50D4C0025C4F8A0510C48016821F007
:101BC000F0010160016841F030010160C4F8A451E6
:101BD000012004F5D07401F0F3F90120206001F038
:101BE000EFF9256070BD000000802142040C014027
:101BF00070B50D4C0025C4F8A0510C48016821F0C7
:101C0000F0010160016841F0300101600126C4F873
:101C1000A461304604F5D07401F0D2F926600120A9
:101C200001F0CEF9256070BD00802142040C014016
:101C30002DE9F047814617480024016821F0F001A2
:101C40000160016841F080010160134E254627467E
:101C50004FF00108C6F8A071022001F0B1F9C6F8F2
:101C6000A0816006040ED6F8240108B1641CE4B219
:101C7000022001F0A5F96D1CEDB2082DEAD3B9F1EF
:101C8000000F02D0FFF794FF01E0FFF7B1FF2046FD
:101C9000BDE8F087040C0140008021422DE9F041AD
:101CA00006461448016821F0F0010160016841F026
:101CB00030010160104C0027C4F8A0713D464FF080
:101CC0000108F009C4F8A4017006060E012001F015
:101CD00077F9C4F8A081012001F072F9C4F8A0716D
:101CE000012001F06DF96D1CEDB2082DE9D3BDE8BE
:101CF000F0810000040C01400080214270B51148C1
:101D0000016821F0F0010160016841F030010160DB
:101D10000D4C0120C4F8A401D4F8241149B1C4F831
:101D2000A00101F04DF90025C4F8A451D4F8240114
:101D300008B1002070BD012001F042F9C4F8A051A3
:101D4000012070BD040C0140008021420D4810B5F7
:101D5000016821F0F0010160016841F0300101608B
:101D6000094C0020C4F8A001C4F8A401012004F526
:101D7000D07401F025F9012020606060BDE81040BA
:101D800001F01EB9040C01400080214270B51348D7
:101D90000024016821F0F0010160016841F0800138
:101DA00001600F4D0126C5F8A461304601F008F925
:101DB000C5F8A06107E0641CE4B2322C03D9FFF738
:101DC000C5FF002070BD012001F0FAF8D5F824010C
:101DD0000028F0D1C5F8A001012070BD040C01401D
:101DE0000080214210B51446FFF7C3FE2070012089
:101DF00010BDF8B515461C460E4607466A46FFF765
:101E0000F1FF01209DF80010A8400CB1084301E04B
:101E100021EA0000C2B28DF800203146384600F0B9
:101E20002BF8F8BD2DE9F84314461D460F468046B1
:101E30006A46089EFFF7D6FF00281BD0611CFF20D2
:101E4000C4F1080200FA01F12A44521ED0400143B5
:101E5000C5F108008640F2B2C4F10700C2409DF807
:101E60000000084010438DF80000C2B239464046D9
:101E700000F002F8BDE8F88307B502AB012200F0DC
:101E800001F80EBD2DE9F0411E461546884607466D
:101E90000024FFF733FF3846FFF700FFFFF776FF18
:101EA0004046FFF7FBFEFFF771FF06E0305DFFF7EE
:101EB000F5FEFFF76BFF641CE4B2AC42F6D3FFF70C
:101EC00045FF0120BDE8F08110B5022000F011F8B7
:101ED000032000F020F8002000F014F8002000F0AB
:101EE0002FF8002000F026F8BDE81040002000F098
:101EF0001BB808B50323009002226B21D020FFF706
:101F000091FF08BD08B50223009004221C21D020B7
:101F1000FFF788FF08BD08B50223009004221B21AB
:101F2000D020FFF77FFF08BD034601223721D020D4
:101F3000FFF75FBF034605226A21D020FFF759BF94
:101F4000034606226B21D020FFF753BF3EB5002485
:101F500010480094019402940D4984600160047358
:101F60000475012505614FF460214460C161FEF7ED
:101F700089FE08B172B6FEE7CDE90045694605481D
:101F80000294FEF701FE002801D072B6FEE73EBDC6
:101F9000002401407C00002030B585B00020009076
:101FA0000190029003901748816941F020018161FE
:101FB000816901F020010491816941F0040181618E
:101FC000816901F004010491816941F00801816196
:101FD00080690D4D00F008004FF440740490002219
:101FE00021462846FFF70AF81120CDE900400120DC
:101FF00002900320039069462846FEF70FFF05B0C4
:1020000030BD000000100240000C014010B592B03D
:1020100000240F941C2168461094FEF7CDF820216F
:1020200007A8FEF7C9F82C482A49C0E900144FF662
:10203000FF71C0E90241046144618461FFF7ECFC77
:1020400008B172B6FEE70F940FA923481094FFF76A
:102050008BFB08B172B6FEE76020CDE90004029464
:10206000039404940594002269461B480694FFF7E4
:102070006DFC08B172B6FEE7042269461648FFF708
:1020800065FC08B172B6FEE7082269461248FFF700
:102090005DFC08B172B6FEE70C2269460E48FFF7F8
:1020A00055FC08B172B6FEE70794089409944FF402
:1020B00000500A94CDE90B4007A907480E94FFF79A
:1020C00029FB08B172B6FEE70348FFF719FC12B00E
:1020D00010BD0000002C0140AC00002010B58CB0F9
:1020E00024216846FEF768F800241548099413492E
:1020F0000A94C0E900144FF6FF71C0E9024104617F
:1021000084610120CDE90004CDE902040494CDE905
:102110000540079469460A480894FFF759FB08B13F
:1021200072B6FEE7099409A905480A94FFF71CFB5B
:10213000002801D072B6FEE70CB010BD00040040CC
:10214000F400002010B58CB024216846FEF734F866
:1021500000241548099413490A94C0E900144FF665
:10216000FF71C0E90241046184610120CDE90004EE
:10217000CDE902040494CDE90540079469460A4874
:102180000894FFF725FB08B172B6FEE7099409A988
:1021900005480A94FFF7E8FA002801D072B6FEE776
:1021A0000CB010BD000800403C010020FEE7FEE737
:1021B000704700002DE9F04F89B0694C07AD6849C0
:1021C00006AB263102AA881FCDE9004501F070F860
:1021D0000028F4D12088C0057ED50298FEF7F1F9D9
:1021E0006FF01D063146FEF7C7F880466060039821
:1021F000FEF7E7F93146FEF7BFF80746A0600498FE
:10220000FEF7DFF93146FEF7B7F80546E0600598BE
:10221000FEF7D7F93146FEF7AFF8064620610121F7
:102220004046FEF7A9F82946FEF736F805464FF076
:10223000404841463846FEF72FF83146FEF72CF865
:102240002946FDF7D1FFFEF7F7F900F0A3FBDFF811
:1022500014A14FF066394A465346FEF740F9FEF79F
:10226000FEF96061E06801210546FEF785F88346C6
:102270002946FEF711F80546A06841460646FEF7D6
:102280000BF83146FEF708F82946FDF7FFFF4FF03F
:102290007E51FDF7A9FFFEF7CFF907460D46012154
:1022A0006068FEF769F83146FDF7F6FF06465846C6
:1022B0002169FDF7F1FF3146FDF796FFFEF7BCF906
:1022C0003A462B4600F0AEFD4A465346FEF707F964
:1022D000FEF7C5F9A06100E03FE0216901910846E1
:1022E000FDF7DAFFE168074608460091FDF7D4FFE5
:1022F000A16806468B465846FDF7CEFF6168054645
:1023000088464046FDF7C8FF2946FDF76DFF314678
:10231000FDF7BCFF3946FDF7B9FFFEF78DF906461C
:102320000D4640460199FDF7B7FF0746584600990C
:10233000FDF7B2FF3946FDF757FF0121FEF71CF804
:10234000FEF77AF932462B4600F06CFD4A465346BA
:10235000FEF7C5F8FEF783F9E06109B0BDE8F08F3C
:102360003C00002066A64C407047FEF753BE30B5D7
:1023700093B028216846FDF71FFF14210AA8FDF736
:102380001BFF0024012108040F941094129404915F
:10239000CDE90010CDE908041194029402250795B7
:1023A0006846FFF713F808B172B6FEE70F20CDE9D3
:1023B0000A054FF48060CDE90C4000210AA80E9474
:1023C000FEF728FF08B172B6FEE70FA80F9511942B
:1023D000FEF7AAFE002801D072B6FEE713B030BDAA
:1023E00070470000F0B50268194B1A4C1A4D4FF0B7
:1023F0008047984205D0B84203D0A04201D0A842FD
:1024000003D122F070064A683243984205D0B842A0
:1024100003D0A04201D0A84203D122F44074CA687C
:1024200022434C6922F08002224302608A68C26221
:102430000A688262984201D1096901630121416100
:102440000169C90703D0016921F001010161F0BDF3
:10245000002C0140000400400008004030B5036A31
:10246000026A22F0010202624268846924F0730564
:102470000C682C4323F002058B682B430A4DA842BD
:102480000BD123F00805CB6822F440722B434D6931
:1024900023F0040315438A692A4342608461496832
:1024A0004163036230BD0000002C014030B5026A78
:1024B000036A23F010030362436884690D6824F4FF
:1024C000E64444EA05248D6822F0200242EA05121F
:1024D0000B4DA8420ED1CD6822F0800242EA0512CF
:1024E0004D6923F4406343EA85038D6922F040027D
:1024F00043EA85034360846149688163026230BDB9
:10250000002C014030B5036A026A22F48072026234
:102510004268C46923F4007324F073050C682C43EB
:102520008D6843EA05230C4DA8420ED1CD6823F4F3
:10253000006343EA05234D6922F4405242EA051242
:102540008D6923F4806342EA05124260C4614968E0
:10255000C163036230BD0000002C014030B5046A45
:10256000026A22F4805202624268C3690D6823F451
:10257000E64343EA05238D6824F4005444EA053415
:10258000064DA84204D14D6922F4804242EA8512E8
:102590004260C36149680164046230BD002C01409F
:1025A00070B5044600680169E26821F440511143A6
:1025B00001612169A0680843616908432168CA680C
:1025C00041F20C639A430243CA6020684169A269E0
:1025D00021F44071114341611E492068884202D1B3
:1025E000FEF7BEFE01E0FEF7ABFE00EBC00101EB23
:1025F0000012606864218000B2FBF0F3B3FBF1F3DA
:102600006FF018067343B2FBF0F5B2FBF0F605EB82
:102610008305322303EB0515B5FBF1F5B6FBF1F6A7
:1026200005F0F00505EB0615B2FBF0F6B2FBF0F095
:10263000B0FBF1F06FF01802504306EB800003EBA3
:102640000010B0FBF1F0216800F00F002844886012
:1026500070BD000000380140FEE700000FB4054BDC
:1026600010B503A9044A029800F0AAF810BC5DF85E
:1026700014FB00006539000874000020490050EA8E
:10268000C12018BF04204A0D18BF40F0010040F2DD
:10269000FF72B2EB515F08BF40F00200012808BF93
:1026A000052070470907090E002804DB00F1E0202F
:1026B00080F80014704700F00F0000F1E02080F86F
:1026C000141D70472DE9F0414F1E00EBC701044671
:1026D000D1E9000115461E4637F006020DD02A4604
:1026E0003346FDF7FCFE7F1E04EBC703D3E900234E
:1026F000FDF74EFE37F00602F1D1022F25D0042F50
:1027000013D0062F18BFBDE8F0812A463346FDF7E7
:10271000E6FED4E90A23FDF73BFE2A463346FDF7E1
:10272000DEFED4E90823FDF733FE2A463346FDF7E3
:10273000D6FED4E90623FDF72BFE2A463346FDF7E5
:10274000CEFED4E90423FDF723FE2A463346FDF7E7
:10275000C6FED4E90223FDF71BFE2A463346FDF7E9
:10276000BEFED4E90023BDE8F041FDF711BE012211
:10277000FEF7FCB8FDF70CBE0022134610461146CA
:10278000FEF785B8024A00201107FEF7EFB80000F7
:1027900001FDFFFF02E008C8121F08C1002AFAD19C
:1027A00070477047002001E001C1121F002AFBD1D1
:1027B0007047000001490860704700007800002061
:1027C0002DE9FF4F89B09B460446002506E02528E9
:1027D0000BD05A460B999047641C6D1C207800283A
:1027E000F5D10DB02846BDE8F08F0027B84601228C
:1027F000474900E0074314F8013F203B02FA03F089
:102800000842F7D120782E2819D114F8010F47F08B
:1028100004072A280ED06FF02F022078A0F1300193
:1028200009290CD808EB880102EB410100EB0108F3
:10283000641CF2E70A98641C50F8048B0A90207814
:102840000028CED0642808D0692806D075281ED06C
:102850005A460B9990476D1C58E00A994FF00A09A7
:1028600001C90A91002802DA40422D2102E039050F
:1028700004D52B218DF82010012103E0F90704D0A5
:102880002021F7E78A4608AE0DE00021FAE70A9911
:102890004FF00A0901C90A91F7E74946FDF7FBFE27
:1028A000303106F8011D0028F7D1ADEB060000F12C
:1028B0002009780701D44FF00108C84502DDA8EBD4
:1028C000090000E000208046002706E008A85A46DC
:1028D000C05D0B9990476D1C7F1C5745F6DB04E0EB
:1028E00030205A460B9990476D1CB8F10001A8F1B1
:1028F0000108F5DC05E016F8010B5A460B999047E4
:102900006D1CB9F10001A9F10109F4DC641C65E753
:10291000092801002DE9FE4F07460E4600256846AE
:1029200001F02AF800246FF00F0AE8464FF0010981
:1029300057F8240056F82410401A00D54042FDF7FD
:1029400040FE5146FDF718FD58F8241011F0FF4FD6
:102950000BD0FDF7D3FC4FF07E51FDF797FC0A49F1
:1029600020F00040884205DC07E008490844084997
:10297000884202D309FA04F00543641C032CD7DB18
:102980002846BDE8FE8F0000295C0F3E666666C1E2
:102990009A99D9002DE9F04D8D4F21F0004A86B06B
:1029A00005460C46BA452ADBAAEB070028430AD0A5
:1029B0008848824501DC1AD1CDB106B02846BDE871
:1029C000F04DFFF7D4BE844A844B2846FDF787FDBF
:1029D00007460E46824A834B28462146FDF77FFD77
:1029E00006B03A463346BDE8F04DFDF7D1BC0120B4
:1029F000FFF7E0FE06B0BDE8F04DFFF7BDBE7A4838
:102A0000824542DABAF1795F0BDA2846FFF736FEE3
:102A1000042808BFFFF7B6FE284606B02146BDE8E9
:102A2000F08D2A460B461046FDF759FD83460246B7
:102A30006E480E460B4606217844FFF743FE5A4681
:102A40003346FDF74CFD804669488A465A46334670
:102A500004217844FFF736FE5A463346FDF73FFD22
:102A600000223B46FDF794FC02460B464046514689
:102A7000FDF70DFF2A462346FDF731FD06B02A4635
:102A80002346BDE8F04DFDF783BC284624F0004105
:102A900000223D463B46FDF71FFD4FF0FF32FDF79C
:102AA00065FF0646024653480F460B46062178440A
:102AB000FFF708FE32463B46FDF711FDCDE9000168
:102AC0004D4832463B4604217844FFF7FBFD324631
:102AD0003B46FDF704FD00222B46FDF759FC8346DB
:102AE00002913046394602F0C1F8804643480D460F
:102AF000504517DCDDE900015A46029BFDF7C7FE91
:102B000042462B46FDF7EBFC42462B46FDF740FCC8
:102B10000122FDF72BFF304A304BFDF7DAFC304A3B
:102B2000304B4CE04FF0000A52460B464046FDF752
:102B30002FFCCDE9031052462B4610461946FDF7EF
:102B4000CEFC32463B46FDF7C7FCDDE90332FDF71C
:102B50009EFE06460F46DDE900015A46029BFDF740
:102B600096FE83460091012230463946FDF7FEFE6F
:102B7000194A1A4BFDF7B0FC06460F4601224046A3
:102B80002946FDF7F3FE5A46009BFDF7A8FC3246A6
:102B90003B46FDF79EFC06460F460122504629465D
:102BA000FDF7E4FE0E4DDFF858802A464346FDF758
:102BB00093FC32463B46FDF78FFC2A464346FDF721
:102BC0008BFC002CD8BF81F0004106B0BDE8F08D31
:102BD0000000F03F0000F07F075C143326A6913C14
:102BE000182D4454FB21F93F0000E03FF42E000073
:102BF0000A2F00007E2E0000942E00003333EF3F9A
:102C0000FB21E93F2DE9F84F04460D4621F0004035
:102C100000917349814211DC7249884201DC06D17E
:102C20002CB120462946BDE8F84FFFF7A0BD6E48FD
:102C3000002DCCBF6D496E49BDE8F88F6D498142CA
:102C400011DD6D498142D8BF4FF0FF366DDD204662
:102C50002946FFF713FD042808BFFFF793FD204620
:102C60002946BDE8F88F6549654F25F0004581424A
:102C700033DD6449814219DD002632464FF080433E
:102C800020462946FDF784FB80468A4601222046DD
:102C90002946FDF76BFE00223B46FDF71AFC424633
:102CA0005346FDF7F4FD04460D463EE001260022A2
:102CB000BA463B4620462946FDF76AFB80460F464A
:102CC0000022534620462946FDF703FC42463B4678
:102CD000FDF7DDFD04460D4627E04B4981421BDD33
:102CE000DFF828A102260022534620462946FDF798
:102CF000F6FB00223B46FDF74BFB80460F460022C9
:102D0000534620462946FDF7E4FB42463B46FDF785
:102D1000BEFD04460D4608E0032622462B46002051
:102D20003B49FDF7B4FD04460D4622462B461046AE
:102D30001946FDF7D4FB8B46824602460B46FDF74B
:102D4000CEFB07460246334888460B4606217844A8
:102D5000FFF7B8FC52465B46FDF7C1FB82462E48A2
:102D60008B463A46434605217844FFF7ABFC3A468A
:102D70004346FDF7B4FB02460B46002E504659462B
:102D80000CDAFDF705FB22462B46FDF7A8FB01B048
:102D900022462B46BDE8F04FFDF79EBBFDF7F8FA43
:102DA00022462B46FDF79BFB1C4A7A4402EBC603E6
:102DB000D3E90023FDF78DFB22462B46FDF789FB67
:102DC000174A7A4402EBC603D3E90023FDF784FBDC
:102DD000009A002AB8BF81F00041BDE8F88F0000DA
:102DE000000010440000F07F182D4454FB21F93FEF
:102DF000FB21F9BF0000DC3F0000203E0000F33F54
:102E00000000F03F0000E63F008003400000F83F74
:102E10000000F0BF962C0000542C0000F22B0000A4
:102E2000BA2B00002DE9F04D9446CCF1000423F0BC
:102E300000464CEA0404594F46EAD4749A46884640
:102E400021F00042BC4206D8454240EA050442EA6D
:102E5000D474BC4204D9BDE8F04D6246FFF78ABC89
:102E6000AAF14055A5F17F6555EA0C040BD0022468
:102E700004EAAA744A4DDFF82CE144EAD87452EA15
:102E8000000B04D00CE0BDE8F04DFFF7BBBE002CFA
:102E900014BF012CBDE8F08D022C30D0032C32D0B1
:102EA00056EA0C0B0AD0BE4220D1BA4209D126F014
:102EB000804622F080423346114617E000291ADB93
:102EC00025E0DFF8E4B0FB44002C04BFDBE900019F
:102ED000BDE8F08D012C02BFDBE9000181F000416B
:102EE000BDE8F08D022C0AD0032C0CD0BA4212D1CE
:102EF000B8F1000F0BDA2A482C49BDE8F08D2846BE
:102F00002B49BDE8F08D28467146BDE8F08D244878
:102F10002849BDE8F08D921B12153C2AC4BF204FF2
:102F2000244E10DCBAF1000FBEBF12F13C0F002797
:102F30003E4608DB6246FDF7AAFC21F00041FFF7A0
:102F400061FE07460E4694B1012C08BF86F000468C
:102F50000DD0194A194B022C3846314615D0FDF7D1
:102F6000B8FA2A46BDE8F04D114BFDF7B2BA00227F
:102F7000134638463146FDF711FD04BF0220FFF726
:102F800019FC38463146BDE8F08DFDF7A2FA2A4615
:102F9000BDE8F04D064BFDF79FBA00000000F07F42
:102FA000182D4454FB2109C04E2B0000FB21F9BF12
:102FB000FB210940FB21F93F075C143326A6A13C05
:102FC00071B54FF461754FF0E023104E009819E091
:102FD0002C46A04200D804469869614201EBC10129
:102FE00010EBC10105D49A69824208DA8A42FADA02
:102FF00005E08A1999698142FCDD9142FADC00986A
:10300000001B00900028E3D178BD000040190100AA
:1030100008B560B120208DF8000028208DF801004F
:1030200030208DF8020038208DF8030004E0A32240
:1030300004216846FDF7B9F86A46042140F69E204F
:1030400001F080FD01F046FA08BD00003EB50446DF
:1030500002208DF80000CA208DF80100E3208DF8D1
:10306000020009208DF803006A460421682001F05F
:1030700069FDA3208DF80000610609D5C0218DF8F7
:103080000110C8218DF80210C2218DF8031005E04F
:103090008DF801008DF802008DF8030014F4C07F54
:1030A00009D0C4218DF80410CC218DF80510C6215B
:1030B0008DF8061005E08DF804008DF805008DF8F8
:1030C00006008DF808008DF807008DF809006A46A3
:1030D0000A2140F6A72001F035FDA0074FF0D805E2
:1030E00003D020208DF8000001E08DF800506A46E2
:1030F000012140F6B62001F025FDA00601D50120F2
:1031000000E0002000F08EF814F4C07F1ED0E0052F
:103110000AD5B2208DF800008B208DF80100B62072
:103120008DF802009B2009E0B0208DF8000080207F
:103130008DF80100B4208DF8020090208DF8030076
:103140006A46042140F6A22001F0FCFCE1074FF49E
:103150000B6022D0F8218DF800106A46012101F0A1
:10316000F1FCFA21072000F049FB072000F014FBD6
:10317000012000F031FB642000F0D4FB4FF4FA7022
:1031800000F0E0FBC821254800F0CEFA282000F02E
:10319000E3FA0A2000F0F0FA05E08DF800506A46E4
:1031A000012101F0CFFCA00703D5D9208DF8000044
:1031B00001E08DF800506A46012140F23D7001F0B7
:1031C000C1FC600701D5012000E0002000F048F8B4
:1031D000E00601D5012000E00020FFF719FF104DA7
:1031E00044F00800688101F075F90020A8736006BA
:1031F00001D50620A87314F4C07F02D0A87B801DDF
:10320000A87314F0140F02D0A87B1030A873A00785
:1032100002D0A87B001DA87300203EBD09E3CA02AE
:10322000CC0100200EB54FF4976310B106A107C979
:1032300001E008A207CA8DE807006A46092118467E
:1032400001F080FC0EBD0000B8AAB38DB4980D3516
:103250005D000000B8AAAAAAB088C3C5C7000000D4
:1032600008B560B1C0208DF80000C2208DF80100C3
:10327000C4208DF80200C6208DF8030004E08B22E4
:1032800004216846FCF791FF6A46042140F6982025
:1032900001F058FC01F01EF908BD0000C8234FF4EE
:1032A0008062024940F6F63000F0F6BF344D000867
:1032B0002DE9FF4F89B01746DDE916520024544E20
:1032C000884681462C80A246B07B694601F090F882
:1032D0004FF0FF3B18B158460DB0BDE8F08F708934
:1032E00010F0140F4CD0BDF800109DF8022049BA20
:1032F000090441EA02239DF803100B433B60BDF82B
:1033000004109DF8062049BA090441EA02229DF8FA
:1033100007101B140A437A60BDF808109DF80A4094
:1033200049BA090441EA04219DF80B4012142143D3
:10333000B960BDF80C409DF80EC064BA240444EA9C
:103340000C2C9DF80F4009144CEA040CC7F80CC073
:103350004FEA2C475B43494302FB023207FB07114C
:1033600011441024A1F17061B1F1007F04D901F082
:10337000B1F8A5F800A0AEE7298841F48071298052
:103380004206694611D50A19A41D13885BBAA8F82C
:10339000003053885BBAA8F80230928852BAA8F875
:1033A00004202A8842F008022A8010F4C07F11D03D
:1033B0000A19A41D13885BBAA9F8003053885BBAB8
:1033C000A9F80230928852BAA9F804202A8842F05B
:1033D00070022A80800716D00C44E07800F0C00507
:1033E00000F03F016078C00706D0C80801F007016F
:1033F0003268491C02B190476078000703D57168B4
:1034000009B1A80988470C9801F0C6FB002063E7C2
:10341000CC0100202DE9FF41044603A800F0F2FD95
:10342000BDF80C00410CC3032F48008900F00302D3
:1034300054F82250420700D56D42C0F3C1028606FF
:1034400054F8222000D55242C0F38116C00554F82A
:10345000264000D56442A5FB0367E81700FB037014
:1034600005FB0100850045EA9670A2FB0367D517AE
:1034700005FB037502FB0152950045EA9672A4FB19
:103480000367E51705FB037304FB01318B0043EA77
:103490009671030E8DF80030030C8DF80130030A8D
:1034A0008DF802308DF80300100E8DF80400100C1A
:1034B0008DF80500100A8DF80600080E8DF808003A
:1034C000080C8DF80900080A8DF80A008DF807200D
:1034D0008DF80B106A460C214FF4257001F032FB79
:1034E00004B0BDE8F0810000CC01002030B50446F6
:1034F00013A285B007CA8DE807004FF0FF35C82C2E
:1035000016D8C820B0FBF4F1491E080A8DF80C004B
:103510008DF80D1003AA022140F2162001F012FBD3
:1035200030B96A460C2140F6C12001F00BFB10B106
:10353000284605B030BD054884810020F9E7000029
:10354000FEF2ABC4AAF1DFDFBBAFDFDFCC010020AE
:10355000F8B53049098901F0030250F822404A07C2
:1035600000D56442C1F3C1028B0650F8222000D579
:103570005242C1F3811350F82330C80500D55B4295
:10358000254984FB0140850045EA947082FB014295
:10359000A40F44EA820483FB0121950F45EA8105CB
:1035A000010E8DF80010010C8DF80110010A8DF844
:1035B00002108DF803006A4604214FF4747001F084
:1035C000C1FA4FF0FF3688B9200E8DF80000200CAC
:1035D0008DF80100200A8DF802008DF803406A463C
:1035E00004214FF4757001F0ADFA08B13046F8BD12
:1035F000280E8DF80000280C8DF80100280A8DF89F
:1036000002008DF803506A4604214FF4767001F0F1
:1036100099FAF8BDCC01002009E3CA022DE9FF4167
:1036200004463CA004F00303006802903AA000683E
:1036300003903AA006683AA0056802A8C15C8DF81C
:103640000010C4F3C101425C8DF80120C4F3811263
:10365000805C8DF8020003A8C35C8DF80430415CE7
:103660008DF80510805C8DF806006A46032140F253
:10367000264001F067FA4FF0FF37E0BB01AA0321B3
:1036800040F22A4001F05EFAA8BBCDE90065600770
:103690000BD59DF8000040F001008DF800009DF86A
:1036A000040040F001008DF80400A0060BD59DF841
:1036B000010040F001008DF801009DF8050040F088
:1036C00001008DF80500E0050BD59DF8020040F0E3
:1036D00001008DF802009DF8060040F001008DF811
:1036E00006006A4603214FF4886001F02BFA10B9F6
:1036F00001AA032100E004E040F2314001F022FA87
:1037000018B1384604B0BDE8F081064804810020B5
:10371000F8E700004CCD6C000CC92C003656760042
:1037200026466600CC0100204FF47A7290FBF2F03E
:1037300008B54843010E8DF80010010C8DF80110FA
:10374000010A8DF802108DF803006A4604214FF437
:10375000AE7001F0F7F908BD0521B0FBF1F008B536
:10376000010A8DF800108DF801006A4602214FF41D
:10377000AD7001F0E7F908BD0521B0FBF1F008B527
:10378000010A8DF800108DF801006A4602214FF4FD
:10379000AC7001F0D7F908BD08B500218DF8001014
:1037A000C10702D030218DF80010810705D59DF8A2
:1037B000001041F00C018DF80010400705D59DF870
:1037C000000040F003008DF800006A4601214FF42C
:1037D000A47001F0B7F908BD08B560B1042800D99C
:1037E0000420401E8DF800006A46012140F24F106F
:1037F00001F0A8F908BD0120F3E700002DE9FC4124
:10380000054640074FF0FF367CD0B1F5C86F79D838
:103810000846FCF7DFFE3E49FCF770FD074601A8AD
:1038200000F0D2FB9DF80400022806D004280DD039
:1038300008282ED0102865D134E00E213846FCF738
:103840009BFDFCF7E5FE84B2324907E00D213846C6
:10385000FCF792FDFCF7DCFE2F4984B23846FCF7FA
:103860001BFDFCF7D5FE210A8DF8001080B28DF803
:103870000140010A8DF802108DF80300E8076C463C
:1038800020D0224602214FF4EA7001F05BF9C8BB58
:1038900011E00C213846FCF76FFDFCF7B9FE84B24D
:1038A0001E49DBE70B213846FCF766FDFCF7B0FE4E
:1038B00084B21B49D2E7A21C02214FF4927001F09E
:1038C00041F9F8B9A8070DD56A4602214FF4EC700A
:1038D00001F038F9B0B9A21C02214FF4947001F044
:1038E00031F978B9680710D56A4602214FF4EE70B5
:1038F00001F028F930B9A21C02214FF4967001F0B2
:1039000021F910B13046BDE8FC810020FBE7000042
:1039100000004843000040460000C045000040450C
:103920000000C0440521B0FBF1F008B5010A8DF894
:1039300000108DF801006A4602214FF4EF7001F08B
:1039400001F908BD0521B0FBF1F008B5010A8DF8B9
:1039500000108DF801006A4602214FF4ED7001F06D
:10396000F1F808BD38B504468DF80000694603201B
:10397000ABBE204638BD00002DE9FE430646264872
:1039800001AB042240680D21007800F03FFA10B12D
:103990000720BDE8FE839DF804101C2000EAD10238
:1039A0009DF80710DFF87490C1F301131A438DF8E6
:1039B00000209DF80520C1F3810300EAD2021A43DA
:1039C0008DF801209DF8062001F0030100EAD200E5
:1039D00008430024124F8DF80200A0466D46285D72
:1039E00010B146F824900AE046F824800DE000BFAC
:1039F00056F824003946FCF74FFC46F82400285DB1
:103A0000401E10F0FF002855F2D1641CE4B2032CD4
:103A1000E5D30020BDE70000100000207B14AE3E7F
:103A20001D5A843F2DE9FE4F05460120C14E8DF8F9
:103A300000004FF000088DF8018030680C461746F2
:103A4000817C70686B460222007800F017FA4FF014
:103A5000FF3A00287AD1C820FDF7CEF98DF8008012
:103A600030686B460122C17B7068007800F006FA6E
:103A70000028EFD130686B460122417970680078E8
:103A800000F0FCF90028E5D130686B460122817C0A
:103A90007068007800F0F2F90028DBD130686B46DE
:103AA0000122C17D7068007800F0E8F90028D1D1CA
:103AB00030686B46012201797068007800F0DEF909
:103AC0000028C7D14FF00C098DF8009030686B4684
:103AD000012201797068007800F0D0F9002835D112
:103AE0000F20FDF789F9B06A6B460122407A8DF804
:103AF0000000306881787068007800F0BFF9002815
:103B000024D1B06A6B460122007A8DF8000030683B
:103B100041787068007800F0B1F9002873D1B06A7C
:103B2000807A0FB140F0E0008DF8000030686B46FD
:103B3000012281797068007800F0A0F9002862D134
:103B40002FB1B06AC07A40F0E00001E04AE01820EE
:103B50008DF8000030686B460122C17970680078EA
:103B600000F08CF9F0BB17B1C820FDF745F94020F3
:103B70008DF8000030686B4601220179706800788A
:103B800000F07CF970BB78208DF8000030686B463F
:103B9000012241797068007800F070F910BB322082
:103BA000FDF72AF98DF80080306847466B46417969
:103BB00070680122007800F061F998B93168706886
:103BC000B046897A00786B46022200F01FF948B9A6
:103BD000BDF80000AF6040BAB0FBF9F06F60C6B24C
:103BE0002F6000E00FE0A76067602760002739E0E2
:103BF000D8F80010D8F804006B46C97A00780C2277
:103C000000F004F910B15046BDE8FE8FBDF8000089
:103C1000236840BA00B2BDF80210BDF80420184471
:103C2000206049BA606809B20844606052BAA0686E
:103C300012B21044A060BDF806002B6840BA01B271
:103C4000BDF80800BDF80A201944296040BA696827
:103C500000B20844686052BAA86812B210447F1CCF
:103C6000FFB2A860B742C3D328688322C1170904F2
:103C700041EA104100040023FCF756FA32460023C3
:103C8000FCF752FA286068688322C117090441EAE8
:103C9000104100040023FCF747FA32460023FCF7EA
:103CA00043FA6860A8688322C117090441EA1041F9
:103CB00000040023FCF738FA32460023FCF734FAFC
:103CC000A86020684FF40065C117090441EA10415B
:103CD00000042A460023FCF727FA32460023FCF7AB
:103CE00023FA206060682A46C117090441EA10419E
:103CF00000040023FCF718FA32460023FCF714FAFC
:103D00006060A0682A46C117090441EA1041000416
:103D10000023FCF709FA32460023FCF705FAA060FD
:103D2000002802DDA0F5803001E000F58030A060C1
:103D3000002069E7100000202DE9F84F81462E4849
:103D40008846002540686B46032200780D2100F06C
:103D50005DF810B10720BDE8F88F9DF80000002441
:103D600000F01F008DF800009DF801006FF00F0BB0
:103D700000F01F008DF801009DF802006E4600F073
:103D80001F008DF802004FF0010A00BF59F82410FF
:103D900058F82400081A00D54042FCF712FC594696
:103DA000FCF7EAFA0746305DC0B1144802E0144956
:103DB000FCF772FA315D491E11F0FF013155F6D161
:103DC00001463846FCF79AFA4FF07E51FCF75EFA4E
:103DD0000C4920F00040884205DC07E00A483844DE
:103DE000B0F1D97F02D90AFA04F00543641C032C10
:103DF000CCDB2846AFE70000100000200000C841DF
:103E000054E3853F295C0F3E0000E0BE2DE9F04100
:103E10001D4614460F460646FDF770FFB0B170060A
:103E2000000EFDF73BFFFDF7B1FF90B13846FDF7FF
:103E300035FFFDF7ABFFFDF761FF012000EB46000A
:103E4000C0B2FDF72BFFFDF7A1FF0FE00120BDE899
:103E5000F081FDF77BFFF9E7012C0DD05FF0010049
:103E6000FDF7E6FE641E05F8010BE4B2002CF3D169
:103E7000FDF76CFF0020EAE70020F1E72DE9F041B3
:103E80001E4615460F460446FDF738FF68B160062A
:103E9000000EFDF703FFFDF779FF48B13846FDF747
:103EA000FDFEFDF773FF00240CE00120BDE8F0816A
:103EB000FDF74CFFF9E7305DFDF7F0FEFDF766FF1B
:103EC00010B1641CAC42F6DBFDF740FF0020EDE7CB
:103ED00090F90010002902DD4FF00000704702DA6F
:103EE0004FF00400704790F90110002902DD4FF0F7
:103EF0000100704702DA4FF00500704790F90200A8
:103F0000002802DD4FF00200704702DA4FF0060091
:103F100070474FF007007047FDF784F8FEF727FA67
:103F2000FEF73AF8FEF712F8FEF770F8FEF7D6F84B
:103F3000FEF708F90E480D490C2201604FF4E131FB
:103F4000416000218160C160C0E904128161C161EA
:103F5000FDF7A4FD08B172B6FEE7FDF7B5FFFCF76B
:103F6000C5FD00BFFEF726F9FCE700000044004055
:103F7000840100202DE9F041124C20F001010025C0
:103F800094F8240010B10020BDE8F081A07A4FF031
:103F9000FF3668B10840277C2074884200D035463F
:103FA00041B1012000F036FE00F094FA38B12774D8
:103FB0003046E9E7207D00B1012000F02BFE2846C5
:103FC000E2E70000100000200D494A7A42B1012AC0
:103FD00008D0022A0FD0032A0FD04FF0FF307047CD
:103FE000022200E004220270C97C11B11106C90D41
:103FF0000170002070470822F5E71022F3E7000067
:10400000100000200F494A7A42B1012A09D0022A41
:1040100011D0032A12D04FF0FF3070474FF4804286
:1040200001E041F69C720280C97C11B1C2F34E01DD
:104030000180002070474FF48052F4E74FF4006293
:10404000F1E70000100000200B49097A39B101297D
:1040500007D002290AD003290BD0002103E0FA215E
:1040600001E04FF4FA710180002070474FF47A713B
:10407000F9E74FF4FA61F6E7100000200A49097ADF
:1040800041B1012908D002290AD003290AD04FF0F2
:10409000FF307047054900E0054901600020704786
:1040A0000449FAE70449F8E7100000200000034340
:1040B0000000834233330342333383410C49C97ACE
:1040C000072913D2DFE801F01204060A0C0E1000D3
:1040D000BC2100E062210180002070472A21FAE71C
:1040E0001421F8E70A21F6E70521F4E70021F2E7B9
:1040F00010000020054991F8242012B14FF0FF3044
:104100007047C9890180002070470000100000201E
:104110002DE9FC414C4C80208DF8000020686B4656
:104120000122817C60680078FFF7A8FE4FF0FF371E
:10413000002832D16420FCF75FFE00258DF8005086
:1041400020686B460122817C60680078FFF796FE4C
:10415000002870D120686B460622817D6068007857
:10416000FFF754FE002866D19DF805009DF8031066
:10417000C007400F01F0010140EA41019DF8010034
:104180004FF0010600F00100014309D0012905D0DC
:10419000022915D02DA0FEF761FA4CE0E67410E07C
:1041A00020686B460122C17860680078FFF72EFE18
:1041B00040BB9DF8000010F00F0020D0042822D052
:1041C000E574FF2004F80A0F4FF6FF7104F8020CA3
:1041D00004F8010C6070A180A0712072A670267690
:1041E0006576E572A572E56025616561A576E5767F
:1041F000A5834FF4FA6000F06BFB18B907E01D4887
:10420000FEF72CFA17E01CA0FEF728FAC6E70220FA
:1042100000F080FA78B92A2000F0C2FB58B93220A9
:1042200000F0F4FB38B90020FFF7A4FE18B9002015
:1042300000F0A4FA10B13846BDE8FC81002000F07F
:1042400025FC0020F8E7000010000020556E737573
:1042500070706F7274656420736F667477617265D5
:104260002070726F64756374207265762025642EE9
:104270000A000000205A000848616C662073656ED1
:104280007369746976697479207061727420666FDD
:10429000756E642E0D0A00002DE9FF4FDFF8948043
:1042A000064685B098F8250015460F464FF0FF39B1
:1042B000B0BBAFB3002420E0301B102800DD10207D
:1042C00080B283463A1901469246204600F03AFCF5
:1042D00030BB6A465946204600F0D2F800BB504633
:1042E0005A466946FBF773FF20B16FF0010009B031
:1042F000BDE8F08F04EB0B0084B2B442DCD3280A93
:104300008DF810008DF81150D8F80000444604AB29
:10431000817ED8F8040002220078FFF7AFFD08B1D3
:104320004846E4E7012084F825000898E08400204E
:10433000DDE70000100000202DE9F84305464FF0AE
:10434000FF39282844D80727284C00267DB10120B2
:1043500000F0F4FA20208DF800004FF00108012D44
:1043600017D0052D18D88DF8018005201FE00020FA
:1043700000F0E4FA8DF800608DF8017020686B465B
:104380000222817C60680078FFF778FD00BB26750B
:1043900029E08DF80160E8E7142D04D802208DF89B
:1043A00001000A2003E003208DF80100142000F032
:1043B000F7FA9DF801006B4607EB80108DF80100BD
:1043C00020680222817C60680078FFF757FD10B1F9
:1043D0004846BDE8F8830820A072267384F814804C
:1043E0000020FFF7C7FD0020F3E7000010000020C9
:1043F0002DE9F843214C0646174694F824008946D7
:104400004FF0FF3890B3A07A80B320686B46022249
:10441000817A60680078FFF7F9FC38BBBDF80000CE
:1044200045BAB54202D2002038701FE0606841886A
:10443000B5EB510F11D9216800786B46497C0122F8
:10444000FFF7E4FC90B99DF80000C00605D500F028
:1044500041F86FF00100BDE8F8832068F2B24B46E6
:10446000C17A60680078FFF7D1FC08B14046F2E7F6
:10447000B5FBF6F0401E38700020ECE7100000207D
:10448000F8B516000D464FF0FF371FD0104CA17A3B
:10449000E1B1010A8DF80010C0B28DF80100411998
:1044A00060684289914211D8216800786B46097E84
:1044B0000222FFF7E3FC48B92068EAB23346417DA7
:1044C00060680078FFF7A2FC002800D03846F8BDED
:1044D00010000020F8B5524C4FF0FF36A07A0028AB
:1044E0007CD000258DF8005020686B460122C17BEE
:1044F00060680078FFF7C2FC00286FD120686B4627
:104500000122417960680078FFF7B8FC002865D186
:1045100020686B460122017960680078FFF7AEFCE5
:1045200000287AD194F82400C8B30C208DF800003C
:1045300020686B460122017960680078FFF79EFCD5
:1045400000286AD1C0208DF80000A07AC00702D0F0
:10455000E0208DF8000020686B4601220179606838
:104560000078FFF78BFC002857D1607C18B102203F
:104570008DF8000001E08DF8005020686B460122A4
:10458000C17B60680078FFF779FC38BB8DF800507C
:1045900020686B46012241796068007839E0FFE7C6
:1045A00004208DF8000020686B46012201796068C4
:1045B0000078FFF763FC88B9A07C80B9A07AC007B7
:1045C0000DD060208DF8000020686B460122017933
:1045D00060680078FFF752FC00B902E01DE040205F
:1045E000F0E7607C18B101208DF8000001E08DF843
:1045F000005020686B460122C17B60680078FFF79D
:104600003DFC50B92068064B0122417960681033A7
:104610000078FFF733FC002800D03046F8BD0000DA
:10462000100000202DE9F047394C82468AB094F8FA
:1046300024000F4620B1002000F00EF9012600E012
:10464000002607A8FFF700FD06A8FFF7BDFC09A894
:10465000FFF734FD08A8FFF74DFD94F80A9094F891
:1046600010800025002239465046FFF7DBF910B1D3
:104670006D1C022DF6DB022D1AD00025012203A9A4
:104680006846FFF7CFF910B16D1C022DF6DB022D45
:104690000ED003A93846FEF73DF9C7B26946504629
:1046A000FFF74AFB10F0FF0F4FF0000502D002E0C9
:1046B000002503E001250FB945F00205FF20207217
:1046C0006072E0724FF6FF71E181A07220740120E8
:1046D0002073BDF81C0000F0FBF89DF8180000F0F6
:1046E00019F8BDF8240000F05BF9BDF8200000F0D7
:1046F0008DF9484600F0CAF94046FFF73BFC16B179
:10470000012000F0A9F80AB02846BDE8F0870000B3
:104710001000002038B5184C4FF0FF35A17A19B3BE
:10472000022806D0042806D008280ED010281BD155
:104730000DE0002000E008208DF80000607A9DF870
:104740000010B0EBD10F04D005E01020F4E71820E2
:10475000F2E7002038BD20686B460122C17960680D
:104760000078FFF78BFB08B1284638BD9DF80000A4
:10477000C0086072EDE7000010000020F8B5354C6D
:104780000546A07CA84201D10020F8BD31484FF079
:10479000FF366B46D0E900104FF00102097900782E
:1047A00035B3FFF733FB70BB9DF800006B4620F07C
:1047B00020008DF8000020680122017960680078EF
:1047C000FFF75CFBF8B90320FCF716FB02208DF81D
:1047D000000094F8220078B382202BE020686B461A
:1047E0000122017D60680078FFF748FB58B92EE090
:1047F000FFF70CFB38B9A07AC0079DF8000003D082
:1048000040F0200002E00CE020F020008DF80000D5
:1048100020686B460122017960680078FFF72EFB63
:1048200008B13046F8BD0320FCF7E6FA94F8220000
:1048300000B180208DF8000094F823000028CDD02E
:104840009DF8000040F030008DF80000C6E7A57428
:104850009AE700001000002038B51C4C94F8241092
:1048600081421DD0002500B394F82500D0B100206E
:1048700000F0D0F90020FFF781FFE08C00F0C6F8CF
:104880008DF8005060686B46012200782321FFF705
:10489000F5FA012084F8240000F0BCF9FFF71AFEB5
:1048A000002038BD4FF0FF3038BD002000F0B2F9D5
:1048B000207C8DF8000060686B460122007823217F
:1048C000FFF7DCFA84F82450E8E70000100000202D
:1048D00038B5194C4FF0FF35A17A31B3FA2809D019
:1048E000B0F5FA7F08D0B0F57A7F0FD0B0F5FA6F47
:1048F0001BD10DE0002000E008208DF80000207A98
:104900009DF80010B0EBD10F04D005E01020F4E7C3
:104910001820F2E7002038BD20686B46012281791B
:1049200060680078FFF7AAFA08B1284638BD9DF8FC
:104930000000C0082072EDE71000002038B5174CC9
:10494000054694F82300A84201D1002038BD0DB1DE
:10495000302000E000208DF80000A07C28B19DF8F8
:10496000000040F002008DF8000094F8220028B109
:104970009DF8000040F080008DF8000020686B4634
:104980000122017D60680078FFF778FA10B14FF0DE
:10499000FF3038BD84F82350D7E700001000002016
:1049A00038B5194C4FF0FF35A17A31B3BC2801D38B
:1049B000012010E0622801D302200CE02A2801D354
:1049C000032008E0142801D3042004E00A2801D3BE
:1049D000052000E006208DF80000E07A9DF8001028
:1049E000884201D1002038BD20686B4601228178C1
:1049F00060680078FFF742FA08B1284638BD9DF894
:104A00000000E072EEE7000010000020F8B51E4D37
:104A100004464FF0FF37A87A48B395F8240030BB1E
:104A2000287D4FF47A7648B164B1282C03D8E0B2DF
:104A3000FFF782FC26E00020FFF77EFC042C05D265
:104A4000042406E00020FFF777FCF9E7B44200D920
:104A50003446B6FBF4F0401E8DF8000028686B4623
:104A60000122417868680078FFF708FA08B13846F3
:104A7000F8BD9DF80000401CB6FBF0F0E88140084E
:104A8000FFF78EFF0020F8BD10000020F8B50546A6
:104A900010F0700F4FF0000601D0012004E015B1B6
:104AA0008DF8006002E040208DF80000244C6B4639
:104AB00001222068817C60680078FFF7DFF94FF001
:104AC000FF3760BB9DF8000020F0400020738DF898
:104AD0000060680602D404208DF80000A80605D402
:104AE0009DF8000040F002008DF80000E80605D4B3
:104AF0009DF8000040F001008DF80000280705D463
:104B00009DF8000040F038008DF8000020686B46EA
:104B10000122C17C60680078FFF7B0F910B1A6727D
:104B20003846F8BD25B1082D02D00020FFF706FF5A
:104B3000A57226753220FCF75FF90020F8BD000051
:104B400010000020F8B516000D464FF0FF371FD0BB
:104B5000104CA17AE1B1010A8DF80010C0B28DF8B5
:104B60000100411960684289914211D8216800789A
:104B70006B46097E0222FFF781F948B92068EAB244
:104B80003346417D60680078FFF778F9002800D04F
:104B90003846F8BD10000020704710B588B069464F
:104BA00004A8FFF73FFD072832D107A8FFF766FAF0
:104BB0000498FBF706FD07990C46FBF76DFBFBF726
:104BC0000EFD04900598FBF7FCFC2146FBF764FB07
:104BD000FBF705FD05900698FBF7F3FC2146FBF774
:104BE0005BFBFBF7FCFC069004A8FEF7B1FC03A8F6
:104BF000FFF708FABDF80C000099414300910199B4
:104C0000414301910299414368460291FEF702FC3B
:104C100008B010BDF8B5144C0146224694F8246043
:104C2000D2E9000200235D1E56B179B1022111E0E4
:104C3000C17B10786B460122FFF720F968B90EE0BE
:104C4000A67A56B111B1617C61B902E08DF80030ED
:104C5000EEE701218DF80010EAE72846F8BD9DF83F
:104C6000000060740020F8BD100000202DE9F04124
:104C700006460F46FBF7BCFE041E0D4618BF01207A
:104C8000284320F00040C0F17F6000F1E040C00FF9
:104C90000ED0301C18BF0120384320F00040C0F176
:104CA0007F6000F1E040C00F04BF0120FDF782FDEE
:104CB00020462946BDE8F0810102020304050607EB
:104CC00008090A0B0C0D0E0F101000000000000068
:104CD00000000102030406070809000000000102A9
:104CE00003046800000476005401F7FD0001751903
:104CF0001A0C6A231B1C1F207274433B4138393A3B
:104D00006B6C376F06246D6E70000000830000002E
:104D100000080000000100183200050000002041DA
:104D20000000D242295C0F3E9A99993E3333733F7B
:104D3000295C0F3E0000700000000024000000020B
:104D40000003000000650054FFEF0000FA80000B34
:104D500012820001030C30C30E8C8CE914D5400282
:104D600013710F8E3883F8833000F883258EF88313
:104D70003000F883FFFFFFFF0FFEA9D624000400D8
:104D80001A8279A10000003CFFFF00000010000023
:104D900038836FA2003E03304000000002CAE309DE
:104DA0003E800000200000000000000040000000E5
:104DB00060000000000C0000000C186E000006925D
:104DC0000A16C0DFFFFF0256FD8CD377FFE1C496C1
:104DD000E0C5BEAA00000000FFFF0B2B0000165725
:104DE000000003594000000000001DFA00026C1D85
:104DF000000000003FFFDFEB003EB3B6000D22785D
:104E000000002F3C00000000001942B5000039A24C
:104E10000000B365D90E9FC91DCF4C34300000008F
:104E2000500000003BB67AE80064000000C80000B3
:104E300000000000100000001000FA921000225E36
:104E4000000D229F0001000000320000FF4600001C
:104E500063D400001000000004D6000004CC000061
:104E600004CC0000000010720000004000000000B0
:104E7000000000000006000200050007000000001E
:104E80000064000000000000000000050005006450
:104E900000200000000000000000000000004000B2
:104EA0000000030000000032F8980000FF650000D9
:104EB000830F0000FF9BFC000000000000000000CA
:104EC00000000000000000000000000000000000E2
:104ED00000000000000000000000000000000000D2
:104EE0000000100040000000000000060000B26A50
:104EF000000200000001FB830068000000D9FC00F4
:104F00007CF1FF830000000000650000006403E8FE
:104F100000640028000000250000000016A000002A
:104F20000000100000001000002F0000000001F43D
:104F30000000100000280000FFFF4581FFFFFA720B
:104F40000000000000000000004400050005BAC693
:104F5000004778A2000000010000000000000600E9
:104F6000000000140000254D002F706D000005AEFC
:104F7000000C02D000000000000000000000000053
:104F800000000000001B0000000000000000000006
:104F900000000000006400000008000000000000A5
:104FA0000000000000000000000000000000000001
:104FB00000000000000000000000000000000000F1
:104FC00000000000000000000000000000000000E1
:104FD00000000000000000000000000000000000D1
:104FE00000000000000000000000000000000000C1
:104FF00000000000001B0000000000000000000096
:10500000000E000E00000AC700040000000000327D
:10501000FFFFFF9C00000B2B0000000200000001BE
:1050200000000064FFE50000000000000000000038
:10503000000000000000000100000000000100006E
:1050400000000000000180000001800000018000DD
:10505000002426D30000000000000000000600101D
:105060000096003C0000000000000000000000006E
:10507000000000000C0A4E68CDCF77095016675922
:10508000C619CE82000000000000000000000000F1
:1050900000000000000000000000000017D784009E
:1050A000030000000000000000000000C7938F9D77
:1050B0001E1B1C1900000000000000000000000082
:1050C000000000000000000000000000020318853E
:1050D000000040000000000300000003000000008A
:1050E0000000000040000000000000000000000080
:1050F00000000000000000000000000000000000B0
:10510000000000000000000000000000000000009F
:105110000000000000000000677DDF7E72902E55C9
:105120004CF6E688000000000000000000000000CF
:1051300000000000D8DCB4B8B0D8B9ABF3F8FAB3CB
:10514000B7BB8E9EAEF132F51BF1B4B8B08097F1CB
:10515000A9DFDFDFAADFDFDFF2AAC5CDC7A90CC94F
:105160002C97F1A989264666B28999A92D557DB05B
:10517000B08AA896365676F1BAA3B4B280C0B8A861
:105180009711B28398BAA3F0240844106418B2B9F6
:10519000B49883F1A329557DBAB5B1A38393F000E8
:1051A0002850F5B2B6AA839328547CF1B9A3829310
:1051B00061BAA2DADEDFDB819AB9AEF5606870F120
:1051C000DABAA2DFD9BAA2FAB9A38292DB31BAA2C3
:1051D000D9BAA2F8DF85A4D0C1BBAD83C2C5C7B818
:1051E000A2DFDFDFBAA0DFDFDFD8D8F1B8AAB38D46
:1051F000B4980D355DB2B6BAAF8C96198F9FA70ED5
:10520000161EB49AB8AA872C547CBAA4B08AB69158
:10521000325676B28494A4C808CDD8B8B4B0F19907
:1052200082A82D557D98A80E161EA22C547C92A4FF
:10523000F02C5078F184A898C4CDFCD80DDBA8FCE4
:105240002DF3D9BAA6F8DABAA6DED8BAB2B68696DF
:10525000A6D0F3C841DAA6C8F8D8B0B4B882A892EC
:10526000F52C548898F135D9F418D8F1A2D0F8F972
:10527000A884D9C7DFF8F883C5DADF69DF83C1D82E
:10528000F40114F1A8824EA884F311D182F5D992C9
:10529000289788F109F41C1CD884A8F3C0F9D1D947
:1052A0009782F129F40DD8F3F9F9D1D982F4C20328
:1052B000D8DEDF1AD8F1A2FAF9A88498D9C7DFF8A6
:1052C000F8F883C7DADF69DFF883C3D8F40114F193
:1052D00098A8822EA884F311D182F5D9925097888C
:1052E000F109F41CD884A8F3C0F8F9D1D99782F158
:1052F00049F40DD8F3F9F9D1D982F4C403D8DEDF2B
:10530000D8F1AD8898CCA809F9D98292A8F57CF19A
:10531000883ACF944A6E98DB6931DAADF2DEF9D87B
:105320008795A8F221D1DAA5F9F417D9F1AE8ED07C
:10533000C0C3AE82C684C3A88595C8A588F2C0F153
:10534000F4010EF18E9EA8C63E56F554F18872F413
:105350000115F19845856EF58E9E0488F142985AA4
:105360008E9E068869F4011CF1981E1108D0F50480
:10537000F11E970202983625DBF9D985A5F3C1DA2B
:1053800085A5F3DFD88595A8F309DAA5FAD8829226
:10539000A8F578F1881A849F26889821DAF41DF3FD
:1053A000D8879F39D1AFD9DFDFFBF9F40CF3D8FAF6
:1053B000D0F8DAF9F9D0DFD9F9D8F40BD8F3879F10
:1053C00039D1AFD9DFDFF41DF3D8FAFCA869F9F9B8
:1053D000AFD0DADEFAD9F88F9FA8F1CCF398DB458D
:1053E000D9AFDFD0F8D8F18F9FA8CAF38809DAAF18
:1053F0008FCBF8D8F2AD978D0CD9A5DFF9BAA6F30B
:10540000FAF412F2D8950DD1D9BAA6F3FADAA5F2C8
:10541000C1BAA6F3DFD8F1BAB2B68696A6D0CAF35F
:1054200049DAA6CBF8D8B0B4B8D8AD84F2C0DFF171
:105430008FCBC3A8B2B68696C8C1CBC3F3B0B4882D
:1054400098A821DB718D9D71859521D9ADF2FAD88F
:105450008597A828D9F408D8F28D29DAF405D9F26D
:1054600085A4C2F2D8A88D9401D1D9F411F2D887BD
:1054700021D8F40AD8F28498A8C801D1D9F411D857
:10548000F3A4C8BBAFD0F2DEF8F8F8F8F8F8F8F8F3
:10549000D8F1B8F6B5B9B08A95A3DE3CA3D9F8D84F
:1054A0005CA3D9F8D87CA3D9F8D8F8F9D1A5D9DF6D
:1054B000DAFAD8B18530F7D9DED8F830ADDADED8EF
:1054C000F2B48C99A32D557DA083DFDFDFB591A0C9
:1054D000F629D9FBD8A0FC29D9FAD8A0D051D9F8FF
:1054E000D8FC51D9F9D879D9FBD8A0D0FC79D9FA10
:1054F000D8A1F9F9F9F9F9A0DADFDFDFD8A1F8F8D6
:10550000F8F8F8ACDEF8ADDE8393AC2C547CF1A84F
:10551000DFDFDFF69D2CDAA0DFD9FADB2DF8D8A883
:1055200050DAA0D0DED9D0F8F8F8DB55F8D8A87852
:10553000DAA0D0DFD9D0FAF8F8F8F8DB7DF8D89CFB
:10554000A88CF530DB38D9D0DEDFA0D0DEDFD8A8DC
:1055500048DB58D9DFD0DEA0DFD0DED8A868DB700A
:10556000D9DFDFA0DFDFD8F1A888902C547C98A881
:10557000D05C38D1DAF2AE8CDFF9D8B087A8C1C1DF
:10558000B188A8C6F9F9DA36D8A8F9DA36D8A8F970
:10559000DA36D8A8F9DA36D8A8F9DA36D8F78D9DF0
:1055A000ADF818DAF2AEDFD8F7ADFA30D9A4DEF9EB
:1055B000D8F2AEDEFAF983A7D9C3C5C7F1889BA795
:1055C0007AADF7DEDFA4F8849408A797F300AEF273
:1055D0009819A488C6A39488F632DFF28393DB0976
:1055E000D9F2AADFD8D8AEF8F9D1DAF3A4DEA7F160
:1055F000889B7AD8F38494AE19F9DAAAF1DFD8A897
:1056000081C0C3C5C7A39283F628ADDED9F8D8A35D
:1056100050ADD9F8D8A378ADD9F8D8F8F9D1A1DA36
:10562000DEC3C5C7D8A18194F818F2B089ACC3C550
:10563000C7F1D8B8B4B09786A8319B069907AB9745
:1056400028889BF00C201440B0B4B8F0A88A9A289F
:105650005078B79BA8295179247059446938644817
:1056600031F1BBAB88002C547CF0B38BB8A8042874
:105670005078F1B088B49726A85998BBABB38B0289
:10568000264666B0B8F08A9CA82951798B295179B1
:105690008A2470598B2058718A4469388B39406844
:1056A0008A6448318B30496088F1AC002C547CF01E
:1056B0008CA804285078F1889726A85998AC8C02B9
:1056C000264666F0899CA829517924705944693886
:1056D000644831A98809205970AB11384069A8196C
:1056E0003148608CA83C415C207C00F18798198689
:1056F000A86E767EA999882D557DD8B1B5B9A3DF5E
:10570000DFDFAED0DFAAD0DEF2ABF8F9D9B087C4C4
:10571000AAF1DFDFBBAFDFDFB9D8B1F1A3978E60AD
:10572000DFB084F2C8F8F9D9DED89385F14AB183A5
:10573000A308B5839A0810B79F10D8F1B0BAAEB0DD
:105740008AC2B2B68E9EF1FBD9F41DD8F9D90CF1FC
:10575000D8F8F8AD61D9AEFBD8F40CF1D8F8F8ADB3
:1057600019D9AEFBDFD8F416F1D8F8AD8D61D9F4B4
:10577000F4ACF59C9C8DDF2BBAB6AEFAF8F40BD8DE
:10578000F1AED0F8AD51DAAEFAF8F1D8B9B1B6A3AE
:10579000839C08B9B1839AB5AAC0FD3083B79F1026
:1057A000B58B93F20202D1ABDADED8F1B080BAAB9E
:1057B000C0C3B284C1C3D8B1B9F38BA391B609B445
:1057C000D9ABDEB0879CB9A3DDF1B38B8B8B8B8B10
:1057D000B087A3A3A3A3B28BB69BF2A3A3A3A3A357
:1057E000A3A3A3A3A3F1B087B59AA3F39BA3A3DCC0
:1057F000BAACDFB9A3A3A3A3A3A3A3A3A3A3A3A307
:10580000A3A3A3A3D8D8D8BBB3B7F1AAF9DAFFD919
:10581000809AAA28B48098A720B79787A86688F0AE
:105820007951F1902C870CA781976293F071716088
:1058300085940129517990A5F1284C6C870C951815
:105840008578A38390284C6C886CD8F3A28200F2F0
:1058500010A8921980A2F2D926D8F188A84DD9486B
:10586000D896A83980D93CD89580A839A68698D9E9
:105870002CDA87A72CD8A8899519A980D938D8A857
:105880008939A980DA3CD8A82EA83990D90CD8A893
:10589000953198D90CD8A809D9FFD801DAFFD89545
:1058A00039A9DA26FFD890A80D8999A810809821E7
:1058B000DA2ED88999A83180DA2ED8A88696318038
:1058C000DA2ED8A8873180DA2ED8A88292F34180C8
:1058D000F1D92ED8A882F31980F1D92ED882ACF351
:1058E000C0A28022F1A62EA72EA92298A829DAAC60
:1058F000DEFFD8A2F22AF1A92E8292A8F23180A668
:1059000096F1D900AC8C9C0C30ACDED0DEFFD88C8C
:105910009CACD010ACDE8092A2F24C82A8F1CAF20C
:1059200035F19688A6D900D8F1FF000000000000EC
:10593000555555555555C53F7D6FEB0312D6D4BF10
:105940005544880E55C1C93F3B8F68B52882A4BF16
:1059500088B20175E0EF493F09F7FD0DE13D023FD7
:105960004B2D8A1C273A03C0C88A599CE52A00405F
:1059700059018D1B6C06E6BF82922EB1C5B8B33FAC
:105980004FBB610567ACDD3F182D4454FB21E93F57
:105990009BF681D20B73EF3F182D4454FB21F93F46
:1059A000E2652F227F2B7A3C075C143326A6813CCC
:1059B000BDCBF07A8807703C075C143326A6913C77
:1059C000C4EB98999999C9BF711623FEC671BCBFE3
:1059D0006D9A74AFF2B0B3BF9AFDDE522DDEADBF4B
:1059E0002F6C6A2C44B4A2BF0D5555555555D53F63
:1059F000FF8300922449C23F6E204CC5CD45B73F7E
:105A0000513DD0A0660DB13FEB0D76244B7BA93FF5
:105A100011DA22E33AAD903F0000000000000000E0
:105A200050726F647563742049442072656164200C
:105A30006173203020696E646963617465732064EA
:105A4000657669636520697320656974686572208D
:105A5000696E636F6D70617469626C65206F72202E
:105A6000616E204D5055333035302E0D0A00000048
:105A7000905A0008000000207C00000094270008D5
:105A80000C5B00087C00002064050000A4270008CF
:105A900001000000100000000000000000127A0069
:105AA000EE4C0008E24C000800000000000000007E
:105AB00000000000000000000000000000000000E6
:105AC00000000000000000000C4D00080000000075
:105AD0000000803F00000000000000000000000007
